{
  "_format": "hh-sol-artifact-1",
  "contractName": "TokenExchange",
  "sourceName": "contracts/exchange.sol",
  "abi": [
    {
      "inputs": [],
      "stateMutability": "nonpayable",
      "type": "constructor"
    },
    {
      "anonymous": false,
      "inputs": [
        {
          "indexed": true,
          "internalType": "address",
          "name": "previousOwner",
          "type": "address"
        },
        {
          "indexed": true,
          "internalType": "address",
          "name": "newOwner",
          "type": "address"
        }
      ],
      "name": "OwnershipTransferred",
      "type": "event"
    },
    {
      "inputs": [
        {
          "internalType": "uint256",
          "name": "maxExchangeRate",
          "type": "uint256"
        },
        {
          "internalType": "uint256",
          "name": "minExchangeRate",
          "type": "uint256"
        }
      ],
      "name": "addLiquidity",
      "outputs": [],
      "stateMutability": "payable",
      "type": "function"
    },
    {
      "inputs": [
        {
          "internalType": "uint256",
          "name": "amountTokens",
          "type": "uint256"
        }
      ],
      "name": "createPool",
      "outputs": [],
      "stateMutability": "payable",
      "type": "function"
    },
    {
      "inputs": [],
      "name": "ethToTokenRate",
      "outputs": [
        {
          "internalType": "uint256",
          "name": "",
          "type": "uint256"
        }
      ],
      "stateMutability": "view",
      "type": "function"
    },
    {
      "inputs": [],
      "name": "exchange_name",
      "outputs": [
        {
          "internalType": "string",
          "name": "",
          "type": "string"
        }
      ],
      "stateMutability": "view",
      "type": "function"
    },
    {
      "inputs": [
        {
          "internalType": "uint256",
          "name": "ethAmt",
          "type": "uint256"
        }
      ],
      "name": "findAmtShares",
      "outputs": [
        {
          "internalType": "uint256",
          "name": "",
          "type": "uint256"
        }
      ],
      "stateMutability": "view",
      "type": "function"
    },
    {
      "inputs": [],
      "name": "getSwapFee",
      "outputs": [
        {
          "internalType": "uint256",
          "name": "",
          "type": "uint256"
        },
        {
          "internalType": "uint256",
          "name": "",
          "type": "uint256"
        }
      ],
      "stateMutability": "view",
      "type": "function"
    },
    {
      "inputs": [],
      "name": "owner",
      "outputs": [
        {
          "internalType": "address",
          "name": "",
          "type": "address"
        }
      ],
      "stateMutability": "view",
      "type": "function"
    },
    {
      "inputs": [],
      "name": "print_lps",
      "outputs": [
        {
          "internalType": "bool",
          "name": "",
          "type": "bool"
        }
      ],
      "stateMutability": "view",
      "type": "function"
    },
    {
      "inputs": [
        {
          "internalType": "uint256",
          "name": "maxExchangeRate",
          "type": "uint256"
        },
        {
          "internalType": "uint256",
          "name": "minExchangeRate",
          "type": "uint256"
        }
      ],
      "name": "removeAllLiquidity",
      "outputs": [],
      "stateMutability": "payable",
      "type": "function"
    },
    {
      "inputs": [
        {
          "internalType": "uint256",
          "name": "amountETH",
          "type": "uint256"
        },
        {
          "internalType": "uint256",
          "name": "maxExchangeRate",
          "type": "uint256"
        },
        {
          "internalType": "uint256",
          "name": "minExchangeRate",
          "type": "uint256"
        }
      ],
      "name": "removeLiquidity",
      "outputs": [],
      "stateMutability": "payable",
      "type": "function"
    },
    {
      "inputs": [],
      "name": "renounceOwnership",
      "outputs": [],
      "stateMutability": "nonpayable",
      "type": "function"
    },
    {
      "inputs": [
        {
          "internalType": "uint256",
          "name": "maxExchangeRate",
          "type": "uint256"
        }
      ],
      "name": "swapETHForTokens",
      "outputs": [],
      "stateMutability": "payable",
      "type": "function"
    },
    {
      "inputs": [
        {
          "internalType": "uint256",
          "name": "amountTokens",
          "type": "uint256"
        },
        {
          "internalType": "uint256",
          "name": "minEthTokenExchangeRate",
          "type": "uint256"
        }
      ],
      "name": "swapTokensForETH",
      "outputs": [],
      "stateMutability": "payable",
      "type": "function"
    },
    {
      "inputs": [],
      "name": "token",
      "outputs": [
        {
          "internalType": "contract Token",
          "name": "",
          "type": "address"
        }
      ],
      "stateMutability": "view",
      "type": "function"
    },
    {
      "inputs": [
        {
          "internalType": "address",
          "name": "newOwner",
          "type": "address"
        }
      ],
      "name": "transferOwnership",
      "outputs": [],
      "stateMutability": "nonpayable",
      "type": "function"
    }
  ],
  "bytecode": "0x6080604052604051806020016040528060008152506001908162000024919062000489565b50735fbdb2315678afecb367f032d93f642f64180aa3600260006101000a81548173ffffffffffffffffffffffffffffffffffffffff021916908373ffffffffffffffffffffffffffffffffffffffff160217905550600260009054906101000a900473ffffffffffffffffffffffffffffffffffffffff16600360006101000a81548173ffffffffffffffffffffffffffffffffffffffff021916908373ffffffffffffffffffffffffffffffffffffffff16021790555060006004556000600555600060065560006007556000600a556003600b556064600c55620186a0600e556305f5e100600f553480156200011c57600080fd5b506200013d620001316200014360201b60201c565b6200014b60201b60201c565b62000570565b600033905090565b60008060009054906101000a900473ffffffffffffffffffffffffffffffffffffffff169050816000806101000a81548173ffffffffffffffffffffffffffffffffffffffff021916908373ffffffffffffffffffffffffffffffffffffffff1602179055508173ffffffffffffffffffffffffffffffffffffffff168173ffffffffffffffffffffffffffffffffffffffff167f8be0079c531659141344cd1fd0a4f28419497f9722a3daafe3b4186f6b6457e060405160405180910390a35050565b600081519050919050565b7f4e487b7100000000000000000000000000000000000000000000000000000000600052604160045260246000fd5b7f4e487b7100000000000000000000000000000000000000000000000000000000600052602260045260246000fd5b600060028204905060018216806200029157607f821691505b602082108103620002a757620002a662000249565b5b50919050565b60008190508160005260206000209050919050565b60006020601f8301049050919050565b600082821b905092915050565b600060088302620003117fffffffffffffffffffffffffffffffffffffffffffffffffffffffffffffffff82620002d2565b6200031d8683620002d2565b95508019841693508086168417925050509392505050565b6000819050919050565b6000819050919050565b60006200036a620003646200035e8462000335565b6200033f565b62000335565b9050919050565b6000819050919050565b620003868362000349565b6200039e620003958262000371565b848454620002df565b825550505050565b600090565b620003b5620003a6565b620003c28184846200037b565b505050565b5b81811015620003ea57620003de600082620003ab565b600181019050620003c8565b5050565b601f82111562000439576200040381620002ad565b6200040e84620002c2565b810160208510156200041e578190505b620004366200042d85620002c2565b830182620003c7565b50505b505050565b600082821c905092915050565b60006200045e600019846008026200043e565b1980831691505092915050565b60006200047983836200044b565b9150826002028217905092915050565b62000494826200020f565b67ffffffffffffffff811115620004b057620004af6200021a565b5b620004bc825462000278565b620004c9828285620003ee565b600060209050601f831160018114620005015760008415620004ec578287015190505b620004f885826200046b565b86555062000568565b601f1984166200051186620002ad565b60005b828110156200053b5784890151825560018201915060208501945060208101905062000514565b868310156200055b578489015162000557601f8916826200044b565b8355505b6001600288020188555050505b505050505050565b6144d180620005806000396000f3fe6080604052600436106100e85760003560e01c8063a22280a61161008a578063e09adc7011610059578063e09adc701461026b578063f2fde38b14610296578063f694f7d1146102bf578063fc0c546a146102ea576100e8565b8063a22280a6146101bb578063a65540fb146101d7578063b09bbcbc14610214578063d4cadf681461023f576100e8565b80638259e6a0116100c65780638259e6a01461013c578063857620e1146101585780638da5cb5b146101745780639cd441da1461019f576100e8565b80632eab2841146100ed57806358ad6de414610109578063715018a614610125575b600080fd5b610107600480360381019061010291906130af565b610315565b005b610123600480360381019061011e91906130dc565b610738565b005b34801561013157600080fd5b5061013a610d77565b005b610156600480360381019061015191906130af565b610d8b565b005b610172600480360381019061016d919061311c565b611144565b005b34801561018057600080fd5b506101896118d8565b60405161019691906131b0565b60405180910390f35b6101b960048036038101906101b491906130dc565b611901565b005b6101d560048036038101906101d091906130dc565b612099565b005b3480156101e357600080fd5b506101fe60048036038101906101f991906130af565b612622565b60405161020b91906131da565b60405180910390f35b34801561022057600080fd5b5061022961264b565b6040516102369190613210565b60405180910390f35b34801561024b57600080fd5b506102546129b9565b60405161026292919061322b565b60405180910390f35b34801561027757600080fd5b506102806129ca565b60405161028d91906131da565b60405180910390f35b3480156102a257600080fd5b506102bd60048036038101906102b89190613280565b6129f3565b005b3480156102cb57600080fd5b506102d4612a76565b6040516102e1919061333d565b60405180910390f35b3480156102f657600080fd5b506102ff612b04565b60405161030c91906133be565b60405180910390f35b60003411610358576040517f08c379a000000000000000000000000000000000000000000000000000000000815260040161034f9061344b565b60405180910390fd5b60006103626129ca565b905081600f5482610373919061349a565b11156103b4576040517f08c379a00000000000000000000000000000000000000000000000000000000081526004016103ab90613540565b60405180910390fd5b60003490506000600c5482600b546103cc9190613560565b6103d691906135d1565b9050600081836103e6919061349a565b6005546103f39190613602565b600d5461040091906135d1565b60045461040d919061349a565b905060008111610452576040517f08c379a0000000000000000000000000000000000000000000000000000000008152600401610449906136a8565b60405180910390fd5b600654600454610462919061349a565b81106104a3576040517f08c379a000000000000000000000000000000000000000000000000000000000815260040161049a9061373a565b60405180910390fd5b6104e26040518060400160405280601081526020017f414d4f554e5420464545204554483a200000000000000000000000000000000081525083612b2a565b600360009054906101000a900473ffffffffffffffffffffffffffffffffffffffff1673ffffffffffffffffffffffffffffffffffffffff1663a9059cbb33836040518363ffffffff1660e01b815260040161053f92919061375a565b6020604051808303816000875af115801561055e573d6000803e3d6000fd5b505050506040513d601f19601f8201168201806040525081019061058291906137af565b5060005b600980549050811015610665576000600982815481106105a9576105a86137dc565b5b9060005260206000200160009054906101000a900473ffffffffffffffffffffffffffffffffffffffff1690506000600860008373ffffffffffffffffffffffffffffffffffffffff1673ffffffffffffffffffffffffffffffffffffffff1681526020019081526020016000209050600a5485826000015461062c9190613560565b61063691906135d1565b8160010160008282546106499190613602565b925050819055505050808061065d9061380b565b915050610586565b50600360009054906101000a900473ffffffffffffffffffffffffffffffffffffffff1673ffffffffffffffffffffffffffffffffffffffff166370a08231306040518263ffffffff1660e01b81526004016106c191906131b0565b602060405180830381865afa1580156106de573d6000803e3d6000fd5b505050506040513d601f19601f820116820180604052508101906107029190613868565b6004819055504760058190555081600760008282546107219190613602565b9250508190555061073061264b565b505050505050565b60006107426129ca565b905082600f5482610753919061349a565b1115610794576040517f08c379a000000000000000000000000000000000000000000000000000000000815260040161078b90613907565b60405180910390fd5b81600f54826107a39190613602565b10156107e4576040517f08c379a00000000000000000000000000000000000000000000000000000000081526004016107db90613999565b60405180910390fd5b6000600860003373ffffffffffffffffffffffffffffffffffffffff1673ffffffffffffffffffffffffffffffffffffffff16815260200190815260200160002090506000600a548260000154600e5461083e9190613560565b61084891906135d1565b90506000600e5460075460055461085f919061349a565b8361086a9190613560565b61087491906135d1565b90506000600e5460065460045461088b919061349a565b846108969190613560565b6108a091906135d1565b90506007546005546108b2919061349a565b82106108f3576040517f08c379a00000000000000000000000000000000000000000000000000000000081526004016108ea90613a2b565b60405180910390fd5b600654600454610903919061349a565b8110610944576040517f08c379a000000000000000000000000000000000000000000000000000000000815260040161093b90613a2b565b60405180910390fd5b6109876040518060400160405280600a81526020017f45544820464545533a20000000000000000000000000000000000000000000008152508560010154612b2a565b6109d76040518060400160405280600c81526020017f544f4b454e20464545533a200000000000000000000000000000000000000000815250600e5486600201546109d291906135d1565b612b2a565b3373ffffffffffffffffffffffffffffffffffffffff166108fc856001015484610a019190613602565b9081150290604051600060405180830381858888f19350505050158015610a2c573d6000803e3d6000fd5b50600360009054906101000a900473ffffffffffffffffffffffffffffffffffffffff1673ffffffffffffffffffffffffffffffffffffffff1663a9059cbb33600e548760020154610a7e91906135d1565b84610a899190613602565b6040518363ffffffff1660e01b8152600401610aa692919061375a565b6020604051808303816000875af1158015610ac5573d6000803e3d6000fd5b505050506040513d601f19601f82011682018060405250810190610ae991906137af565b508360000154600a6000828254610b00919061349a565b92505081905550836001015460076000828254610b1d919061349a565b92505081905550600e548460020154610b3691906135d1565b60066000828254610b47919061349a565b9250508190555060008460000181905550600084600101819055506000846002018190555060005b600980549050811015610c0e573373ffffffffffffffffffffffffffffffffffffffff1660098281548110610ba757610ba66137dc565b5b9060005260206000200160009054906101000a900473ffffffffffffffffffffffffffffffffffffffff1673ffffffffffffffffffffffffffffffffffffffff1603610bfb57610bf681612bc6565b610c0e565b8080610c069061380b565b915050610b6f565b5047600581905550600360009054906101000a900473ffffffffffffffffffffffffffffffffffffffff1673ffffffffffffffffffffffffffffffffffffffff166370a08231306040518263ffffffff1660e01b8152600401610c7191906131b0565b602060405180830381865afa158015610c8e573d6000803e3d6000fd5b505050506040513d601f19601f82011682018060405250810190610cb29190613868565b600481905550600360009054906101000a900473ffffffffffffffffffffffffffffffffffffffff1673ffffffffffffffffffffffffffffffffffffffff166370a08231306040518263ffffffff1660e01b8152600401610d1391906131b0565b602060405180830381865afa158015610d30573d6000803e3d6000fd5b505050506040513d601f19601f82011682018060405250810190610d549190613868565b47610d5f9190613560565b600d81905550610d6d61264b565b5050505050505050565b610d7f612d03565b610d896000612d81565b565b610d93612d03565b600060045414610dd8576040517f08c379a0000000000000000000000000000000000000000000000000000000008152600401610dcf90613a97565b60405180910390fd5b600060055414610e1d576040517f08c379a0000000000000000000000000000000000000000000000000000000008152600401610e1490613b03565b60405180910390fd5b60003411610e60576040517f08c379a0000000000000000000000000000000000000000000000000000000008152600401610e5790613b6f565b60405180910390fd5b6000600360009054906101000a900473ffffffffffffffffffffffffffffffffffffffff1673ffffffffffffffffffffffffffffffffffffffff166370a08231336040518263ffffffff1660e01b8152600401610ebd91906131b0565b602060405180830381865afa158015610eda573d6000803e3d6000fd5b505050506040513d601f19601f82011682018060405250810190610efe9190613868565b905080821115610f43576040517f08c379a0000000000000000000000000000000000000000000000000000000008152600401610f3a90613c01565b60405180910390fd5b60008211610f86576040517f08c379a0000000000000000000000000000000000000000000000000000000008152600401610f7d90613c6d565b60405180910390fd5b600360009054906101000a900473ffffffffffffffffffffffffffffffffffffffff1673ffffffffffffffffffffffffffffffffffffffff166323b872dd3330856040518463ffffffff1660e01b8152600401610fe593929190613c8d565b6020604051808303816000875af1158015611004573d6000803e3d6000fd5b505050506040513d601f19601f8201168201806040525081019061102891906137af565b50600360009054906101000a900473ffffffffffffffffffffffffffffffffffffffff1673ffffffffffffffffffffffffffffffffffffffff166370a08231306040518263ffffffff1660e01b815260040161108491906131b0565b602060405180830381865afa1580156110a1573d6000803e3d6000fd5b505050506040513d601f19601f820116820180604052508101906110c59190613868565b600481905550346005819055506005546004546110e29190613560565b600d81905550620186a0600a819055506000600860003373ffffffffffffffffffffffffffffffffffffffff1673ffffffffffffffffffffffffffffffffffffffff168152602001908152602001600020905060648160000181905550505050565b60008311611187576040517f08c379a000000000000000000000000000000000000000000000000000000000815260040161117e90613d10565b60405180910390fd5b60055483106111cb576040517f08c379a00000000000000000000000000000000000000000000000000000000081526004016111c290613da2565b60405180910390fd5b6000600554846006546004546111e1919061349a565b6111eb9190613560565b6111f591906135d1565b9050600654600454611207919061349a565b8110611248576040517f08c379a000000000000000000000000000000000000000000000000000000000815260040161123f90613e34565b60405180910390fd5b60006112526129ca565b905083600f5482611263919061349a565b11156112a4576040517f08c379a000000000000000000000000000000000000000000000000000000000815260040161129b90613907565b60405180910390fd5b82600f54826112b39190613602565b10156112f4576040517f08c379a00000000000000000000000000000000000000000000000000000000081526004016112eb90613999565b60405180910390fd5b6000600860003373ffffffffffffffffffffffffffffffffffffffff1673ffffffffffffffffffffffffffffffffffffffff16815260200190815260200160002090506000600a54600e54836000015461134e9190613560565b61135891906135d1565b90506000600554600e548961136d9190613560565b61137791906135d1565b9050808210156113bc576040517f08c379a00000000000000000000000000000000000000000000000000000000081526004016113b390613ea0565b60405180910390fd5b60006113c789612622565b90508360000154811115611410576040517f08c379a000000000000000000000000000000000000000000000000000000000815260040161140790613f32565b60405180910390fd5b600084600001548560010154836114279190613560565b61143191906135d1565b905060008560000154600e54876002015461144c91906135d1565b846114579190613560565b61146191906135d1565b90506114a26040518060400160405280600d81526020017f45544820524557415244533a200000000000000000000000000000000000000081525083612b2a565b6114e16040518060400160405280600f81526020017f544f4b454e20524557415244533a20000000000000000000000000000000000081525082612b2a565b3373ffffffffffffffffffffffffffffffffffffffff166108fc838d6115079190613602565b9081150290604051600060405180830381858888f19350505050158015611532573d6000803e3d6000fd5b50600360009054906101000a900473ffffffffffffffffffffffffffffffffffffffff1673ffffffffffffffffffffffffffffffffffffffff1663a9059cbb33838b61157e9190613602565b6040518363ffffffff1660e01b815260040161159b92919061375a565b6020604051808303816000875af11580156115ba573d6000803e3d6000fd5b505050506040513d601f19601f820116820180604052508101906115de91906137af565b5085600001548660020154846115f49190613560565b6115fe91906135d1565b866002016000828254611611919061349a565b925050819055508286600001600082825461162c919061349a565b9250508190555081866001016000828254611647919061349a565b9250508190555082600a6000828254611660919061349a565b925050819055508160076000828254611679919061349a565b925050819055508060066000828254611692919061349a565b9250508190555060008060008860000154036116ad57600191505b60005b600980549050811015611745573373ffffffffffffffffffffffffffffffffffffffff16600982815481106116e8576116e76137dc565b5b9060005260206000200160009054906101000a900473ffffffffffffffffffffffffffffffffffffffff1673ffffffffffffffffffffffffffffffffffffffff1603611732578091505b808061173d9061380b565b9150506116b0565b50811561176a57600088600101819055506000886002018190555061176981612bc6565b5b47600581905550600360009054906101000a900473ffffffffffffffffffffffffffffffffffffffff1673ffffffffffffffffffffffffffffffffffffffff166370a08231306040518263ffffffff1660e01b81526004016117cc91906131b0565b602060405180830381865afa1580156117e9573d6000803e3d6000fd5b505050506040513d601f19601f8201168201806040525081019061180d9190613868565b600481905550600360009054906101000a900473ffffffffffffffffffffffffffffffffffffffff1673ffffffffffffffffffffffffffffffffffffffff166370a08231306040518263ffffffff1660e01b815260040161186e91906131b0565b602060405180830381865afa15801561188b573d6000803e3d6000fd5b505050506040513d601f19601f820116820180604052508101906118af9190613868565b476118ba9190613560565b600d819055506118c861264b565b5050505050505050505050505050565b60008060009054906101000a900473ffffffffffffffffffffffffffffffffffffffff16905090565b60003411611944576040517f08c379a000000000000000000000000000000000000000000000000000000000815260040161193b90613d10565b60405180910390fd5b6000600554600454346119579190613560565b61196191906135d1565b905080600360009054906101000a900473ffffffffffffffffffffffffffffffffffffffff1673ffffffffffffffffffffffffffffffffffffffff166370a08231336040518263ffffffff1660e01b81526004016119bf91906131b0565b602060405180830381865afa1580156119dc573d6000803e3d6000fd5b505050506040513d601f19601f82011682018060405250810190611a009190613868565b1015611a41576040517f08c379a0000000000000000000000000000000000000000000000000000000008152600401611a3890613fc4565b60405180910390fd5b6000611a4b6129ca565b905083600f5482611a5c919061349a565b1115611a9d576040517f08c379a0000000000000000000000000000000000000000000000000000000008152600401611a9490613907565b60405180910390fd5b82600f5482611aac9190613602565b1015611aed576040517f08c379a0000000000000000000000000000000000000000000000000000000008152600401611ae490613999565b60405180910390fd5b611b2c6040518060400160405280601281526020017f414444494e47204c49515549444954593a20000000000000000000000000000081525033612e45565b611b6b6040518060400160405280600c81526020017f45544820414444494e473a20000000000000000000000000000000000000000081525034612b2a565b611baa6040518060400160405280600e81526020017f544f4b454e5320414444494e473a00000000000000000000000000000000000081525083612b2a565b600360009054906101000a900473ffffffffffffffffffffffffffffffffffffffff1673ffffffffffffffffffffffffffffffffffffffff166323b872dd3330856040518463ffffffff1660e01b8152600401611c0993929190613c8d565b6020604051808303816000875af1158015611c28573d6000803e3d6000fd5b505050506040513d601f19601f82011682018060405250810190611c4c91906137af565b50611c8c6040518060400160405280600e81526020017f434f4e5452414354204554483a2000000000000000000000000000000000000081525047612b2a565b611d666040518060400160405280601181526020017f434f4e545241435420544f4b454e533a20000000000000000000000000000000815250600360009054906101000a900473ffffffffffffffffffffffffffffffffffffffff1673ffffffffffffffffffffffffffffffffffffffff166370a08231306040518263ffffffff1660e01b8152600401611d2091906131b0565b602060405180830381865afa158015611d3d573d6000803e3d6000fd5b505050506040513d601f19601f82011682018060405250810190611d619190613868565b612b2a565b6000600860003373ffffffffffffffffffffffffffffffffffffffff1673ffffffffffffffffffffffffffffffffffffffff16815260200190815260200160002090506000611db434612622565b905080600a6000828254611dc89190613602565b9250508190555080826000016000828254611de39190613602565b92505081905550611e296040518060400160405280600e81526020017f5348415245532041444445443a2000000000000000000000000000000000000081525082612b2a565b47600581905550600360009054906101000a900473ffffffffffffffffffffffffffffffffffffffff1673ffffffffffffffffffffffffffffffffffffffff166370a08231306040518263ffffffff1660e01b8152600401611e8b91906131b0565b602060405180830381865afa158015611ea8573d6000803e3d6000fd5b505050506040513d601f19601f82011682018060405250810190611ecc9190613868565b600481905550600360009054906101000a900473ffffffffffffffffffffffffffffffffffffffff1673ffffffffffffffffffffffffffffffffffffffff166370a08231306040518263ffffffff1660e01b8152600401611f2d91906131b0565b602060405180830381865afa158015611f4a573d6000803e3d6000fd5b505050506040513d601f19601f82011682018060405250810190611f6e9190613868565b47611f799190613560565b600d819055506000805b60098054905081101561201d573373ffffffffffffffffffffffffffffffffffffffff1660098281548110611fbb57611fba6137dc565b5b9060005260206000200160009054906101000a900473ffffffffffffffffffffffffffffffffffffffff1673ffffffffffffffffffffffffffffffffffffffff160361200a576001915061201d565b80806120159061380b565b915050611f83565b5080612087576009339080600181540180825580915050600190039060005260206000200160009091909190916101000a81548173ffffffffffffffffffffffffffffffffffffffff021916908373ffffffffffffffffffffffffffffffffffffffff1602179055505b61208f61264b565b5050505050505050565b600082116120dc576040517f08c379a00000000000000000000000000000000000000000000000000000000081526004016120d390614056565b60405180910390fd5b600360009054906101000a900473ffffffffffffffffffffffffffffffffffffffff1673ffffffffffffffffffffffffffffffffffffffff166370a08231336040518263ffffffff1660e01b815260040161213791906131b0565b602060405180830381865afa158015612154573d6000803e3d6000fd5b505050506040513d601f19601f820116820180604052508101906121789190613868565b8211156121ba576040517f08c379a00000000000000000000000000000000000000000000000000000000081526004016121b1906140e8565b60405180910390fd5b60006121c46129ca565b905081600f54826121d59190613602565b1015612216576040517f08c379a000000000000000000000000000000000000000000000000000000000815260040161220d90613540565b60405180910390fd5b6000600c5484600b546122299190613560565b61223391906135d1565b905060008185612243919061349a565b6004546122509190613602565b600d5461225d91906135d1565b60055461226a919061349a565b905060075460055461227c919061349a565b81106122bd576040517f08c379a00000000000000000000000000000000000000000000000000000000081526004016122b49061417a565b60405180910390fd5b6122fc6040518060400160405280601381526020017f414d4f554e542046454520544f4b454e533a200000000000000000000000000081525082612b2a565b600360009054906101000a900473ffffffffffffffffffffffffffffffffffffffff1673ffffffffffffffffffffffffffffffffffffffff166323b872dd3330886040518463ffffffff1660e01b815260040161235b93929190613c8d565b6020604051808303816000875af115801561237a573d6000803e3d6000fd5b505050506040513d601f19601f8201168201806040525081019061239e91906137af565b503373ffffffffffffffffffffffffffffffffffffffff166108fc829081150290604051600060405180830381858888f193505050501580156123e5573d6000803e3d6000fd5b5060005b60098054905081101561254f5760006009828154811061240c5761240b6137dc565b5b9060005260206000200160009054906101000a900473ffffffffffffffffffffffffffffffffffffffff1690506000600860008373ffffffffffffffffffffffffffffffffffffffff1673ffffffffffffffffffffffffffffffffffffffff1681526020019081526020016000209050600a54600e548683600001546124929190613560565b61249c9190613560565b6124a691906135d1565b8160020160008282546124b99190613602565b9250508190555061253a6040518060400160405280601781526020017f4163637275656420746f6b656e206665657320666f7220000000000000000000815250836040518060400160405280600281526020017f3a200000000000000000000000000000000000000000000000000000000000008152508460020154612ee1565b505080806125479061380b565b9150506123e9565b50600360009054906101000a900473ffffffffffffffffffffffffffffffffffffffff1673ffffffffffffffffffffffffffffffffffffffff166370a08231306040518263ffffffff1660e01b81526004016125ab91906131b0565b602060405180830381865afa1580156125c8573d6000803e3d6000fd5b505050506040513d601f19601f820116820180604052508101906125ec9190613868565b60048190555047600581905550816006600082825461260b9190613602565b9250508190555061261a61264b565b505050505050565b600080600554600a54846126369190613560565b61264091906135d1565b905080915050919050565b600061266560405180602001604052806000815250612f83565b6126a36040518060400160405280600381526020017f4c50530000000000000000000000000000000000000000000000000000000000815250612f83565b6126bb60405180602001604052806000815250612f83565b6126fc6040518060400160405280601081526020017f746f74616c2065746820666565733a2000000000000000000000000000000000815250600754612b2a565b61273d6040518060400160405280601281526020017f746f74616c20746f6b656e20666565733a200000000000000000000000000000815250600654612b2a565b60005b6009805490508110156129405761276560405180602001604052806000815250612f83565b6000600860006009848154811061277f5761277e6137dc565b5b9060005260206000200160009054906101000a900473ffffffffffffffffffffffffffffffffffffffff1673ffffffffffffffffffffffffffffffffffffffff1673ffffffffffffffffffffffffffffffffffffffff16815260200190815260200160002090506128636040518060400160405280600d81526020017f6c705f70726f76696465723a200000000000000000000000000000000000000081525060098481548110612833576128326137dc565b5b9060005260206000200160009054906101000a900473ffffffffffffffffffffffffffffffffffffffff16612e45565b6128a66040518060400160405280600881526020017f7368617265733a200000000000000000000000000000000000000000000000008152508260000154612b2a565b6128e96040518060400160405280600a81526020017f6574685f666565733a20000000000000000000000000000000000000000000008152508260010154612b2a565b61292c6040518060400160405280601681526020017f746f6b656e5f666565732028746f2031305e35293a20000000000000000000008152508260020154612b2a565b5080806129389061380b565b915050612740565b5061295960405180602001604052806000815250612f83565b61299a6040518060400160405280600e81526020017f746f74616c207368617265733a20000000000000000000000000000000000000815250600a54612b2a565b6129b260405180602001604052806000815250612f83565b6001905090565b600080600b54600c54915091509091565b600080600454600e546005546129e09190613560565b6129ea91906135d1565b90508091505090565b6129fb612d03565b600073ffffffffffffffffffffffffffffffffffffffff168173ffffffffffffffffffffffffffffffffffffffff1603612a6a576040517f08c379a0000000000000000000000000000000000000000000000000000000008152600401612a619061420c565b60405180910390fd5b612a7381612d81565b50565b60018054612a839061425b565b80601f0160208091040260200160405190810160405280929190818152602001828054612aaf9061425b565b8015612afc5780601f10612ad157610100808354040283529160200191612afc565b820191906000526020600020905b815481529060010190602001808311612adf57829003601f168201915b505050505081565b600360009054906101000a900473ffffffffffffffffffffffffffffffffffffffff1681565b612bc28282604051602401612b4092919061428c565b6040516020818303038152906040527fb60e72cc000000000000000000000000000000000000000000000000000000007bffffffffffffffffffffffffffffffffffffffffffffffffffffffff19166020820180517bffffffffffffffffffffffffffffffffffffffffffffffffffffffff838183161783525050505061301c565b5050565b6009805490508110612c0d576040517f08c379a0000000000000000000000000000000000000000000000000000000008152600401612c049061432e565b60405180910390fd5b60096001600980549050612c21919061349a565b81548110612c3257612c316137dc565b5b9060005260206000200160009054906101000a900473ffffffffffffffffffffffffffffffffffffffff1660098281548110612c7157612c706137dc565b5b9060005260206000200160006101000a81548173ffffffffffffffffffffffffffffffffffffffff021916908373ffffffffffffffffffffffffffffffffffffffff1602179055506009805480612ccb57612cca61434e565b5b6001900381819060005260206000200160006101000a81549073ffffffffffffffffffffffffffffffffffffffff0219169055905550565b612d0b613036565b73ffffffffffffffffffffffffffffffffffffffff16612d296118d8565b73ffffffffffffffffffffffffffffffffffffffff1614612d7f576040517f08c379a0000000000000000000000000000000000000000000000000000000008152600401612d76906143c9565b60405180910390fd5b565b60008060009054906101000a900473ffffffffffffffffffffffffffffffffffffffff169050816000806101000a81548173ffffffffffffffffffffffffffffffffffffffff021916908373ffffffffffffffffffffffffffffffffffffffff1602179055508173ffffffffffffffffffffffffffffffffffffffff168173ffffffffffffffffffffffffffffffffffffffff167f8be0079c531659141344cd1fd0a4f28419497f9722a3daafe3b4186f6b6457e060405160405180910390a35050565b612edd8282604051602401612e5b9291906143e9565b6040516020818303038152906040527f319af333000000000000000000000000000000000000000000000000000000007bffffffffffffffffffffffffffffffffffffffffffffffffffffffff19166020820180517bffffffffffffffffffffffffffffffffffffffffffffffffffffffff838183161783525050505061301c565b5050565b612f7d84848484604051602401612efb9493929190614419565b6040516020818303038152906040527f91d1112e000000000000000000000000000000000000000000000000000000007bffffffffffffffffffffffffffffffffffffffffffffffffffffffff19166020820180517bffffffffffffffffffffffffffffffffffffffffffffffffffffffff838183161783525050505061301c565b50505050565b61301981604051602401612f97919061333d565b6040516020818303038152906040527f41304fac000000000000000000000000000000000000000000000000000000007bffffffffffffffffffffffffffffffffffffffffffffffffffffffff19166020820180517bffffffffffffffffffffffffffffffffffffffffffffffffffffffff838183161783525050505061301c565b50565b6130338161302b61303e61305f565b63ffffffff16565b50565b600033905090565b60006a636f6e736f6c652e6c6f679050600080835160208501845afa505050565b61306a819050919050565b61307261446c565b565b600080fd5b6000819050919050565b61308c81613079565b811461309757600080fd5b50565b6000813590506130a981613083565b92915050565b6000602082840312156130c5576130c4613074565b5b60006130d38482850161309a565b91505092915050565b600080604083850312156130f3576130f2613074565b5b60006131018582860161309a565b92505060206131128582860161309a565b9150509250929050565b60008060006060848603121561313557613134613074565b5b60006131438682870161309a565b93505060206131548682870161309a565b92505060406131658682870161309a565b9150509250925092565b600073ffffffffffffffffffffffffffffffffffffffff82169050919050565b600061319a8261316f565b9050919050565b6131aa8161318f565b82525050565b60006020820190506131c560008301846131a1565b92915050565b6131d481613079565b82525050565b60006020820190506131ef60008301846131cb565b92915050565b60008115159050919050565b61320a816131f5565b82525050565b60006020820190506132256000830184613201565b92915050565b600060408201905061324060008301856131cb565b61324d60208301846131cb565b9392505050565b61325d8161318f565b811461326857600080fd5b50565b60008135905061327a81613254565b92915050565b60006020828403121561329657613295613074565b5b60006132a48482850161326b565b91505092915050565b600081519050919050565b600082825260208201905092915050565b60005b838110156132e75780820151818401526020810190506132cc565b60008484015250505050565b6000601f19601f8301169050919050565b600061330f826132ad565b61331981856132b8565b93506133298185602086016132c9565b613332816132f3565b840191505092915050565b600060208201905081810360008301526133578184613304565b905092915050565b6000819050919050565b600061338461337f61337a8461316f565b61335f565b61316f565b9050919050565b600061339682613369565b9050919050565b60006133a88261338b565b9050919050565b6133b88161339d565b82525050565b60006020820190506133d360008301846133af565b92915050565b7f43616e6e6f7420737761702061206e6567617469766520616d6f756e74206f6660008201527f2045544800000000000000000000000000000000000000000000000000000000602082015250565b60006134356024836132b8565b9150613440826133d9565b604082019050919050565b6000602082019050818103600083015261346481613428565b9050919050565b7f4e487b7100000000000000000000000000000000000000000000000000000000600052601160045260246000fd5b60006134a582613079565b91506134b083613079565b92508282039050818111156134c8576134c761346b565b5b92915050565b7f43757272656e74207261746520686173206d6f7665642061626f7665206d617860008201527f45786368616e6765526174650000000000000000000000000000000000000000602082015250565b600061352a602c836132b8565b9150613535826134ce565b604082019050919050565b600060208201905081810360008301526135598161351d565b9050919050565b600061356b82613079565b915061357683613079565b925082820261358481613079565b9150828204841483151761359b5761359a61346b565b5b5092915050565b7f4e487b7100000000000000000000000000000000000000000000000000000000600052601260045260246000fd5b60006135dc82613079565b91506135e783613079565b9250826135f7576135f66135a2565b5b828204905092915050565b600061360d82613079565b915061361883613079565b92508282019050808211156136305761362f61346b565b5b92915050565b7f43616e6e6f742067697665206261636b2061206e6567617469766520746f6b6560008201527f6e206e756d626572000000000000000000000000000000000000000000000000602082015250565b60006136926028836132b8565b915061369d82613636565b604082019050919050565b600060208201905081810360008301526136c181613685565b9050919050565b7f4e6f7420656e6f75676820746f6b656e7320696e207265736572766520746f2060008201527f6d616b6520737761700000000000000000000000000000000000000000000000602082015250565b60006137246029836132b8565b915061372f826136c8565b604082019050919050565b6000602082019050818103600083015261375381613717565b9050919050565b600060408201905061376f60008301856131a1565b61377c60208301846131cb565b9392505050565b61378c816131f5565b811461379757600080fd5b50565b6000815190506137a981613783565b92915050565b6000602082840312156137c5576137c4613074565b5b60006137d38482850161379a565b91505092915050565b7f4e487b7100000000000000000000000000000000000000000000000000000000600052603260045260246000fd5b600061381682613079565b91507fffffffffffffffffffffffffffffffffffffffffffffffffffffffffffffffff82036138485761384761346b565b5b600182019050919050565b60008151905061386281613083565b92915050565b60006020828403121561387e5761387d613074565b5b600061388c84828501613853565b91505092915050565b7f43757272656e7420726174652061626f7665206d617845786368616e6765526160008201527f7465000000000000000000000000000000000000000000000000000000000000602082015250565b60006138f16022836132b8565b91506138fc82613895565b604082019050919050565b60006020820190508181036000830152613920816138e4565b9050919050565b7f43757272656e7420726174652062656c6f77206d696e45786368616e6765526160008201527f7465000000000000000000000000000000000000000000000000000000000000602082015250565b60006139836022836132b8565b915061398e82613927565b604082019050919050565b600060208201905081810360008301526139b281613976565b9050919050565b7f576974686472617720776f756c64206465706c6574652065746820726573657260008201527f76657320746f2030000000000000000000000000000000000000000000000000602082015250565b6000613a156028836132b8565b9150613a20826139b9565b604082019050919050565b60006020820190508181036000830152613a4481613a08565b9050919050565b7f546f6b656e20726573657276657320776173206e6f7420300000000000000000600082015250565b6000613a816018836132b8565b9150613a8c82613a4b565b602082019050919050565b60006020820190508181036000830152613ab081613a74565b9050919050565b7f45544820726573657276657320776173206e6f7420302e000000000000000000600082015250565b6000613aed6017836132b8565b9150613af882613ab7565b602082019050919050565b60006020820190508181036000830152613b1c81613ae0565b9050919050565b7f4e6565642065746820746f2063726561746520706f6f6c2e0000000000000000600082015250565b6000613b596018836132b8565b9150613b6482613b23565b602082019050919050565b60006020820190508181036000830152613b8881613b4c565b9050919050565b7f4e6f74206861766520656e6f75676820746f6b656e7320746f2063726561746560008201527f2074686520706f6f6c0000000000000000000000000000000000000000000000602082015250565b6000613beb6029836132b8565b9150613bf682613b8f565b604082019050919050565b60006020820190508181036000830152613c1a81613bde565b9050919050565b7f4e65656420746f6b656e7320746f2063726561746520706f6f6c2e0000000000600082015250565b6000613c57601b836132b8565b9150613c6282613c21565b602082019050919050565b60006020820190508181036000830152613c8681613c4a565b9050919050565b6000606082019050613ca260008301866131a1565b613caf60208301856131a1565b613cbc60408301846131cb565b949350505050565b7f5a65726f206f72204e6567617469766520455448000000000000000000000000600082015250565b6000613cfa6014836132b8565b9150613d0582613cc4565b602082019050919050565b60006020820190508181036000830152613d2981613ced565b9050919050565b7f5769746864726177616c20776f756c64206465706c657465204554482072657360008201527f6572766573000000000000000000000000000000000000000000000000000000602082015250565b6000613d8c6025836132b8565b9150613d9782613d30565b604082019050919050565b60006020820190508181036000830152613dbb81613d7f565b9050919050565b7f5769746864726177616c20776f756c64206465706c65746520746f6b656e207260008201527f6573657276657300000000000000000000000000000000000000000000000000602082015250565b6000613e1e6027836132b8565b9150613e2982613dc2565b604082019050919050565b60006020820190508181036000830152613e4d81613e11565b9050919050565b7f4c502068617320696e73756666696369656e74206c6971756964697479000000600082015250565b6000613e8a601d836132b8565b9150613e9582613e54565b602082019050919050565b60006020820190508181036000830152613eb981613e7d565b9050919050565b7f43616e6e6f742072656d6f7665206d6f726520736861726573207468616e207960008201527f6f75206861766500000000000000000000000000000000000000000000000000602082015250565b6000613f1c6027836132b8565b9150613f2782613ec0565b604082019050919050565b60006020820190508181036000830152613f4b81613f0f565b9050919050565b7f496e73756666696369656e7420746f6b656e2062616c616e636520666f72206c60008201527f6971756964697479000000000000000000000000000000000000000000000000602082015250565b6000613fae6028836132b8565b9150613fb982613f52565b604082019050919050565b60006020820190508181036000830152613fdd81613fa1565b9050919050565b7f43616e6e6f7420737761702061206e6567617469766520616d6f756e74206f6660008201527f20746f6b656e7300000000000000000000000000000000000000000000000000602082015250565b60006140406027836132b8565b915061404b82613fe4565b604082019050919050565b6000602082019050818103600083015261406f81614033565b9050919050565b7f4e6f7420656e6f75676820746f6b656e7320746f206d616b652074686973207360008201527f7761700000000000000000000000000000000000000000000000000000000000602082015250565b60006140d26023836132b8565b91506140dd82614076565b604082019050919050565b60006020820190508181036000830152614101816140c5565b9050919050565b7f496e73756666696369656e74207265736572766573206f662045544820666f7260008201527f20746865207472616e73616374696f6e00000000000000000000000000000000602082015250565b60006141646030836132b8565b915061416f82614108565b604082019050919050565b6000602082019050818103600083015261419381614157565b9050919050565b7f4f776e61626c653a206e6577206f776e657220697320746865207a65726f206160008201527f6464726573730000000000000000000000000000000000000000000000000000602082015250565b60006141f66026836132b8565b91506142018261419a565b604082019050919050565b60006020820190508181036000830152614225816141e9565b9050919050565b7f4e487b7100000000000000000000000000000000000000000000000000000000600052602260045260246000fd5b6000600282049050600182168061427357607f821691505b6020821081036142865761428561422c565b5b50919050565b600060408201905081810360008301526142a68185613304565b90506142b560208301846131cb565b9392505050565b7f73706563696669656420696e646578206973206c6172676572207468616e207460008201527f6865206e756d626572206f66206c707300000000000000000000000000000000602082015250565b60006143186030836132b8565b9150614323826142bc565b604082019050919050565b600060208201905081810360008301526143478161430b565b9050919050565b7f4e487b7100000000000000000000000000000000000000000000000000000000600052603160045260246000fd5b7f4f776e61626c653a2063616c6c6572206973206e6f7420746865206f776e6572600082015250565b60006143b36020836132b8565b91506143be8261437d565b602082019050919050565b600060208201905081810360008301526143e2816143a6565b9050919050565b600060408201905081810360008301526144038185613304565b905061441260208301846131a1565b9392505050565b600060808201905081810360008301526144338187613304565b905061444260208301866131a1565b81810360408301526144548185613304565b905061446360608301846131cb565b95945050505050565b7f4e487b7100000000000000000000000000000000000000000000000000000000600052605160045260246000fdfea264697066735822122096b7fc94daedf5f9f25a7d806aa1d2d88fafc7f3222b3e89315d114b3c91e31564736f6c63430008110033",
  "linkReferences": {},
  "deployedLinkReferences": {}
}