{
  "_format": "hh-sol-artifact-1",
  "contractName": "TokenExchange",
  "sourceName": "contracts/exchange.sol",
  "abi": [
    {
      "inputs": [],
      "stateMutability": "nonpayable",
      "type": "constructor"
    },
    {
      "anonymous": false,
      "inputs": [
        {
          "indexed": true,
          "internalType": "address",
          "name": "previousOwner",
          "type": "address"
        },
        {
          "indexed": true,
          "internalType": "address",
          "name": "newOwner",
          "type": "address"
        }
      ],
      "name": "OwnershipTransferred",
      "type": "event"
    },
    {
      "inputs": [],
      "name": "addLiquidity",
      "outputs": [],
      "stateMutability": "payable",
      "type": "function"
    },
    {
      "inputs": [
        {
          "internalType": "uint256",
          "name": "amountTokens",
          "type": "uint256"
        }
      ],
      "name": "createPool",
      "outputs": [],
      "stateMutability": "payable",
      "type": "function"
    },
    {
      "inputs": [],
      "name": "exchange_name",
      "outputs": [
        {
          "internalType": "string",
          "name": "",
          "type": "string"
        }
      ],
      "stateMutability": "view",
      "type": "function"
    },
    {
      "inputs": [],
      "name": "getSwapFee",
      "outputs": [
        {
          "internalType": "uint256",
          "name": "",
          "type": "uint256"
        },
        {
          "internalType": "uint256",
          "name": "",
          "type": "uint256"
        }
      ],
      "stateMutability": "view",
      "type": "function"
    },
    {
      "inputs": [],
      "name": "owner",
      "outputs": [
        {
          "internalType": "address",
          "name": "",
          "type": "address"
        }
      ],
      "stateMutability": "view",
      "type": "function"
    },
    {
      "inputs": [],
      "name": "removeAllLiquidity",
      "outputs": [],
      "stateMutability": "payable",
      "type": "function"
    },
    {
      "inputs": [
        {
          "internalType": "uint256",
          "name": "amountETH",
          "type": "uint256"
        }
      ],
      "name": "removeLiquidity",
      "outputs": [],
      "stateMutability": "payable",
      "type": "function"
    },
    {
      "inputs": [],
      "name": "renounceOwnership",
      "outputs": [],
      "stateMutability": "nonpayable",
      "type": "function"
    },
    {
      "inputs": [],
      "name": "swapETHForTokens",
      "outputs": [],
      "stateMutability": "payable",
      "type": "function"
    },
    {
      "inputs": [
        {
          "internalType": "uint256",
          "name": "amountTokens",
          "type": "uint256"
        }
      ],
      "name": "swapTokensForETH",
      "outputs": [],
      "stateMutability": "payable",
      "type": "function"
    },
    {
      "inputs": [],
      "name": "token",
      "outputs": [
        {
          "internalType": "contract Token",
          "name": "",
          "type": "address"
        }
      ],
      "stateMutability": "view",
      "type": "function"
    },
    {
      "inputs": [
        {
          "internalType": "address",
          "name": "newOwner",
          "type": "address"
        }
      ],
      "name": "transferOwnership",
      "outputs": [],
      "stateMutability": "nonpayable",
      "type": "function"
    }
  ],
  "bytecode": "0x6080604052604051806020016040528060008152506001908162000024919062000481565b50735fbdb2315678afecb367f032d93f642f64180aa3600260006101000a81548173ffffffffffffffffffffffffffffffffffffffff021916908373ffffffffffffffffffffffffffffffffffffffff160217905550600260009054906101000a900473ffffffffffffffffffffffffffffffffffffffff16600360006101000a81548173ffffffffffffffffffffffffffffffffffffffff021916908373ffffffffffffffffffffffffffffffffffffffff16021790555060006004556000600555600060065560006007556000600a556003600b556064600c55620186a0600e553480156200011457600080fd5b5062000135620001296200013b60201b60201c565b6200014360201b60201c565b62000568565b600033905090565b60008060009054906101000a900473ffffffffffffffffffffffffffffffffffffffff169050816000806101000a81548173ffffffffffffffffffffffffffffffffffffffff021916908373ffffffffffffffffffffffffffffffffffffffff1602179055508173ffffffffffffffffffffffffffffffffffffffff168173ffffffffffffffffffffffffffffffffffffffff167f8be0079c531659141344cd1fd0a4f28419497f9722a3daafe3b4186f6b6457e060405160405180910390a35050565b600081519050919050565b7f4e487b7100000000000000000000000000000000000000000000000000000000600052604160045260246000fd5b7f4e487b7100000000000000000000000000000000000000000000000000000000600052602260045260246000fd5b600060028204905060018216806200028957607f821691505b6020821081036200029f576200029e62000241565b5b50919050565b60008190508160005260206000209050919050565b60006020601f8301049050919050565b600082821b905092915050565b600060088302620003097fffffffffffffffffffffffffffffffffffffffffffffffffffffffffffffffff82620002ca565b620003158683620002ca565b95508019841693508086168417925050509392505050565b6000819050919050565b6000819050919050565b6000620003626200035c62000356846200032d565b62000337565b6200032d565b9050919050565b6000819050919050565b6200037e8362000341565b620003966200038d8262000369565b848454620002d7565b825550505050565b600090565b620003ad6200039e565b620003ba81848462000373565b505050565b5b81811015620003e257620003d6600082620003a3565b600181019050620003c0565b5050565b601f8211156200043157620003fb81620002a5565b6200040684620002ba565b8101602085101562000416578190505b6200042e6200042585620002ba565b830182620003bf565b50505b505050565b600082821c905092915050565b6000620004566000198460080262000436565b1980831691505092915050565b600062000471838362000443565b9150826002028217905092915050565b6200048c8262000207565b67ffffffffffffffff811115620004a857620004a762000212565b5b620004b4825462000270565b620004c1828285620003e6565b600060209050601f831160018114620004f95760008415620004e4578287015190505b620004f0858262000463565b86555062000560565b601f1984166200050986620002a5565b60005b8281101562000533578489015182556001820191506020850194506020810190506200050c565b868310156200055357848901516200054f601f89168262000443565b8355505b6001600288020188555050505b505050505050565b61103c80620005786000396000f3fe6080604052600436106100a75760003560e01c8063d592cbf611610064578063d592cbf61461015c578063e56a645e14610166578063e8078d9414610182578063f2fde38b1461018c578063f694f7d1146101b5578063fc0c546a146101e0576100a7565b8063715018a6146100ac5780638259e6a0146100c357806388a780e5146100df5780638da5cb5b146100e95780639c8f9f2314610114578063d4cadf6814610130575b600080fd5b3480156100b857600080fd5b506100c161020b565b005b6100dd60048036038101906100d891906108d1565b61021f565b005b6100e76105cf565b005b3480156100f557600080fd5b506100fe6105d1565b60405161010b919061093f565b60405180910390f35b61012e600480360381019061012991906108d1565b6105fa565b005b34801561013c57600080fd5b506101456105fd565b604051610153929190610969565b60405180910390f35b61016461060e565b005b610180600480360381019061017b91906108d1565b610610565b005b61018a610613565b005b34801561019857600080fd5b506101b360048036038101906101ae91906109be565b610615565b005b3480156101c157600080fd5b506101ca610698565b6040516101d79190610a7b565b60405180910390f35b3480156101ec57600080fd5b506101f5610726565b6040516102029190610afc565b60405180910390f35b61021361074c565b61021d60006107ca565b565b61022761074c565b60006004541461026c576040517f08c379a000000000000000000000000000000000000000000000000000000000815260040161026390610b63565b60405180910390fd5b6000600554146102b1576040517f08c379a00000000000000000000000000000000000000000000000000000000081526004016102a890610bcf565b60405180910390fd5b600034116102f4576040517f08c379a00000000000000000000000000000000000000000000000000000000081526004016102eb90610c3b565b60405180910390fd5b6000600360009054906101000a900473ffffffffffffffffffffffffffffffffffffffff1673ffffffffffffffffffffffffffffffffffffffff166370a08231336040518263ffffffff1660e01b8152600401610351919061093f565b602060405180830381865afa15801561036e573d6000803e3d6000fd5b505050506040513d601f19601f820116820180604052508101906103929190610c70565b9050808211156103d7576040517f08c379a00000000000000000000000000000000000000000000000000000000081526004016103ce90610d0f565b60405180910390fd5b6000821161041a576040517f08c379a000000000000000000000000000000000000000000000000000000000815260040161041190610d7b565b60405180910390fd5b600360009054906101000a900473ffffffffffffffffffffffffffffffffffffffff1673ffffffffffffffffffffffffffffffffffffffff166323b872dd3330856040518463ffffffff1660e01b815260040161047993929190610d9b565b6020604051808303816000875af1158015610498573d6000803e3d6000fd5b505050506040513d601f19601f820116820180604052508101906104bc9190610e0a565b50600360009054906101000a900473ffffffffffffffffffffffffffffffffffffffff1673ffffffffffffffffffffffffffffffffffffffff166370a08231306040518263ffffffff1660e01b8152600401610518919061093f565b602060405180830381865afa158015610535573d6000803e3d6000fd5b505050506040513d601f19601f820116820180604052508101906105599190610c70565b600481905550346005819055506005546004546105769190610e66565b600d81905550620186a0600a819055506064600860003373ffffffffffffffffffffffffffffffffffffffff1673ffffffffffffffffffffffffffffffffffffffff168152602001908152602001600020819055505050565b565b60008060009054906101000a900473ffffffffffffffffffffffffffffffffffffffff16905090565b50565b600080600b54600c54915091509091565b565b50565b565b61061d61074c565b600073ffffffffffffffffffffffffffffffffffffffff168173ffffffffffffffffffffffffffffffffffffffff160361068c576040517f08c379a000000000000000000000000000000000000000000000000000000000815260040161068390610f1a565b60405180910390fd5b610695816107ca565b50565b600180546106a590610f69565b80601f01602080910402602001604051908101604052809291908181526020018280546106d190610f69565b801561071e5780601f106106f35761010080835404028352916020019161071e565b820191906000526020600020905b81548152906001019060200180831161070157829003601f168201915b505050505081565b600360009054906101000a900473ffffffffffffffffffffffffffffffffffffffff1681565b61075461088e565b73ffffffffffffffffffffffffffffffffffffffff166107726105d1565b73ffffffffffffffffffffffffffffffffffffffff16146107c8576040517f08c379a00000000000000000000000000000000000000000000000000000000081526004016107bf90610fe6565b60405180910390fd5b565b60008060009054906101000a900473ffffffffffffffffffffffffffffffffffffffff169050816000806101000a81548173ffffffffffffffffffffffffffffffffffffffff021916908373ffffffffffffffffffffffffffffffffffffffff1602179055508173ffffffffffffffffffffffffffffffffffffffff168173ffffffffffffffffffffffffffffffffffffffff167f8be0079c531659141344cd1fd0a4f28419497f9722a3daafe3b4186f6b6457e060405160405180910390a35050565b600033905090565b600080fd5b6000819050919050565b6108ae8161089b565b81146108b957600080fd5b50565b6000813590506108cb816108a5565b92915050565b6000602082840312156108e7576108e6610896565b5b60006108f5848285016108bc565b91505092915050565b600073ffffffffffffffffffffffffffffffffffffffff82169050919050565b6000610929826108fe565b9050919050565b6109398161091e565b82525050565b60006020820190506109546000830184610930565b92915050565b6109638161089b565b82525050565b600060408201905061097e600083018561095a565b61098b602083018461095a565b9392505050565b61099b8161091e565b81146109a657600080fd5b50565b6000813590506109b881610992565b92915050565b6000602082840312156109d4576109d3610896565b5b60006109e2848285016109a9565b91505092915050565b600081519050919050565b600082825260208201905092915050565b60005b83811015610a25578082015181840152602081019050610a0a565b60008484015250505050565b6000601f19601f8301169050919050565b6000610a4d826109eb565b610a5781856109f6565b9350610a67818560208601610a07565b610a7081610a31565b840191505092915050565b60006020820190508181036000830152610a958184610a42565b905092915050565b6000819050919050565b6000610ac2610abd610ab8846108fe565b610a9d565b6108fe565b9050919050565b6000610ad482610aa7565b9050919050565b6000610ae682610ac9565b9050919050565b610af681610adb565b82525050565b6000602082019050610b116000830184610aed565b92915050565b7f546f6b656e20726573657276657320776173206e6f7420300000000000000000600082015250565b6000610b4d6018836109f6565b9150610b5882610b17565b602082019050919050565b60006020820190508181036000830152610b7c81610b40565b9050919050565b7f45544820726573657276657320776173206e6f7420302e000000000000000000600082015250565b6000610bb96017836109f6565b9150610bc482610b83565b602082019050919050565b60006020820190508181036000830152610be881610bac565b9050919050565b7f4e6565642065746820746f2063726561746520706f6f6c2e0000000000000000600082015250565b6000610c256018836109f6565b9150610c3082610bef565b602082019050919050565b60006020820190508181036000830152610c5481610c18565b9050919050565b600081519050610c6a816108a5565b92915050565b600060208284031215610c8657610c85610896565b5b6000610c9484828501610c5b565b91505092915050565b7f4e6f74206861766520656e6f75676820746f6b656e7320746f2063726561746560008201527f2074686520706f6f6c0000000000000000000000000000000000000000000000602082015250565b6000610cf96029836109f6565b9150610d0482610c9d565b604082019050919050565b60006020820190508181036000830152610d2881610cec565b9050919050565b7f4e65656420746f6b656e7320746f2063726561746520706f6f6c2e0000000000600082015250565b6000610d65601b836109f6565b9150610d7082610d2f565b602082019050919050565b60006020820190508181036000830152610d9481610d58565b9050919050565b6000606082019050610db06000830186610930565b610dbd6020830185610930565b610dca604083018461095a565b949350505050565b60008115159050919050565b610de781610dd2565b8114610df257600080fd5b50565b600081519050610e0481610dde565b92915050565b600060208284031215610e2057610e1f610896565b5b6000610e2e84828501610df5565b91505092915050565b7f4e487b7100000000000000000000000000000000000000000000000000000000600052601160045260246000fd5b6000610e718261089b565b9150610e7c8361089b565b9250828202610e8a8161089b565b91508282048414831517610ea157610ea0610e37565b5b5092915050565b7f4f776e61626c653a206e6577206f776e657220697320746865207a65726f206160008201527f6464726573730000000000000000000000000000000000000000000000000000602082015250565b6000610f046026836109f6565b9150610f0f82610ea8565b604082019050919050565b60006020820190508181036000830152610f3381610ef7565b9050919050565b7f4e487b7100000000000000000000000000000000000000000000000000000000600052602260045260246000fd5b60006002820490506001821680610f8157607f821691505b602082108103610f9457610f93610f3a565b5b50919050565b7f4f776e61626c653a2063616c6c6572206973206e6f7420746865206f776e6572600082015250565b6000610fd06020836109f6565b9150610fdb82610f9a565b602082019050919050565b60006020820190508181036000830152610fff81610fc3565b905091905056fea26469706673582212201e23f504f3053857d573c26dcf4caf30989146f5c2669b19e921190a7e77277264736f6c63430008110033",
  "linkReferences": {},
  "deployedLinkReferences": {}
}