{
  "_format": "hh-sol-artifact-1",
  "contractName": "TokenExchange",
  "sourceName": "contracts/exchange.sol",
  "abi": [
    {
      "inputs": [],
      "stateMutability": "nonpayable",
      "type": "constructor"
    },
    {
      "anonymous": false,
      "inputs": [
        {
          "indexed": true,
          "internalType": "address",
          "name": "previousOwner",
          "type": "address"
        },
        {
          "indexed": true,
          "internalType": "address",
          "name": "newOwner",
          "type": "address"
        }
      ],
      "name": "OwnershipTransferred",
      "type": "event"
    },
    {
      "inputs": [
        {
          "internalType": "uint256",
          "name": "maxExchangeRate",
          "type": "uint256"
        },
        {
          "internalType": "uint256",
          "name": "minExchangeRate",
          "type": "uint256"
        }
      ],
      "name": "addLiquidity",
      "outputs": [],
      "stateMutability": "payable",
      "type": "function"
    },
    {
      "inputs": [
        {
          "internalType": "uint256",
          "name": "amountTokens",
          "type": "uint256"
        }
      ],
      "name": "createPool",
      "outputs": [],
      "stateMutability": "payable",
      "type": "function"
    },
    {
      "inputs": [],
      "name": "ethToTokenRate",
      "outputs": [
        {
          "internalType": "uint256",
          "name": "",
          "type": "uint256"
        }
      ],
      "stateMutability": "view",
      "type": "function"
    },
    {
      "inputs": [],
      "name": "exchange_name",
      "outputs": [
        {
          "internalType": "string",
          "name": "",
          "type": "string"
        }
      ],
      "stateMutability": "view",
      "type": "function"
    },
    {
      "inputs": [
        {
          "internalType": "uint256",
          "name": "ethAmt",
          "type": "uint256"
        }
      ],
      "name": "findAmtShares",
      "outputs": [
        {
          "internalType": "uint256",
          "name": "",
          "type": "uint256"
        }
      ],
      "stateMutability": "view",
      "type": "function"
    },
    {
      "inputs": [],
      "name": "getSwapFee",
      "outputs": [
        {
          "internalType": "uint256",
          "name": "",
          "type": "uint256"
        },
        {
          "internalType": "uint256",
          "name": "",
          "type": "uint256"
        }
      ],
      "stateMutability": "view",
      "type": "function"
    },
    {
      "inputs": [],
      "name": "owner",
      "outputs": [
        {
          "internalType": "address",
          "name": "",
          "type": "address"
        }
      ],
      "stateMutability": "view",
      "type": "function"
    },
    {
      "inputs": [],
      "name": "removeAllLiquidity",
      "outputs": [],
      "stateMutability": "payable",
      "type": "function"
    },
    {
      "inputs": [
        {
          "internalType": "uint256",
          "name": "amountETH",
          "type": "uint256"
        }
      ],
      "name": "removeLiquidity",
      "outputs": [],
      "stateMutability": "payable",
      "type": "function"
    },
    {
      "inputs": [],
      "name": "renounceOwnership",
      "outputs": [],
      "stateMutability": "nonpayable",
      "type": "function"
    },
    {
      "inputs": [],
      "name": "swapETHForTokens",
      "outputs": [],
      "stateMutability": "payable",
      "type": "function"
    },
    {
      "inputs": [
        {
          "internalType": "uint256",
          "name": "amountTokens",
          "type": "uint256"
        }
      ],
      "name": "swapTokensForETH",
      "outputs": [],
      "stateMutability": "payable",
      "type": "function"
    },
    {
      "inputs": [],
      "name": "token",
      "outputs": [
        {
          "internalType": "contract Token",
          "name": "",
          "type": "address"
        }
      ],
      "stateMutability": "view",
      "type": "function"
    },
    {
      "inputs": [],
      "name": "tokenToEthRate",
      "outputs": [
        {
          "internalType": "uint256",
          "name": "",
          "type": "uint256"
        }
      ],
      "stateMutability": "view",
      "type": "function"
    },
    {
      "inputs": [
        {
          "internalType": "address",
          "name": "newOwner",
          "type": "address"
        }
      ],
      "name": "transferOwnership",
      "outputs": [],
      "stateMutability": "nonpayable",
      "type": "function"
    }
  ],
  "bytecode": "0x6080604052604051806020016040528060008152506001908162000024919062000481565b50735fbdb2315678afecb367f032d93f642f64180aa3600260006101000a81548173ffffffffffffffffffffffffffffffffffffffff021916908373ffffffffffffffffffffffffffffffffffffffff160217905550600260009054906101000a900473ffffffffffffffffffffffffffffffffffffffff16600360006101000a81548173ffffffffffffffffffffffffffffffffffffffff021916908373ffffffffffffffffffffffffffffffffffffffff16021790555060006004556000600555600060065560006007556000600a556003600b556064600c55620186a0600e553480156200011457600080fd5b5062000135620001296200013b60201b60201c565b6200014360201b60201c565b62000568565b600033905090565b60008060009054906101000a900473ffffffffffffffffffffffffffffffffffffffff169050816000806101000a81548173ffffffffffffffffffffffffffffffffffffffff021916908373ffffffffffffffffffffffffffffffffffffffff1602179055508173ffffffffffffffffffffffffffffffffffffffff168173ffffffffffffffffffffffffffffffffffffffff167f8be0079c531659141344cd1fd0a4f28419497f9722a3daafe3b4186f6b6457e060405160405180910390a35050565b600081519050919050565b7f4e487b7100000000000000000000000000000000000000000000000000000000600052604160045260246000fd5b7f4e487b7100000000000000000000000000000000000000000000000000000000600052602260045260246000fd5b600060028204905060018216806200028957607f821691505b6020821081036200029f576200029e62000241565b5b50919050565b60008190508160005260206000209050919050565b60006020601f8301049050919050565b600082821b905092915050565b600060088302620003097fffffffffffffffffffffffffffffffffffffffffffffffffffffffffffffffff82620002ca565b620003158683620002ca565b95508019841693508086168417925050509392505050565b6000819050919050565b6000819050919050565b6000620003626200035c62000356846200032d565b62000337565b6200032d565b9050919050565b6000819050919050565b6200037e8362000341565b620003966200038d8262000369565b848454620002d7565b825550505050565b600090565b620003ad6200039e565b620003ba81848462000373565b505050565b5b81811015620003e257620003d6600082620003a3565b600181019050620003c0565b5050565b601f8211156200043157620003fb81620002a5565b6200040684620002ba565b8101602085101562000416578190505b6200042e6200042585620002ba565b830182620003bf565b50505b505050565b600082821c905092915050565b6000620004566000198460080262000436565b1980831691505092915050565b600062000471838362000443565b9150826002028217905092915050565b6200048c8262000207565b67ffffffffffffffff811115620004a857620004a762000212565b5b620004b4825462000270565b620004c1828285620003e6565b600060209050601f831160018114620004f95760008415620004e4578287015190505b620004f0858262000463565b86555062000560565b601f1984166200050986620002a5565b60005b8281101562000533578489015182556001820191506020850194506020810190506200050c565b868310156200055357848901516200054f601f89168262000443565b8355505b6001600288020188555050505b505050505050565b6121ca80620005786000396000f3fe6080604052600436106100e85760003560e01c8063a65540fb1161008a578063e56a645e11610059578063e56a645e14610256578063f2fde38b14610272578063f694f7d11461029b578063fc0c546a146102c6576100e8565b8063a65540fb146101b8578063d4cadf68146101f5578063d592cbf614610221578063e09adc701461022b576100e8565b806388a780e5116100c657806388a780e51461014b5780638da5cb5b146101555780639c8f9f23146101805780639cd441da1461019c576100e8565b806353d99c2a146100ed578063715018a6146101185780638259e6a01461012f575b600080fd5b3480156100f957600080fd5b506101026102f1565b60405161010f9190611681565b60405180910390f35b34801561012457600080fd5b5061012d610315565b005b610149600480360381019061014491906116cd565b610329565b005b6101536106d9565b005b34801561016157600080fd5b5061016a6106db565b604051610177919061173b565b60405180910390f35b61019a600480360381019061019591906116cd565b610704565b005b6101b660048036038101906101b19190611756565b610707565b005b3480156101c457600080fd5b506101df60048036038101906101da91906116cd565b61127e565b6040516101ec9190611681565b60405180910390f35b34801561020157600080fd5b5061020a6112c1565b604051610218929190611796565b60405180910390f35b6102296112d2565b005b34801561023757600080fd5b506102406112d4565b60405161024d9190611681565b60405180910390f35b610270600480360381019061026b91906116cd565b6112f8565b005b34801561027e57600080fd5b50610299600480360381019061029491906117eb565b6112fb565b005b3480156102a757600080fd5b506102b061137e565b6040516102bd91906118a8565b60405180910390f35b3480156102d257600080fd5b506102db61140c565b6040516102e89190611929565b60405180910390f35b6000600554600e546004546103069190611973565b61031091906119e4565b905090565b61031d611432565b61032760006114b0565b565b610331611432565b600060045414610376576040517f08c379a000000000000000000000000000000000000000000000000000000000815260040161036d90611a61565b60405180910390fd5b6000600554146103bb576040517f08c379a00000000000000000000000000000000000000000000000000000000081526004016103b290611acd565b60405180910390fd5b600034116103fe576040517f08c379a00000000000000000000000000000000000000000000000000000000081526004016103f590611b39565b60405180910390fd5b6000600360009054906101000a900473ffffffffffffffffffffffffffffffffffffffff1673ffffffffffffffffffffffffffffffffffffffff166370a08231336040518263ffffffff1660e01b815260040161045b919061173b565b602060405180830381865afa158015610478573d6000803e3d6000fd5b505050506040513d601f19601f8201168201806040525081019061049c9190611b6e565b9050808211156104e1576040517f08c379a00000000000000000000000000000000000000000000000000000000081526004016104d890611c0d565b60405180910390fd5b60008211610524576040517f08c379a000000000000000000000000000000000000000000000000000000000815260040161051b90611c79565b60405180910390fd5b600360009054906101000a900473ffffffffffffffffffffffffffffffffffffffff1673ffffffffffffffffffffffffffffffffffffffff166323b872dd3330856040518463ffffffff1660e01b815260040161058393929190611c99565b6020604051808303816000875af11580156105a2573d6000803e3d6000fd5b505050506040513d601f19601f820116820180604052508101906105c69190611d08565b50600360009054906101000a900473ffffffffffffffffffffffffffffffffffffffff1673ffffffffffffffffffffffffffffffffffffffff166370a08231306040518263ffffffff1660e01b8152600401610622919061173b565b602060405180830381865afa15801561063f573d6000803e3d6000fd5b505050506040513d601f19601f820116820180604052508101906106639190611b6e565b600481905550346005819055506005546004546106809190611973565b600d81905550620186a0600a819055506064600860003373ffffffffffffffffffffffffffffffffffffffff1673ffffffffffffffffffffffffffffffffffffffff168152602001908152602001600020819055505050565b565b60008060009054906101000a900473ffffffffffffffffffffffffffffffffffffffff16905090565b50565b6107486040518060400160405280600f81526020017f546f6b656e2072657365727665733a0000000000000000000000000000000000815250600454611574565b6107896040518060400160405280600881526020017f4b2076616c75653a000000000000000000000000000000000000000000000000815250600d54611574565b6107ca6040518060400160405280600d81526020017f4554482072657365727665733a00000000000000000000000000000000000000815250600554611574565b6108486040518060400160405280600d81526020017f5573657227732073686172657300000000000000000000000000000000000000815250600860003373ffffffffffffffffffffffffffffffffffffffff1673ffffffffffffffffffffffffffffffffffffffff16815260200190815260200160002054611574565b6108896040518060400160405280600e81526020017f546f74616c207368617265733a20000000000000000000000000000000000000815250600a54611574565b6108c86040518060400160405280601a81526020017f416464206c6971756964697479206f6620616d6f756e74203a2000000000000081525034611574565b60006108d26112d4565b905082811115610917576040517f08c379a000000000000000000000000000000000000000000000000000000000815260040161090e90611da7565b60405180910390fd5b8181101561095a576040517f08c379a000000000000000000000000000000000000000000000000000000000815260040161095190611e39565b60405180910390fd5b60006005543460045461096d9190611973565b61097791906119e4565b90506109b86040518060400160405280601981526020017f7468697320657175616c7320746f6b656e73416d6f756e743a0000000000000081525082611574565b600034116109fb576040517f08c379a00000000000000000000000000000000000000000000000000000000081526004016109f290611ecb565b60405180910390fd5b80600360009054906101000a900473ffffffffffffffffffffffffffffffffffffffff1673ffffffffffffffffffffffffffffffffffffffff166370a08231336040518263ffffffff1660e01b8152600401610a57919061173b565b602060405180830381865afa158015610a74573d6000803e3d6000fd5b505050506040513d601f19601f82011682018060405250810190610a989190611b6e565b1015610ad9576040517f08c379a0000000000000000000000000000000000000000000000000000000008152600401610ad090611f83565b60405180910390fd5b6000610ae43461127e565b905080600a6000828254610af89190611fa3565b9250508190555080600860003373ffffffffffffffffffffffffffffffffffffffff1673ffffffffffffffffffffffffffffffffffffffff1681526020019081526020016000206000828254610b4e9190611fa3565b92505081905550610b946040518060400160405280600f81526020017f53686172657320746f206164643a20000000000000000000000000000000000081525082611574565b610c6e6040518060400160405280600f81526020017f4265666f726520706179696e673a200000000000000000000000000000000000815250600360009054906101000a900473ffffffffffffffffffffffffffffffffffffffff1673ffffffffffffffffffffffffffffffffffffffff166370a08231336040518263ffffffff1660e01b8152600401610c28919061173b565b602060405180830381865afa158015610c45573d6000803e3d6000fd5b505050506040513d601f19601f82011682018060405250810190610c699190611b6e565b611574565b600360009054906101000a900473ffffffffffffffffffffffffffffffffffffffff1673ffffffffffffffffffffffffffffffffffffffff166323b872dd3330856040518463ffffffff1660e01b8152600401610ccd93929190611c99565b6020604051808303816000875af1158015610cec573d6000803e3d6000fd5b505050506040513d601f19601f82011682018060405250810190610d109190611d08565b50610deb6040518060400160405280601881526020017f436f6e7472616374206166746572207061796d656e743a200000000000000000815250600360009054906101000a900473ffffffffffffffffffffffffffffffffffffffff1673ffffffffffffffffffffffffffffffffffffffff166370a08231306040518263ffffffff1660e01b8152600401610da5919061173b565b602060405180830381865afa158015610dc2573d6000803e3d6000fd5b505050506040513d601f19601f82011682018060405250810190610de69190611b6e565b611574565b47600581905550600360009054906101000a900473ffffffffffffffffffffffffffffffffffffffff1673ffffffffffffffffffffffffffffffffffffffff166370a08231306040518263ffffffff1660e01b8152600401610e4d919061173b565b602060405180830381865afa158015610e6a573d6000803e3d6000fd5b505050506040513d601f19601f82011682018060405250810190610e8e9190611b6e565b600481905550600360009054906101000a900473ffffffffffffffffffffffffffffffffffffffff1673ffffffffffffffffffffffffffffffffffffffff166370a08231306040518263ffffffff1660e01b8152600401610eef919061173b565b602060405180830381865afa158015610f0c573d6000803e3d6000fd5b505050506040513d601f19601f82011682018060405250810190610f309190611b6e565b47610f3b9190611973565b600d8190555061101b6040518060400160405280600e81526020017f416674657220706179696e673a20000000000000000000000000000000000000815250600360009054906101000a900473ffffffffffffffffffffffffffffffffffffffff1673ffffffffffffffffffffffffffffffffffffffff166370a08231336040518263ffffffff1660e01b8152600401610fd5919061173b565b602060405180830381865afa158015610ff2573d6000803e3d6000fd5b505050506040513d601f19601f820116820180604052508101906110169190611b6e565b611574565b6110f56040518060400160405280601881526020017f436f6e7472616374206166746572207061796d656e743a200000000000000000815250600360009054906101000a900473ffffffffffffffffffffffffffffffffffffffff1673ffffffffffffffffffffffffffffffffffffffff166370a08231306040518263ffffffff1660e01b81526004016110af919061173b565b602060405180830381865afa1580156110cc573d6000803e3d6000fd5b505050506040513d601f19601f820116820180604052508101906110f09190611b6e565b611574565b6111366040518060400160405280600f81526020017f546f6b656e2072657365727665733a0000000000000000000000000000000000815250600454611574565b6111776040518060400160405280600881526020017f4b2076616c75653a000000000000000000000000000000000000000000000000815250600d54611574565b6111b86040518060400160405280600d81526020017f4554482072657365727665733a00000000000000000000000000000000000000815250600554611574565b6111f96040518060400160405280600e81526020017f546f74616c207368617265733a20000000000000000000000000000000000000815250600a54611574565b6112776040518060400160405280600d81526020017f5573657227732073686172657300000000000000000000000000000000000000815250600860003373ffffffffffffffffffffffffffffffffffffffff1673ffffffffffffffffffffffffffffffffffffffff16815260200190815260200160002054611574565b5050505050565b600080600a5460055484600e546112959190611973565b61129f91906119e4565b6112a99190611973565b9050600e54816112b991906119e4565b915050919050565b600080600b54600c54915091509091565b565b6000600454600e546005546112e99190611973565b6112f391906119e4565b905090565b50565b611303611432565b600073ffffffffffffffffffffffffffffffffffffffff168173ffffffffffffffffffffffffffffffffffffffff1603611372576040517f08c379a000000000000000000000000000000000000000000000000000000000815260040161136990612049565b60405180910390fd5b61137b816114b0565b50565b6001805461138b90612098565b80601f01602080910402602001604051908101604052809291908181526020018280546113b790612098565b80156114045780601f106113d957610100808354040283529160200191611404565b820191906000526020600020905b8154815290600101906020018083116113e757829003601f168201915b505050505081565b600360009054906101000a900473ffffffffffffffffffffffffffffffffffffffff1681565b61143a611610565b73ffffffffffffffffffffffffffffffffffffffff166114586106db565b73ffffffffffffffffffffffffffffffffffffffff16146114ae576040517f08c379a00000000000000000000000000000000000000000000000000000000081526004016114a590612115565b60405180910390fd5b565b60008060009054906101000a900473ffffffffffffffffffffffffffffffffffffffff169050816000806101000a81548173ffffffffffffffffffffffffffffffffffffffff021916908373ffffffffffffffffffffffffffffffffffffffff1602179055508173ffffffffffffffffffffffffffffffffffffffff168173ffffffffffffffffffffffffffffffffffffffff167f8be0079c531659141344cd1fd0a4f28419497f9722a3daafe3b4186f6b6457e060405160405180910390a35050565b61160c828260405160240161158a929190612135565b6040516020818303038152906040527fb60e72cc000000000000000000000000000000000000000000000000000000007bffffffffffffffffffffffffffffffffffffffffffffffffffffffff19166020820180517bffffffffffffffffffffffffffffffffffffffffffffffffffffffff8381831617835250505050611618565b5050565b600033905090565b61162f81611627611632611653565b63ffffffff16565b50565b60006a636f6e736f6c652e6c6f679050600080835160208501845afa505050565b61165e819050919050565b611666612165565b565b6000819050919050565b61167b81611668565b82525050565b60006020820190506116966000830184611672565b92915050565b600080fd5b6116aa81611668565b81146116b557600080fd5b50565b6000813590506116c7816116a1565b92915050565b6000602082840312156116e3576116e261169c565b5b60006116f1848285016116b8565b91505092915050565b600073ffffffffffffffffffffffffffffffffffffffff82169050919050565b6000611725826116fa565b9050919050565b6117358161171a565b82525050565b6000602082019050611750600083018461172c565b92915050565b6000806040838503121561176d5761176c61169c565b5b600061177b858286016116b8565b925050602061178c858286016116b8565b9150509250929050565b60006040820190506117ab6000830185611672565b6117b86020830184611672565b9392505050565b6117c88161171a565b81146117d357600080fd5b50565b6000813590506117e5816117bf565b92915050565b6000602082840312156118015761180061169c565b5b600061180f848285016117d6565b91505092915050565b600081519050919050565b600082825260208201905092915050565b60005b83811015611852578082015181840152602081019050611837565b60008484015250505050565b6000601f19601f8301169050919050565b600061187a82611818565b6118848185611823565b9350611894818560208601611834565b61189d8161185e565b840191505092915050565b600060208201905081810360008301526118c2818461186f565b905092915050565b6000819050919050565b60006118ef6118ea6118e5846116fa565b6118ca565b6116fa565b9050919050565b6000611901826118d4565b9050919050565b6000611913826118f6565b9050919050565b61192381611908565b82525050565b600060208201905061193e600083018461191a565b92915050565b7f4e487b7100000000000000000000000000000000000000000000000000000000600052601160045260246000fd5b600061197e82611668565b915061198983611668565b925082820261199781611668565b915082820484148315176119ae576119ad611944565b5b5092915050565b7f4e487b7100000000000000000000000000000000000000000000000000000000600052601260045260246000fd5b60006119ef82611668565b91506119fa83611668565b925082611a0a57611a096119b5565b5b828204905092915050565b7f546f6b656e20726573657276657320776173206e6f7420300000000000000000600082015250565b6000611a4b601883611823565b9150611a5682611a15565b602082019050919050565b60006020820190508181036000830152611a7a81611a3e565b9050919050565b7f45544820726573657276657320776173206e6f7420302e000000000000000000600082015250565b6000611ab7601783611823565b9150611ac282611a81565b602082019050919050565b60006020820190508181036000830152611ae681611aaa565b9050919050565b7f4e6565642065746820746f2063726561746520706f6f6c2e0000000000000000600082015250565b6000611b23601883611823565b9150611b2e82611aed565b602082019050919050565b60006020820190508181036000830152611b5281611b16565b9050919050565b600081519050611b68816116a1565b92915050565b600060208284031215611b8457611b8361169c565b5b6000611b9284828501611b59565b91505092915050565b7f4e6f74206861766520656e6f75676820746f6b656e7320746f2063726561746560008201527f2074686520706f6f6c0000000000000000000000000000000000000000000000602082015250565b6000611bf7602983611823565b9150611c0282611b9b565b604082019050919050565b60006020820190508181036000830152611c2681611bea565b9050919050565b7f4e65656420746f6b656e7320746f2063726561746520706f6f6c2e0000000000600082015250565b6000611c63601b83611823565b9150611c6e82611c2d565b602082019050919050565b60006020820190508181036000830152611c9281611c56565b9050919050565b6000606082019050611cae600083018661172c565b611cbb602083018561172c565b611cc86040830184611672565b949350505050565b60008115159050919050565b611ce581611cd0565b8114611cf057600080fd5b50565b600081519050611d0281611cdc565b92915050565b600060208284031215611d1e57611d1d61169c565b5b6000611d2c84828501611cf3565b91505092915050565b7f43757272656e74207261746520686173206d6f7665642061626f7665206d617860008201527f45786368616e6765526174650000000000000000000000000000000000000000602082015250565b6000611d91602c83611823565b9150611d9c82611d35565b604082019050919050565b60006020820190508181036000830152611dc081611d84565b9050919050565b7f43757272656e74207261746520686173206d6f7665642062656c6f77206d696e60008201527f45786368616e6765526174650000000000000000000000000000000000000000602082015250565b6000611e23602c83611823565b9150611e2e82611dc7565b604082019050919050565b60006020820190508181036000830152611e5281611e16565b9050919050565b7f4d7573742061646420706f73697469766520616d6f756e74206f66206c69717560008201527f6964697479000000000000000000000000000000000000000000000000000000602082015250565b6000611eb5602583611823565b9150611ec082611e59565b604082019050919050565b60006020820190508181036000830152611ee481611ea8565b9050919050565b7f53656e64657220646f6573206e6f74206861766520656e6f75676820746f6b6560008201527f6e7320746f20616464207468617420616d6f756e74206f66206c69717569646960208201527f7479000000000000000000000000000000000000000000000000000000000000604082015250565b6000611f6d604283611823565b9150611f7882611eeb565b606082019050919050565b60006020820190508181036000830152611f9c81611f60565b9050919050565b6000611fae82611668565b9150611fb983611668565b9250828201905080821115611fd157611fd0611944565b5b92915050565b7f4f776e61626c653a206e6577206f776e657220697320746865207a65726f206160008201527f6464726573730000000000000000000000000000000000000000000000000000602082015250565b6000612033602683611823565b915061203e82611fd7565b604082019050919050565b6000602082019050818103600083015261206281612026565b9050919050565b7f4e487b7100000000000000000000000000000000000000000000000000000000600052602260045260246000fd5b600060028204905060018216806120b057607f821691505b6020821081036120c3576120c2612069565b5b50919050565b7f4f776e61626c653a2063616c6c6572206973206e6f7420746865206f776e6572600082015250565b60006120ff602083611823565b915061210a826120c9565b602082019050919050565b6000602082019050818103600083015261212e816120f2565b9050919050565b6000604082019050818103600083015261214f818561186f565b905061215e6020830184611672565b9392505050565b7f4e487b7100000000000000000000000000000000000000000000000000000000600052605160045260246000fdfea2646970667358221220b9544c7ac7f04a99a90028e2f8fff38c4f3acefda0456632d40d4f1da3d3b28864736f6c63430008110033",
  "linkReferences": {},
  "deployedLinkReferences": {}
}