{
  "_format": "hh-sol-artifact-1",
  "contractName": "TokenExchange",
  "sourceName": "contracts/exchange.sol",
  "abi": [
    {
      "inputs": [],
      "stateMutability": "nonpayable",
      "type": "constructor"
    },
    {
      "anonymous": false,
      "inputs": [
        {
          "indexed": true,
          "internalType": "address",
          "name": "previousOwner",
          "type": "address"
        },
        {
          "indexed": true,
          "internalType": "address",
          "name": "newOwner",
          "type": "address"
        }
      ],
      "name": "OwnershipTransferred",
      "type": "event"
    },
    {
      "inputs": [
        {
          "internalType": "uint256",
          "name": "maxExchangeRate",
          "type": "uint256"
        },
        {
          "internalType": "uint256",
          "name": "minExchangeRate",
          "type": "uint256"
        }
      ],
      "name": "addLiquidity",
      "outputs": [],
      "stateMutability": "payable",
      "type": "function"
    },
    {
      "inputs": [
        {
          "internalType": "uint256",
          "name": "amountTokens",
          "type": "uint256"
        }
      ],
      "name": "createPool",
      "outputs": [],
      "stateMutability": "payable",
      "type": "function"
    },
    {
      "inputs": [],
      "name": "ethToTokenRate",
      "outputs": [
        {
          "internalType": "uint256",
          "name": "",
          "type": "uint256"
        }
      ],
      "stateMutability": "view",
      "type": "function"
    },
    {
      "inputs": [],
      "name": "exchange_name",
      "outputs": [
        {
          "internalType": "string",
          "name": "",
          "type": "string"
        }
      ],
      "stateMutability": "view",
      "type": "function"
    },
    {
      "inputs": [
        {
          "internalType": "uint256",
          "name": "ethAmt",
          "type": "uint256"
        }
      ],
      "name": "findAmtShares",
      "outputs": [
        {
          "internalType": "uint256",
          "name": "",
          "type": "uint256"
        }
      ],
      "stateMutability": "view",
      "type": "function"
    },
    {
      "inputs": [],
      "name": "getSwapFee",
      "outputs": [
        {
          "internalType": "uint256",
          "name": "",
          "type": "uint256"
        },
        {
          "internalType": "uint256",
          "name": "",
          "type": "uint256"
        }
      ],
      "stateMutability": "view",
      "type": "function"
    },
    {
      "inputs": [],
      "name": "owner",
      "outputs": [
        {
          "internalType": "address",
          "name": "",
          "type": "address"
        }
      ],
      "stateMutability": "view",
      "type": "function"
    },
    {
      "inputs": [
        {
          "internalType": "uint256",
          "name": "maxExchangeRate",
          "type": "uint256"
        },
        {
          "internalType": "uint256",
          "name": "minExchangeRate",
          "type": "uint256"
        }
      ],
      "name": "removeAllLiquidity",
      "outputs": [],
      "stateMutability": "payable",
      "type": "function"
    },
    {
      "inputs": [
        {
          "internalType": "uint256",
          "name": "amountETH",
          "type": "uint256"
        },
        {
          "internalType": "uint256",
          "name": "maxExchangeRate",
          "type": "uint256"
        },
        {
          "internalType": "uint256",
          "name": "minExchangeRate",
          "type": "uint256"
        }
      ],
      "name": "removeLiquidity",
      "outputs": [],
      "stateMutability": "payable",
      "type": "function"
    },
    {
      "inputs": [],
      "name": "renounceOwnership",
      "outputs": [],
      "stateMutability": "nonpayable",
      "type": "function"
    },
    {
      "inputs": [
        {
          "internalType": "uint256",
          "name": "maxExchangeRate",
          "type": "uint256"
        }
      ],
      "name": "swapETHForTokens",
      "outputs": [],
      "stateMutability": "payable",
      "type": "function"
    },
    {
      "inputs": [
        {
          "internalType": "uint256",
          "name": "amountTokens",
          "type": "uint256"
        },
        {
          "internalType": "uint256",
          "name": "maxExchangeRate",
          "type": "uint256"
        }
      ],
      "name": "swapTokensForETH",
      "outputs": [],
      "stateMutability": "payable",
      "type": "function"
    },
    {
      "inputs": [],
      "name": "token",
      "outputs": [
        {
          "internalType": "contract Token",
          "name": "",
          "type": "address"
        }
      ],
      "stateMutability": "view",
      "type": "function"
    },
    {
      "inputs": [],
      "name": "tokenToEthRate",
      "outputs": [
        {
          "internalType": "uint256",
          "name": "",
          "type": "uint256"
        }
      ],
      "stateMutability": "view",
      "type": "function"
    },
    {
      "inputs": [
        {
          "internalType": "address",
          "name": "newOwner",
          "type": "address"
        }
      ],
      "name": "transferOwnership",
      "outputs": [],
      "stateMutability": "nonpayable",
      "type": "function"
    }
  ],
  "bytecode": "0x6080604052604051806020016040528060008152506001908162000024919062000481565b50735fbdb2315678afecb367f032d93f642f64180aa3600260006101000a81548173ffffffffffffffffffffffffffffffffffffffff021916908373ffffffffffffffffffffffffffffffffffffffff160217905550600260009054906101000a900473ffffffffffffffffffffffffffffffffffffffff16600360006101000a81548173ffffffffffffffffffffffffffffffffffffffff021916908373ffffffffffffffffffffffffffffffffffffffff16021790555060006004556000600555600060065560006007556000600c556003600d556064600e55620186a06010553480156200011457600080fd5b5062000135620001296200013b60201b60201c565b6200014360201b60201c565b62000568565b600033905090565b60008060009054906101000a900473ffffffffffffffffffffffffffffffffffffffff169050816000806101000a81548173ffffffffffffffffffffffffffffffffffffffff021916908373ffffffffffffffffffffffffffffffffffffffff1602179055508173ffffffffffffffffffffffffffffffffffffffff168173ffffffffffffffffffffffffffffffffffffffff167f8be0079c531659141344cd1fd0a4f28419497f9722a3daafe3b4186f6b6457e060405160405180910390a35050565b600081519050919050565b7f4e487b7100000000000000000000000000000000000000000000000000000000600052604160045260246000fd5b7f4e487b7100000000000000000000000000000000000000000000000000000000600052602260045260246000fd5b600060028204905060018216806200028957607f821691505b6020821081036200029f576200029e62000241565b5b50919050565b60008190508160005260206000209050919050565b60006020601f8301049050919050565b600082821b905092915050565b600060088302620003097fffffffffffffffffffffffffffffffffffffffffffffffffffffffffffffffff82620002ca565b620003158683620002ca565b95508019841693508086168417925050509392505050565b6000819050919050565b6000819050919050565b6000620003626200035c62000356846200032d565b62000337565b6200032d565b9050919050565b6000819050919050565b6200037e8362000341565b620003966200038d8262000369565b848454620002d7565b825550505050565b600090565b620003ad6200039e565b620003ba81848462000373565b505050565b5b81811015620003e257620003d6600082620003a3565b600181019050620003c0565b5050565b601f8211156200043157620003fb81620002a5565b6200040684620002ba565b8101602085101562000416578190505b6200042e6200042585620002ba565b830182620003bf565b50505b505050565b600082821c905092915050565b6000620004566000198460080262000436565b1980831691505092915050565b600062000471838362000443565b9150826002028217905092915050565b6200048c8262000207565b67ffffffffffffffff811115620004a857620004a762000212565b5b620004b4825462000270565b620004c1828285620003e6565b600060209050601f831160018114620004f95760008415620004e4578287015190505b620004f0858262000463565b86555062000560565b601f1984166200050986620002a5565b60005b8281101562000533578489015182556001820191506020850194506020810190506200050c565b868310156200055357848901516200054f601f89168262000443565b8355505b6001600288020188555050505b505050505050565b61544680620005786000396000f3fe6080604052600436106100e85760003560e01c80639cd441da1161008a578063e09adc7011610059578063e09adc701461026b578063f2fde38b14610296578063f694f7d1146102bf578063fc0c546a146102ea576100e8565b80639cd441da146101ca578063a22280a6146101e6578063a65540fb14610202578063d4cadf681461023f576100e8565b8063715018a6116100c6578063715018a6146101505780638259e6a014610167578063857620e1146101835780638da5cb5b1461019f576100e8565b80632eab2841146100ed57806353d99c2a1461010957806358ad6de414610134575b600080fd5b610107600480360381019061010291906141f7565b610315565b005b34801561011557600080fd5b5061011e610b57565b60405161012b9190614233565b60405180910390f35b61014e6004803603810190610149919061424e565b610b7b565b005b34801561015c57600080fd5b5061016561178a565b005b610181600480360381019061017c91906141f7565b61179e565b005b61019d6004803603810190610198919061428e565b611b4e565b005b3480156101ab57600080fd5b506101b461273e565b6040516101c19190614322565b60405180910390f35b6101e460048036038101906101df919061424e565b612767565b005b61020060048036038101906101fb919061424e565b6133e7565b005b34801561020e57600080fd5b50610229600480360381019061022491906141f7565b613cb6565b6040516102369190614233565b60405180910390f35b34801561024b57600080fd5b50610254613cdf565b60405161026292919061433d565b60405180910390f35b34801561027757600080fd5b50610280613cf0565b60405161028d9190614233565b60405180910390f35b3480156102a257600080fd5b506102bd60048036038101906102b89190614392565b613d14565b005b3480156102cb57600080fd5b506102d4613d97565b6040516102e1919061444f565b60405180910390f35b3480156102f657600080fd5b506102ff613e25565b60405161030c91906144d0565b60405180910390f35b6103546040518060400160405280601081526020017f53776170455448466f72546f6b656e730000000000000000000000000000000081525034613e4b565b6103956040518060400160405280600f81526020017f546f6b656e2072657365727665733a0000000000000000000000000000000000815250600454613e4b565b6103d66040518060400160405280600881526020017f4b2076616c75653a000000000000000000000000000000000000000000000000815250600f54613e4b565b6104176040518060400160405280600d81526020017f4554482072657365727665733a00000000000000000000000000000000000000815250600554613e4b565b6104566040518060400160405280601181526020017f6d617845786368616e6765526174653a2000000000000000000000000000000081525082613e4b565b60003411610499576040517f08c379a000000000000000000000000000000000000000000000000000000000815260040161049090614537565b60405180910390fd5b60006104a3613cf0565b90506104e46040518060400160405280600d81526020017f63757272656e74526174653a200000000000000000000000000000000000000081525082613e4b565b81811115610527576040517f08c379a000000000000000000000000000000000000000000000000000000000815260040161051e906145c9565b60405180910390fd5b60003490506000600e5482600d5461053f9190614618565b6105499190614689565b9050806007600082825461055d91906146ba565b925050819055506105a36040518060400160405280600581526020017f4665653a2000000000000000000000000000000000000000000000000000000081525082613e4b565b60005b600b80549050811015610715576000600b82815481106105c9576105c86146ee565b5b9060005260206000200160009054906101000a900473ffffffffffffffffffffffffffffffffffffffff16905082600960008373ffffffffffffffffffffffffffffffffffffffff1673ffffffffffffffffffffffffffffffffffffffff168152602001908152602001600020600082825461064591906146ba565b925050819055506107016040518060400160405280601581526020017f4163637275656420657468206665657320666f72200000000000000000000000815250826040518060400160405280600281526020017f3a20000000000000000000000000000000000000000000000000000000000000815250600960008673ffffffffffffffffffffffffffffffffffffffff1673ffffffffffffffffffffffffffffffffffffffff16815260200190815260200160002054613ee7565b50808061070d9061471d565b9150506105a6565b50600081836107249190614765565b60055461073191906146ba565b600f5461073e9190614689565b60045461074b9190614765565b905061078c6040518060400160405280601081526020017f546f6b656e73416d6f756e7420203d200000000000000000000000000000000081525082613e4b565b600081116107cf576040517f08c379a00000000000000000000000000000000000000000000000000000000081526004016107c69061480b565b60405180910390fd5b6004548110610813576040517f08c379a000000000000000000000000000000000000000000000000000000000815260040161080a9061489d565b60405180910390fd5b600360009054906101000a900473ffffffffffffffffffffffffffffffffffffffff1673ffffffffffffffffffffffffffffffffffffffff1663a9059cbb33836040518363ffffffff1660e01b81526004016108709291906148bd565b6020604051808303816000875af115801561088f573d6000803e3d6000fd5b505050506040513d601f19601f820116820180604052508101906108b3919061491e565b5061090a6040518060400160405280601581526020017f53776170706572206574682062616c616e63653a2000000000000000000000008152503373ffffffffffffffffffffffffffffffffffffffff1631613e4b565b6109e46040518060400160405280601681526020017f5377617070657220746f6b656e2062616c616e63653a00000000000000000000815250600360009054906101000a900473ffffffffffffffffffffffffffffffffffffffff1673ffffffffffffffffffffffffffffffffffffffff166370a08231336040518263ffffffff1660e01b815260040161099e9190614322565b602060405180830381865afa1580156109bb573d6000803e3d6000fd5b505050506040513d601f19601f820116820180604052508101906109df9190614960565b613e4b565b600360009054906101000a900473ffffffffffffffffffffffffffffffffffffffff1673ffffffffffffffffffffffffffffffffffffffff166370a08231306040518263ffffffff1660e01b8152600401610a3f9190614322565b602060405180830381865afa158015610a5c573d6000803e3d6000fd5b505050506040513d601f19601f82011682018060405250810190610a809190614960565b60048190555047600581905550610ace6040518060400160405280600f81526020017f546f6b656e2072657365727665733a0000000000000000000000000000000000815250600454613e4b565b610b0f6040518060400160405280600881526020017f4b2076616c75653a000000000000000000000000000000000000000000000000815250600f54613e4b565b610b506040518060400160405280600d81526020017f4554482072657365727665733a00000000000000000000000000000000000000815250600554613e4b565b5050505050565b6000600554601054600454610b6c9190614618565b610b769190614689565b905090565b610bbc6040518060400160405280600f81526020017f546f6b656e2072657365727665733a0000000000000000000000000000000000815250600454613e4b565b610bfd6040518060400160405280600881526020017f4b2076616c75653a000000000000000000000000000000000000000000000000815250600f54613e4b565b610c3e6040518060400160405280600d81526020017f4554482072657365727665733a00000000000000000000000000000000000000815250600554613e4b565b610c7c6040518060400160405280601781526020017f52656d6f766520616c6c206c6971756964697479203a20000000000000000000815250613f89565b610cfa6040518060400160405280600d81526020017f5573657227732073686172657300000000000000000000000000000000000000815250600860003373ffffffffffffffffffffffffffffffffffffffff1673ffffffffffffffffffffffffffffffffffffffff16815260200190815260200160002054613e4b565b610d3b6040518060400160405280600e81526020017f746f74616c207368617265733a20000000000000000000000000000000000000815250600c54613e4b565b6000610d45613cf0565b905082811115610d8a576040517f08c379a0000000000000000000000000000000000000000000000000000000008152600401610d81906145c9565b60405180910390fd5b81811015610dcd576040517f08c379a0000000000000000000000000000000000000000000000000000000008152600401610dc4906149ff565b60405180910390fd5b6000600c54600860003373ffffffffffffffffffffffffffffffffffffffff1673ffffffffffffffffffffffffffffffffffffffff16815260200190815260200160002054601054610e1f9190614618565b610e299190614689565b9050600060105460055483610e3e9190614618565b610e489190614689565b9050600060105460045484610e5d9190614618565b610e679190614689565b90506005548210610ead576040517f08c379a0000000000000000000000000000000000000000000000000000000008152600401610ea490614a6b565b60405180910390fd5b6004548110610ef1576040517f08c379a0000000000000000000000000000000000000000000000000000000008152600401610ee890614afd565b60405180910390fd5b610f306040518060400160405280601381526020017f52656d6f7665206d617820455448206f663a200000000000000000000000000081525083613e4b565b610f6f6040518060400160405280601681526020017f52656d6f7665206d617820746f6b656e73206f663a200000000000000000000081525082613e4b565b6000610f7a83613cb6565b90506000600c54600960003373ffffffffffffffffffffffffffffffffffffffff1673ffffffffffffffffffffffffffffffffffffffff1681526020019081526020016000205483610fcc9190614618565b610fd69190614689565b90506000600c54600a60003373ffffffffffffffffffffffffffffffffffffffff1673ffffffffffffffffffffffffffffffffffffffff16815260200190815260200160002054846110289190614618565b6110329190614689565b905081600760008282546110469190614765565b92505081905550806006600082825461105f9190614765565b925050819055506000600960003373ffffffffffffffffffffffffffffffffffffffff1673ffffffffffffffffffffffffffffffffffffffff168152602001908152602001600020819055506000600a60003373ffffffffffffffffffffffffffffffffffffffff1673ffffffffffffffffffffffffffffffffffffffff1681526020019081526020016000208190555061112f6040518060400160405280600c81526020017f746f6b656e52657761726473000000000000000000000000000000000000000081525082613e4b565b61116e6040518060400160405280600b81526020017f657468526577617264733a00000000000000000000000000000000000000000081525083613e4b565b82600c60008282546111809190614765565b925050819055506000600860003373ffffffffffffffffffffffffffffffffffffffff1673ffffffffffffffffffffffffffffffffffffffff1681526020019081526020016000208190555061120b6040518060400160405280601281526020017f53686172657320746f2072656d6f76653a20000000000000000000000000000081525084613e4b565b6112e56040518060400160405280600e81526020017f557365722062616c616e63653a20000000000000000000000000000000000000815250600360009054906101000a900473ffffffffffffffffffffffffffffffffffffffff1673ffffffffffffffffffffffffffffffffffffffff166370a08231336040518263ffffffff1660e01b815260040161129f9190614322565b602060405180830381865afa1580156112bc573d6000803e3d6000fd5b505050506040513d601f19601f820116820180604052508101906112e09190614960565b613e4b565b600360009054906101000a900473ffffffffffffffffffffffffffffffffffffffff1673ffffffffffffffffffffffffffffffffffffffff1663a9059cbb33866040518363ffffffff1660e01b81526004016113429291906148bd565b6020604051808303816000875af1158015611361573d6000803e3d6000fd5b505050506040513d601f19601f82011682018060405250810190611385919061491e565b503373ffffffffffffffffffffffffffffffffffffffff166108fc869081150290604051600060405180830381858888f193505050501580156113cc573d6000803e3d6000fd5b5047600581905550600360009054906101000a900473ffffffffffffffffffffffffffffffffffffffff1673ffffffffffffffffffffffffffffffffffffffff166370a08231306040518263ffffffff1660e01b815260040161142f9190614322565b602060405180830381865afa15801561144c573d6000803e3d6000fd5b505050506040513d601f19601f820116820180604052508101906114709190614960565b600481905550600360009054906101000a900473ffffffffffffffffffffffffffffffffffffffff1673ffffffffffffffffffffffffffffffffffffffff166370a08231306040518263ffffffff1660e01b81526004016114d19190614322565b602060405180830381865afa1580156114ee573d6000803e3d6000fd5b505050506040513d601f19601f820116820180604052508101906115129190614960565b4761151d9190614618565b600f819055506115fd6040518060400160405280600e81526020017f557365722062616c616e63653a20000000000000000000000000000000000000815250600360009054906101000a900473ffffffffffffffffffffffffffffffffffffffff1673ffffffffffffffffffffffffffffffffffffffff166370a08231336040518263ffffffff1660e01b81526004016115b79190614322565b602060405180830381865afa1580156115d4573d6000803e3d6000fd5b505050506040513d601f19601f820116820180604052508101906115f89190614960565b613e4b565b61163e6040518060400160405280600f81526020017f546f6b656e2072657365727665733a0000000000000000000000000000000000815250600454613e4b565b61167f6040518060400160405280600881526020017f4b2076616c75653a000000000000000000000000000000000000000000000000815250600f54613e4b565b6116c06040518060400160405280600d81526020017f4554482072657365727665733a00000000000000000000000000000000000000815250600554613e4b565b61173e6040518060400160405280600d81526020017f5573657227732073686172657300000000000000000000000000000000000000815250600860003373ffffffffffffffffffffffffffffffffffffffff1673ffffffffffffffffffffffffffffffffffffffff16815260200190815260200160002054613e4b565b61177f6040518060400160405280600e81526020017f546f74616c207368617265733a20000000000000000000000000000000000000815250600c54613e4b565b505050505050505050565b611792614022565b61179c60006140a0565b565b6117a6614022565b6000600454146117eb576040517f08c379a00000000000000000000000000000000000000000000000000000000081526004016117e290614b69565b60405180910390fd5b600060055414611830576040517f08c379a000000000000000000000000000000000000000000000000000000000815260040161182790614bd5565b60405180910390fd5b60003411611873576040517f08c379a000000000000000000000000000000000000000000000000000000000815260040161186a90614c41565b60405180910390fd5b6000600360009054906101000a900473ffffffffffffffffffffffffffffffffffffffff1673ffffffffffffffffffffffffffffffffffffffff166370a08231336040518263ffffffff1660e01b81526004016118d09190614322565b602060405180830381865afa1580156118ed573d6000803e3d6000fd5b505050506040513d601f19601f820116820180604052508101906119119190614960565b905080821115611956576040517f08c379a000000000000000000000000000000000000000000000000000000000815260040161194d90614cd3565b60405180910390fd5b60008211611999576040517f08c379a000000000000000000000000000000000000000000000000000000000815260040161199090614d3f565b60405180910390fd5b600360009054906101000a900473ffffffffffffffffffffffffffffffffffffffff1673ffffffffffffffffffffffffffffffffffffffff166323b872dd3330856040518463ffffffff1660e01b81526004016119f893929190614d5f565b6020604051808303816000875af1158015611a17573d6000803e3d6000fd5b505050506040513d601f19601f82011682018060405250810190611a3b919061491e565b50600360009054906101000a900473ffffffffffffffffffffffffffffffffffffffff1673ffffffffffffffffffffffffffffffffffffffff166370a08231306040518263ffffffff1660e01b8152600401611a979190614322565b602060405180830381865afa158015611ab4573d6000803e3d6000fd5b505050506040513d601f19601f82011682018060405250810190611ad89190614960565b60048190555034600581905550600554600454611af59190614618565b600f81905550620186a0600c819055506064600860003373ffffffffffffffffffffffffffffffffffffffff1673ffffffffffffffffffffffffffffffffffffffff168152602001908152602001600020819055505050565b611b8f6040518060400160405280600f81526020017f546f6b656e2072657365727665733a0000000000000000000000000000000000815250600454613e4b565b611bd06040518060400160405280600881526020017f4b2076616c75653a000000000000000000000000000000000000000000000000815250600f54613e4b565b611c116040518060400160405280600d81526020017f4554482072657365727665733a00000000000000000000000000000000000000815250600554613e4b565b611c526040518060400160405280600e81526020017f546f74616c207368617265733a20000000000000000000000000000000000000815250600c54613e4b565b611cd06040518060400160405280600d81526020017f5573657227732073686172657300000000000000000000000000000000000000815250600860003373ffffffffffffffffffffffffffffffffffffffff1673ffffffffffffffffffffffffffffffffffffffff16815260200190815260200160002054613e4b565b611d0f6040518060400160405280601d81526020017f52656d6f7665206c6971756964697479206f6620616d6f756e74203a2000000081525084613e4b565b6000611d19613cf0565b9050611d5a6040518060400160405280600e81526020017f43757272656e7420726174653a2000000000000000000000000000000000000081525082613e4b565b611d996040518060400160405280600981526020017f6d696e526174653a20000000000000000000000000000000000000000000000081525083613e4b565b611dd86040518060400160405280600981526020017f6d6178526174653a20000000000000000000000000000000000000000000000081525084613e4b565b82811115611e1b576040517f08c379a0000000000000000000000000000000000000000000000000000000008152600401611e12906145c9565b60405180910390fd5b81811015611e5e576040517f08c379a0000000000000000000000000000000000000000000000000000000008152600401611e55906149ff565b60405180910390fd5b60008411611ea1576040517f08c379a0000000000000000000000000000000000000000000000000000000008152600401611e9890614e08565b60405180910390fd5b6005548410611ee5576040517f08c379a0000000000000000000000000000000000000000000000000000000008152600401611edc90614e74565b60405180910390fd5b6000600c54601054600860003373ffffffffffffffffffffffffffffffffffffffff1673ffffffffffffffffffffffffffffffffffffffff16815260200190815260200160002054611f379190614618565b611f419190614689565b9050600060055460105487611f569190614618565b611f609190614689565b905080821015611fa5576040517f08c379a0000000000000000000000000000000000000000000000000000000008152600401611f9c90614ee0565b60405180910390fd5b600060055487600454611fb89190614618565b611fc29190614689565b90506004548110612008576040517f08c379a0000000000000000000000000000000000000000000000000000000008152600401611fff90614afd565b60405180910390fd5b6120476040518060400160405280601981526020017f7468697320657175616c7320746f6b656e73416d6f756e743a0000000000000081525082613e4b565b600061205288613cb6565b90506000600c54600960003373ffffffffffffffffffffffffffffffffffffffff1673ffffffffffffffffffffffffffffffffffffffff16815260200190815260200160002054836120a49190614618565b6120ae9190614689565b90506000600c54600a60003373ffffffffffffffffffffffffffffffffffffffff1673ffffffffffffffffffffffffffffffffffffffff16815260200190815260200160002054846121009190614618565b61210a9190614689565b9050816007600082825461211e9190614765565b9250508190555080600660008282546121379190614765565b9250508190555081600960003373ffffffffffffffffffffffffffffffffffffffff1673ffffffffffffffffffffffffffffffffffffffff168152602001908152602001600020600082825461218d9190614765565b9250508190555080600a60003373ffffffffffffffffffffffffffffffffffffffff1673ffffffffffffffffffffffffffffffffffffffff16815260200190815260200160002060008282546121e39190614765565b9250508190555082600c60008282546121fc9190614765565b9250508190555082600860003373ffffffffffffffffffffffffffffffffffffffff1673ffffffffffffffffffffffffffffffffffffffff16815260200190815260200160002060008282546122529190614765565b925050819055506122986040518060400160405280601281526020017f53686172657320746f2072656d6f76653a20000000000000000000000000000081525084613e4b565b600360009054906101000a900473ffffffffffffffffffffffffffffffffffffffff1673ffffffffffffffffffffffffffffffffffffffff1663a9059cbb33866040518363ffffffff1660e01b81526004016122f59291906148bd565b6020604051808303816000875af1158015612314573d6000803e3d6000fd5b505050506040513d601f19601f82011682018060405250810190612338919061491e565b503373ffffffffffffffffffffffffffffffffffffffff166108fc8b9081150290604051600060405180830381858888f1935050505015801561237f573d6000803e3d6000fd5b5047600581905550600360009054906101000a900473ffffffffffffffffffffffffffffffffffffffff1673ffffffffffffffffffffffffffffffffffffffff166370a08231306040518263ffffffff1660e01b81526004016123e29190614322565b602060405180830381865afa1580156123ff573d6000803e3d6000fd5b505050506040513d601f19601f820116820180604052508101906124239190614960565b600481905550600360009054906101000a900473ffffffffffffffffffffffffffffffffffffffff1673ffffffffffffffffffffffffffffffffffffffff166370a08231306040518263ffffffff1660e01b81526004016124849190614322565b602060405180830381865afa1580156124a1573d6000803e3d6000fd5b505050506040513d601f19601f820116820180604052508101906124c59190614960565b476124d09190614618565b600f819055506125b06040518060400160405280600e81526020017f557365722062616c616e63653a20000000000000000000000000000000000000815250600360009054906101000a900473ffffffffffffffffffffffffffffffffffffffff1673ffffffffffffffffffffffffffffffffffffffff166370a08231336040518263ffffffff1660e01b815260040161256a9190614322565b602060405180830381865afa158015612587573d6000803e3d6000fd5b505050506040513d601f19601f820116820180604052508101906125ab9190614960565b613e4b565b6125f16040518060400160405280600f81526020017f546f6b656e2072657365727665733a0000000000000000000000000000000000815250600454613e4b565b6126326040518060400160405280600881526020017f4b2076616c75653a000000000000000000000000000000000000000000000000815250600f54613e4b565b6126736040518060400160405280600d81526020017f4554482072657365727665733a00000000000000000000000000000000000000815250600554613e4b565b6126b46040518060400160405280600e81526020017f546f74616c207368617265733a20000000000000000000000000000000000000815250600c54613e4b565b6127326040518060400160405280600d81526020017f5573657227732073686172657300000000000000000000000000000000000000815250600860003373ffffffffffffffffffffffffffffffffffffffff1673ffffffffffffffffffffffffffffffffffffffff16815260200190815260200160002054613e4b565b50505050505050505050565b60008060009054906101000a900473ffffffffffffffffffffffffffffffffffffffff16905090565b6127a86040518060400160405280600f81526020017f546f6b656e2072657365727665733a0000000000000000000000000000000000815250600454613e4b565b6127e96040518060400160405280600881526020017f4b2076616c75653a000000000000000000000000000000000000000000000000815250600f54613e4b565b61282a6040518060400160405280600d81526020017f4554482072657365727665733a00000000000000000000000000000000000000815250600554613e4b565b6128a86040518060400160405280600d81526020017f5573657227732073686172657300000000000000000000000000000000000000815250600860003373ffffffffffffffffffffffffffffffffffffffff1673ffffffffffffffffffffffffffffffffffffffff16815260200190815260200160002054613e4b565b6128e96040518060400160405280600e81526020017f546f74616c207368617265733a20000000000000000000000000000000000000815250600c54613e4b565b6129286040518060400160405280601a81526020017f416464206c6971756964697479206f6620616d6f756e74203a2000000000000081525034613e4b565b6000612932613cf0565b905082811115612977576040517f08c379a000000000000000000000000000000000000000000000000000000000815260040161296e906145c9565b60405180910390fd5b818110156129ba576040517f08c379a00000000000000000000000000000000000000000000000000000000081526004016129b1906149ff565b60405180910390fd5b600034116129fd576040517f08c379a00000000000000000000000000000000000000000000000000000000081526004016129f490614f72565b60405180910390fd5b600060055460045434612a109190614618565b612a1a9190614689565b9050612a5b6040518060400160405280601981526020017f7468697320657175616c7320746f6b656e73416d6f756e743a0000000000000081525082613e4b565b80600360009054906101000a900473ffffffffffffffffffffffffffffffffffffffff1673ffffffffffffffffffffffffffffffffffffffff166370a08231336040518263ffffffff1660e01b8152600401612ab79190614322565b602060405180830381865afa158015612ad4573d6000803e3d6000fd5b505050506040513d601f19601f82011682018060405250810190612af89190614960565b1015612b39576040517f08c379a0000000000000000000000000000000000000000000000000000000008152600401612b309061502a565b60405180910390fd5b612c136040518060400160405280600f81526020017f4265666f726520706179696e673a200000000000000000000000000000000000815250600360009054906101000a900473ffffffffffffffffffffffffffffffffffffffff1673ffffffffffffffffffffffffffffffffffffffff166370a08231336040518263ffffffff1660e01b8152600401612bcd9190614322565b602060405180830381865afa158015612bea573d6000803e3d6000fd5b505050506040513d601f19601f82011682018060405250810190612c0e9190614960565b613e4b565b600360009054906101000a900473ffffffffffffffffffffffffffffffffffffffff1673ffffffffffffffffffffffffffffffffffffffff166323b872dd3330846040518463ffffffff1660e01b8152600401612c7293929190614d5f565b6020604051808303816000875af1158015612c91573d6000803e3d6000fd5b505050506040513d601f19601f82011682018060405250810190612cb5919061491e565b50612d906040518060400160405280601881526020017f436f6e7472616374206166746572207061796d656e743a200000000000000000815250600360009054906101000a900473ffffffffffffffffffffffffffffffffffffffff1673ffffffffffffffffffffffffffffffffffffffff166370a08231306040518263ffffffff1660e01b8152600401612d4a9190614322565b602060405180830381865afa158015612d67573d6000803e3d6000fd5b505050506040513d601f19601f82011682018060405250810190612d8b9190614960565b613e4b565b6000612d9b34613cb6565b905080600c6000828254612daf91906146ba565b9250508190555080600860003373ffffffffffffffffffffffffffffffffffffffff1673ffffffffffffffffffffffffffffffffffffffff1681526020019081526020016000206000828254612e0591906146ba565b92505081905550612e4b6040518060400160405280600f81526020017f53686172657320746f206164643a20000000000000000000000000000000000081525082613e4b565b47600581905550600360009054906101000a900473ffffffffffffffffffffffffffffffffffffffff1673ffffffffffffffffffffffffffffffffffffffff166370a08231306040518263ffffffff1660e01b8152600401612ead9190614322565b602060405180830381865afa158015612eca573d6000803e3d6000fd5b505050506040513d601f19601f82011682018060405250810190612eee9190614960565b600481905550600360009054906101000a900473ffffffffffffffffffffffffffffffffffffffff1673ffffffffffffffffffffffffffffffffffffffff166370a08231306040518263ffffffff1660e01b8152600401612f4f9190614322565b602060405180830381865afa158015612f6c573d6000803e3d6000fd5b505050506040513d601f19601f82011682018060405250810190612f909190614960565b47612f9b9190614618565b600f819055506000805b600b8054905081101561303f573373ffffffffffffffffffffffffffffffffffffffff16600b8281548110612fdd57612fdc6146ee565b5b9060005260206000200160009054906101000a900473ffffffffffffffffffffffffffffffffffffffff1673ffffffffffffffffffffffffffffffffffffffff160361302c576001915061303f565b80806130379061471d565b915050612fa5565b50806130a957600b339080600181540180825580915050600190039060005260206000200160009091909190916101000a81548173ffffffffffffffffffffffffffffffffffffffff021916908373ffffffffffffffffffffffffffffffffffffffff1602179055505b6131836040518060400160405280600e81526020017f416674657220706179696e673a20000000000000000000000000000000000000815250600360009054906101000a900473ffffffffffffffffffffffffffffffffffffffff1673ffffffffffffffffffffffffffffffffffffffff166370a08231336040518263ffffffff1660e01b815260040161313d9190614322565b602060405180830381865afa15801561315a573d6000803e3d6000fd5b505050506040513d601f19601f8201168201806040525081019061317e9190614960565b613e4b565b61325d6040518060400160405280601881526020017f436f6e7472616374206166746572207061796d656e743a200000000000000000815250600360009054906101000a900473ffffffffffffffffffffffffffffffffffffffff1673ffffffffffffffffffffffffffffffffffffffff166370a08231306040518263ffffffff1660e01b81526004016132179190614322565b602060405180830381865afa158015613234573d6000803e3d6000fd5b505050506040513d601f19601f820116820180604052508101906132589190614960565b613e4b565b61329e6040518060400160405280600f81526020017f546f6b656e2072657365727665733a0000000000000000000000000000000000815250600454613e4b565b6132df6040518060400160405280600881526020017f4b2076616c75653a000000000000000000000000000000000000000000000000815250600f54613e4b565b6133206040518060400160405280600d81526020017f4554482072657365727665733a00000000000000000000000000000000000000815250600554613e4b565b6133616040518060400160405280600e81526020017f546f74616c207368617265733a20000000000000000000000000000000000000815250600c54613e4b565b6133df6040518060400160405280600d81526020017f5573657227732073686172657300000000000000000000000000000000000000815250600860003373ffffffffffffffffffffffffffffffffffffffff1673ffffffffffffffffffffffffffffffffffffffff16815260200190815260200160002054613e4b565b505050505050565b6134286040518060400160405280600f81526020017f546f6b656e2072657365727665733a0000000000000000000000000000000000815250600454613e4b565b6134696040518060400160405280600881526020017f4b2076616c75653a000000000000000000000000000000000000000000000000815250600f54613e4b565b6134aa6040518060400160405280600d81526020017f4554482072657365727665733a00000000000000000000000000000000000000815250600554613e4b565b6134eb6040518060400160405280600e81526020017f546f74616c207368617265733a20000000000000000000000000000000000000815250600c54613e4b565b61352a6040518060400160405280601e81526020017f73776170546f6b656e73466f72455448206f6620746f6b656e416d743a20000081525083613e4b565b600360009054906101000a900473ffffffffffffffffffffffffffffffffffffffff1673ffffffffffffffffffffffffffffffffffffffff166370a08231336040518263ffffffff1660e01b81526004016135859190614322565b602060405180830381865afa1580156135a2573d6000803e3d6000fd5b505050506040513d601f19601f820116820180604052508101906135c69190614960565b821115613608576040517f08c379a00000000000000000000000000000000000000000000000000000000081526004016135ff906150bc565b60405180910390fd5b6000821161364b576040517f08c379a00000000000000000000000000000000000000000000000000000000081526004016136429061514e565b60405180910390fd5b6000613655610b57565b90508181111561369a576040517f08c379a0000000000000000000000000000000000000000000000000000000008152600401613691906145c9565b60405180910390fd5b6000600e5484600d546136ad9190614618565b6136b79190614689565b905080600660008282546136cb91906146ba565b92505081905550600081856136e09190614765565b6004546136ed91906146ba565b600f546136fa9190614689565b6005546137079190614765565b90506137486040518060400160405280600581526020017f4665653a2000000000000000000000000000000000000000000000000000000081525083613e4b565b60005b600b805490508110156138ba576000600b828154811061376e5761376d6146ee565b5b9060005260206000200160009054906101000a900473ffffffffffffffffffffffffffffffffffffffff16905083600a60008373ffffffffffffffffffffffffffffffffffffffff1673ffffffffffffffffffffffffffffffffffffffff16815260200190815260200160002060008282546137ea91906146ba565b925050819055506138a66040518060400160405280601781526020017f4163637275656420746f6b656e206665657320666f7220000000000000000000815250826040518060400160405280600281526020017f3a20000000000000000000000000000000000000000000000000000000000000815250600a60008673ffffffffffffffffffffffffffffffffffffffff1673ffffffffffffffffffffffffffffffffffffffff16815260200190815260200160002054613ee7565b5080806138b29061471d565b91505061374b565b5060055481106138ff576040517f08c379a00000000000000000000000000000000000000000000000000000000081526004016138f6906151e0565b60405180910390fd5b61393e6040518060400160405280600f81526020017f416d6f756e7420746f204574683a20000000000000000000000000000000000081525082613e4b565b613a186040518060400160405280601381526020017f42616c616e6365206f662073656e6465723a2000000000000000000000000000815250600360009054906101000a900473ffffffffffffffffffffffffffffffffffffffff1673ffffffffffffffffffffffffffffffffffffffff166370a08231336040518263ffffffff1660e01b81526004016139d29190614322565b602060405180830381865afa1580156139ef573d6000803e3d6000fd5b505050506040513d601f19601f82011682018060405250810190613a139190614960565b613e4b565b600360009054906101000a900473ffffffffffffffffffffffffffffffffffffffff1673ffffffffffffffffffffffffffffffffffffffff166323b872dd3330886040518463ffffffff1660e01b8152600401613a7793929190614d5f565b6020604051808303816000875af1158015613a96573d6000803e3d6000fd5b505050506040513d601f19601f82011682018060405250810190613aba919061491e565b503373ffffffffffffffffffffffffffffffffffffffff166108fc829081150290604051600060405180830381858888f19350505050158015613b01573d6000803e3d6000fd5b50600360009054906101000a900473ffffffffffffffffffffffffffffffffffffffff1673ffffffffffffffffffffffffffffffffffffffff166370a08231306040518263ffffffff1660e01b8152600401613b5d9190614322565b602060405180830381865afa158015613b7a573d6000803e3d6000fd5b505050506040513d601f19601f82011682018060405250810190613b9e9190614960565b60048190555047600581905550613bec6040518060400160405280600f81526020017f546f6b656e2072657365727665733a0000000000000000000000000000000000815250600454613e4b565b613c2d6040518060400160405280600881526020017f4b2076616c75653a000000000000000000000000000000000000000000000000815250600f54613e4b565b613c6e6040518060400160405280600d81526020017f4554482072657365727665733a00000000000000000000000000000000000000815250600554613e4b565b613caf6040518060400160405280600e81526020017f546f74616c207368617265733a20000000000000000000000000000000000000815250600c54613e4b565b5050505050565b600080600554600c5484613cca9190614618565b613cd49190614689565b905080915050919050565b600080600d54600e54915091509091565b6000600454601054600554613d059190614618565b613d0f9190614689565b905090565b613d1c614022565b600073ffffffffffffffffffffffffffffffffffffffff168173ffffffffffffffffffffffffffffffffffffffff1603613d8b576040517f08c379a0000000000000000000000000000000000000000000000000000000008152600401613d8290615272565b60405180910390fd5b613d94816140a0565b50565b60018054613da4906152c1565b80601f0160208091040260200160405190810160405280929190818152602001828054613dd0906152c1565b8015613e1d5780601f10613df257610100808354040283529160200191613e1d565b820191906000526020600020905b815481529060010190602001808311613e0057829003601f168201915b505050505081565b600360009054906101000a900473ffffffffffffffffffffffffffffffffffffffff1681565b613ee38282604051602401613e619291906152f2565b6040516020818303038152906040527fb60e72cc000000000000000000000000000000000000000000000000000000007bffffffffffffffffffffffffffffffffffffffffffffffffffffffff19166020820180517bffffffffffffffffffffffffffffffffffffffffffffffffffffffff8381831617835250505050614164565b5050565b613f8384848484604051602401613f019493929190615322565b6040516020818303038152906040527f91d1112e000000000000000000000000000000000000000000000000000000007bffffffffffffffffffffffffffffffffffffffffffffffffffffffff19166020820180517bffffffffffffffffffffffffffffffffffffffffffffffffffffffff8381831617835250505050614164565b50505050565b61401f81604051602401613f9d919061444f565b6040516020818303038152906040527f41304fac000000000000000000000000000000000000000000000000000000007bffffffffffffffffffffffffffffffffffffffffffffffffffffffff19166020820180517bffffffffffffffffffffffffffffffffffffffffffffffffffffffff8381831617835250505050614164565b50565b61402a61417e565b73ffffffffffffffffffffffffffffffffffffffff1661404861273e565b73ffffffffffffffffffffffffffffffffffffffff161461409e576040517f08c379a0000000000000000000000000000000000000000000000000000000008152600401614095906153c1565b60405180910390fd5b565b60008060009054906101000a900473ffffffffffffffffffffffffffffffffffffffff169050816000806101000a81548173ffffffffffffffffffffffffffffffffffffffff021916908373ffffffffffffffffffffffffffffffffffffffff1602179055508173ffffffffffffffffffffffffffffffffffffffff168173ffffffffffffffffffffffffffffffffffffffff167f8be0079c531659141344cd1fd0a4f28419497f9722a3daafe3b4186f6b6457e060405160405180910390a35050565b61417b816141736141866141a7565b63ffffffff16565b50565b600033905090565b60006a636f6e736f6c652e6c6f679050600080835160208501845afa505050565b6141b2819050919050565b6141ba6153e1565b565b600080fd5b6000819050919050565b6141d4816141c1565b81146141df57600080fd5b50565b6000813590506141f1816141cb565b92915050565b60006020828403121561420d5761420c6141bc565b5b600061421b848285016141e2565b91505092915050565b61422d816141c1565b82525050565b60006020820190506142486000830184614224565b92915050565b60008060408385031215614265576142646141bc565b5b6000614273858286016141e2565b9250506020614284858286016141e2565b9150509250929050565b6000806000606084860312156142a7576142a66141bc565b5b60006142b5868287016141e2565b93505060206142c6868287016141e2565b92505060406142d7868287016141e2565b9150509250925092565b600073ffffffffffffffffffffffffffffffffffffffff82169050919050565b600061430c826142e1565b9050919050565b61431c81614301565b82525050565b60006020820190506143376000830184614313565b92915050565b60006040820190506143526000830185614224565b61435f6020830184614224565b9392505050565b61436f81614301565b811461437a57600080fd5b50565b60008135905061438c81614366565b92915050565b6000602082840312156143a8576143a76141bc565b5b60006143b68482850161437d565b91505092915050565b600081519050919050565b600082825260208201905092915050565b60005b838110156143f95780820151818401526020810190506143de565b60008484015250505050565b6000601f19601f8301169050919050565b6000614421826143bf565b61442b81856143ca565b935061443b8185602086016143db565b61444481614405565b840191505092915050565b600060208201905081810360008301526144698184614416565b905092915050565b6000819050919050565b600061449661449161448c846142e1565b614471565b6142e1565b9050919050565b60006144a88261447b565b9050919050565b60006144ba8261449d565b9050919050565b6144ca816144af565b82525050565b60006020820190506144e560008301846144c1565b92915050565b7f43616e6e6f7420737761702061206e6567617469766520616d6f756e74000000600082015250565b6000614521601d836143ca565b915061452c826144eb565b602082019050919050565b6000602082019050818103600083015261455081614514565b9050919050565b7f43757272656e74207261746520686173206d6f7665642061626f7665206d617860008201527f45786368616e6765526174650000000000000000000000000000000000000000602082015250565b60006145b3602c836143ca565b91506145be82614557565b604082019050919050565b600060208201905081810360008301526145e2816145a6565b9050919050565b7f4e487b7100000000000000000000000000000000000000000000000000000000600052601160045260246000fd5b6000614623826141c1565b915061462e836141c1565b925082820261463c816141c1565b91508282048414831517614653576146526145e9565b5b5092915050565b7f4e487b7100000000000000000000000000000000000000000000000000000000600052601260045260246000fd5b6000614694826141c1565b915061469f836141c1565b9250826146af576146ae61465a565b5b828204905092915050565b60006146c5826141c1565b91506146d0836141c1565b92508282019050808211156146e8576146e76145e9565b5b92915050565b7f4e487b7100000000000000000000000000000000000000000000000000000000600052603260045260246000fd5b6000614728826141c1565b91507fffffffffffffffffffffffffffffffffffffffffffffffffffffffffffffffff820361475a576147596145e9565b5b600182019050919050565b6000614770826141c1565b915061477b836141c1565b9250828203905081811115614793576147926145e9565b5b92915050565b7f43616e6e6f742067697665206261636b2061206e6567617469766520746f6b6560008201527f6e206e756d626572000000000000000000000000000000000000000000000000602082015250565b60006147f56028836143ca565b915061480082614799565b604082019050919050565b60006020820190508181036000830152614824816147e8565b9050919050565b7f4e6f7420656e6f75676820746f6b656e7320696e207265736572766520746f2060008201527f6d616b6520737761700000000000000000000000000000000000000000000000602082015250565b60006148876029836143ca565b91506148928261482b565b604082019050919050565b600060208201905081810360008301526148b68161487a565b9050919050565b60006040820190506148d26000830185614313565b6148df6020830184614224565b9392505050565b60008115159050919050565b6148fb816148e6565b811461490657600080fd5b50565b600081519050614918816148f2565b92915050565b600060208284031215614934576149336141bc565b5b600061494284828501614909565b91505092915050565b60008151905061495a816141cb565b92915050565b600060208284031215614976576149756141bc565b5b60006149848482850161494b565b91505092915050565b7f43757272656e74207261746520686173206d6f7665642062656c6f77206d696e60008201527f45786368616e6765526174650000000000000000000000000000000000000000602082015250565b60006149e9602c836143ca565b91506149f48261498d565b604082019050919050565b60006020820190508181036000830152614a18816149dc565b9050919050565b7f43616e6e6f74206465706c6574652065746820726573657276657320746f2030600082015250565b6000614a556020836143ca565b9150614a6082614a1f565b602082019050919050565b60006020820190508181036000830152614a8481614a48565b9050919050565b7f43616e6e6f74206465706c65746520746f6b656e20726573657276657320746f60008201527f2030000000000000000000000000000000000000000000000000000000000000602082015250565b6000614ae76022836143ca565b9150614af282614a8b565b604082019050919050565b60006020820190508181036000830152614b1681614ada565b9050919050565b7f546f6b656e20726573657276657320776173206e6f7420300000000000000000600082015250565b6000614b536018836143ca565b9150614b5e82614b1d565b602082019050919050565b60006020820190508181036000830152614b8281614b46565b9050919050565b7f45544820726573657276657320776173206e6f7420302e000000000000000000600082015250565b6000614bbf6017836143ca565b9150614bca82614b89565b602082019050919050565b60006020820190508181036000830152614bee81614bb2565b9050919050565b7f4e6565642065746820746f2063726561746520706f6f6c2e0000000000000000600082015250565b6000614c2b6018836143ca565b9150614c3682614bf5565b602082019050919050565b60006020820190508181036000830152614c5a81614c1e565b9050919050565b7f4e6f74206861766520656e6f75676820746f6b656e7320746f2063726561746560008201527f2074686520706f6f6c0000000000000000000000000000000000000000000000602082015250565b6000614cbd6029836143ca565b9150614cc882614c61565b604082019050919050565b60006020820190508181036000830152614cec81614cb0565b9050919050565b7f4e65656420746f6b656e7320746f2063726561746520706f6f6c2e0000000000600082015250565b6000614d29601b836143ca565b9150614d3482614cf3565b602082019050919050565b60006020820190508181036000830152614d5881614d1c565b9050919050565b6000606082019050614d746000830186614313565b614d816020830185614313565b614d8e6040830184614224565b949350505050565b7f4d7573742072656d6f766520706f73697469766520616d6f756e74206f66206c60008201527f6971756964697479000000000000000000000000000000000000000000000000602082015250565b6000614df26028836143ca565b9150614dfd82614d96565b604082019050919050565b60006020820190508181036000830152614e2181614de5565b9050919050565b7f43616e6e6f74206465706c6574652045544820726573657276657320746f2030600082015250565b6000614e5e6020836143ca565b9150614e6982614e28565b602082019050919050565b60006020820190508181036000830152614e8d81614e51565b9050919050565b7f4c502068617320696e73756666696369656e74206c6971756964697479000000600082015250565b6000614eca601d836143ca565b9150614ed582614e94565b602082019050919050565b60006020820190508181036000830152614ef981614ebd565b9050919050565b7f4d7573742061646420706f73697469766520616d6f756e74206f66206c69717560008201527f6964697479000000000000000000000000000000000000000000000000000000602082015250565b6000614f5c6025836143ca565b9150614f6782614f00565b604082019050919050565b60006020820190508181036000830152614f8b81614f4f565b9050919050565b7f53656e64657220646f6573206e6f74206861766520656e6f75676820746f6b6560008201527f6e7320746f20616464207468617420616d6f756e74206f66206c69717569646960208201527f7479000000000000000000000000000000000000000000000000000000000000604082015250565b60006150146042836143ca565b915061501f82614f92565b606082019050919050565b6000602082019050818103600083015261504381615007565b9050919050565b7f4e6f7420656e6f75676820746f6b656e7320746f206d616b652074686973207360008201527f7761700000000000000000000000000000000000000000000000000000000000602082015250565b60006150a66023836143ca565b91506150b18261504a565b604082019050919050565b600060208201905081810360008301526150d581615099565b9050919050565b7f4d7573742073776170206120706f73697469766520616d6f756e74206f66207460008201527f6f6b656e73000000000000000000000000000000000000000000000000000000602082015250565b60006151386025836143ca565b9150615143826150dc565b604082019050919050565b600060208201905081810360008301526151678161512b565b9050919050565b7f496e73756666696369656e74207265736572766573206f662045544820666f7260008201527f20746865207472616e73616374696f6e00000000000000000000000000000000602082015250565b60006151ca6030836143ca565b91506151d58261516e565b604082019050919050565b600060208201905081810360008301526151f9816151bd565b9050919050565b7f4f776e61626c653a206e6577206f776e657220697320746865207a65726f206160008201527f6464726573730000000000000000000000000000000000000000000000000000602082015250565b600061525c6026836143ca565b915061526782615200565b604082019050919050565b6000602082019050818103600083015261528b8161524f565b9050919050565b7f4e487b7100000000000000000000000000000000000000000000000000000000600052602260045260246000fd5b600060028204905060018216806152d957607f821691505b6020821081036152ec576152eb615292565b5b50919050565b6000604082019050818103600083015261530c8185614416565b905061531b6020830184614224565b9392505050565b6000608082019050818103600083015261533c8187614416565b905061534b6020830186614313565b818103604083015261535d8185614416565b905061536c6060830184614224565b95945050505050565b7f4f776e61626c653a2063616c6c6572206973206e6f7420746865206f776e6572600082015250565b60006153ab6020836143ca565b91506153b682615375565b602082019050919050565b600060208201905081810360008301526153da8161539e565b9050919050565b7f4e487b7100000000000000000000000000000000000000000000000000000000600052605160045260246000fdfea2646970667358221220b756b85aa29d033fa6e7bcaabb0656a1220fa961b7a8a85c04c55412f3cdb32764736f6c63430008110033",
  "linkReferences": {},
  "deployedLinkReferences": {}
}