{
  "_format": "hh-sol-artifact-1",
  "contractName": "TokenExchange",
  "sourceName": "contracts/exchange.sol",
  "abi": [
    {
      "inputs": [],
      "stateMutability": "nonpayable",
      "type": "constructor"
    },
    {
      "anonymous": false,
      "inputs": [
        {
          "indexed": true,
          "internalType": "address",
          "name": "previousOwner",
          "type": "address"
        },
        {
          "indexed": true,
          "internalType": "address",
          "name": "newOwner",
          "type": "address"
        }
      ],
      "name": "OwnershipTransferred",
      "type": "event"
    },
    {
      "inputs": [
        {
          "internalType": "uint256",
          "name": "maxExchangeRate",
          "type": "uint256"
        },
        {
          "internalType": "uint256",
          "name": "minExchangeRate",
          "type": "uint256"
        }
      ],
      "name": "addLiquidity",
      "outputs": [],
      "stateMutability": "payable",
      "type": "function"
    },
    {
      "inputs": [
        {
          "internalType": "uint256",
          "name": "amountTokens",
          "type": "uint256"
        }
      ],
      "name": "createPool",
      "outputs": [],
      "stateMutability": "payable",
      "type": "function"
    },
    {
      "inputs": [],
      "name": "ethToTokenRate",
      "outputs": [
        {
          "internalType": "uint256",
          "name": "",
          "type": "uint256"
        }
      ],
      "stateMutability": "view",
      "type": "function"
    },
    {
      "inputs": [],
      "name": "exchange_name",
      "outputs": [
        {
          "internalType": "string",
          "name": "",
          "type": "string"
        }
      ],
      "stateMutability": "view",
      "type": "function"
    },
    {
      "inputs": [
        {
          "internalType": "uint256",
          "name": "ethAmt",
          "type": "uint256"
        }
      ],
      "name": "findAmtShares",
      "outputs": [
        {
          "internalType": "uint256",
          "name": "",
          "type": "uint256"
        }
      ],
      "stateMutability": "view",
      "type": "function"
    },
    {
      "inputs": [],
      "name": "getSwapFee",
      "outputs": [
        {
          "internalType": "uint256",
          "name": "",
          "type": "uint256"
        },
        {
          "internalType": "uint256",
          "name": "",
          "type": "uint256"
        }
      ],
      "stateMutability": "view",
      "type": "function"
    },
    {
      "inputs": [],
      "name": "owner",
      "outputs": [
        {
          "internalType": "address",
          "name": "",
          "type": "address"
        }
      ],
      "stateMutability": "view",
      "type": "function"
    },
    {
      "inputs": [
        {
          "internalType": "uint256",
          "name": "maxExchangeRate",
          "type": "uint256"
        },
        {
          "internalType": "uint256",
          "name": "minExchangeRate",
          "type": "uint256"
        }
      ],
      "name": "removeAllLiquidity",
      "outputs": [],
      "stateMutability": "payable",
      "type": "function"
    },
    {
      "inputs": [
        {
          "internalType": "uint256",
          "name": "amountETH",
          "type": "uint256"
        },
        {
          "internalType": "uint256",
          "name": "maxExchangeRate",
          "type": "uint256"
        },
        {
          "internalType": "uint256",
          "name": "minExchangeRate",
          "type": "uint256"
        }
      ],
      "name": "removeLiquidity",
      "outputs": [],
      "stateMutability": "payable",
      "type": "function"
    },
    {
      "inputs": [],
      "name": "renounceOwnership",
      "outputs": [],
      "stateMutability": "nonpayable",
      "type": "function"
    },
    {
      "inputs": [
        {
          "internalType": "uint256",
          "name": "maxExchangeRate",
          "type": "uint256"
        }
      ],
      "name": "swapETHForTokens",
      "outputs": [],
      "stateMutability": "payable",
      "type": "function"
    },
    {
      "inputs": [
        {
          "internalType": "uint256",
          "name": "amountTokens",
          "type": "uint256"
        },
        {
          "internalType": "uint256",
          "name": "maxExchangeRate",
          "type": "uint256"
        }
      ],
      "name": "swapTokensForETH",
      "outputs": [],
      "stateMutability": "payable",
      "type": "function"
    },
    {
      "inputs": [],
      "name": "token",
      "outputs": [
        {
          "internalType": "contract Token",
          "name": "",
          "type": "address"
        }
      ],
      "stateMutability": "view",
      "type": "function"
    },
    {
      "inputs": [],
      "name": "tokenToEthRate",
      "outputs": [
        {
          "internalType": "uint256",
          "name": "",
          "type": "uint256"
        }
      ],
      "stateMutability": "view",
      "type": "function"
    },
    {
      "inputs": [
        {
          "internalType": "address",
          "name": "newOwner",
          "type": "address"
        }
      ],
      "name": "transferOwnership",
      "outputs": [],
      "stateMutability": "nonpayable",
      "type": "function"
    }
  ],
  "bytecode": "0x6080604052604051806020016040528060008152506001908162000024919062000481565b50735fbdb2315678afecb367f032d93f642f64180aa3600260006101000a81548173ffffffffffffffffffffffffffffffffffffffff021916908373ffffffffffffffffffffffffffffffffffffffff160217905550600260009054906101000a900473ffffffffffffffffffffffffffffffffffffffff16600360006101000a81548173ffffffffffffffffffffffffffffffffffffffff021916908373ffffffffffffffffffffffffffffffffffffffff16021790555060006004556000600555600060065560006007556000600a556003600b556064600c55620186a0600e553480156200011457600080fd5b5062000135620001296200013b60201b60201c565b6200014360201b60201c565b62000568565b600033905090565b60008060009054906101000a900473ffffffffffffffffffffffffffffffffffffffff169050816000806101000a81548173ffffffffffffffffffffffffffffffffffffffff021916908373ffffffffffffffffffffffffffffffffffffffff1602179055508173ffffffffffffffffffffffffffffffffffffffff168173ffffffffffffffffffffffffffffffffffffffff167f8be0079c531659141344cd1fd0a4f28419497f9722a3daafe3b4186f6b6457e060405160405180910390a35050565b600081519050919050565b7f4e487b7100000000000000000000000000000000000000000000000000000000600052604160045260246000fd5b7f4e487b7100000000000000000000000000000000000000000000000000000000600052602260045260246000fd5b600060028204905060018216806200028957607f821691505b6020821081036200029f576200029e62000241565b5b50919050565b60008190508160005260206000209050919050565b60006020601f8301049050919050565b600082821b905092915050565b600060088302620003097fffffffffffffffffffffffffffffffffffffffffffffffffffffffffffffffff82620002ca565b620003158683620002ca565b95508019841693508086168417925050509392505050565b6000819050919050565b6000819050919050565b6000620003626200035c62000356846200032d565b62000337565b6200032d565b9050919050565b6000819050919050565b6200037e8362000341565b620003966200038d8262000369565b848454620002d7565b825550505050565b600090565b620003ad6200039e565b620003ba81848462000373565b505050565b5b81811015620003e257620003d6600082620003a3565b600181019050620003c0565b5050565b601f8211156200043157620003fb81620002a5565b6200040684620002ba565b8101602085101562000416578190505b6200042e6200042585620002ba565b830182620003bf565b50505b505050565b600082821c905092915050565b6000620004566000198460080262000436565b1980831691505092915050565b600062000471838362000443565b9150826002028217905092915050565b6200048c8262000207565b67ffffffffffffffff811115620004a857620004a762000212565b5b620004b4825462000270565b620004c1828285620003e6565b600060209050601f831160018114620004f95760008415620004e4578287015190505b620004f0858262000463565b86555062000560565b601f1984166200050986620002a5565b60005b8281101562000533578489015182556001820191506020850194506020810190506200050c565b868310156200055357848901516200054f601f89168262000443565b8355505b6001600288020188555050505b505050505050565b61505180620005786000396000f3fe6080604052600436106100e85760003560e01c80639cd441da1161008a578063e09adc7011610059578063e09adc701461026b578063f2fde38b14610296578063f694f7d1146102bf578063fc0c546a146102ea576100e8565b80639cd441da146101ca578063a22280a6146101e6578063a65540fb14610202578063d4cadf681461023f576100e8565b8063715018a6116100c6578063715018a6146101505780638259e6a014610167578063857620e1146101835780638da5cb5b1461019f576100e8565b80632eab2841146100ed57806353d99c2a1461010957806358ad6de414610134575b600080fd5b61010760048036038101906101029190613d11565b610315565b005b34801561011557600080fd5b5061011e610b64565b60405161012b9190613d4d565b60405180910390f35b61014e60048036038101906101499190613d68565b610b88565b005b34801561015c57600080fd5b50610165611611565b005b610181600480360381019061017c9190613d11565b611625565b005b61019d60048036038101906101989190613da8565b6119de565b005b3480156101ab57600080fd5b506101b46122f9565b6040516101c19190613e3c565b60405180910390f35b6101e460048036038101906101df9190613d68565b612322565b005b61020060048036038101906101fb9190613d68565b612d5a565b005b34801561020e57600080fd5b5061022960048036038101906102249190613d11565b6135f7565b6040516102369190613d4d565b60405180910390f35b34801561024b57600080fd5b50610254613620565b604051610262929190613e57565b60405180910390f35b34801561027757600080fd5b50610280613631565b60405161028d9190613d4d565b60405180910390f35b3480156102a257600080fd5b506102bd60048036038101906102b89190613eac565b613655565b005b3480156102cb57600080fd5b506102d46136d8565b6040516102e19190613f69565b60405180910390f35b3480156102f657600080fd5b506102ff613766565b60405161030c9190613fea565b60405180910390f35b6103546040518060400160405280601081526020017f53776170455448466f72546f6b656e73000000000000000000000000000000008152503461378c565b6103956040518060400160405280600f81526020017f546f6b656e2072657365727665733a000000000000000000000000000000000081525060045461378c565b6103d66040518060400160405280600881526020017f4b2076616c75653a000000000000000000000000000000000000000000000000815250600d5461378c565b6104176040518060400160405280600d81526020017f4554482072657365727665733a0000000000000000000000000000000000000081525060055461378c565b6104566040518060400160405280601181526020017f6d617845786368616e6765526174653a200000000000000000000000000000008152508261378c565b60003411610499576040517f08c379a000000000000000000000000000000000000000000000000000000000815260040161049090614051565b60405180910390fd5b60006104a3613631565b90506104e46040518060400160405280600d81526020017f63757272656e74526174653a20000000000000000000000000000000000000008152508261378c565b6105236040518060400160405280600881526020017f6d617820726174650000000000000000000000000000000000000000000000008152508361378c565b81811115610566576040517f08c379a000000000000000000000000000000000000000000000000000000000815260040161055d906140e3565b60405180910390fd5b60003490506000600c5482600b5461057e9190614132565b61058891906141a3565b9050806007600082825461059c91906141d4565b925050819055506105e26040518060400160405280600581526020017f4665653a200000000000000000000000000000000000000000000000000000008152508261378c565b600081836105f09190614208565b6005546105fd91906141d4565b600d5461060a91906141a3565b6004546106179190614208565b90506106586040518060400160405280601081526020017f546f6b656e73416d6f756e7420203d20000000000000000000000000000000008152508261378c565b6000811161069b576040517f08c379a0000000000000000000000000000000000000000000000000000000008152600401610692906142ae565b60405180910390fd5b60045481106106df576040517f08c379a00000000000000000000000000000000000000000000000000000000081526004016106d690614340565b60405180910390fd5b60005b60098054905081101561081f5760006009828154811061070557610704614360565b5b9060005260206000200160009054906101000a900473ffffffffffffffffffffffffffffffffffffffff1690506000600860008373ffffffffffffffffffffffffffffffffffffffff1673ffffffffffffffffffffffffffffffffffffffff16815260200190815260200160002090508481600101600082825461078991906141d4565b9250508190555061080a6040518060400160405280601781526020017f4163637275656420746f6b656e206665657320666f7220000000000000000000815250836040518060400160405280600281526020017f3a200000000000000000000000000000000000000000000000000000000000008152508460010154613828565b505080806108179061438f565b9150506106e2565b50600360009054906101000a900473ffffffffffffffffffffffffffffffffffffffff1673ffffffffffffffffffffffffffffffffffffffff1663a9059cbb33836040518363ffffffff1660e01b815260040161087d9291906143d7565b6020604051808303816000875af115801561089c573d6000803e3d6000fd5b505050506040513d601f19601f820116820180604052508101906108c09190614438565b506109176040518060400160405280601581526020017f53776170706572206574682062616c616e63653a2000000000000000000000008152503373ffffffffffffffffffffffffffffffffffffffff163161378c565b6109f16040518060400160405280601681526020017f5377617070657220746f6b656e2062616c616e63653a00000000000000000000815250600360009054906101000a900473ffffffffffffffffffffffffffffffffffffffff1673ffffffffffffffffffffffffffffffffffffffff166370a08231336040518263ffffffff1660e01b81526004016109ab9190613e3c565b602060405180830381865afa1580156109c8573d6000803e3d6000fd5b505050506040513d601f19601f820116820180604052508101906109ec919061447a565b61378c565b600360009054906101000a900473ffffffffffffffffffffffffffffffffffffffff1673ffffffffffffffffffffffffffffffffffffffff166370a08231306040518263ffffffff1660e01b8152600401610a4c9190613e3c565b602060405180830381865afa158015610a69573d6000803e3d6000fd5b505050506040513d601f19601f82011682018060405250810190610a8d919061447a565b60048190555047600581905550610adb6040518060400160405280600f81526020017f546f6b656e2072657365727665733a000000000000000000000000000000000081525060045461378c565b610b1c6040518060400160405280600881526020017f4b2076616c75653a000000000000000000000000000000000000000000000000815250600d5461378c565b610b5d6040518060400160405280600d81526020017f4554482072657365727665733a0000000000000000000000000000000000000081525060055461378c565b5050505050565b6000600554600e54600454610b799190614132565b610b8391906141a3565b905090565b6000600860003373ffffffffffffffffffffffffffffffffffffffff1673ffffffffffffffffffffffffffffffffffffffff16815260200190815260200160002090506000610bd5613631565b905083811115610c1a576040517f08c379a0000000000000000000000000000000000000000000000000000000008152600401610c11906140e3565b60405180910390fd5b82811015610c5d576040517f08c379a0000000000000000000000000000000000000000000000000000000008152600401610c5490614519565b60405180910390fd5b6000600a548360000154600e54610c749190614132565b610c7e91906141a3565b90506000600e5460055483610c939190614132565b610c9d91906141a3565b90506000600e5460045484610cb29190614132565b610cbc91906141a3565b90506005548210610d02576040517f08c379a0000000000000000000000000000000000000000000000000000000008152600401610cf990614585565b60405180910390fd5b6004548110610d46576040517f08c379a0000000000000000000000000000000000000000000000000000000008152600401610d3d90614617565b60405180910390fd5b6000610d51836135f7565b90506000600a54876001015483610d689190614132565b610d7291906141a3565b90506000600a54886002015484610d899190614132565b610d9391906141a3565b905082600a6000828254610da79190614208565b925050819055508160076000828254610dc09190614208565b925050819055508060066000828254610dd99190614208565b92505081905550610e1f6040518060400160405280601281526020017f53686172657320746f2072656d6f76653a2000000000000000000000000000008152508461378c565b610e5e6040518060400160405280600c81526020017f657468526577617264733a2000000000000000000000000000000000000000008152508361378c565b610e9d6040518060400160405280600e81526020017f746f6b656e526577617264733a200000000000000000000000000000000000008152508261378c565b600088600001819055506000805b600980549050811015610ff85760006008600060098481548110610ed257610ed1614360565b5b9060005260206000200160009054906101000a900473ffffffffffffffffffffffffffffffffffffffff1673ffffffffffffffffffffffffffffffffffffffff1673ffffffffffffffffffffffffffffffffffffffff168152602001908152602001600020905084816001016000828254610f4d9190614208565b9250508190555083816002016000828254610f689190614208565b925050819055503373ffffffffffffffffffffffffffffffffffffffff1660098381548110610f9a57610f99614360565b5b9060005260206000200160009054906101000a900473ffffffffffffffffffffffffffffffffffffffff1673ffffffffffffffffffffffffffffffffffffffff1603610fe4578192505b508080610ff09061438f565b915050610eab565b50611002816138ca565b6110456040518060400160405280600b81526020017f6c705f7368617265733a200000000000000000000000000000000000000000008152508a6000015461378c565b6110886040518060400160405280600a81526020017f6574685f666565733a20000000000000000000000000000000000000000000008152508a6001015461378c565b6110cb6040518060400160405280600c81526020017f746f6b656e5f666565733a2000000000000000000000000000000000000000008152508a6002015461378c565b6111a56040518060400160405280600e81526020017f557365722062616c616e63653a20000000000000000000000000000000000000815250600360009054906101000a900473ffffffffffffffffffffffffffffffffffffffff1673ffffffffffffffffffffffffffffffffffffffff166370a08231336040518263ffffffff1660e01b815260040161115f9190613e3c565b602060405180830381865afa15801561117c573d6000803e3d6000fd5b505050506040513d601f19601f820116820180604052508101906111a0919061447a565b61378c565b600360009054906101000a900473ffffffffffffffffffffffffffffffffffffffff1673ffffffffffffffffffffffffffffffffffffffff1663a9059cbb33876040518363ffffffff1660e01b81526004016112029291906143d7565b6020604051808303816000875af1158015611221573d6000803e3d6000fd5b505050506040513d601f19601f820116820180604052508101906112459190614438565b503373ffffffffffffffffffffffffffffffffffffffff166108fc879081150290604051600060405180830381858888f1935050505015801561128c573d6000803e3d6000fd5b5047600581905550600360009054906101000a900473ffffffffffffffffffffffffffffffffffffffff1673ffffffffffffffffffffffffffffffffffffffff166370a08231306040518263ffffffff1660e01b81526004016112ef9190613e3c565b602060405180830381865afa15801561130c573d6000803e3d6000fd5b505050506040513d601f19601f82011682018060405250810190611330919061447a565b600481905550600360009054906101000a900473ffffffffffffffffffffffffffffffffffffffff1673ffffffffffffffffffffffffffffffffffffffff166370a08231306040518263ffffffff1660e01b81526004016113919190613e3c565b602060405180830381865afa1580156113ae573d6000803e3d6000fd5b505050506040513d601f19601f820116820180604052508101906113d2919061447a565b476113dd9190614132565b600d819055506114bd6040518060400160405280600e81526020017f557365722062616c616e63653a20000000000000000000000000000000000000815250600360009054906101000a900473ffffffffffffffffffffffffffffffffffffffff1673ffffffffffffffffffffffffffffffffffffffff166370a08231336040518263ffffffff1660e01b81526004016114779190613e3c565b602060405180830381865afa158015611494573d6000803e3d6000fd5b505050506040513d601f19601f820116820180604052508101906114b8919061447a565b61378c565b6114fe6040518060400160405280600f81526020017f546f6b656e2072657365727665733a000000000000000000000000000000000081525060045461378c565b61153f6040518060400160405280600881526020017f4b2076616c75653a000000000000000000000000000000000000000000000000815250600d5461378c565b6115806040518060400160405280600d81526020017f4554482072657365727665733a0000000000000000000000000000000000000081525060055461378c565b6115c36040518060400160405280600d81526020017f55736572277320736861726573000000000000000000000000000000000000008152508a6000015461378c565b6116046040518060400160405280600e81526020017f546f74616c207368617265733a20000000000000000000000000000000000000815250600a5461378c565b5050505050505050505050565b611619613a07565b6116236000613a85565b565b61162d613a07565b600060045414611672576040517f08c379a000000000000000000000000000000000000000000000000000000000815260040161166990614683565b60405180910390fd5b6000600554146116b7576040517f08c379a00000000000000000000000000000000000000000000000000000000081526004016116ae906146ef565b60405180910390fd5b600034116116fa576040517f08c379a00000000000000000000000000000000000000000000000000000000081526004016116f19061475b565b60405180910390fd5b6000600360009054906101000a900473ffffffffffffffffffffffffffffffffffffffff1673ffffffffffffffffffffffffffffffffffffffff166370a08231336040518263ffffffff1660e01b81526004016117579190613e3c565b602060405180830381865afa158015611774573d6000803e3d6000fd5b505050506040513d601f19601f82011682018060405250810190611798919061447a565b9050808211156117dd576040517f08c379a00000000000000000000000000000000000000000000000000000000081526004016117d4906147ed565b60405180910390fd5b60008211611820576040517f08c379a000000000000000000000000000000000000000000000000000000000815260040161181790614859565b60405180910390fd5b600360009054906101000a900473ffffffffffffffffffffffffffffffffffffffff1673ffffffffffffffffffffffffffffffffffffffff166323b872dd3330856040518463ffffffff1660e01b815260040161187f93929190614879565b6020604051808303816000875af115801561189e573d6000803e3d6000fd5b505050506040513d601f19601f820116820180604052508101906118c29190614438565b50600360009054906101000a900473ffffffffffffffffffffffffffffffffffffffff1673ffffffffffffffffffffffffffffffffffffffff166370a08231306040518263ffffffff1660e01b815260040161191e9190613e3c565b602060405180830381865afa15801561193b573d6000803e3d6000fd5b505050506040513d601f19601f8201168201806040525081019061195f919061447a565b6004819055503460058190555060055460045461197c9190614132565b600d81905550620186a0600a819055506000600860003373ffffffffffffffffffffffffffffffffffffffff1673ffffffffffffffffffffffffffffffffffffffff168152602001908152602001600020905060648160000181905550505050565b6000600860003373ffffffffffffffffffffffffffffffffffffffff1673ffffffffffffffffffffffffffffffffffffffff16815260200190815260200160002090506000611a2b613631565b905083811115611a70576040517f08c379a0000000000000000000000000000000000000000000000000000000008152600401611a67906140e3565b60405180910390fd5b82811015611ab3576040517f08c379a0000000000000000000000000000000000000000000000000000000008152600401611aaa90614519565b60405180910390fd5b60008511611af6576040517f08c379a0000000000000000000000000000000000000000000000000000000008152600401611aed90614922565b60405180910390fd5b6005548510611b3a576040517f08c379a0000000000000000000000000000000000000000000000000000000008152600401611b319061498e565b60405180910390fd5b6000600a54600e548460000154611b519190614132565b611b5b91906141a3565b90506000600554600e5488611b709190614132565b611b7a91906141a3565b905080821015611bbf576040517f08c379a0000000000000000000000000000000000000000000000000000000008152600401611bb6906149fa565b60405180910390fd5b600060055488600454611bd29190614132565b611bdc91906141a3565b90506004548110611c22576040517f08c379a0000000000000000000000000000000000000000000000000000000008152600401611c1990614617565b60405180910390fd5b611c616040518060400160405280601981526020017f7468697320657175616c7320746f6b656e73416d6f756e743a000000000000008152508261378c565b6000611c6c896135f7565b90506000600a54876001015483611c839190614132565b611c8d91906141a3565b90506000600a54886002015484611ca49190614132565b611cae91906141a3565b905082600a6000828254611cc29190614208565b925050819055508160076000828254611cdb9190614208565b925050819055508060066000828254611cf49190614208565b9250508190555082886000016000828254611d0f9190614208565b9250508190555060008060008a6000015403611d2a57600191505b60005b600980549050811015611e7a5760006008600060098481548110611d5457611d53614360565b5b9060005260206000200160009054906101000a900473ffffffffffffffffffffffffffffffffffffffff1673ffffffffffffffffffffffffffffffffffffffff1673ffffffffffffffffffffffffffffffffffffffff168152602001908152602001600020905085816001016000828254611dcf9190614208565b9250508190555084816002016000828254611dea9190614208565b925050819055503373ffffffffffffffffffffffffffffffffffffffff1660098381548110611e1c57611e1b614360565b5b9060005260206000200160009054906101000a900473ffffffffffffffffffffffffffffffffffffffff1673ffffffffffffffffffffffffffffffffffffffff1603611e66578192505b508080611e729061438f565b915050611d2d565b508115611e8b57611e8a816138ca565b5b600360009054906101000a900473ffffffffffffffffffffffffffffffffffffffff1673ffffffffffffffffffffffffffffffffffffffff1663a9059cbb33886040518363ffffffff1660e01b8152600401611ee89291906143d7565b6020604051808303816000875af1158015611f07573d6000803e3d6000fd5b505050506040513d601f19601f82011682018060405250810190611f2b9190614438565b503373ffffffffffffffffffffffffffffffffffffffff166108fc8e9081150290604051600060405180830381858888f19350505050158015611f72573d6000803e3d6000fd5b5047600581905550600360009054906101000a900473ffffffffffffffffffffffffffffffffffffffff1673ffffffffffffffffffffffffffffffffffffffff166370a08231306040518263ffffffff1660e01b8152600401611fd59190613e3c565b602060405180830381865afa158015611ff2573d6000803e3d6000fd5b505050506040513d601f19601f82011682018060405250810190612016919061447a565b600481905550600360009054906101000a900473ffffffffffffffffffffffffffffffffffffffff1673ffffffffffffffffffffffffffffffffffffffff166370a08231306040518263ffffffff1660e01b81526004016120779190613e3c565b602060405180830381865afa158015612094573d6000803e3d6000fd5b505050506040513d601f19601f820116820180604052508101906120b8919061447a565b476120c39190614132565b600d819055506121a36040518060400160405280600e81526020017f557365722062616c616e63653a20000000000000000000000000000000000000815250600360009054906101000a900473ffffffffffffffffffffffffffffffffffffffff1673ffffffffffffffffffffffffffffffffffffffff166370a08231336040518263ffffffff1660e01b815260040161215d9190613e3c565b602060405180830381865afa15801561217a573d6000803e3d6000fd5b505050506040513d601f19601f8201168201806040525081019061219e919061447a565b61378c565b6121e46040518060400160405280600f81526020017f546f6b656e2072657365727665733a000000000000000000000000000000000081525060045461378c565b6122256040518060400160405280600881526020017f4b2076616c75653a000000000000000000000000000000000000000000000000815250600d5461378c565b6122666040518060400160405280600d81526020017f4554482072657365727665733a0000000000000000000000000000000000000081525060055461378c565b6122a76040518060400160405280600e81526020017f546f74616c207368617265733a20000000000000000000000000000000000000815250600a5461378c565b6122ea6040518060400160405280600d81526020017f55736572277320736861726573000000000000000000000000000000000000008152508b6000015461378c565b50505050505050505050505050565b60008060009054906101000a900473ffffffffffffffffffffffffffffffffffffffff16905090565b6000600860003373ffffffffffffffffffffffffffffffffffffffff1673ffffffffffffffffffffffffffffffffffffffff16815260200190815260200160002090506123a66040518060400160405280600f81526020017f546f6b656e2072657365727665733a000000000000000000000000000000000081525060045461378c565b6123e76040518060400160405280600881526020017f4b2076616c75653a000000000000000000000000000000000000000000000000815250600d5461378c565b6124286040518060400160405280600d81526020017f4554482072657365727665733a0000000000000000000000000000000000000081525060055461378c565b61246b6040518060400160405280600d81526020017f5573657227732073686172657300000000000000000000000000000000000000815250826000015461378c565b6124ac6040518060400160405280600e81526020017f546f74616c207368617265733a20000000000000000000000000000000000000815250600a5461378c565b6124eb6040518060400160405280601a81526020017f416464206c6971756964697479206f6620616d6f756e74203a200000000000008152503461378c565b60006124f5613631565b90508381111561253a576040517f08c379a0000000000000000000000000000000000000000000000000000000008152600401612531906140e3565b60405180910390fd5b8281101561257d576040517f08c379a000000000000000000000000000000000000000000000000000000000815260040161257490614519565b60405180910390fd5b600034116125c0576040517f08c379a00000000000000000000000000000000000000000000000000000000081526004016125b790614a8c565b60405180910390fd5b6000600554600454346125d39190614132565b6125dd91906141a3565b905061261e6040518060400160405280601981526020017f7468697320657175616c7320746f6b656e73416d6f756e743a000000000000008152508261378c565b80600360009054906101000a900473ffffffffffffffffffffffffffffffffffffffff1673ffffffffffffffffffffffffffffffffffffffff166370a08231336040518263ffffffff1660e01b815260040161267a9190613e3c565b602060405180830381865afa158015612697573d6000803e3d6000fd5b505050506040513d601f19601f820116820180604052508101906126bb919061447a565b10156126fc576040517f08c379a00000000000000000000000000000000000000000000000000000000081526004016126f390614b44565b60405180910390fd5b6127d66040518060400160405280600f81526020017f4265666f726520706179696e673a200000000000000000000000000000000000815250600360009054906101000a900473ffffffffffffffffffffffffffffffffffffffff1673ffffffffffffffffffffffffffffffffffffffff166370a08231336040518263ffffffff1660e01b81526004016127909190613e3c565b602060405180830381865afa1580156127ad573d6000803e3d6000fd5b505050506040513d601f19601f820116820180604052508101906127d1919061447a565b61378c565b600360009054906101000a900473ffffffffffffffffffffffffffffffffffffffff1673ffffffffffffffffffffffffffffffffffffffff166323b872dd3330846040518463ffffffff1660e01b815260040161283593929190614879565b6020604051808303816000875af1158015612854573d6000803e3d6000fd5b505050506040513d601f19601f820116820180604052508101906128789190614438565b506129536040518060400160405280601881526020017f436f6e7472616374206166746572207061796d656e743a200000000000000000815250600360009054906101000a900473ffffffffffffffffffffffffffffffffffffffff1673ffffffffffffffffffffffffffffffffffffffff166370a08231306040518263ffffffff1660e01b815260040161290d9190613e3c565b602060405180830381865afa15801561292a573d6000803e3d6000fd5b505050506040513d601f19601f8201168201806040525081019061294e919061447a565b61378c565b600061295e346135f7565b905080600a600082825461297291906141d4565b925050819055508084600001600082825461298d91906141d4565b925050819055506129d36040518060400160405280600f81526020017f53686172657320746f206164643a2000000000000000000000000000000000008152508261378c565b47600581905550600360009054906101000a900473ffffffffffffffffffffffffffffffffffffffff1673ffffffffffffffffffffffffffffffffffffffff166370a08231306040518263ffffffff1660e01b8152600401612a359190613e3c565b602060405180830381865afa158015612a52573d6000803e3d6000fd5b505050506040513d601f19601f82011682018060405250810190612a76919061447a565b600481905550600360009054906101000a900473ffffffffffffffffffffffffffffffffffffffff1673ffffffffffffffffffffffffffffffffffffffff166370a08231306040518263ffffffff1660e01b8152600401612ad79190613e3c565b602060405180830381865afa158015612af4573d6000803e3d6000fd5b505050506040513d601f19601f82011682018060405250810190612b18919061447a565b47612b239190614132565b600d819055506000805b600980549050811015612bc7573373ffffffffffffffffffffffffffffffffffffffff1660098281548110612b6557612b64614360565b5b9060005260206000200160009054906101000a900473ffffffffffffffffffffffffffffffffffffffff1673ffffffffffffffffffffffffffffffffffffffff1603612bb45760019150612bc7565b8080612bbf9061438f565b915050612b2d565b5080612c70576009339080600181540180825580915050600190039060005260206000200160009091909190916101000a81548173ffffffffffffffffffffffffffffffffffffffff021916908373ffffffffffffffffffffffffffffffffffffffff160217905550612c6f6040518060400160405280601781526020017f6164646564206e6577206c705f70726f76696465723a2000000000000000000081525033613b49565b5b612c8860405180602001604052806000815250613be5565b612ccb6040518060400160405280600d81526020017f5573657227732073686172657300000000000000000000000000000000000000815250866000015461378c565b612d0e6040518060400160405280600c81526020017f6c702065746820666565733a0000000000000000000000000000000000000000815250866001015461378c565b612d516040518060400160405280600e81526020017f6c7020746f6b656e20666565733a000000000000000000000000000000000000815250866002015461378c565b50505050505050565b612d9b6040518060400160405280600f81526020017f546f6b656e2072657365727665733a000000000000000000000000000000000081525060045461378c565b612ddc6040518060400160405280600881526020017f4b2076616c75653a000000000000000000000000000000000000000000000000815250600d5461378c565b612e1d6040518060400160405280600d81526020017f4554482072657365727665733a0000000000000000000000000000000000000081525060055461378c565b612e5e6040518060400160405280600e81526020017f546f74616c207368617265733a20000000000000000000000000000000000000815250600a5461378c565b612e9d6040518060400160405280601e81526020017f73776170546f6b656e73466f72455448206f6620746f6b656e416d743a2000008152508361378c565b600360009054906101000a900473ffffffffffffffffffffffffffffffffffffffff1673ffffffffffffffffffffffffffffffffffffffff166370a08231336040518263ffffffff1660e01b8152600401612ef89190613e3c565b602060405180830381865afa158015612f15573d6000803e3d6000fd5b505050506040513d601f19601f82011682018060405250810190612f39919061447a565b821115612f7b576040517f08c379a0000000000000000000000000000000000000000000000000000000008152600401612f7290614bd6565b60405180910390fd5b60008211612fbe576040517f08c379a0000000000000000000000000000000000000000000000000000000008152600401612fb590614c68565b60405180910390fd5b6000612fc8610b64565b90508181111561300d576040517f08c379a0000000000000000000000000000000000000000000000000000000008152600401613004906140e3565b60405180910390fd5b6000600c5484600b546130209190614132565b61302a91906141a3565b9050806006600082825461303e91906141d4565b92505081905550600081856130539190614208565b60045461306091906141d4565b600d5461306d91906141a3565b60055461307a9190614208565b90506130bb6040518060400160405280600581526020017f4665653a200000000000000000000000000000000000000000000000000000008152508361378c565b60055481106130ff576040517f08c379a00000000000000000000000000000000000000000000000000000000081526004016130f690614cfa565b60405180910390fd5b61313e6040518060400160405280600f81526020017f416d6f756e7420746f204574683a2000000000000000000000000000000000008152508261378c565b60005b60098054905081101561327e5760006009828154811061316457613163614360565b5b9060005260206000200160009054906101000a900473ffffffffffffffffffffffffffffffffffffffff1690506000600860008373ffffffffffffffffffffffffffffffffffffffff1673ffffffffffffffffffffffffffffffffffffffff1681526020019081526020016000209050848160020160008282546131e891906141d4565b925050819055506132696040518060400160405280601781526020017f4163637275656420746f6b656e206665657320666f7220000000000000000000815250836040518060400160405280600281526020017f3a200000000000000000000000000000000000000000000000000000000000008152508460020154613828565b505080806132769061438f565b915050613141565b506133596040518060400160405280601381526020017f42616c616e6365206f662073656e6465723a2000000000000000000000000000815250600360009054906101000a900473ffffffffffffffffffffffffffffffffffffffff1673ffffffffffffffffffffffffffffffffffffffff166370a08231336040518263ffffffff1660e01b81526004016133139190613e3c565b602060405180830381865afa158015613330573d6000803e3d6000fd5b505050506040513d601f19601f82011682018060405250810190613354919061447a565b61378c565b600360009054906101000a900473ffffffffffffffffffffffffffffffffffffffff1673ffffffffffffffffffffffffffffffffffffffff166323b872dd3330886040518463ffffffff1660e01b81526004016133b893929190614879565b6020604051808303816000875af11580156133d7573d6000803e3d6000fd5b505050506040513d601f19601f820116820180604052508101906133fb9190614438565b503373ffffffffffffffffffffffffffffffffffffffff166108fc829081150290604051600060405180830381858888f19350505050158015613442573d6000803e3d6000fd5b50600360009054906101000a900473ffffffffffffffffffffffffffffffffffffffff1673ffffffffffffffffffffffffffffffffffffffff166370a08231306040518263ffffffff1660e01b815260040161349e9190613e3c565b602060405180830381865afa1580156134bb573d6000803e3d6000fd5b505050506040513d601f19601f820116820180604052508101906134df919061447a565b6004819055504760058190555061352d6040518060400160405280600f81526020017f546f6b656e2072657365727665733a000000000000000000000000000000000081525060045461378c565b61356e6040518060400160405280600881526020017f4b2076616c75653a000000000000000000000000000000000000000000000000815250600d5461378c565b6135af6040518060400160405280600d81526020017f4554482072657365727665733a0000000000000000000000000000000000000081525060055461378c565b6135f06040518060400160405280600e81526020017f546f74616c207368617265733a20000000000000000000000000000000000000815250600a5461378c565b5050505050565b600080600554600a548461360b9190614132565b61361591906141a3565b905080915050919050565b600080600b54600c54915091509091565b6000600454600e546005546136469190614132565b61365091906141a3565b905090565b61365d613a07565b600073ffffffffffffffffffffffffffffffffffffffff168173ffffffffffffffffffffffffffffffffffffffff16036136cc576040517f08c379a00000000000000000000000000000000000000000000000000000000081526004016136c390614d8c565b60405180910390fd5b6136d581613a85565b50565b600180546136e590614ddb565b80601f016020809104026020016040519081016040528092919081815260200182805461371190614ddb565b801561375e5780601f106137335761010080835404028352916020019161375e565b820191906000526020600020905b81548152906001019060200180831161374157829003601f168201915b505050505081565b600360009054906101000a900473ffffffffffffffffffffffffffffffffffffffff1681565b61382482826040516024016137a2929190614e0c565b6040516020818303038152906040527fb60e72cc000000000000000000000000000000000000000000000000000000007bffffffffffffffffffffffffffffffffffffffffffffffffffffffff19166020820180517bffffffffffffffffffffffffffffffffffffffffffffffffffffffff8381831617835250505050613c7e565b5050565b6138c4848484846040516024016138429493929190614e3c565b6040516020818303038152906040527f91d1112e000000000000000000000000000000000000000000000000000000007bffffffffffffffffffffffffffffffffffffffffffffffffffffffff19166020820180517bffffffffffffffffffffffffffffffffffffffffffffffffffffffff8381831617835250505050613c7e565b50505050565b6009805490508110613911576040517f08c379a000000000000000000000000000000000000000000000000000000000815260040161390890614f01565b60405180910390fd5b600960016009805490506139259190614208565b8154811061393657613935614360565b5b9060005260206000200160009054906101000a900473ffffffffffffffffffffffffffffffffffffffff166009828154811061397557613974614360565b5b9060005260206000200160006101000a81548173ffffffffffffffffffffffffffffffffffffffff021916908373ffffffffffffffffffffffffffffffffffffffff16021790555060098054806139cf576139ce614f21565b5b6001900381819060005260206000200160006101000a81549073ffffffffffffffffffffffffffffffffffffffff0219169055905550565b613a0f613c98565b73ffffffffffffffffffffffffffffffffffffffff16613a2d6122f9565b73ffffffffffffffffffffffffffffffffffffffff1614613a83576040517f08c379a0000000000000000000000000000000000000000000000000000000008152600401613a7a90614f9c565b60405180910390fd5b565b60008060009054906101000a900473ffffffffffffffffffffffffffffffffffffffff169050816000806101000a81548173ffffffffffffffffffffffffffffffffffffffff021916908373ffffffffffffffffffffffffffffffffffffffff1602179055508173ffffffffffffffffffffffffffffffffffffffff168173ffffffffffffffffffffffffffffffffffffffff167f8be0079c531659141344cd1fd0a4f28419497f9722a3daafe3b4186f6b6457e060405160405180910390a35050565b613be18282604051602401613b5f929190614fbc565b6040516020818303038152906040527f319af333000000000000000000000000000000000000000000000000000000007bffffffffffffffffffffffffffffffffffffffffffffffffffffffff19166020820180517bffffffffffffffffffffffffffffffffffffffffffffffffffffffff8381831617835250505050613c7e565b5050565b613c7b81604051602401613bf99190613f69565b6040516020818303038152906040527f41304fac000000000000000000000000000000000000000000000000000000007bffffffffffffffffffffffffffffffffffffffffffffffffffffffff19166020820180517bffffffffffffffffffffffffffffffffffffffffffffffffffffffff8381831617835250505050613c7e565b50565b613c9581613c8d613ca0613cc1565b63ffffffff16565b50565b600033905090565b60006a636f6e736f6c652e6c6f679050600080835160208501845afa505050565b613ccc819050919050565b613cd4614fec565b565b600080fd5b6000819050919050565b613cee81613cdb565b8114613cf957600080fd5b50565b600081359050613d0b81613ce5565b92915050565b600060208284031215613d2757613d26613cd6565b5b6000613d3584828501613cfc565b91505092915050565b613d4781613cdb565b82525050565b6000602082019050613d626000830184613d3e565b92915050565b60008060408385031215613d7f57613d7e613cd6565b5b6000613d8d85828601613cfc565b9250506020613d9e85828601613cfc565b9150509250929050565b600080600060608486031215613dc157613dc0613cd6565b5b6000613dcf86828701613cfc565b9350506020613de086828701613cfc565b9250506040613df186828701613cfc565b9150509250925092565b600073ffffffffffffffffffffffffffffffffffffffff82169050919050565b6000613e2682613dfb565b9050919050565b613e3681613e1b565b82525050565b6000602082019050613e516000830184613e2d565b92915050565b6000604082019050613e6c6000830185613d3e565b613e796020830184613d3e565b9392505050565b613e8981613e1b565b8114613e9457600080fd5b50565b600081359050613ea681613e80565b92915050565b600060208284031215613ec257613ec1613cd6565b5b6000613ed084828501613e97565b91505092915050565b600081519050919050565b600082825260208201905092915050565b60005b83811015613f13578082015181840152602081019050613ef8565b60008484015250505050565b6000601f19601f8301169050919050565b6000613f3b82613ed9565b613f458185613ee4565b9350613f55818560208601613ef5565b613f5e81613f1f565b840191505092915050565b60006020820190508181036000830152613f838184613f30565b905092915050565b6000819050919050565b6000613fb0613fab613fa684613dfb565b613f8b565b613dfb565b9050919050565b6000613fc282613f95565b9050919050565b6000613fd482613fb7565b9050919050565b613fe481613fc9565b82525050565b6000602082019050613fff6000830184613fdb565b92915050565b7f43616e6e6f7420737761702061206e6567617469766520616d6f756e74000000600082015250565b600061403b601d83613ee4565b915061404682614005565b602082019050919050565b6000602082019050818103600083015261406a8161402e565b9050919050565b7f43757272656e74207261746520686173206d6f7665642061626f7665206d617860008201527f45786368616e6765526174650000000000000000000000000000000000000000602082015250565b60006140cd602c83613ee4565b91506140d882614071565b604082019050919050565b600060208201905081810360008301526140fc816140c0565b9050919050565b7f4e487b7100000000000000000000000000000000000000000000000000000000600052601160045260246000fd5b600061413d82613cdb565b915061414883613cdb565b925082820261415681613cdb565b9150828204841483151761416d5761416c614103565b5b5092915050565b7f4e487b7100000000000000000000000000000000000000000000000000000000600052601260045260246000fd5b60006141ae82613cdb565b91506141b983613cdb565b9250826141c9576141c8614174565b5b828204905092915050565b60006141df82613cdb565b91506141ea83613cdb565b925082820190508082111561420257614201614103565b5b92915050565b600061421382613cdb565b915061421e83613cdb565b925082820390508181111561423657614235614103565b5b92915050565b7f43616e6e6f742067697665206261636b2061206e6567617469766520746f6b6560008201527f6e206e756d626572000000000000000000000000000000000000000000000000602082015250565b6000614298602883613ee4565b91506142a38261423c565b604082019050919050565b600060208201905081810360008301526142c78161428b565b9050919050565b7f4e6f7420656e6f75676820746f6b656e7320696e207265736572766520746f2060008201527f6d616b6520737761700000000000000000000000000000000000000000000000602082015250565b600061432a602983613ee4565b9150614335826142ce565b604082019050919050565b600060208201905081810360008301526143598161431d565b9050919050565b7f4e487b7100000000000000000000000000000000000000000000000000000000600052603260045260246000fd5b600061439a82613cdb565b91507fffffffffffffffffffffffffffffffffffffffffffffffffffffffffffffffff82036143cc576143cb614103565b5b600182019050919050565b60006040820190506143ec6000830185613e2d565b6143f96020830184613d3e565b9392505050565b60008115159050919050565b61441581614400565b811461442057600080fd5b50565b6000815190506144328161440c565b92915050565b60006020828403121561444e5761444d613cd6565b5b600061445c84828501614423565b91505092915050565b60008151905061447481613ce5565b92915050565b6000602082840312156144905761448f613cd6565b5b600061449e84828501614465565b91505092915050565b7f43757272656e74207261746520686173206d6f7665642062656c6f77206d696e60008201527f45786368616e6765526174650000000000000000000000000000000000000000602082015250565b6000614503602c83613ee4565b915061450e826144a7565b604082019050919050565b60006020820190508181036000830152614532816144f6565b9050919050565b7f43616e6e6f74206465706c6574652065746820726573657276657320746f2030600082015250565b600061456f602083613ee4565b915061457a82614539565b602082019050919050565b6000602082019050818103600083015261459e81614562565b9050919050565b7f43616e6e6f74206465706c65746520746f6b656e20726573657276657320746f60008201527f2030000000000000000000000000000000000000000000000000000000000000602082015250565b6000614601602283613ee4565b915061460c826145a5565b604082019050919050565b60006020820190508181036000830152614630816145f4565b9050919050565b7f546f6b656e20726573657276657320776173206e6f7420300000000000000000600082015250565b600061466d601883613ee4565b915061467882614637565b602082019050919050565b6000602082019050818103600083015261469c81614660565b9050919050565b7f45544820726573657276657320776173206e6f7420302e000000000000000000600082015250565b60006146d9601783613ee4565b91506146e4826146a3565b602082019050919050565b60006020820190508181036000830152614708816146cc565b9050919050565b7f4e6565642065746820746f2063726561746520706f6f6c2e0000000000000000600082015250565b6000614745601883613ee4565b91506147508261470f565b602082019050919050565b6000602082019050818103600083015261477481614738565b9050919050565b7f4e6f74206861766520656e6f75676820746f6b656e7320746f2063726561746560008201527f2074686520706f6f6c0000000000000000000000000000000000000000000000602082015250565b60006147d7602983613ee4565b91506147e28261477b565b604082019050919050565b60006020820190508181036000830152614806816147ca565b9050919050565b7f4e65656420746f6b656e7320746f2063726561746520706f6f6c2e0000000000600082015250565b6000614843601b83613ee4565b915061484e8261480d565b602082019050919050565b6000602082019050818103600083015261487281614836565b9050919050565b600060608201905061488e6000830186613e2d565b61489b6020830185613e2d565b6148a86040830184613d3e565b949350505050565b7f4d7573742072656d6f766520706f73697469766520616d6f756e74206f66206c60008201527f6971756964697479000000000000000000000000000000000000000000000000602082015250565b600061490c602883613ee4565b9150614917826148b0565b604082019050919050565b6000602082019050818103600083015261493b816148ff565b9050919050565b7f43616e6e6f74206465706c6574652045544820726573657276657320746f2030600082015250565b6000614978602083613ee4565b915061498382614942565b602082019050919050565b600060208201905081810360008301526149a78161496b565b9050919050565b7f4c502068617320696e73756666696369656e74206c6971756964697479000000600082015250565b60006149e4601d83613ee4565b91506149ef826149ae565b602082019050919050565b60006020820190508181036000830152614a13816149d7565b9050919050565b7f4d7573742061646420706f73697469766520616d6f756e74206f66206c69717560008201527f6964697479000000000000000000000000000000000000000000000000000000602082015250565b6000614a76602583613ee4565b9150614a8182614a1a565b604082019050919050565b60006020820190508181036000830152614aa581614a69565b9050919050565b7f53656e64657220646f6573206e6f74206861766520656e6f75676820746f6b6560008201527f6e7320746f20616464207468617420616d6f756e74206f66206c69717569646960208201527f7479000000000000000000000000000000000000000000000000000000000000604082015250565b6000614b2e604283613ee4565b9150614b3982614aac565b606082019050919050565b60006020820190508181036000830152614b5d81614b21565b9050919050565b7f4e6f7420656e6f75676820746f6b656e7320746f206d616b652074686973207360008201527f7761700000000000000000000000000000000000000000000000000000000000602082015250565b6000614bc0602383613ee4565b9150614bcb82614b64565b604082019050919050565b60006020820190508181036000830152614bef81614bb3565b9050919050565b7f4d7573742073776170206120706f73697469766520616d6f756e74206f66207460008201527f6f6b656e73000000000000000000000000000000000000000000000000000000602082015250565b6000614c52602583613ee4565b9150614c5d82614bf6565b604082019050919050565b60006020820190508181036000830152614c8181614c45565b9050919050565b7f496e73756666696369656e74207265736572766573206f662045544820666f7260008201527f20746865207472616e73616374696f6e00000000000000000000000000000000602082015250565b6000614ce4603083613ee4565b9150614cef82614c88565b604082019050919050565b60006020820190508181036000830152614d1381614cd7565b9050919050565b7f4f776e61626c653a206e6577206f776e657220697320746865207a65726f206160008201527f6464726573730000000000000000000000000000000000000000000000000000602082015250565b6000614d76602683613ee4565b9150614d8182614d1a565b604082019050919050565b60006020820190508181036000830152614da581614d69565b9050919050565b7f4e487b7100000000000000000000000000000000000000000000000000000000600052602260045260246000fd5b60006002820490506001821680614df357607f821691505b602082108103614e0657614e05614dac565b5b50919050565b60006040820190508181036000830152614e268185613f30565b9050614e356020830184613d3e565b9392505050565b60006080820190508181036000830152614e568187613f30565b9050614e656020830186613e2d565b8181036040830152614e778185613f30565b9050614e866060830184613d3e565b95945050505050565b7f73706563696669656420696e646578206973206c6172676572207468616e207460008201527f6865206e756d626572206f66206c707300000000000000000000000000000000602082015250565b6000614eeb603083613ee4565b9150614ef682614e8f565b604082019050919050565b60006020820190508181036000830152614f1a81614ede565b9050919050565b7f4e487b7100000000000000000000000000000000000000000000000000000000600052603160045260246000fd5b7f4f776e61626c653a2063616c6c6572206973206e6f7420746865206f776e6572600082015250565b6000614f86602083613ee4565b9150614f9182614f50565b602082019050919050565b60006020820190508181036000830152614fb581614f79565b9050919050565b60006040820190508181036000830152614fd68185613f30565b9050614fe56020830184613e2d565b9392505050565b7f4e487b7100000000000000000000000000000000000000000000000000000000600052605160045260246000fdfea2646970667358221220b2ee47723247d28be142f550e9aca5a25e976a4fc098cac58014dd87675a78d464736f6c63430008110033",
  "linkReferences": {},
  "deployedLinkReferences": {}
}