{
  "_format": "hh-sol-artifact-1",
  "contractName": "TokenExchange",
  "sourceName": "contracts/exchange.sol",
  "abi": [
    {
      "inputs": [],
      "stateMutability": "nonpayable",
      "type": "constructor"
    },
    {
      "anonymous": false,
      "inputs": [
        {
          "indexed": true,
          "internalType": "address",
          "name": "previousOwner",
          "type": "address"
        },
        {
          "indexed": true,
          "internalType": "address",
          "name": "newOwner",
          "type": "address"
        }
      ],
      "name": "OwnershipTransferred",
      "type": "event"
    },
    {
      "inputs": [
        {
          "internalType": "uint256",
          "name": "maxExchangeRate",
          "type": "uint256"
        },
        {
          "internalType": "uint256",
          "name": "minExchangeRate",
          "type": "uint256"
        }
      ],
      "name": "addLiquidity",
      "outputs": [],
      "stateMutability": "payable",
      "type": "function"
    },
    {
      "inputs": [
        {
          "internalType": "uint256",
          "name": "amountTokens",
          "type": "uint256"
        }
      ],
      "name": "createPool",
      "outputs": [],
      "stateMutability": "payable",
      "type": "function"
    },
    {
      "inputs": [],
      "name": "ethToTokenRate",
      "outputs": [
        {
          "internalType": "uint256",
          "name": "",
          "type": "uint256"
        }
      ],
      "stateMutability": "view",
      "type": "function"
    },
    {
      "inputs": [],
      "name": "exchange_name",
      "outputs": [
        {
          "internalType": "string",
          "name": "",
          "type": "string"
        }
      ],
      "stateMutability": "view",
      "type": "function"
    },
    {
      "inputs": [
        {
          "internalType": "uint256",
          "name": "ethAmt",
          "type": "uint256"
        }
      ],
      "name": "findAmtShares",
      "outputs": [
        {
          "internalType": "uint256",
          "name": "",
          "type": "uint256"
        }
      ],
      "stateMutability": "view",
      "type": "function"
    },
    {
      "inputs": [],
      "name": "getSwapFee",
      "outputs": [
        {
          "internalType": "uint256",
          "name": "",
          "type": "uint256"
        },
        {
          "internalType": "uint256",
          "name": "",
          "type": "uint256"
        }
      ],
      "stateMutability": "view",
      "type": "function"
    },
    {
      "inputs": [],
      "name": "owner",
      "outputs": [
        {
          "internalType": "address",
          "name": "",
          "type": "address"
        }
      ],
      "stateMutability": "view",
      "type": "function"
    },
    {
      "inputs": [],
      "name": "removeAllLiquidity",
      "outputs": [],
      "stateMutability": "payable",
      "type": "function"
    },
    {
      "inputs": [
        {
          "internalType": "uint256",
          "name": "amountETH",
          "type": "uint256"
        },
        {
          "internalType": "uint256",
          "name": "maxExchangeRate",
          "type": "uint256"
        },
        {
          "internalType": "uint256",
          "name": "minExchangeRate",
          "type": "uint256"
        }
      ],
      "name": "removeLiquidity",
      "outputs": [],
      "stateMutability": "payable",
      "type": "function"
    },
    {
      "inputs": [],
      "name": "renounceOwnership",
      "outputs": [],
      "stateMutability": "nonpayable",
      "type": "function"
    },
    {
      "inputs": [],
      "name": "swapETHForTokens",
      "outputs": [],
      "stateMutability": "payable",
      "type": "function"
    },
    {
      "inputs": [
        {
          "internalType": "uint256",
          "name": "amountTokens",
          "type": "uint256"
        }
      ],
      "name": "swapTokensForETH",
      "outputs": [],
      "stateMutability": "payable",
      "type": "function"
    },
    {
      "inputs": [],
      "name": "token",
      "outputs": [
        {
          "internalType": "contract Token",
          "name": "",
          "type": "address"
        }
      ],
      "stateMutability": "view",
      "type": "function"
    },
    {
      "inputs": [],
      "name": "tokenToEthRate",
      "outputs": [
        {
          "internalType": "uint256",
          "name": "",
          "type": "uint256"
        }
      ],
      "stateMutability": "view",
      "type": "function"
    },
    {
      "inputs": [
        {
          "internalType": "address",
          "name": "newOwner",
          "type": "address"
        }
      ],
      "name": "transferOwnership",
      "outputs": [],
      "stateMutability": "nonpayable",
      "type": "function"
    }
  ],
  "bytecode": "0x6080604052604051806020016040528060008152506001908162000024919062000481565b50735fbdb2315678afecb367f032d93f642f64180aa3600260006101000a81548173ffffffffffffffffffffffffffffffffffffffff021916908373ffffffffffffffffffffffffffffffffffffffff160217905550600260009054906101000a900473ffffffffffffffffffffffffffffffffffffffff16600360006101000a81548173ffffffffffffffffffffffffffffffffffffffff021916908373ffffffffffffffffffffffffffffffffffffffff16021790555060006004556000600555600060065560006007556000600a556003600b556064600c55620186a0600e553480156200011457600080fd5b5062000135620001296200013b60201b60201c565b6200014360201b60201c565b62000568565b600033905090565b60008060009054906101000a900473ffffffffffffffffffffffffffffffffffffffff169050816000806101000a81548173ffffffffffffffffffffffffffffffffffffffff021916908373ffffffffffffffffffffffffffffffffffffffff1602179055508173ffffffffffffffffffffffffffffffffffffffff168173ffffffffffffffffffffffffffffffffffffffff167f8be0079c531659141344cd1fd0a4f28419497f9722a3daafe3b4186f6b6457e060405160405180910390a35050565b600081519050919050565b7f4e487b7100000000000000000000000000000000000000000000000000000000600052604160045260246000fd5b7f4e487b7100000000000000000000000000000000000000000000000000000000600052602260045260246000fd5b600060028204905060018216806200028957607f821691505b6020821081036200029f576200029e62000241565b5b50919050565b60008190508160005260206000209050919050565b60006020601f8301049050919050565b600082821b905092915050565b600060088302620003097fffffffffffffffffffffffffffffffffffffffffffffffffffffffffffffffff82620002ca565b620003158683620002ca565b95508019841693508086168417925050509392505050565b6000819050919050565b6000819050919050565b6000620003626200035c62000356846200032d565b62000337565b6200032d565b9050919050565b6000819050919050565b6200037e8362000341565b620003966200038d8262000369565b848454620002d7565b825550505050565b600090565b620003ad6200039e565b620003ba81848462000373565b505050565b5b81811015620003e257620003d6600082620003a3565b600181019050620003c0565b5050565b601f8211156200043157620003fb81620002a5565b6200040684620002ba565b8101602085101562000416578190505b6200042e6200042585620002ba565b830182620003bf565b50505b505050565b600082821c905092915050565b6000620004566000198460080262000436565b1980831691505092915050565b600062000471838362000443565b9150826002028217905092915050565b6200048c8262000207565b67ffffffffffffffff811115620004a857620004a762000212565b5b620004b4825462000270565b620004c1828285620003e6565b600060209050601f831160018114620004f95760008415620004e4578287015190505b620004f0858262000463565b86555062000560565b601f1984166200050986620002a5565b60005b8281101562000533578489015182556001820191506020850194506020810190506200050c565b868310156200055357848901516200054f601f89168262000443565b8355505b6001600288020188555050505b505050505050565b612f5980620005786000396000f3fe6080604052600436106100e85760003560e01c8063a65540fb1161008a578063e56a645e11610059578063e56a645e14610256578063f2fde38b14610272578063f694f7d11461029b578063fc0c546a146102c6576100e8565b8063a65540fb146101b8578063d4cadf68146101f5578063d592cbf614610221578063e09adc701461022b576100e8565b8063857620e1116100c6578063857620e11461014b57806388a780e5146101675780638da5cb5b146101715780639cd441da1461019c576100e8565b806353d99c2a146100ed578063715018a6146101185780638259e6a01461012f575b600080fd5b3480156100f957600080fd5b506101026102f1565b60405161010f9190612164565b60405180910390f35b34801561012457600080fd5b5061012d610315565b005b610149600480360381019061014491906121b0565b610329565b005b610165600480360381019061016091906121dd565b6106d9565b005b61016f6111bf565b005b34801561017d57600080fd5b506101866111c1565b6040516101939190612271565b60405180910390f35b6101b660048036038101906101b1919061228c565b6111ea565b005b3480156101c457600080fd5b506101df60048036038101906101da91906121b0565b611d61565b6040516101ec9190612164565b60405180910390f35b34801561020157600080fd5b5061020a611da4565b6040516102189291906122cc565b60405180910390f35b610229611db5565b005b34801561023757600080fd5b50610240611db7565b60405161024d9190612164565b60405180910390f35b610270600480360381019061026b91906121b0565b611ddb565b005b34801561027e57600080fd5b5061029960048036038101906102949190612321565b611dde565b005b3480156102a757600080fd5b506102b0611e61565b6040516102bd91906123de565b60405180910390f35b3480156102d257600080fd5b506102db611eef565b6040516102e8919061245f565b60405180910390f35b6000600554600e5460045461030691906124a9565b610310919061251a565b905090565b61031d611f15565b6103276000611f93565b565b610331611f15565b600060045414610376576040517f08c379a000000000000000000000000000000000000000000000000000000000815260040161036d90612597565b60405180910390fd5b6000600554146103bb576040517f08c379a00000000000000000000000000000000000000000000000000000000081526004016103b290612603565b60405180910390fd5b600034116103fe576040517f08c379a00000000000000000000000000000000000000000000000000000000081526004016103f59061266f565b60405180910390fd5b6000600360009054906101000a900473ffffffffffffffffffffffffffffffffffffffff1673ffffffffffffffffffffffffffffffffffffffff166370a08231336040518263ffffffff1660e01b815260040161045b9190612271565b602060405180830381865afa158015610478573d6000803e3d6000fd5b505050506040513d601f19601f8201168201806040525081019061049c91906126a4565b9050808211156104e1576040517f08c379a00000000000000000000000000000000000000000000000000000000081526004016104d890612743565b60405180910390fd5b60008211610524576040517f08c379a000000000000000000000000000000000000000000000000000000000815260040161051b906127af565b60405180910390fd5b600360009054906101000a900473ffffffffffffffffffffffffffffffffffffffff1673ffffffffffffffffffffffffffffffffffffffff166323b872dd3330856040518463ffffffff1660e01b8152600401610583939291906127cf565b6020604051808303816000875af11580156105a2573d6000803e3d6000fd5b505050506040513d601f19601f820116820180604052508101906105c6919061283e565b50600360009054906101000a900473ffffffffffffffffffffffffffffffffffffffff1673ffffffffffffffffffffffffffffffffffffffff166370a08231306040518263ffffffff1660e01b81526004016106229190612271565b602060405180830381865afa15801561063f573d6000803e3d6000fd5b505050506040513d601f19601f8201168201806040525081019061066391906126a4565b6004819055503460058190555060055460045461068091906124a9565b600d81905550620186a0600a819055506064600860003373ffffffffffffffffffffffffffffffffffffffff1673ffffffffffffffffffffffffffffffffffffffff168152602001908152602001600020819055505050565b61071a6040518060400160405280600f81526020017f546f6b656e2072657365727665733a0000000000000000000000000000000000815250600454612057565b61075b6040518060400160405280600881526020017f4b2076616c75653a000000000000000000000000000000000000000000000000815250600d54612057565b61079c6040518060400160405280600d81526020017f4554482072657365727665733a00000000000000000000000000000000000000815250600554612057565b6107dd6040518060400160405280600e81526020017f546f74616c207368617265733a20000000000000000000000000000000000000815250600a54612057565b61085b6040518060400160405280600d81526020017f5573657227732073686172657300000000000000000000000000000000000000815250600860003373ffffffffffffffffffffffffffffffffffffffff1673ffffffffffffffffffffffffffffffffffffffff16815260200190815260200160002054612057565b61089a6040518060400160405280601d81526020017f52656d6f7665206c6971756964697479206f6620616d6f756e74203a2000000081525084612057565b60006108a4611db7565b90506108e56040518060400160405280600e81526020017f43757272656e7420726174653a2000000000000000000000000000000000000081525082612057565b6109246040518060400160405280600981526020017f6d696e526174653a20000000000000000000000000000000000000000000000081525083612057565b6109636040518060400160405280600981526020017f6d6178526174653a20000000000000000000000000000000000000000000000081525084612057565b828111156109a6576040517f08c379a000000000000000000000000000000000000000000000000000000000815260040161099d906128dd565b60405180910390fd5b818110156109e9576040517f08c379a00000000000000000000000000000000000000000000000000000000081526004016109e09061296f565b60405180910390fd5b60008411610a2c576040517f08c379a0000000000000000000000000000000000000000000000000000000008152600401610a2390612a01565b60405180910390fd5b6005548410610a70576040517f08c379a0000000000000000000000000000000000000000000000000000000008152600401610a6790612a6d565b60405180910390fd5b6000600a54600e54600860003373ffffffffffffffffffffffffffffffffffffffff1673ffffffffffffffffffffffffffffffffffffffff16815260200190815260200160002054610ac291906124a9565b610acc919061251a565b90506000600554600e5487610ae191906124a9565b610aeb919061251a565b905080821015610b30576040517f08c379a0000000000000000000000000000000000000000000000000000000008152600401610b2790612ad9565b60405180910390fd5b600060055487600454610b4391906124a9565b610b4d919061251a565b90506004548110610b93576040517f08c379a0000000000000000000000000000000000000000000000000000000008152600401610b8a90612b6b565b60405180910390fd5b610bd26040518060400160405280601981526020017f7468697320657175616c7320746f6b656e73416d6f756e743a0000000000000081525082612057565b6000610bdd88611d61565b90506000600a5460075483610bf291906124a9565b610bfc919061251a565b90506000600a5460065484610c1191906124a9565b610c1b919061251a565b90508160076000828254610c2f9190612b8b565b925050819055508060066000828254610c489190612b8b565b9250508190555082600a6000828254610c619190612b8b565b9250508190555082600860003373ffffffffffffffffffffffffffffffffffffffff1673ffffffffffffffffffffffffffffffffffffffff1681526020019081526020016000206000828254610cb79190612b8b565b92505081905550610cfd6040518060400160405280601281526020017f53686172657320746f2072656d6f76653a20000000000000000000000000000081525084612057565b818a610d099190612bbf565b99508084610d179190612bbf565b9350600360009054906101000a900473ffffffffffffffffffffffffffffffffffffffff1673ffffffffffffffffffffffffffffffffffffffff1663a9059cbb33866040518363ffffffff1660e01b8152600401610d76929190612bf3565b6020604051808303816000875af1158015610d95573d6000803e3d6000fd5b505050506040513d601f19601f82011682018060405250810190610db9919061283e565b503373ffffffffffffffffffffffffffffffffffffffff166108fc8b9081150290604051600060405180830381858888f19350505050158015610e00573d6000803e3d6000fd5b5047600581905550600360009054906101000a900473ffffffffffffffffffffffffffffffffffffffff1673ffffffffffffffffffffffffffffffffffffffff166370a08231306040518263ffffffff1660e01b8152600401610e639190612271565b602060405180830381865afa158015610e80573d6000803e3d6000fd5b505050506040513d601f19601f82011682018060405250810190610ea491906126a4565b600481905550600360009054906101000a900473ffffffffffffffffffffffffffffffffffffffff1673ffffffffffffffffffffffffffffffffffffffff166370a08231306040518263ffffffff1660e01b8152600401610f059190612271565b602060405180830381865afa158015610f22573d6000803e3d6000fd5b505050506040513d601f19601f82011682018060405250810190610f4691906126a4565b47610f5191906124a9565b600d819055506110316040518060400160405280600e81526020017f557365722062616c616e63653a20000000000000000000000000000000000000815250600360009054906101000a900473ffffffffffffffffffffffffffffffffffffffff1673ffffffffffffffffffffffffffffffffffffffff166370a08231336040518263ffffffff1660e01b8152600401610feb9190612271565b602060405180830381865afa158015611008573d6000803e3d6000fd5b505050506040513d601f19601f8201168201806040525081019061102c91906126a4565b612057565b6110726040518060400160405280600f81526020017f546f6b656e2072657365727665733a0000000000000000000000000000000000815250600454612057565b6110b36040518060400160405280600881526020017f4b2076616c75653a000000000000000000000000000000000000000000000000815250600d54612057565b6110f46040518060400160405280600d81526020017f4554482072657365727665733a00000000000000000000000000000000000000815250600554612057565b6111356040518060400160405280600e81526020017f546f74616c207368617265733a20000000000000000000000000000000000000815250600a54612057565b6111b36040518060400160405280600d81526020017f5573657227732073686172657300000000000000000000000000000000000000815250600860003373ffffffffffffffffffffffffffffffffffffffff1673ffffffffffffffffffffffffffffffffffffffff16815260200190815260200160002054612057565b50505050505050505050565b565b60008060009054906101000a900473ffffffffffffffffffffffffffffffffffffffff16905090565b61122b6040518060400160405280600f81526020017f546f6b656e2072657365727665733a0000000000000000000000000000000000815250600454612057565b61126c6040518060400160405280600881526020017f4b2076616c75653a000000000000000000000000000000000000000000000000815250600d54612057565b6112ad6040518060400160405280600d81526020017f4554482072657365727665733a00000000000000000000000000000000000000815250600554612057565b61132b6040518060400160405280600d81526020017f5573657227732073686172657300000000000000000000000000000000000000815250600860003373ffffffffffffffffffffffffffffffffffffffff1673ffffffffffffffffffffffffffffffffffffffff16815260200190815260200160002054612057565b61136c6040518060400160405280600e81526020017f546f74616c207368617265733a20000000000000000000000000000000000000815250600a54612057565b6113ab6040518060400160405280601a81526020017f416464206c6971756964697479206f6620616d6f756e74203a2000000000000081525034612057565b60006113b5611db7565b9050828111156113fa576040517f08c379a00000000000000000000000000000000000000000000000000000000081526004016113f1906128dd565b60405180910390fd5b8181101561143d576040517f08c379a00000000000000000000000000000000000000000000000000000000081526004016114349061296f565b60405180910390fd5b60006005543460045461145091906124a9565b61145a919061251a565b905061149b6040518060400160405280601981526020017f7468697320657175616c7320746f6b656e73416d6f756e743a0000000000000081525082612057565b600034116114de576040517f08c379a00000000000000000000000000000000000000000000000000000000081526004016114d590612c8e565b60405180910390fd5b80600360009054906101000a900473ffffffffffffffffffffffffffffffffffffffff1673ffffffffffffffffffffffffffffffffffffffff166370a08231336040518263ffffffff1660e01b815260040161153a9190612271565b602060405180830381865afa158015611557573d6000803e3d6000fd5b505050506040513d601f19601f8201168201806040525081019061157b91906126a4565b10156115bc576040517f08c379a00000000000000000000000000000000000000000000000000000000081526004016115b390612d46565b60405180910390fd5b60006115c734611d61565b905080600a60008282546115db9190612bbf565b9250508190555080600860003373ffffffffffffffffffffffffffffffffffffffff1673ffffffffffffffffffffffffffffffffffffffff16815260200190815260200160002060008282546116319190612bbf565b925050819055506116776040518060400160405280600f81526020017f53686172657320746f206164643a20000000000000000000000000000000000081525082612057565b6117516040518060400160405280600f81526020017f4265666f726520706179696e673a200000000000000000000000000000000000815250600360009054906101000a900473ffffffffffffffffffffffffffffffffffffffff1673ffffffffffffffffffffffffffffffffffffffff166370a08231336040518263ffffffff1660e01b815260040161170b9190612271565b602060405180830381865afa158015611728573d6000803e3d6000fd5b505050506040513d601f19601f8201168201806040525081019061174c91906126a4565b612057565b600360009054906101000a900473ffffffffffffffffffffffffffffffffffffffff1673ffffffffffffffffffffffffffffffffffffffff166323b872dd3330856040518463ffffffff1660e01b81526004016117b0939291906127cf565b6020604051808303816000875af11580156117cf573d6000803e3d6000fd5b505050506040513d601f19601f820116820180604052508101906117f3919061283e565b506118ce6040518060400160405280601881526020017f436f6e7472616374206166746572207061796d656e743a200000000000000000815250600360009054906101000a900473ffffffffffffffffffffffffffffffffffffffff1673ffffffffffffffffffffffffffffffffffffffff166370a08231306040518263ffffffff1660e01b81526004016118889190612271565b602060405180830381865afa1580156118a5573d6000803e3d6000fd5b505050506040513d601f19601f820116820180604052508101906118c991906126a4565b612057565b47600581905550600360009054906101000a900473ffffffffffffffffffffffffffffffffffffffff1673ffffffffffffffffffffffffffffffffffffffff166370a08231306040518263ffffffff1660e01b81526004016119309190612271565b602060405180830381865afa15801561194d573d6000803e3d6000fd5b505050506040513d601f19601f8201168201806040525081019061197191906126a4565b600481905550600360009054906101000a900473ffffffffffffffffffffffffffffffffffffffff1673ffffffffffffffffffffffffffffffffffffffff166370a08231306040518263ffffffff1660e01b81526004016119d29190612271565b602060405180830381865afa1580156119ef573d6000803e3d6000fd5b505050506040513d601f19601f82011682018060405250810190611a1391906126a4565b47611a1e91906124a9565b600d81905550611afe6040518060400160405280600e81526020017f416674657220706179696e673a20000000000000000000000000000000000000815250600360009054906101000a900473ffffffffffffffffffffffffffffffffffffffff1673ffffffffffffffffffffffffffffffffffffffff166370a08231336040518263ffffffff1660e01b8152600401611ab89190612271565b602060405180830381865afa158015611ad5573d6000803e3d6000fd5b505050506040513d601f19601f82011682018060405250810190611af991906126a4565b612057565b611bd86040518060400160405280601881526020017f436f6e7472616374206166746572207061796d656e743a200000000000000000815250600360009054906101000a900473ffffffffffffffffffffffffffffffffffffffff1673ffffffffffffffffffffffffffffffffffffffff166370a08231306040518263ffffffff1660e01b8152600401611b929190612271565b602060405180830381865afa158015611baf573d6000803e3d6000fd5b505050506040513d601f19601f82011682018060405250810190611bd391906126a4565b612057565b611c196040518060400160405280600f81526020017f546f6b656e2072657365727665733a0000000000000000000000000000000000815250600454612057565b611c5a6040518060400160405280600881526020017f4b2076616c75653a000000000000000000000000000000000000000000000000815250600d54612057565b611c9b6040518060400160405280600d81526020017f4554482072657365727665733a00000000000000000000000000000000000000815250600554612057565b611cdc6040518060400160405280600e81526020017f546f74616c207368617265733a20000000000000000000000000000000000000815250600a54612057565b611d5a6040518060400160405280600d81526020017f5573657227732073686172657300000000000000000000000000000000000000815250600860003373ffffffffffffffffffffffffffffffffffffffff1673ffffffffffffffffffffffffffffffffffffffff16815260200190815260200160002054612057565b5050505050565b600080600a5460055484600e54611d7891906124a9565b611d82919061251a565b611d8c91906124a9565b9050600e5481611d9c919061251a565b915050919050565b600080600b54600c54915091509091565b565b6000600454600e54600554611dcc91906124a9565b611dd6919061251a565b905090565b50565b611de6611f15565b600073ffffffffffffffffffffffffffffffffffffffff168173ffffffffffffffffffffffffffffffffffffffff1603611e55576040517f08c379a0000000000000000000000000000000000000000000000000000000008152600401611e4c90612dd8565b60405180910390fd5b611e5e81611f93565b50565b60018054611e6e90612e27565b80601f0160208091040260200160405190810160405280929190818152602001828054611e9a90612e27565b8015611ee75780601f10611ebc57610100808354040283529160200191611ee7565b820191906000526020600020905b815481529060010190602001808311611eca57829003601f168201915b505050505081565b600360009054906101000a900473ffffffffffffffffffffffffffffffffffffffff1681565b611f1d6120f3565b73ffffffffffffffffffffffffffffffffffffffff16611f3b6111c1565b73ffffffffffffffffffffffffffffffffffffffff1614611f91576040517f08c379a0000000000000000000000000000000000000000000000000000000008152600401611f8890612ea4565b60405180910390fd5b565b60008060009054906101000a900473ffffffffffffffffffffffffffffffffffffffff169050816000806101000a81548173ffffffffffffffffffffffffffffffffffffffff021916908373ffffffffffffffffffffffffffffffffffffffff1602179055508173ffffffffffffffffffffffffffffffffffffffff168173ffffffffffffffffffffffffffffffffffffffff167f8be0079c531659141344cd1fd0a4f28419497f9722a3daafe3b4186f6b6457e060405160405180910390a35050565b6120ef828260405160240161206d929190612ec4565b6040516020818303038152906040527fb60e72cc000000000000000000000000000000000000000000000000000000007bffffffffffffffffffffffffffffffffffffffffffffffffffffffff19166020820180517bffffffffffffffffffffffffffffffffffffffffffffffffffffffff83818316178352505050506120fb565b5050565b600033905090565b6121128161210a612115612136565b63ffffffff16565b50565b60006a636f6e736f6c652e6c6f679050600080835160208501845afa505050565b612141819050919050565b612149612ef4565b565b6000819050919050565b61215e8161214b565b82525050565b60006020820190506121796000830184612155565b92915050565b600080fd5b61218d8161214b565b811461219857600080fd5b50565b6000813590506121aa81612184565b92915050565b6000602082840312156121c6576121c561217f565b5b60006121d48482850161219b565b91505092915050565b6000806000606084860312156121f6576121f561217f565b5b60006122048682870161219b565b93505060206122158682870161219b565b92505060406122268682870161219b565b9150509250925092565b600073ffffffffffffffffffffffffffffffffffffffff82169050919050565b600061225b82612230565b9050919050565b61226b81612250565b82525050565b60006020820190506122866000830184612262565b92915050565b600080604083850312156122a3576122a261217f565b5b60006122b18582860161219b565b92505060206122c28582860161219b565b9150509250929050565b60006040820190506122e16000830185612155565b6122ee6020830184612155565b9392505050565b6122fe81612250565b811461230957600080fd5b50565b60008135905061231b816122f5565b92915050565b6000602082840312156123375761233661217f565b5b60006123458482850161230c565b91505092915050565b600081519050919050565b600082825260208201905092915050565b60005b8381101561238857808201518184015260208101905061236d565b60008484015250505050565b6000601f19601f8301169050919050565b60006123b08261234e565b6123ba8185612359565b93506123ca81856020860161236a565b6123d381612394565b840191505092915050565b600060208201905081810360008301526123f881846123a5565b905092915050565b6000819050919050565b600061242561242061241b84612230565b612400565b612230565b9050919050565b60006124378261240a565b9050919050565b60006124498261242c565b9050919050565b6124598161243e565b82525050565b60006020820190506124746000830184612450565b92915050565b7f4e487b7100000000000000000000000000000000000000000000000000000000600052601160045260246000fd5b60006124b48261214b565b91506124bf8361214b565b92508282026124cd8161214b565b915082820484148315176124e4576124e361247a565b5b5092915050565b7f4e487b7100000000000000000000000000000000000000000000000000000000600052601260045260246000fd5b60006125258261214b565b91506125308361214b565b9250826125405761253f6124eb565b5b828204905092915050565b7f546f6b656e20726573657276657320776173206e6f7420300000000000000000600082015250565b6000612581601883612359565b915061258c8261254b565b602082019050919050565b600060208201905081810360008301526125b081612574565b9050919050565b7f45544820726573657276657320776173206e6f7420302e000000000000000000600082015250565b60006125ed601783612359565b91506125f8826125b7565b602082019050919050565b6000602082019050818103600083015261261c816125e0565b9050919050565b7f4e6565642065746820746f2063726561746520706f6f6c2e0000000000000000600082015250565b6000612659601883612359565b915061266482612623565b602082019050919050565b600060208201905081810360008301526126888161264c565b9050919050565b60008151905061269e81612184565b92915050565b6000602082840312156126ba576126b961217f565b5b60006126c88482850161268f565b91505092915050565b7f4e6f74206861766520656e6f75676820746f6b656e7320746f2063726561746560008201527f2074686520706f6f6c0000000000000000000000000000000000000000000000602082015250565b600061272d602983612359565b9150612738826126d1565b604082019050919050565b6000602082019050818103600083015261275c81612720565b9050919050565b7f4e65656420746f6b656e7320746f2063726561746520706f6f6c2e0000000000600082015250565b6000612799601b83612359565b91506127a482612763565b602082019050919050565b600060208201905081810360008301526127c88161278c565b9050919050565b60006060820190506127e46000830186612262565b6127f16020830185612262565b6127fe6040830184612155565b949350505050565b60008115159050919050565b61281b81612806565b811461282657600080fd5b50565b60008151905061283881612812565b92915050565b6000602082840312156128545761285361217f565b5b600061286284828501612829565b91505092915050565b7f43757272656e74207261746520686173206d6f7665642061626f7665206d617860008201527f45786368616e6765526174650000000000000000000000000000000000000000602082015250565b60006128c7602c83612359565b91506128d28261286b565b604082019050919050565b600060208201905081810360008301526128f6816128ba565b9050919050565b7f43757272656e74207261746520686173206d6f7665642062656c6f77206d696e60008201527f45786368616e6765526174650000000000000000000000000000000000000000602082015250565b6000612959602c83612359565b9150612964826128fd565b604082019050919050565b600060208201905081810360008301526129888161294c565b9050919050565b7f4d7573742072656d6f766520706f73697469766520616d6f756e74206f66206c60008201527f6971756964697479000000000000000000000000000000000000000000000000602082015250565b60006129eb602883612359565b91506129f68261298f565b604082019050919050565b60006020820190508181036000830152612a1a816129de565b9050919050565b7f43616e6e6f74206465706c6574652045544820726573657276657320746f2030600082015250565b6000612a57602083612359565b9150612a6282612a21565b602082019050919050565b60006020820190508181036000830152612a8681612a4a565b9050919050565b7f4c502068617320696e73756666696369656e74206c6971756964697479000000600082015250565b6000612ac3601d83612359565b9150612ace82612a8d565b602082019050919050565b60006020820190508181036000830152612af281612ab6565b9050919050565b7f43616e6e6f74206465706c65746520746f6b656e20726573657276657320746f60008201527f2030000000000000000000000000000000000000000000000000000000000000602082015250565b6000612b55602283612359565b9150612b6082612af9565b604082019050919050565b60006020820190508181036000830152612b8481612b48565b9050919050565b6000612b968261214b565b9150612ba18361214b565b9250828203905081811115612bb957612bb861247a565b5b92915050565b6000612bca8261214b565b9150612bd58361214b565b9250828201905080821115612bed57612bec61247a565b5b92915050565b6000604082019050612c086000830185612262565b612c156020830184612155565b9392505050565b7f4d7573742061646420706f73697469766520616d6f756e74206f66206c69717560008201527f6964697479000000000000000000000000000000000000000000000000000000602082015250565b6000612c78602583612359565b9150612c8382612c1c565b604082019050919050565b60006020820190508181036000830152612ca781612c6b565b9050919050565b7f53656e64657220646f6573206e6f74206861766520656e6f75676820746f6b6560008201527f6e7320746f20616464207468617420616d6f756e74206f66206c69717569646960208201527f7479000000000000000000000000000000000000000000000000000000000000604082015250565b6000612d30604283612359565b9150612d3b82612cae565b606082019050919050565b60006020820190508181036000830152612d5f81612d23565b9050919050565b7f4f776e61626c653a206e6577206f776e657220697320746865207a65726f206160008201527f6464726573730000000000000000000000000000000000000000000000000000602082015250565b6000612dc2602683612359565b9150612dcd82612d66565b604082019050919050565b60006020820190508181036000830152612df181612db5565b9050919050565b7f4e487b7100000000000000000000000000000000000000000000000000000000600052602260045260246000fd5b60006002820490506001821680612e3f57607f821691505b602082108103612e5257612e51612df8565b5b50919050565b7f4f776e61626c653a2063616c6c6572206973206e6f7420746865206f776e6572600082015250565b6000612e8e602083612359565b9150612e9982612e58565b602082019050919050565b60006020820190508181036000830152612ebd81612e81565b9050919050565b60006040820190508181036000830152612ede81856123a5565b9050612eed6020830184612155565b9392505050565b7f4e487b7100000000000000000000000000000000000000000000000000000000600052605160045260246000fdfea264697066735822122050f59e9c9fa7cb132b34f9c6587239c0f59bea65d83f70ce4d3c409956df7f8e64736f6c63430008110033",
  "linkReferences": {},
  "deployedLinkReferences": {}
}