{
  "_format": "hh-sol-artifact-1",
  "contractName": "TokenExchange",
  "sourceName": "contracts/exchange.sol",
  "abi": [
    {
      "inputs": [],
      "stateMutability": "nonpayable",
      "type": "constructor"
    },
    {
      "anonymous": false,
      "inputs": [
        {
          "indexed": true,
          "internalType": "address",
          "name": "previousOwner",
          "type": "address"
        },
        {
          "indexed": true,
          "internalType": "address",
          "name": "newOwner",
          "type": "address"
        }
      ],
      "name": "OwnershipTransferred",
      "type": "event"
    },
    {
      "inputs": [
        {
          "internalType": "uint256",
          "name": "maxExchangeRate",
          "type": "uint256"
        },
        {
          "internalType": "uint256",
          "name": "minExchangeRate",
          "type": "uint256"
        }
      ],
      "name": "addLiquidity",
      "outputs": [],
      "stateMutability": "payable",
      "type": "function"
    },
    {
      "inputs": [
        {
          "internalType": "uint256",
          "name": "amountTokens",
          "type": "uint256"
        }
      ],
      "name": "createPool",
      "outputs": [],
      "stateMutability": "payable",
      "type": "function"
    },
    {
      "inputs": [],
      "name": "ethToTokenRate",
      "outputs": [
        {
          "internalType": "uint256",
          "name": "",
          "type": "uint256"
        }
      ],
      "stateMutability": "view",
      "type": "function"
    },
    {
      "inputs": [],
      "name": "exchange_name",
      "outputs": [
        {
          "internalType": "string",
          "name": "",
          "type": "string"
        }
      ],
      "stateMutability": "view",
      "type": "function"
    },
    {
      "inputs": [
        {
          "internalType": "uint256",
          "name": "ethAmt",
          "type": "uint256"
        }
      ],
      "name": "findAmtShares",
      "outputs": [
        {
          "internalType": "uint256",
          "name": "",
          "type": "uint256"
        }
      ],
      "stateMutability": "view",
      "type": "function"
    },
    {
      "inputs": [],
      "name": "getSwapFee",
      "outputs": [
        {
          "internalType": "uint256",
          "name": "",
          "type": "uint256"
        },
        {
          "internalType": "uint256",
          "name": "",
          "type": "uint256"
        }
      ],
      "stateMutability": "view",
      "type": "function"
    },
    {
      "inputs": [],
      "name": "owner",
      "outputs": [
        {
          "internalType": "address",
          "name": "",
          "type": "address"
        }
      ],
      "stateMutability": "view",
      "type": "function"
    },
    {
      "inputs": [],
      "name": "print_lps",
      "outputs": [
        {
          "internalType": "bool",
          "name": "",
          "type": "bool"
        }
      ],
      "stateMutability": "view",
      "type": "function"
    },
    {
      "inputs": [
        {
          "internalType": "uint256",
          "name": "maxExchangeRate",
          "type": "uint256"
        },
        {
          "internalType": "uint256",
          "name": "minExchangeRate",
          "type": "uint256"
        }
      ],
      "name": "removeAllLiquidity",
      "outputs": [],
      "stateMutability": "payable",
      "type": "function"
    },
    {
      "inputs": [
        {
          "internalType": "uint256",
          "name": "amountETH",
          "type": "uint256"
        },
        {
          "internalType": "uint256",
          "name": "maxExchangeRate",
          "type": "uint256"
        },
        {
          "internalType": "uint256",
          "name": "minExchangeRate",
          "type": "uint256"
        }
      ],
      "name": "removeLiquidity",
      "outputs": [],
      "stateMutability": "payable",
      "type": "function"
    },
    {
      "inputs": [],
      "name": "renounceOwnership",
      "outputs": [],
      "stateMutability": "nonpayable",
      "type": "function"
    },
    {
      "inputs": [
        {
          "internalType": "uint256",
          "name": "maxExchangeRate",
          "type": "uint256"
        }
      ],
      "name": "swapETHForTokens",
      "outputs": [],
      "stateMutability": "payable",
      "type": "function"
    },
    {
      "inputs": [
        {
          "internalType": "uint256",
          "name": "amountTokens",
          "type": "uint256"
        },
        {
          "internalType": "uint256",
          "name": "minEthTokenExchangeRate",
          "type": "uint256"
        }
      ],
      "name": "swapTokensForETH",
      "outputs": [],
      "stateMutability": "payable",
      "type": "function"
    },
    {
      "inputs": [],
      "name": "token",
      "outputs": [
        {
          "internalType": "contract Token",
          "name": "",
          "type": "address"
        }
      ],
      "stateMutability": "view",
      "type": "function"
    },
    {
      "inputs": [
        {
          "internalType": "address",
          "name": "newOwner",
          "type": "address"
        }
      ],
      "name": "transferOwnership",
      "outputs": [],
      "stateMutability": "nonpayable",
      "type": "function"
    }
  ],
  "bytecode": "0x6080604052604051806020016040528060008152506001908162000024919062000489565b50735fbdb2315678afecb367f032d93f642f64180aa3600260006101000a81548173ffffffffffffffffffffffffffffffffffffffff021916908373ffffffffffffffffffffffffffffffffffffffff160217905550600260009054906101000a900473ffffffffffffffffffffffffffffffffffffffff16600360006101000a81548173ffffffffffffffffffffffffffffffffffffffff021916908373ffffffffffffffffffffffffffffffffffffffff16021790555060006004556000600555600060065560006007556000600a556003600b556064600c55620186a0600e556305f5e100600f553480156200011c57600080fd5b506200013d620001316200014360201b60201c565b6200014b60201b60201c565b62000570565b600033905090565b60008060009054906101000a900473ffffffffffffffffffffffffffffffffffffffff169050816000806101000a81548173ffffffffffffffffffffffffffffffffffffffff021916908373ffffffffffffffffffffffffffffffffffffffff1602179055508173ffffffffffffffffffffffffffffffffffffffff168173ffffffffffffffffffffffffffffffffffffffff167f8be0079c531659141344cd1fd0a4f28419497f9722a3daafe3b4186f6b6457e060405160405180910390a35050565b600081519050919050565b7f4e487b7100000000000000000000000000000000000000000000000000000000600052604160045260246000fd5b7f4e487b7100000000000000000000000000000000000000000000000000000000600052602260045260246000fd5b600060028204905060018216806200029157607f821691505b602082108103620002a757620002a662000249565b5b50919050565b60008190508160005260206000209050919050565b60006020601f8301049050919050565b600082821b905092915050565b600060088302620003117fffffffffffffffffffffffffffffffffffffffffffffffffffffffffffffffff82620002d2565b6200031d8683620002d2565b95508019841693508086168417925050509392505050565b6000819050919050565b6000819050919050565b60006200036a620003646200035e8462000335565b6200033f565b62000335565b9050919050565b6000819050919050565b620003868362000349565b6200039e620003958262000371565b848454620002df565b825550505050565b600090565b620003b5620003a6565b620003c28184846200037b565b505050565b5b81811015620003ea57620003de600082620003ab565b600181019050620003c8565b5050565b601f82111562000439576200040381620002ad565b6200040e84620002c2565b810160208510156200041e578190505b620004366200042d85620002c2565b830182620003c7565b50505b505050565b600082821c905092915050565b60006200045e600019846008026200043e565b1980831691505092915050565b60006200047983836200044b565b9150826002028217905092915050565b62000494826200020f565b67ffffffffffffffff811115620004b057620004af6200021a565b5b620004bc825462000278565b620004c9828285620003ee565b600060209050601f831160018114620005015760008415620004ec578287015190505b620004f885826200046b565b86555062000568565b601f1984166200051186620002ad565b60005b828110156200053b5784890151825560018201915060208501945060208101905062000514565b868310156200055b578489015162000557601f8916826200044b565b8355505b6001600288020188555050505b505050505050565b6159cc80620005806000396000f3fe6080604052600436106100e85760003560e01c8063a22280a61161008a578063e09adc7011610059578063e09adc701461026b578063f2fde38b14610296578063f694f7d1146102bf578063fc0c546a146102ea576100e8565b8063a22280a6146101bb578063a65540fb146101d7578063b09bbcbc14610214578063d4cadf681461023f576100e8565b80638259e6a0116100c65780638259e6a01461013c578063857620e1146101585780638da5cb5b146101745780639cd441da1461019f576100e8565b80632eab2841146100ed57806358ad6de414610109578063715018a614610125575b600080fd5b61010760048036038101906101029190614662565b610315565b005b610123600480360381019061011e919061468f565b610c05565b005b34801561013157600080fd5b5061013a6116bf565b005b61015660048036038101906101519190614662565b6116d3565b005b610172600480360381019061016d91906146cf565b611a8c565b005b34801561018057600080fd5b506101896123d8565b6040516101969190614763565b60405180910390f35b6101b960048036038101906101b4919061468f565b612401565b005b6101d560048036038101906101d0919061468f565b613272565b005b3480156101e357600080fd5b506101fe60048036038101906101f99190614662565b613c2e565b60405161020b919061478d565b60405180910390f35b34801561022057600080fd5b50610229613c57565b60405161023691906147c3565b60405180910390f35b34801561024b57600080fd5b50610254613f6c565b6040516102629291906147de565b60405180910390f35b34801561027757600080fd5b50610280613f7d565b60405161028d919061478d565b60405180910390f35b3480156102a257600080fd5b506102bd60048036038101906102b89190614833565b613fa6565b005b3480156102cb57600080fd5b506102d4614029565b6040516102e191906148f0565b60405180910390f35b3480156102f657600080fd5b506102ff6140b7565b60405161030c9190614971565b60405180910390f35b61031d613c57565b5061035d6040518060400160405280601081526020017f53776170455448466f72546f6b656e7300000000000000000000000000000000815250346140dd565b61039e6040518060400160405280600f81526020017f546f6b656e2072657365727665733a00000000000000000000000000000000008152506004546140dd565b6103df6040518060400160405280600881526020017f4b2076616c75653a000000000000000000000000000000000000000000000000815250600d546140dd565b6104206040518060400160405280600d81526020017f4554482072657365727665733a000000000000000000000000000000000000008152506005546140dd565b61045f6040518060400160405280601181526020017f6d617845786368616e6765526174653a20000000000000000000000000000000815250826140dd565b600034116104a2576040517f08c379a0000000000000000000000000000000000000000000000000000000008152600401610499906149d8565b60405180910390fd5b60006104ac613f7d565b90506104ed6040518060400160405280600d81526020017f63757272656e74526174653a2000000000000000000000000000000000000000815250826140dd565b61052c6040518060400160405280600881526020017f6d61782072617465000000000000000000000000000000000000000000000000815250836140dd565b81600f548261053b9190614a27565b111561057c576040517f08c379a000000000000000000000000000000000000000000000000000000000815260040161057390614acd565b60405180910390fd5b60003490506000600c5482600b546105949190614aed565b61059e9190614b5e565b905080600760008282546105b29190614b8f565b925050819055506105f86040518060400160405280600581526020017f4665653a20000000000000000000000000000000000000000000000000000000815250826140dd565b600081836106069190614a27565b6005546106139190614b8f565b600d546106209190614b5e565b60045461062d9190614a27565b905061066e6040518060400160405280601081526020017f546f6b656e73416d6f756e7420203d2000000000000000000000000000000000815250826140dd565b600081116106b1576040517f08c379a00000000000000000000000000000000000000000000000000000000081526004016106a890614c35565b60405180910390fd5b60045481106106f5576040517f08c379a00000000000000000000000000000000000000000000000000000000081526004016106ec90614cc7565b60405180910390fd5b60005b6009805490508110156108355760006009828154811061071b5761071a614ce7565b5b9060005260206000200160009054906101000a900473ffffffffffffffffffffffffffffffffffffffff1690506000600860008373ffffffffffffffffffffffffffffffffffffffff1673ffffffffffffffffffffffffffffffffffffffff16815260200190815260200160002090508481600101600082825461079f9190614b8f565b925050819055506108206040518060400160405280601781526020017f4163637275656420746f6b656e206665657320666f7220000000000000000000815250836040518060400160405280600281526020017f3a200000000000000000000000000000000000000000000000000000000000008152508460010154614179565b5050808061082d90614d16565b9150506106f8565b50600360009054906101000a900473ffffffffffffffffffffffffffffffffffffffff1673ffffffffffffffffffffffffffffffffffffffff1663a9059cbb33836040518363ffffffff1660e01b8152600401610893929190614d5e565b6020604051808303816000875af11580156108b2573d6000803e3d6000fd5b505050506040513d601f19601f820116820180604052508101906108d69190614db3565b5061092d6040518060400160405280601581526020017f53776170706572206574682062616c616e63653a2000000000000000000000008152503373ffffffffffffffffffffffffffffffffffffffff16316140dd565b610a076040518060400160405280601681526020017f5377617070657220746f6b656e2062616c616e63653a00000000000000000000815250600360009054906101000a900473ffffffffffffffffffffffffffffffffffffffff1673ffffffffffffffffffffffffffffffffffffffff166370a08231336040518263ffffffff1660e01b81526004016109c19190614763565b602060405180830381865afa1580156109de573d6000803e3d6000fd5b505050506040513d601f19601f82011682018060405250810190610a029190614df5565b6140dd565b600360009054906101000a900473ffffffffffffffffffffffffffffffffffffffff1673ffffffffffffffffffffffffffffffffffffffff166370a08231306040518263ffffffff1660e01b8152600401610a629190614763565b602060405180830381865afa158015610a7f573d6000803e3d6000fd5b505050506040513d601f19601f82011682018060405250810190610aa39190614df5565b60048190555047600581905550610af16040518060400160405280601481526020017f746f6b656e206665652072657365727665733a200000000000000000000000008152506006546140dd565b610b326040518060400160405280601281526020017f657468206665652072657365727665733a2000000000000000000000000000008152506007546140dd565b610b736040518060400160405280600f81526020017f546f6b656e2072657365727665733a00000000000000000000000000000000008152506004546140dd565b610bb46040518060400160405280600881526020017f4b2076616c75653a000000000000000000000000000000000000000000000000815250600d546140dd565b610bf56040518060400160405280600d81526020017f4554482072657365727665733a000000000000000000000000000000000000008152506005546140dd565b610bfd613c57565b505050505050565b610c0d613c57565b506000600860003373ffffffffffffffffffffffffffffffffffffffff1673ffffffffffffffffffffffffffffffffffffffff16815260200190815260200160002090506000610c5b613f7d565b9050610c9c6040518060400160405280600e81526020017f657468546f6b656e526174653a20000000000000000000000000000000000000815250826140dd565b610cdb6040518060400160405280600981526020017f6d6178526174653a200000000000000000000000000000000000000000000000815250856140dd565b610d1a6040518060400160405280600981526020017f6d696e526174653a200000000000000000000000000000000000000000000000815250846140dd565b83600f5482610d299190614a27565b1115610d6a576040517f08c379a0000000000000000000000000000000000000000000000000000000008152600401610d6190614acd565b60405180910390fd5b82600f5482610d799190614b8f565b1015610dba576040517f08c379a0000000000000000000000000000000000000000000000000000000008152600401610db190614e94565b60405180910390fd5b6000600a548360000154600e54610dd19190614aed565b610ddb9190614b5e565b90506000600e5460055483610df09190614aed565b610dfa9190614b5e565b90506000600e5460045484610e0f9190614aed565b610e199190614b5e565b90506005548210610e5f576040517f08c379a0000000000000000000000000000000000000000000000000000000008152600401610e5690614f00565b60405180910390fd5b6004548110610ea3576040517f08c379a0000000000000000000000000000000000000000000000000000000008152600401610e9a90614f92565b60405180910390fd5b6000610eae83613c2e565b90506000600a54876001015483610ec59190614aed565b610ecf9190614b5e565b90506000600a54886002015484610ee69190614aed565b610ef09190614b5e565b905082600a6000828254610f049190614a27565b925050819055508160076000828254610f1d9190614a27565b925050819055508060066000828254610f369190614a27565b92505081905550610f7c6040518060400160405280601281526020017f53686172657320746f2072656d6f76653a200000000000000000000000000000815250846140dd565b610fbb6040518060400160405280600c81526020017f657468526577617264733a200000000000000000000000000000000000000000815250836140dd565b610ffa6040518060400160405280600e81526020017f746f6b656e526577617264733a20000000000000000000000000000000000000815250826140dd565b600088600001819055506000805b60098054905081101561109d573373ffffffffffffffffffffffffffffffffffffffff16600982815481106110405761103f614ce7565b5b9060005260206000200160009054906101000a900473ffffffffffffffffffffffffffffffffffffffff1673ffffffffffffffffffffffffffffffffffffffff160361108a578091505b808061109590614d16565b915050611008565b506110a78161421b565b6110ea6040518060400160405280600b81526020017f6c705f7368617265733a200000000000000000000000000000000000000000008152508a600001546140dd565b61112d6040518060400160405280600a81526020017f6574685f666565733a20000000000000000000000000000000000000000000008152508a600101546140dd565b6111706040518060400160405280600c81526020017f746f6b656e5f666565733a2000000000000000000000000000000000000000008152508a600201546140dd565b61124a6040518060400160405280600e81526020017f557365722062616c616e63653a20000000000000000000000000000000000000815250600360009054906101000a900473ffffffffffffffffffffffffffffffffffffffff1673ffffffffffffffffffffffffffffffffffffffff166370a08231336040518263ffffffff1660e01b81526004016112049190614763565b602060405180830381865afa158015611221573d6000803e3d6000fd5b505050506040513d601f19601f820116820180604052508101906112459190614df5565b6140dd565b600360009054906101000a900473ffffffffffffffffffffffffffffffffffffffff1673ffffffffffffffffffffffffffffffffffffffff1663a9059cbb33876040518363ffffffff1660e01b81526004016112a7929190614d5e565b6020604051808303816000875af11580156112c6573d6000803e3d6000fd5b505050506040513d601f19601f820116820180604052508101906112ea9190614db3565b503373ffffffffffffffffffffffffffffffffffffffff166108fc879081150290604051600060405180830381858888f19350505050158015611331573d6000803e3d6000fd5b5047600581905550600360009054906101000a900473ffffffffffffffffffffffffffffffffffffffff1673ffffffffffffffffffffffffffffffffffffffff166370a08231306040518263ffffffff1660e01b81526004016113949190614763565b602060405180830381865afa1580156113b1573d6000803e3d6000fd5b505050506040513d601f19601f820116820180604052508101906113d59190614df5565b600481905550600360009054906101000a900473ffffffffffffffffffffffffffffffffffffffff1673ffffffffffffffffffffffffffffffffffffffff166370a08231306040518263ffffffff1660e01b81526004016114369190614763565b602060405180830381865afa158015611453573d6000803e3d6000fd5b505050506040513d601f19601f820116820180604052508101906114779190614df5565b476114829190614aed565b600d819055506115626040518060400160405280600e81526020017f557365722062616c616e63653a20000000000000000000000000000000000000815250600360009054906101000a900473ffffffffffffffffffffffffffffffffffffffff1673ffffffffffffffffffffffffffffffffffffffff166370a08231336040518263ffffffff1660e01b815260040161151c9190614763565b602060405180830381865afa158015611539573d6000803e3d6000fd5b505050506040513d601f19601f8201168201806040525081019061155d9190614df5565b6140dd565b6115a36040518060400160405280600f81526020017f546f6b656e2072657365727665733a00000000000000000000000000000000008152506004546140dd565b6115e46040518060400160405280600881526020017f4b2076616c75653a000000000000000000000000000000000000000000000000815250600d546140dd565b6116256040518060400160405280600d81526020017f4554482072657365727665733a000000000000000000000000000000000000008152506005546140dd565b6116686040518060400160405280600d81526020017f55736572277320736861726573000000000000000000000000000000000000008152508a600001546140dd565b6116a96040518060400160405280600e81526020017f546f74616c207368617265733a20000000000000000000000000000000000000815250600a546140dd565b6116b1613c57565b505050505050505050505050565b6116c7614358565b6116d160006143d6565b565b6116db614358565b600060045414611720576040517f08c379a000000000000000000000000000000000000000000000000000000000815260040161171790614ffe565b60405180910390fd5b600060055414611765576040517f08c379a000000000000000000000000000000000000000000000000000000000815260040161175c9061506a565b60405180910390fd5b600034116117a8576040517f08c379a000000000000000000000000000000000000000000000000000000000815260040161179f906150d6565b60405180910390fd5b6000600360009054906101000a900473ffffffffffffffffffffffffffffffffffffffff1673ffffffffffffffffffffffffffffffffffffffff166370a08231336040518263ffffffff1660e01b81526004016118059190614763565b602060405180830381865afa158015611822573d6000803e3d6000fd5b505050506040513d601f19601f820116820180604052508101906118469190614df5565b90508082111561188b576040517f08c379a000000000000000000000000000000000000000000000000000000000815260040161188290615168565b60405180910390fd5b600082116118ce576040517f08c379a00000000000000000000000000000000000000000000000000000000081526004016118c5906151d4565b60405180910390fd5b600360009054906101000a900473ffffffffffffffffffffffffffffffffffffffff1673ffffffffffffffffffffffffffffffffffffffff166323b872dd3330856040518463ffffffff1660e01b815260040161192d939291906151f4565b6020604051808303816000875af115801561194c573d6000803e3d6000fd5b505050506040513d601f19601f820116820180604052508101906119709190614db3565b50600360009054906101000a900473ffffffffffffffffffffffffffffffffffffffff1673ffffffffffffffffffffffffffffffffffffffff166370a08231306040518263ffffffff1660e01b81526004016119cc9190614763565b602060405180830381865afa1580156119e9573d6000803e3d6000fd5b505050506040513d601f19601f82011682018060405250810190611a0d9190614df5565b60048190555034600581905550600554600454611a2a9190614aed565b600d81905550620186a0600a819055506000600860003373ffffffffffffffffffffffffffffffffffffffff1673ffffffffffffffffffffffffffffffffffffffff168152602001908152602001600020905060648160000181905550505050565b611a94613c57565b506000600860003373ffffffffffffffffffffffffffffffffffffffff1673ffffffffffffffffffffffffffffffffffffffff16815260200190815260200160002090506000611ae2613f7d565b9050611b236040518060400160405280600e81526020017f657468546f6b656e526174653a20000000000000000000000000000000000000815250826140dd565b611b626040518060400160405280600981526020017f6d6178526174653a200000000000000000000000000000000000000000000000815250856140dd565b611ba16040518060400160405280600981526020017f6d696e526174653a200000000000000000000000000000000000000000000000815250846140dd565b83600f5482611bb09190614a27565b1115611bf1576040517f08c379a0000000000000000000000000000000000000000000000000000000008152600401611be890614acd565b60405180910390fd5b82600f5482611c009190614b8f565b1015611c41576040517f08c379a0000000000000000000000000000000000000000000000000000000008152600401611c3890614e94565b60405180910390fd5b60008511611c84576040517f08c379a0000000000000000000000000000000000000000000000000000000008152600401611c7b9061529d565b60405180910390fd5b6005548510611cc8576040517f08c379a0000000000000000000000000000000000000000000000000000000008152600401611cbf90615309565b60405180910390fd5b6000600a54600e548460000154611cdf9190614aed565b611ce99190614b5e565b90506000600554600e5488611cfe9190614aed565b611d089190614b5e565b905080821015611d4d576040517f08c379a0000000000000000000000000000000000000000000000000000000008152600401611d4490615375565b60405180910390fd5b600060055488600454611d609190614aed565b611d6a9190614b5e565b90506004548110611db0576040517f08c379a0000000000000000000000000000000000000000000000000000000008152600401611da790614f92565b60405180910390fd5b611def6040518060400160405280601981526020017f7468697320657175616c7320746f6b656e73416d6f756e743a00000000000000815250826140dd565b6000611dfa89613c2e565b90506000600a54876001015483611e119190614aed565b611e1b9190614b5e565b90506000600a54886002015484611e329190614aed565b611e3c9190614b5e565b905082600a6000828254611e509190614a27565b925050819055508160076000828254611e699190614a27565b925050819055508060066000828254611e829190614a27565b9250508190555082886000016000828254611e9d9190614a27565b9250508190555060008060008a6000015403611eb857600191505b60005b600980549050811015611f50573373ffffffffffffffffffffffffffffffffffffffff1660098281548110611ef357611ef2614ce7565b5b9060005260206000200160009054906101000a900473ffffffffffffffffffffffffffffffffffffffff1673ffffffffffffffffffffffffffffffffffffffff1603611f3d578091505b8080611f4890614d16565b915050611ebb565b508115611f6157611f608161421b565b5b600360009054906101000a900473ffffffffffffffffffffffffffffffffffffffff1673ffffffffffffffffffffffffffffffffffffffff1663a9059cbb33886040518363ffffffff1660e01b8152600401611fbe929190614d5e565b6020604051808303816000875af1158015611fdd573d6000803e3d6000fd5b505050506040513d601f19601f820116820180604052508101906120019190614db3565b503373ffffffffffffffffffffffffffffffffffffffff166108fc8e9081150290604051600060405180830381858888f19350505050158015612048573d6000803e3d6000fd5b5047600581905550600360009054906101000a900473ffffffffffffffffffffffffffffffffffffffff1673ffffffffffffffffffffffffffffffffffffffff166370a08231306040518263ffffffff1660e01b81526004016120ab9190614763565b602060405180830381865afa1580156120c8573d6000803e3d6000fd5b505050506040513d601f19601f820116820180604052508101906120ec9190614df5565b600481905550600360009054906101000a900473ffffffffffffffffffffffffffffffffffffffff1673ffffffffffffffffffffffffffffffffffffffff166370a08231306040518263ffffffff1660e01b815260040161214d9190614763565b602060405180830381865afa15801561216a573d6000803e3d6000fd5b505050506040513d601f19601f8201168201806040525081019061218e9190614df5565b476121999190614aed565b600d819055506122796040518060400160405280600e81526020017f557365722062616c616e63653a20000000000000000000000000000000000000815250600360009054906101000a900473ffffffffffffffffffffffffffffffffffffffff1673ffffffffffffffffffffffffffffffffffffffff166370a08231336040518263ffffffff1660e01b81526004016122339190614763565b602060405180830381865afa158015612250573d6000803e3d6000fd5b505050506040513d601f19601f820116820180604052508101906122749190614df5565b6140dd565b6122ba6040518060400160405280600f81526020017f546f6b656e2072657365727665733a00000000000000000000000000000000008152506004546140dd565b6122fb6040518060400160405280600881526020017f4b2076616c75653a000000000000000000000000000000000000000000000000815250600d546140dd565b61233c6040518060400160405280600d81526020017f4554482072657365727665733a000000000000000000000000000000000000008152506005546140dd565b61237d6040518060400160405280600e81526020017f546f74616c207368617265733a20000000000000000000000000000000000000815250600a546140dd565b6123c06040518060400160405280600d81526020017f55736572277320736861726573000000000000000000000000000000000000008152508b600001546140dd565b6123c8613c57565b5050505050505050505050505050565b60008060009054906101000a900473ffffffffffffffffffffffffffffffffffffffff16905090565b612409613c57565b506000600860003373ffffffffffffffffffffffffffffffffffffffff1673ffffffffffffffffffffffffffffffffffffffff168152602001908152602001600020905061248e6040518060400160405280600f81526020017f546f6b656e2072657365727665733a00000000000000000000000000000000008152506004546140dd565b6124cf6040518060400160405280600881526020017f4b2076616c75653a000000000000000000000000000000000000000000000000815250600d546140dd565b6125106040518060400160405280600d81526020017f4554482072657365727665733a000000000000000000000000000000000000008152506005546140dd565b6125536040518060400160405280600d81526020017f557365722773207368617265730000000000000000000000000000000000000081525082600001546140dd565b6125946040518060400160405280600e81526020017f546f74616c207368617265733a20000000000000000000000000000000000000815250600a546140dd565b6125d36040518060400160405280601a81526020017f416464206c6971756964697479206f6620616d6f756e74203a20000000000000815250346140dd565b60006125dd613f7d565b905061261e6040518060400160405280600e81526020017f657468546f6b656e526174653a20000000000000000000000000000000000000815250826140dd565b61265d6040518060400160405280600981526020017f6d6178526174653a200000000000000000000000000000000000000000000000815250856140dd565b6126a96040518060400160405280601e81526020017f72617465202d2065786368616e6765507265636973696f6e446966663a200000815250600f54836126a49190614a27565b6140dd565b6126e86040518060400160405280600981526020017f6d696e526174653a200000000000000000000000000000000000000000000000815250846140dd565b6127346040518060400160405280601e81526020017f72617465202b2065786368616e6765507265636973696f6e446966663a200000815250600f548361272f9190614b8f565b6140dd565b83600f54826127439190614a27565b1115612784576040517f08c379a000000000000000000000000000000000000000000000000000000000815260040161277b90614acd565b60405180910390fd5b82600f54826127939190614b8f565b10156127d4576040517f08c379a00000000000000000000000000000000000000000000000000000000081526004016127cb90614e94565b60405180910390fd5b60003411612817576040517f08c379a000000000000000000000000000000000000000000000000000000000815260040161280e90615407565b60405180910390fd5b60006005546004543461282a9190614aed565b6128349190614b5e565b90506128756040518060400160405280601981526020017f7468697320657175616c7320746f6b656e73416d6f756e743a00000000000000815250826140dd565b80600360009054906101000a900473ffffffffffffffffffffffffffffffffffffffff1673ffffffffffffffffffffffffffffffffffffffff166370a08231336040518263ffffffff1660e01b81526004016128d19190614763565b602060405180830381865afa1580156128ee573d6000803e3d6000fd5b505050506040513d601f19601f820116820180604052508101906129129190614df5565b1015612953576040517f08c379a000000000000000000000000000000000000000000000000000000000815260040161294a906154bf565b60405180910390fd5b612a2d6040518060400160405280600f81526020017f4265666f726520706179696e673a200000000000000000000000000000000000815250600360009054906101000a900473ffffffffffffffffffffffffffffffffffffffff1673ffffffffffffffffffffffffffffffffffffffff166370a08231336040518263ffffffff1660e01b81526004016129e79190614763565b602060405180830381865afa158015612a04573d6000803e3d6000fd5b505050506040513d601f19601f82011682018060405250810190612a289190614df5565b6140dd565b600360009054906101000a900473ffffffffffffffffffffffffffffffffffffffff1673ffffffffffffffffffffffffffffffffffffffff166323b872dd3330846040518463ffffffff1660e01b8152600401612a8c939291906151f4565b6020604051808303816000875af1158015612aab573d6000803e3d6000fd5b505050506040513d601f19601f82011682018060405250810190612acf9190614db3565b50612baa6040518060400160405280601881526020017f436f6e7472616374206166746572207061796d656e743a200000000000000000815250600360009054906101000a900473ffffffffffffffffffffffffffffffffffffffff1673ffffffffffffffffffffffffffffffffffffffff166370a08231306040518263ffffffff1660e01b8152600401612b649190614763565b602060405180830381865afa158015612b81573d6000803e3d6000fd5b505050506040513d601f19601f82011682018060405250810190612ba59190614df5565b6140dd565b6000612bb534613c2e565b905080600a6000828254612bc99190614b8f565b9250508190555080846000016000828254612be49190614b8f565b92505081905550612c2a6040518060400160405280600f81526020017f53686172657320746f206164643a200000000000000000000000000000000000815250826140dd565b47600581905550600360009054906101000a900473ffffffffffffffffffffffffffffffffffffffff1673ffffffffffffffffffffffffffffffffffffffff166370a08231306040518263ffffffff1660e01b8152600401612c8c9190614763565b602060405180830381865afa158015612ca9573d6000803e3d6000fd5b505050506040513d601f19601f82011682018060405250810190612ccd9190614df5565b600481905550600360009054906101000a900473ffffffffffffffffffffffffffffffffffffffff1673ffffffffffffffffffffffffffffffffffffffff166370a08231306040518263ffffffff1660e01b8152600401612d2e9190614763565b602060405180830381865afa158015612d4b573d6000803e3d6000fd5b505050506040513d601f19601f82011682018060405250810190612d6f9190614df5565b47612d7a9190614aed565b600d819055506000805b600980549050811015612e1e573373ffffffffffffffffffffffffffffffffffffffff1660098281548110612dbc57612dbb614ce7565b5b9060005260206000200160009054906101000a900473ffffffffffffffffffffffffffffffffffffffff1673ffffffffffffffffffffffffffffffffffffffff1603612e0b5760019150612e1e565b8080612e1690614d16565b915050612d84565b5080612ec7576009339080600181540180825580915050600190039060005260206000200160009091909190916101000a81548173ffffffffffffffffffffffffffffffffffffffff021916908373ffffffffffffffffffffffffffffffffffffffff160217905550612ec66040518060400160405280601781526020017f6164646564206e6577206c705f70726f76696465723a200000000000000000008152503361449a565b5b612edf60405180602001604052806000815250614536565b612fb96040518060400160405280600e81526020017f416674657220706179696e673a20000000000000000000000000000000000000815250600360009054906101000a900473ffffffffffffffffffffffffffffffffffffffff1673ffffffffffffffffffffffffffffffffffffffff166370a08231336040518263ffffffff1660e01b8152600401612f739190614763565b602060405180830381865afa158015612f90573d6000803e3d6000fd5b505050506040513d601f19601f82011682018060405250810190612fb49190614df5565b6140dd565b6130936040518060400160405280601881526020017f436f6e7472616374206166746572207061796d656e743a200000000000000000815250600360009054906101000a900473ffffffffffffffffffffffffffffffffffffffff1673ffffffffffffffffffffffffffffffffffffffff166370a08231306040518263ffffffff1660e01b815260040161304d9190614763565b602060405180830381865afa15801561306a573d6000803e3d6000fd5b505050506040513d601f19601f8201168201806040525081019061308e9190614df5565b6140dd565b6130d46040518060400160405280600f81526020017f546f6b656e2072657365727665733a00000000000000000000000000000000008152506004546140dd565b6131156040518060400160405280600881526020017f4b2076616c75653a000000000000000000000000000000000000000000000000815250600d546140dd565b6131566040518060400160405280600d81526020017f4554482072657365727665733a000000000000000000000000000000000000008152506005546140dd565b6131976040518060400160405280600e81526020017f546f74616c207368617265733a20000000000000000000000000000000000000815250600a546140dd565b6131da6040518060400160405280600d81526020017f557365722773207368617265730000000000000000000000000000000000000081525086600001546140dd565b61321d6040518060400160405280600c81526020017f6c702065746820666565733a000000000000000000000000000000000000000081525086600101546140dd565b6132606040518060400160405280600e81526020017f6c7020746f6b656e20666565733a00000000000000000000000000000000000081525086600201546140dd565b613268613c57565b5050505050505050565b61327a613c57565b506132bc6040518060400160405280600f81526020017f546f6b656e2072657365727665733a00000000000000000000000000000000008152506004546140dd565b6132fd6040518060400160405280600881526020017f4b2076616c75653a000000000000000000000000000000000000000000000000815250600d546140dd565b61333e6040518060400160405280600d81526020017f4554482072657365727665733a000000000000000000000000000000000000008152506005546140dd565b61337f6040518060400160405280600e81526020017f546f74616c207368617265733a20000000000000000000000000000000000000815250600a546140dd565b6133be6040518060400160405280601e81526020017f73776170546f6b656e73466f72455448206f6620746f6b656e416d743a200000815250836140dd565b600360009054906101000a900473ffffffffffffffffffffffffffffffffffffffff1673ffffffffffffffffffffffffffffffffffffffff166370a08231336040518263ffffffff1660e01b81526004016134199190614763565b602060405180830381865afa158015613436573d6000803e3d6000fd5b505050506040513d601f19601f8201168201806040525081019061345a9190614df5565b82111561349c576040517f08c379a000000000000000000000000000000000000000000000000000000000815260040161349390615551565b60405180910390fd5b600082116134df576040517f08c379a00000000000000000000000000000000000000000000000000000000081526004016134d6906155e3565b60405180910390fd5b60006134e9613f7d565b905061352a6040518060400160405280600a81526020017f63757272526174653a2000000000000000000000000000000000000000000000815250826140dd565b6135696040518060400160405280600981526020017f6d6178526174653a200000000000000000000000000000000000000000000000815250836140dd565b81600f54826135789190614b8f565b10156135b9576040517f08c379a00000000000000000000000000000000000000000000000000000000081526004016135b090614acd565b60405180910390fd5b6000600c5484600b546135cc9190614aed565b6135d69190614b5e565b905080600660008282546135ea9190614b8f565b92505081905550600081856135ff9190614a27565b60045461360c9190614b8f565b600d546136199190614b5e565b6005546136269190614a27565b90506136676040518060400160405280600581526020017f4665653a20000000000000000000000000000000000000000000000000000000815250836140dd565b60055481106136ab576040517f08c379a00000000000000000000000000000000000000000000000000000000081526004016136a290615675565b60405180910390fd5b6136ea6040518060400160405280600f81526020017f416d6f756e7420746f204574683a200000000000000000000000000000000000815250826140dd565b60005b60098054905081101561382a576000600982815481106137105761370f614ce7565b5b9060005260206000200160009054906101000a900473ffffffffffffffffffffffffffffffffffffffff1690506000600860008373ffffffffffffffffffffffffffffffffffffffff1673ffffffffffffffffffffffffffffffffffffffff1681526020019081526020016000209050848160020160008282546137949190614b8f565b925050819055506138156040518060400160405280601781526020017f4163637275656420746f6b656e206665657320666f7220000000000000000000815250836040518060400160405280600281526020017f3a200000000000000000000000000000000000000000000000000000000000008152508460020154614179565b5050808061382290614d16565b9150506136ed565b506139056040518060400160405280601381526020017f42616c616e6365206f662073656e6465723a2000000000000000000000000000815250600360009054906101000a900473ffffffffffffffffffffffffffffffffffffffff1673ffffffffffffffffffffffffffffffffffffffff166370a08231336040518263ffffffff1660e01b81526004016138bf9190614763565b602060405180830381865afa1580156138dc573d6000803e3d6000fd5b505050506040513d601f19601f820116820180604052508101906139009190614df5565b6140dd565b600360009054906101000a900473ffffffffffffffffffffffffffffffffffffffff1673ffffffffffffffffffffffffffffffffffffffff166323b872dd3330886040518463ffffffff1660e01b8152600401613964939291906151f4565b6020604051808303816000875af1158015613983573d6000803e3d6000fd5b505050506040513d601f19601f820116820180604052508101906139a79190614db3565b503373ffffffffffffffffffffffffffffffffffffffff166108fc829081150290604051600060405180830381858888f193505050501580156139ee573d6000803e3d6000fd5b50600360009054906101000a900473ffffffffffffffffffffffffffffffffffffffff1673ffffffffffffffffffffffffffffffffffffffff166370a08231306040518263ffffffff1660e01b8152600401613a4a9190614763565b602060405180830381865afa158015613a67573d6000803e3d6000fd5b505050506040513d601f19601f82011682018060405250810190613a8b9190614df5565b60048190555047600581905550613ad96040518060400160405280601481526020017f746f6b656e206665652072657365727665733a200000000000000000000000008152506006546140dd565b613b1a6040518060400160405280601281526020017f657468206665652072657365727665733a2000000000000000000000000000008152506007546140dd565b613b5b6040518060400160405280600f81526020017f546f6b656e2072657365727665733a00000000000000000000000000000000008152506004546140dd565b613b9c6040518060400160405280600881526020017f4b2076616c75653a000000000000000000000000000000000000000000000000815250600d546140dd565b613bdd6040518060400160405280600d81526020017f4554482072657365727665733a000000000000000000000000000000000000008152506005546140dd565b613c1e6040518060400160405280600e81526020017f546f74616c207368617265733a20000000000000000000000000000000000000815250600a546140dd565b613c26613c57565b505050505050565b600080600554600a5484613c429190614aed565b613c4c9190614b5e565b905080915050919050565b6000613c7160405180602001604052806000815250614536565b613caf6040518060400160405280600381526020017f4c50530000000000000000000000000000000000000000000000000000000000815250614536565b613cc760405180602001604052806000815250614536565b613d086040518060400160405280601081526020017f746f74616c2065746820666565733a20000000000000000000000000000000008152506007546140dd565b613d496040518060400160405280601281526020017f746f74616c20746f6b656e20666565733a2000000000000000000000000000008152506006546140dd565b60005b600980549050811015613f4c57613d7160405180602001604052806000815250614536565b60006008600060098481548110613d8b57613d8a614ce7565b5b9060005260206000200160009054906101000a900473ffffffffffffffffffffffffffffffffffffffff1673ffffffffffffffffffffffffffffffffffffffff1673ffffffffffffffffffffffffffffffffffffffff1681526020019081526020016000209050613e6f6040518060400160405280600d81526020017f6c705f70726f76696465723a200000000000000000000000000000000000000081525060098481548110613e3f57613e3e614ce7565b5b9060005260206000200160009054906101000a900473ffffffffffffffffffffffffffffffffffffffff1661449a565b613eb26040518060400160405280600881526020017f7368617265733a2000000000000000000000000000000000000000000000000081525082600001546140dd565b613ef56040518060400160405280600a81526020017f6574685f666565733a200000000000000000000000000000000000000000000081525082600101546140dd565b613f386040518060400160405280600c81526020017f746f6b656e5f666565733a20000000000000000000000000000000000000000081525082600201546140dd565b508080613f4490614d16565b915050613d4c565b50613f6560405180602001604052806000815250614536565b6001905090565b600080600b54600c54915091509091565b600080600454600e54600554613f939190614aed565b613f9d9190614b5e565b90508091505090565b613fae614358565b600073ffffffffffffffffffffffffffffffffffffffff168173ffffffffffffffffffffffffffffffffffffffff160361401d576040517f08c379a000000000000000000000000000000000000000000000000000000000815260040161401490615707565b60405180910390fd5b614026816143d6565b50565b6001805461403690615756565b80601f016020809104026020016040519081016040528092919081815260200182805461406290615756565b80156140af5780601f10614084576101008083540402835291602001916140af565b820191906000526020600020905b81548152906001019060200180831161409257829003601f168201915b505050505081565b600360009054906101000a900473ffffffffffffffffffffffffffffffffffffffff1681565b61417582826040516024016140f3929190615787565b6040516020818303038152906040527fb60e72cc000000000000000000000000000000000000000000000000000000007bffffffffffffffffffffffffffffffffffffffffffffffffffffffff19166020820180517bffffffffffffffffffffffffffffffffffffffffffffffffffffffff83818316178352505050506145cf565b5050565b6142158484848460405160240161419394939291906157b7565b6040516020818303038152906040527f91d1112e000000000000000000000000000000000000000000000000000000007bffffffffffffffffffffffffffffffffffffffffffffffffffffffff19166020820180517bffffffffffffffffffffffffffffffffffffffffffffffffffffffff83818316178352505050506145cf565b50505050565b6009805490508110614262576040517f08c379a00000000000000000000000000000000000000000000000000000000081526004016142599061587c565b60405180910390fd5b600960016009805490506142769190614a27565b8154811061428757614286614ce7565b5b9060005260206000200160009054906101000a900473ffffffffffffffffffffffffffffffffffffffff16600982815481106142c6576142c5614ce7565b5b9060005260206000200160006101000a81548173ffffffffffffffffffffffffffffffffffffffff021916908373ffffffffffffffffffffffffffffffffffffffff16021790555060098054806143205761431f61589c565b5b6001900381819060005260206000200160006101000a81549073ffffffffffffffffffffffffffffffffffffffff0219169055905550565b6143606145e9565b73ffffffffffffffffffffffffffffffffffffffff1661437e6123d8565b73ffffffffffffffffffffffffffffffffffffffff16146143d4576040517f08c379a00000000000000000000000000000000000000000000000000000000081526004016143cb90615917565b60405180910390fd5b565b60008060009054906101000a900473ffffffffffffffffffffffffffffffffffffffff169050816000806101000a81548173ffffffffffffffffffffffffffffffffffffffff021916908373ffffffffffffffffffffffffffffffffffffffff1602179055508173ffffffffffffffffffffffffffffffffffffffff168173ffffffffffffffffffffffffffffffffffffffff167f8be0079c531659141344cd1fd0a4f28419497f9722a3daafe3b4186f6b6457e060405160405180910390a35050565b61453282826040516024016144b0929190615937565b6040516020818303038152906040527f319af333000000000000000000000000000000000000000000000000000000007bffffffffffffffffffffffffffffffffffffffffffffffffffffffff19166020820180517bffffffffffffffffffffffffffffffffffffffffffffffffffffffff83818316178352505050506145cf565b5050565b6145cc8160405160240161454a91906148f0565b6040516020818303038152906040527f41304fac000000000000000000000000000000000000000000000000000000007bffffffffffffffffffffffffffffffffffffffffffffffffffffffff19166020820180517bffffffffffffffffffffffffffffffffffffffffffffffffffffffff83818316178352505050506145cf565b50565b6145e6816145de6145f1614612565b63ffffffff16565b50565b600033905090565b60006a636f6e736f6c652e6c6f679050600080835160208501845afa505050565b61461d819050919050565b614625615967565b565b600080fd5b6000819050919050565b61463f8161462c565b811461464a57600080fd5b50565b60008135905061465c81614636565b92915050565b60006020828403121561467857614677614627565b5b60006146868482850161464d565b91505092915050565b600080604083850312156146a6576146a5614627565b5b60006146b48582860161464d565b92505060206146c58582860161464d565b9150509250929050565b6000806000606084860312156146e8576146e7614627565b5b60006146f68682870161464d565b93505060206147078682870161464d565b92505060406147188682870161464d565b9150509250925092565b600073ffffffffffffffffffffffffffffffffffffffff82169050919050565b600061474d82614722565b9050919050565b61475d81614742565b82525050565b60006020820190506147786000830184614754565b92915050565b6147878161462c565b82525050565b60006020820190506147a2600083018461477e565b92915050565b60008115159050919050565b6147bd816147a8565b82525050565b60006020820190506147d860008301846147b4565b92915050565b60006040820190506147f3600083018561477e565b614800602083018461477e565b9392505050565b61481081614742565b811461481b57600080fd5b50565b60008135905061482d81614807565b92915050565b60006020828403121561484957614848614627565b5b60006148578482850161481e565b91505092915050565b600081519050919050565b600082825260208201905092915050565b60005b8381101561489a57808201518184015260208101905061487f565b60008484015250505050565b6000601f19601f8301169050919050565b60006148c282614860565b6148cc818561486b565b93506148dc81856020860161487c565b6148e5816148a6565b840191505092915050565b6000602082019050818103600083015261490a81846148b7565b905092915050565b6000819050919050565b600061493761493261492d84614722565b614912565b614722565b9050919050565b60006149498261491c565b9050919050565b600061495b8261493e565b9050919050565b61496b81614950565b82525050565b60006020820190506149866000830184614962565b92915050565b7f43616e6e6f7420737761702061206e6567617469766520616d6f756e74000000600082015250565b60006149c2601d8361486b565b91506149cd8261498c565b602082019050919050565b600060208201905081810360008301526149f1816149b5565b9050919050565b7f4e487b7100000000000000000000000000000000000000000000000000000000600052601160045260246000fd5b6000614a328261462c565b9150614a3d8361462c565b9250828203905081811115614a5557614a546149f8565b5b92915050565b7f43757272656e74207261746520686173206d6f7665642061626f7665206d617860008201527f45786368616e6765526174650000000000000000000000000000000000000000602082015250565b6000614ab7602c8361486b565b9150614ac282614a5b565b604082019050919050565b60006020820190508181036000830152614ae681614aaa565b9050919050565b6000614af88261462c565b9150614b038361462c565b9250828202614b118161462c565b91508282048414831517614b2857614b276149f8565b5b5092915050565b7f4e487b7100000000000000000000000000000000000000000000000000000000600052601260045260246000fd5b6000614b698261462c565b9150614b748361462c565b925082614b8457614b83614b2f565b5b828204905092915050565b6000614b9a8261462c565b9150614ba58361462c565b9250828201905080821115614bbd57614bbc6149f8565b5b92915050565b7f43616e6e6f742067697665206261636b2061206e6567617469766520746f6b6560008201527f6e206e756d626572000000000000000000000000000000000000000000000000602082015250565b6000614c1f60288361486b565b9150614c2a82614bc3565b604082019050919050565b60006020820190508181036000830152614c4e81614c12565b9050919050565b7f4e6f7420656e6f75676820746f6b656e7320696e207265736572766520746f2060008201527f6d616b6520737761700000000000000000000000000000000000000000000000602082015250565b6000614cb160298361486b565b9150614cbc82614c55565b604082019050919050565b60006020820190508181036000830152614ce081614ca4565b9050919050565b7f4e487b7100000000000000000000000000000000000000000000000000000000600052603260045260246000fd5b6000614d218261462c565b91507fffffffffffffffffffffffffffffffffffffffffffffffffffffffffffffffff8203614d5357614d526149f8565b5b600182019050919050565b6000604082019050614d736000830185614754565b614d80602083018461477e565b9392505050565b614d90816147a8565b8114614d9b57600080fd5b50565b600081519050614dad81614d87565b92915050565b600060208284031215614dc957614dc8614627565b5b6000614dd784828501614d9e565b91505092915050565b600081519050614def81614636565b92915050565b600060208284031215614e0b57614e0a614627565b5b6000614e1984828501614de0565b91505092915050565b7f43757272656e74207261746520686173206d6f7665642062656c6f77206d696e60008201527f45786368616e6765526174650000000000000000000000000000000000000000602082015250565b6000614e7e602c8361486b565b9150614e8982614e22565b604082019050919050565b60006020820190508181036000830152614ead81614e71565b9050919050565b7f43616e6e6f74206465706c6574652065746820726573657276657320746f2030600082015250565b6000614eea60208361486b565b9150614ef582614eb4565b602082019050919050565b60006020820190508181036000830152614f1981614edd565b9050919050565b7f43616e6e6f74206465706c65746520746f6b656e20726573657276657320746f60008201527f2030000000000000000000000000000000000000000000000000000000000000602082015250565b6000614f7c60228361486b565b9150614f8782614f20565b604082019050919050565b60006020820190508181036000830152614fab81614f6f565b9050919050565b7f546f6b656e20726573657276657320776173206e6f7420300000000000000000600082015250565b6000614fe860188361486b565b9150614ff382614fb2565b602082019050919050565b6000602082019050818103600083015261501781614fdb565b9050919050565b7f45544820726573657276657320776173206e6f7420302e000000000000000000600082015250565b600061505460178361486b565b915061505f8261501e565b602082019050919050565b6000602082019050818103600083015261508381615047565b9050919050565b7f4e6565642065746820746f2063726561746520706f6f6c2e0000000000000000600082015250565b60006150c060188361486b565b91506150cb8261508a565b602082019050919050565b600060208201905081810360008301526150ef816150b3565b9050919050565b7f4e6f74206861766520656e6f75676820746f6b656e7320746f2063726561746560008201527f2074686520706f6f6c0000000000000000000000000000000000000000000000602082015250565b600061515260298361486b565b915061515d826150f6565b604082019050919050565b6000602082019050818103600083015261518181615145565b9050919050565b7f4e65656420746f6b656e7320746f2063726561746520706f6f6c2e0000000000600082015250565b60006151be601b8361486b565b91506151c982615188565b602082019050919050565b600060208201905081810360008301526151ed816151b1565b9050919050565b60006060820190506152096000830186614754565b6152166020830185614754565b615223604083018461477e565b949350505050565b7f4d7573742072656d6f766520706f73697469766520616d6f756e74206f66206c60008201527f6971756964697479000000000000000000000000000000000000000000000000602082015250565b600061528760288361486b565b91506152928261522b565b604082019050919050565b600060208201905081810360008301526152b68161527a565b9050919050565b7f43616e6e6f74206465706c6574652045544820726573657276657320746f2030600082015250565b60006152f360208361486b565b91506152fe826152bd565b602082019050919050565b60006020820190508181036000830152615322816152e6565b9050919050565b7f4c502068617320696e73756666696369656e74206c6971756964697479000000600082015250565b600061535f601d8361486b565b915061536a82615329565b602082019050919050565b6000602082019050818103600083015261538e81615352565b9050919050565b7f4d7573742061646420706f73697469766520616d6f756e74206f66206c69717560008201527f6964697479000000000000000000000000000000000000000000000000000000602082015250565b60006153f160258361486b565b91506153fc82615395565b604082019050919050565b60006020820190508181036000830152615420816153e4565b9050919050565b7f53656e64657220646f6573206e6f74206861766520656e6f75676820746f6b6560008201527f6e7320746f20616464207468617420616d6f756e74206f66206c69717569646960208201527f7479000000000000000000000000000000000000000000000000000000000000604082015250565b60006154a960428361486b565b91506154b482615427565b606082019050919050565b600060208201905081810360008301526154d88161549c565b9050919050565b7f4e6f7420656e6f75676820746f6b656e7320746f206d616b652074686973207360008201527f7761700000000000000000000000000000000000000000000000000000000000602082015250565b600061553b60238361486b565b9150615546826154df565b604082019050919050565b6000602082019050818103600083015261556a8161552e565b9050919050565b7f4d7573742073776170206120706f73697469766520616d6f756e74206f66207460008201527f6f6b656e73000000000000000000000000000000000000000000000000000000602082015250565b60006155cd60258361486b565b91506155d882615571565b604082019050919050565b600060208201905081810360008301526155fc816155c0565b9050919050565b7f496e73756666696369656e74207265736572766573206f662045544820666f7260008201527f20746865207472616e73616374696f6e00000000000000000000000000000000602082015250565b600061565f60308361486b565b915061566a82615603565b604082019050919050565b6000602082019050818103600083015261568e81615652565b9050919050565b7f4f776e61626c653a206e6577206f776e657220697320746865207a65726f206160008201527f6464726573730000000000000000000000000000000000000000000000000000602082015250565b60006156f160268361486b565b91506156fc82615695565b604082019050919050565b60006020820190508181036000830152615720816156e4565b9050919050565b7f4e487b7100000000000000000000000000000000000000000000000000000000600052602260045260246000fd5b6000600282049050600182168061576e57607f821691505b60208210810361578157615780615727565b5b50919050565b600060408201905081810360008301526157a181856148b7565b90506157b0602083018461477e565b9392505050565b600060808201905081810360008301526157d181876148b7565b90506157e06020830186614754565b81810360408301526157f281856148b7565b9050615801606083018461477e565b95945050505050565b7f73706563696669656420696e646578206973206c6172676572207468616e207460008201527f6865206e756d626572206f66206c707300000000000000000000000000000000602082015250565b600061586660308361486b565b91506158718261580a565b604082019050919050565b6000602082019050818103600083015261589581615859565b9050919050565b7f4e487b7100000000000000000000000000000000000000000000000000000000600052603160045260246000fd5b7f4f776e61626c653a2063616c6c6572206973206e6f7420746865206f776e6572600082015250565b600061590160208361486b565b915061590c826158cb565b602082019050919050565b60006020820190508181036000830152615930816158f4565b9050919050565b6000604082019050818103600083015261595181856148b7565b90506159606020830184614754565b9392505050565b7f4e487b7100000000000000000000000000000000000000000000000000000000600052605160045260246000fdfea2646970667358221220b6c7d377e136426d534b42e8fa1aa4feb4c64c149a05f0eda680b7d602dc81db64736f6c63430008110033",
  "linkReferences": {},
  "deployedLinkReferences": {}
}