{"contracts/exchange.sol":{"TokenExchange":{"abi":[{"inputs":[],"stateMutability":"nonpayable","type":"constructor"},{"anonymous":false,"inputs":[{"indexed":true,"internalType":"address","name":"previousOwner","type":"address"},{"indexed":true,"internalType":"address","name":"newOwner","type":"address"}],"name":"OwnershipTransferred","type":"event"},{"inputs":[{"internalType":"uint256","name":"maxExchangeRate","type":"uint256"},{"internalType":"uint256","name":"minExchangeRate","type":"uint256"}],"name":"addLiquidity","outputs":[],"stateMutability":"payable","type":"function"},{"inputs":[{"internalType":"uint256","name":"amountTokens","type":"uint256"}],"name":"createPool","outputs":[],"stateMutability":"payable","type":"function"},{"inputs":[],"name":"ethToTokenRate","outputs":[{"internalType":"uint256","name":"","type":"uint256"}],"stateMutability":"view","type":"function"},{"inputs":[],"name":"exchange_name","outputs":[{"internalType":"string","name":"","type":"string"}],"stateMutability":"view","type":"function"},{"inputs":[{"internalType":"uint256","name":"ethAmt","type":"uint256"}],"name":"findAmtShares","outputs":[{"internalType":"uint256","name":"","type":"uint256"}],"stateMutability":"view","type":"function"},{"inputs":[],"name":"getSwapFee","outputs":[{"internalType":"uint256","name":"","type":"uint256"},{"internalType":"uint256","name":"","type":"uint256"}],"stateMutability":"view","type":"function"},{"inputs":[],"name":"owner","outputs":[{"internalType":"address","name":"","type":"address"}],"stateMutability":"view","type":"function"},{"inputs":[],"name":"print_lps","outputs":[{"internalType":"bool","name":"","type":"bool"}],"stateMutability":"view","type":"function"},{"inputs":[{"internalType":"uint256","name":"maxExchangeRate","type":"uint256"},{"internalType":"uint256","name":"minExchangeRate","type":"uint256"}],"name":"removeAllLiquidity","outputs":[],"stateMutability":"payable","type":"function"},{"inputs":[{"internalType":"uint256","name":"amountETH","type":"uint256"},{"internalType":"uint256","name":"maxExchangeRate","type":"uint256"},{"internalType":"uint256","name":"minExchangeRate","type":"uint256"}],"name":"removeLiquidity","outputs":[],"stateMutability":"payable","type":"function"},{"inputs":[],"name":"renounceOwnership","outputs":[],"stateMutability":"nonpayable","type":"function"},{"inputs":[{"internalType":"uint256","name":"maxExchangeRate","type":"uint256"}],"name":"swapETHForTokens","outputs":[],"stateMutability":"payable","type":"function"},{"inputs":[{"internalType":"uint256","name":"amountTokens","type":"uint256"},{"internalType":"uint256","name":"minEthTokenExchangeRate","type":"uint256"}],"name":"swapTokensForETH","outputs":[],"stateMutability":"payable","type":"function"},{"inputs":[],"name":"token","outputs":[{"internalType":"contract Token","name":"","type":"address"}],"stateMutability":"view","type":"function"},{"inputs":[{"internalType":"address","name":"newOwner","type":"address"}],"name":"transferOwnership","outputs":[],"stateMutability":"nonpayable","type":"function"}],"evm":{"bytecode":{"linkReferences":{},"object":"6080604052604051806020016040528060008152506001908162000024919062000489565b50735fbdb2315678afecb367f032d93f642f64180aa3600260006101000a81548173ffffffffffffffffffffffffffffffffffffffff021916908373ffffffffffffffffffffffffffffffffffffffff160217905550600260009054906101000a900473ffffffffffffffffffffffffffffffffffffffff16600360006101000a81548173ffffffffffffffffffffffffffffffffffffffff021916908373ffffffffffffffffffffffffffffffffffffffff16021790555060006004556000600555600060065560006007556000600a556003600b556064600c55620186a0600e556305f5e100600f553480156200011c57600080fd5b506200013d620001316200014360201b60201c565b6200014b60201b60201c565b62000570565b600033905090565b60008060009054906101000a900473ffffffffffffffffffffffffffffffffffffffff169050816000806101000a81548173ffffffffffffffffffffffffffffffffffffffff021916908373ffffffffffffffffffffffffffffffffffffffff1602179055508173ffffffffffffffffffffffffffffffffffffffff168173ffffffffffffffffffffffffffffffffffffffff167f8be0079c531659141344cd1fd0a4f28419497f9722a3daafe3b4186f6b6457e060405160405180910390a35050565b600081519050919050565b7f4e487b7100000000000000000000000000000000000000000000000000000000600052604160045260246000fd5b7f4e487b7100000000000000000000000000000000000000000000000000000000600052602260045260246000fd5b600060028204905060018216806200029157607f821691505b602082108103620002a757620002a662000249565b5b50919050565b60008190508160005260206000209050919050565b60006020601f8301049050919050565b600082821b905092915050565b600060088302620003117fffffffffffffffffffffffffffffffffffffffffffffffffffffffffffffffff82620002d2565b6200031d8683620002d2565b95508019841693508086168417925050509392505050565b6000819050919050565b6000819050919050565b60006200036a620003646200035e8462000335565b6200033f565b62000335565b9050919050565b6000819050919050565b620003868362000349565b6200039e620003958262000371565b848454620002df565b825550505050565b600090565b620003b5620003a6565b620003c28184846200037b565b505050565b5b81811015620003ea57620003de600082620003ab565b600181019050620003c8565b5050565b601f82111562000439576200040381620002ad565b6200040e84620002c2565b810160208510156200041e578190505b620004366200042d85620002c2565b830182620003c7565b50505b505050565b600082821c905092915050565b60006200045e600019846008026200043e565b1980831691505092915050565b60006200047983836200044b565b9150826002028217905092915050565b62000494826200020f565b67ffffffffffffffff811115620004b057620004af6200021a565b5b620004bc825462000278565b620004c9828285620003ee565b600060209050601f831160018114620005015760008415620004ec578287015190505b620004f885826200046b565b86555062000568565b601f1984166200051186620002ad565b60005b828110156200053b5784890151825560018201915060208501945060208101905062000514565b868310156200055b578489015162000557601f8916826200044b565b8355505b6001600288020188555050505b505050505050565b6159cc80620005806000396000f3fe6080604052600436106100e85760003560e01c8063a22280a61161008a578063e09adc7011610059578063e09adc701461026b578063f2fde38b14610296578063f694f7d1146102bf578063fc0c546a146102ea576100e8565b8063a22280a6146101bb578063a65540fb146101d7578063b09bbcbc14610214578063d4cadf681461023f576100e8565b80638259e6a0116100c65780638259e6a01461013c578063857620e1146101585780638da5cb5b146101745780639cd441da1461019f576100e8565b80632eab2841146100ed57806358ad6de414610109578063715018a614610125575b600080fd5b61010760048036038101906101029190614662565b610315565b005b610123600480360381019061011e919061468f565b610c05565b005b34801561013157600080fd5b5061013a6116bf565b005b61015660048036038101906101519190614662565b6116d3565b005b610172600480360381019061016d91906146cf565b611a8c565b005b34801561018057600080fd5b506101896123d8565b6040516101969190614763565b60405180910390f35b6101b960048036038101906101b4919061468f565b612401565b005b6101d560048036038101906101d0919061468f565b613272565b005b3480156101e357600080fd5b506101fe60048036038101906101f99190614662565b613c2e565b60405161020b919061478d565b60405180910390f35b34801561022057600080fd5b50610229613c57565b60405161023691906147c3565b60405180910390f35b34801561024b57600080fd5b50610254613f6c565b6040516102629291906147de565b60405180910390f35b34801561027757600080fd5b50610280613f7d565b60405161028d919061478d565b60405180910390f35b3480156102a257600080fd5b506102bd60048036038101906102b89190614833565b613fa6565b005b3480156102cb57600080fd5b506102d4614029565b6040516102e191906148f0565b60405180910390f35b3480156102f657600080fd5b506102ff6140b7565b60405161030c9190614971565b60405180910390f35b61031d613c57565b5061035d6040518060400160405280601081526020017f53776170455448466f72546f6b656e7300000000000000000000000000000000815250346140dd565b61039e6040518060400160405280600f81526020017f546f6b656e2072657365727665733a00000000000000000000000000000000008152506004546140dd565b6103df6040518060400160405280600881526020017f4b2076616c75653a000000000000000000000000000000000000000000000000815250600d546140dd565b6104206040518060400160405280600d81526020017f4554482072657365727665733a000000000000000000000000000000000000008152506005546140dd565b61045f6040518060400160405280601181526020017f6d617845786368616e6765526174653a20000000000000000000000000000000815250826140dd565b600034116104a2576040517f08c379a0000000000000000000000000000000000000000000000000000000008152600401610499906149d8565b60405180910390fd5b60006104ac613f7d565b90506104ed6040518060400160405280600d81526020017f63757272656e74526174653a2000000000000000000000000000000000000000815250826140dd565b61052c6040518060400160405280600881526020017f6d61782072617465000000000000000000000000000000000000000000000000815250836140dd565b81600f548261053b9190614a27565b111561057c576040517f08c379a000000000000000000000000000000000000000000000000000000000815260040161057390614acd565b60405180910390fd5b60003490506000600c5482600b546105949190614aed565b61059e9190614b5e565b905080600760008282546105b29190614b8f565b925050819055506105f86040518060400160405280600581526020017f4665653a20000000000000000000000000000000000000000000000000000000815250826140dd565b600081836106069190614a27565b6005546106139190614b8f565b600d546106209190614b5e565b60045461062d9190614a27565b905061066e6040518060400160405280601081526020017f546f6b656e73416d6f756e7420203d2000000000000000000000000000000000815250826140dd565b600081116106b1576040517f08c379a00000000000000000000000000000000000000000000000000000000081526004016106a890614c35565b60405180910390fd5b60045481106106f5576040517f08c379a00000000000000000000000000000000000000000000000000000000081526004016106ec90614cc7565b60405180910390fd5b60005b6009805490508110156108355760006009828154811061071b5761071a614ce7565b5b9060005260206000200160009054906101000a900473ffffffffffffffffffffffffffffffffffffffff1690506000600860008373ffffffffffffffffffffffffffffffffffffffff1673ffffffffffffffffffffffffffffffffffffffff16815260200190815260200160002090508481600101600082825461079f9190614b8f565b925050819055506108206040518060400160405280601781526020017f4163637275656420746f6b656e206665657320666f7220000000000000000000815250836040518060400160405280600281526020017f3a200000000000000000000000000000000000000000000000000000000000008152508460010154614179565b5050808061082d90614d16565b9150506106f8565b50600360009054906101000a900473ffffffffffffffffffffffffffffffffffffffff1673ffffffffffffffffffffffffffffffffffffffff1663a9059cbb33836040518363ffffffff1660e01b8152600401610893929190614d5e565b6020604051808303816000875af11580156108b2573d6000803e3d6000fd5b505050506040513d601f19601f820116820180604052508101906108d69190614db3565b5061092d6040518060400160405280601581526020017f53776170706572206574682062616c616e63653a2000000000000000000000008152503373ffffffffffffffffffffffffffffffffffffffff16316140dd565b610a076040518060400160405280601681526020017f5377617070657220746f6b656e2062616c616e63653a00000000000000000000815250600360009054906101000a900473ffffffffffffffffffffffffffffffffffffffff1673ffffffffffffffffffffffffffffffffffffffff166370a08231336040518263ffffffff1660e01b81526004016109c19190614763565b602060405180830381865afa1580156109de573d6000803e3d6000fd5b505050506040513d601f19601f82011682018060405250810190610a029190614df5565b6140dd565b600360009054906101000a900473ffffffffffffffffffffffffffffffffffffffff1673ffffffffffffffffffffffffffffffffffffffff166370a08231306040518263ffffffff1660e01b8152600401610a629190614763565b602060405180830381865afa158015610a7f573d6000803e3d6000fd5b505050506040513d601f19601f82011682018060405250810190610aa39190614df5565b60048190555047600581905550610af16040518060400160405280601481526020017f746f6b656e206665652072657365727665733a200000000000000000000000008152506006546140dd565b610b326040518060400160405280601281526020017f657468206665652072657365727665733a2000000000000000000000000000008152506007546140dd565b610b736040518060400160405280600f81526020017f546f6b656e2072657365727665733a00000000000000000000000000000000008152506004546140dd565b610bb46040518060400160405280600881526020017f4b2076616c75653a000000000000000000000000000000000000000000000000815250600d546140dd565b610bf56040518060400160405280600d81526020017f4554482072657365727665733a000000000000000000000000000000000000008152506005546140dd565b610bfd613c57565b505050505050565b610c0d613c57565b506000600860003373ffffffffffffffffffffffffffffffffffffffff1673ffffffffffffffffffffffffffffffffffffffff16815260200190815260200160002090506000610c5b613f7d565b9050610c9c6040518060400160405280600e81526020017f657468546f6b656e526174653a20000000000000000000000000000000000000815250826140dd565b610cdb6040518060400160405280600981526020017f6d6178526174653a200000000000000000000000000000000000000000000000815250856140dd565b610d1a6040518060400160405280600981526020017f6d696e526174653a200000000000000000000000000000000000000000000000815250846140dd565b83600f5482610d299190614a27565b1115610d6a576040517f08c379a0000000000000000000000000000000000000000000000000000000008152600401610d6190614acd565b60405180910390fd5b82600f5482610d799190614b8f565b1015610dba576040517f08c379a0000000000000000000000000000000000000000000000000000000008152600401610db190614e94565b60405180910390fd5b6000600a548360000154600e54610dd19190614aed565b610ddb9190614b5e565b90506000600e5460055483610df09190614aed565b610dfa9190614b5e565b90506000600e5460045484610e0f9190614aed565b610e199190614b5e565b90506005548210610e5f576040517f08c379a0000000000000000000000000000000000000000000000000000000008152600401610e5690614f00565b60405180910390fd5b6004548110610ea3576040517f08c379a0000000000000000000000000000000000000000000000000000000008152600401610e9a90614f92565b60405180910390fd5b6000610eae83613c2e565b90506000600a54876001015483610ec59190614aed565b610ecf9190614b5e565b90506000600a54886002015484610ee69190614aed565b610ef09190614b5e565b905082600a6000828254610f049190614a27565b925050819055508160076000828254610f1d9190614a27565b925050819055508060066000828254610f369190614a27565b92505081905550610f7c6040518060400160405280601281526020017f53686172657320746f2072656d6f76653a200000000000000000000000000000815250846140dd565b610fbb6040518060400160405280600c81526020017f657468526577617264733a200000000000000000000000000000000000000000815250836140dd565b610ffa6040518060400160405280600e81526020017f746f6b656e526577617264733a20000000000000000000000000000000000000815250826140dd565b600088600001819055506000805b60098054905081101561109d573373ffffffffffffffffffffffffffffffffffffffff16600982815481106110405761103f614ce7565b5b9060005260206000200160009054906101000a900473ffffffffffffffffffffffffffffffffffffffff1673ffffffffffffffffffffffffffffffffffffffff160361108a578091505b808061109590614d16565b915050611008565b506110a78161421b565b6110ea6040518060400160405280600b81526020017f6c705f7368617265733a200000000000000000000000000000000000000000008152508a600001546140dd565b61112d6040518060400160405280600a81526020017f6574685f666565733a20000000000000000000000000000000000000000000008152508a600101546140dd565b6111706040518060400160405280600c81526020017f746f6b656e5f666565733a2000000000000000000000000000000000000000008152508a600201546140dd565b61124a6040518060400160405280600e81526020017f557365722062616c616e63653a20000000000000000000000000000000000000815250600360009054906101000a900473ffffffffffffffffffffffffffffffffffffffff1673ffffffffffffffffffffffffffffffffffffffff166370a08231336040518263ffffffff1660e01b81526004016112049190614763565b602060405180830381865afa158015611221573d6000803e3d6000fd5b505050506040513d601f19601f820116820180604052508101906112459190614df5565b6140dd565b600360009054906101000a900473ffffffffffffffffffffffffffffffffffffffff1673ffffffffffffffffffffffffffffffffffffffff1663a9059cbb33876040518363ffffffff1660e01b81526004016112a7929190614d5e565b6020604051808303816000875af11580156112c6573d6000803e3d6000fd5b505050506040513d601f19601f820116820180604052508101906112ea9190614db3565b503373ffffffffffffffffffffffffffffffffffffffff166108fc879081150290604051600060405180830381858888f19350505050158015611331573d6000803e3d6000fd5b5047600581905550600360009054906101000a900473ffffffffffffffffffffffffffffffffffffffff1673ffffffffffffffffffffffffffffffffffffffff166370a08231306040518263ffffffff1660e01b81526004016113949190614763565b602060405180830381865afa1580156113b1573d6000803e3d6000fd5b505050506040513d601f19601f820116820180604052508101906113d59190614df5565b600481905550600360009054906101000a900473ffffffffffffffffffffffffffffffffffffffff1673ffffffffffffffffffffffffffffffffffffffff166370a08231306040518263ffffffff1660e01b81526004016114369190614763565b602060405180830381865afa158015611453573d6000803e3d6000fd5b505050506040513d601f19601f820116820180604052508101906114779190614df5565b476114829190614aed565b600d819055506115626040518060400160405280600e81526020017f557365722062616c616e63653a20000000000000000000000000000000000000815250600360009054906101000a900473ffffffffffffffffffffffffffffffffffffffff1673ffffffffffffffffffffffffffffffffffffffff166370a08231336040518263ffffffff1660e01b815260040161151c9190614763565b602060405180830381865afa158015611539573d6000803e3d6000fd5b505050506040513d601f19601f8201168201806040525081019061155d9190614df5565b6140dd565b6115a36040518060400160405280600f81526020017f546f6b656e2072657365727665733a00000000000000000000000000000000008152506004546140dd565b6115e46040518060400160405280600881526020017f4b2076616c75653a000000000000000000000000000000000000000000000000815250600d546140dd565b6116256040518060400160405280600d81526020017f4554482072657365727665733a000000000000000000000000000000000000008152506005546140dd565b6116686040518060400160405280600d81526020017f55736572277320736861726573000000000000000000000000000000000000008152508a600001546140dd565b6116a96040518060400160405280600e81526020017f546f74616c207368617265733a20000000000000000000000000000000000000815250600a546140dd565b6116b1613c57565b505050505050505050505050565b6116c7614358565b6116d160006143d6565b565b6116db614358565b600060045414611720576040517f08c379a000000000000000000000000000000000000000000000000000000000815260040161171790614ffe565b60405180910390fd5b600060055414611765576040517f08c379a000000000000000000000000000000000000000000000000000000000815260040161175c9061506a565b60405180910390fd5b600034116117a8576040517f08c379a000000000000000000000000000000000000000000000000000000000815260040161179f906150d6565b60405180910390fd5b6000600360009054906101000a900473ffffffffffffffffffffffffffffffffffffffff1673ffffffffffffffffffffffffffffffffffffffff166370a08231336040518263ffffffff1660e01b81526004016118059190614763565b602060405180830381865afa158015611822573d6000803e3d6000fd5b505050506040513d601f19601f820116820180604052508101906118469190614df5565b90508082111561188b576040517f08c379a000000000000000000000000000000000000000000000000000000000815260040161188290615168565b60405180910390fd5b600082116118ce576040517f08c379a00000000000000000000000000000000000000000000000000000000081526004016118c5906151d4565b60405180910390fd5b600360009054906101000a900473ffffffffffffffffffffffffffffffffffffffff1673ffffffffffffffffffffffffffffffffffffffff166323b872dd3330856040518463ffffffff1660e01b815260040161192d939291906151f4565b6020604051808303816000875af115801561194c573d6000803e3d6000fd5b505050506040513d601f19601f820116820180604052508101906119709190614db3565b50600360009054906101000a900473ffffffffffffffffffffffffffffffffffffffff1673ffffffffffffffffffffffffffffffffffffffff166370a08231306040518263ffffffff1660e01b81526004016119cc9190614763565b602060405180830381865afa1580156119e9573d6000803e3d6000fd5b505050506040513d601f19601f82011682018060405250810190611a0d9190614df5565b60048190555034600581905550600554600454611a2a9190614aed565b600d81905550620186a0600a819055506000600860003373ffffffffffffffffffffffffffffffffffffffff1673ffffffffffffffffffffffffffffffffffffffff168152602001908152602001600020905060648160000181905550505050565b611a94613c57565b506000600860003373ffffffffffffffffffffffffffffffffffffffff1673ffffffffffffffffffffffffffffffffffffffff16815260200190815260200160002090506000611ae2613f7d565b9050611b236040518060400160405280600e81526020017f657468546f6b656e526174653a20000000000000000000000000000000000000815250826140dd565b611b626040518060400160405280600981526020017f6d6178526174653a200000000000000000000000000000000000000000000000815250856140dd565b611ba16040518060400160405280600981526020017f6d696e526174653a200000000000000000000000000000000000000000000000815250846140dd565b83600f5482611bb09190614a27565b1115611bf1576040517f08c379a0000000000000000000000000000000000000000000000000000000008152600401611be890614acd565b60405180910390fd5b82600f5482611c009190614b8f565b1015611c41576040517f08c379a0000000000000000000000000000000000000000000000000000000008152600401611c3890614e94565b60405180910390fd5b60008511611c84576040517f08c379a0000000000000000000000000000000000000000000000000000000008152600401611c7b9061529d565b60405180910390fd5b6005548510611cc8576040517f08c379a0000000000000000000000000000000000000000000000000000000008152600401611cbf90615309565b60405180910390fd5b6000600a54600e548460000154611cdf9190614aed565b611ce99190614b5e565b90506000600554600e5488611cfe9190614aed565b611d089190614b5e565b905080821015611d4d576040517f08c379a0000000000000000000000000000000000000000000000000000000008152600401611d4490615375565b60405180910390fd5b600060055488600454611d609190614aed565b611d6a9190614b5e565b90506004548110611db0576040517f08c379a0000000000000000000000000000000000000000000000000000000008152600401611da790614f92565b60405180910390fd5b611def6040518060400160405280601981526020017f7468697320657175616c7320746f6b656e73416d6f756e743a00000000000000815250826140dd565b6000611dfa89613c2e565b90506000600a54876001015483611e119190614aed565b611e1b9190614b5e565b90506000600a54886002015484611e329190614aed565b611e3c9190614b5e565b905082600a6000828254611e509190614a27565b925050819055508160076000828254611e699190614a27565b925050819055508060066000828254611e829190614a27565b9250508190555082886000016000828254611e9d9190614a27565b9250508190555060008060008a6000015403611eb857600191505b60005b600980549050811015611f50573373ffffffffffffffffffffffffffffffffffffffff1660098281548110611ef357611ef2614ce7565b5b9060005260206000200160009054906101000a900473ffffffffffffffffffffffffffffffffffffffff1673ffffffffffffffffffffffffffffffffffffffff1603611f3d578091505b8080611f4890614d16565b915050611ebb565b508115611f6157611f608161421b565b5b600360009054906101000a900473ffffffffffffffffffffffffffffffffffffffff1673ffffffffffffffffffffffffffffffffffffffff1663a9059cbb33886040518363ffffffff1660e01b8152600401611fbe929190614d5e565b6020604051808303816000875af1158015611fdd573d6000803e3d6000fd5b505050506040513d601f19601f820116820180604052508101906120019190614db3565b503373ffffffffffffffffffffffffffffffffffffffff166108fc8e9081150290604051600060405180830381858888f19350505050158015612048573d6000803e3d6000fd5b5047600581905550600360009054906101000a900473ffffffffffffffffffffffffffffffffffffffff1673ffffffffffffffffffffffffffffffffffffffff166370a08231306040518263ffffffff1660e01b81526004016120ab9190614763565b602060405180830381865afa1580156120c8573d6000803e3d6000fd5b505050506040513d601f19601f820116820180604052508101906120ec9190614df5565b600481905550600360009054906101000a900473ffffffffffffffffffffffffffffffffffffffff1673ffffffffffffffffffffffffffffffffffffffff166370a08231306040518263ffffffff1660e01b815260040161214d9190614763565b602060405180830381865afa15801561216a573d6000803e3d6000fd5b505050506040513d601f19601f8201168201806040525081019061218e9190614df5565b476121999190614aed565b600d819055506122796040518060400160405280600e81526020017f557365722062616c616e63653a20000000000000000000000000000000000000815250600360009054906101000a900473ffffffffffffffffffffffffffffffffffffffff1673ffffffffffffffffffffffffffffffffffffffff166370a08231336040518263ffffffff1660e01b81526004016122339190614763565b602060405180830381865afa158015612250573d6000803e3d6000fd5b505050506040513d601f19601f820116820180604052508101906122749190614df5565b6140dd565b6122ba6040518060400160405280600f81526020017f546f6b656e2072657365727665733a00000000000000000000000000000000008152506004546140dd565b6122fb6040518060400160405280600881526020017f4b2076616c75653a000000000000000000000000000000000000000000000000815250600d546140dd565b61233c6040518060400160405280600d81526020017f4554482072657365727665733a000000000000000000000000000000000000008152506005546140dd565b61237d6040518060400160405280600e81526020017f546f74616c207368617265733a20000000000000000000000000000000000000815250600a546140dd565b6123c06040518060400160405280600d81526020017f55736572277320736861726573000000000000000000000000000000000000008152508b600001546140dd565b6123c8613c57565b5050505050505050505050505050565b60008060009054906101000a900473ffffffffffffffffffffffffffffffffffffffff16905090565b612409613c57565b506000600860003373ffffffffffffffffffffffffffffffffffffffff1673ffffffffffffffffffffffffffffffffffffffff168152602001908152602001600020905061248e6040518060400160405280600f81526020017f546f6b656e2072657365727665733a00000000000000000000000000000000008152506004546140dd565b6124cf6040518060400160405280600881526020017f4b2076616c75653a000000000000000000000000000000000000000000000000815250600d546140dd565b6125106040518060400160405280600d81526020017f4554482072657365727665733a000000000000000000000000000000000000008152506005546140dd565b6125536040518060400160405280600d81526020017f557365722773207368617265730000000000000000000000000000000000000081525082600001546140dd565b6125946040518060400160405280600e81526020017f546f74616c207368617265733a20000000000000000000000000000000000000815250600a546140dd565b6125d36040518060400160405280601a81526020017f416464206c6971756964697479206f6620616d6f756e74203a20000000000000815250346140dd565b60006125dd613f7d565b905061261e6040518060400160405280600e81526020017f657468546f6b656e526174653a20000000000000000000000000000000000000815250826140dd565b61265d6040518060400160405280600981526020017f6d6178526174653a200000000000000000000000000000000000000000000000815250856140dd565b6126a96040518060400160405280601e81526020017f72617465202d2065786368616e6765507265636973696f6e446966663a200000815250600f54836126a49190614a27565b6140dd565b6126e86040518060400160405280600981526020017f6d696e526174653a200000000000000000000000000000000000000000000000815250846140dd565b6127346040518060400160405280601e81526020017f72617465202b2065786368616e6765507265636973696f6e446966663a200000815250600f548361272f9190614b8f565b6140dd565b83600f54826127439190614a27565b1115612784576040517f08c379a000000000000000000000000000000000000000000000000000000000815260040161277b90614acd565b60405180910390fd5b82600f54826127939190614b8f565b10156127d4576040517f08c379a00000000000000000000000000000000000000000000000000000000081526004016127cb90614e94565b60405180910390fd5b60003411612817576040517f08c379a000000000000000000000000000000000000000000000000000000000815260040161280e90615407565b60405180910390fd5b60006005546004543461282a9190614aed565b6128349190614b5e565b90506128756040518060400160405280601981526020017f7468697320657175616c7320746f6b656e73416d6f756e743a00000000000000815250826140dd565b80600360009054906101000a900473ffffffffffffffffffffffffffffffffffffffff1673ffffffffffffffffffffffffffffffffffffffff166370a08231336040518263ffffffff1660e01b81526004016128d19190614763565b602060405180830381865afa1580156128ee573d6000803e3d6000fd5b505050506040513d601f19601f820116820180604052508101906129129190614df5565b1015612953576040517f08c379a000000000000000000000000000000000000000000000000000000000815260040161294a906154bf565b60405180910390fd5b612a2d6040518060400160405280600f81526020017f4265666f726520706179696e673a200000000000000000000000000000000000815250600360009054906101000a900473ffffffffffffffffffffffffffffffffffffffff1673ffffffffffffffffffffffffffffffffffffffff166370a08231336040518263ffffffff1660e01b81526004016129e79190614763565b602060405180830381865afa158015612a04573d6000803e3d6000fd5b505050506040513d601f19601f82011682018060405250810190612a289190614df5565b6140dd565b600360009054906101000a900473ffffffffffffffffffffffffffffffffffffffff1673ffffffffffffffffffffffffffffffffffffffff166323b872dd3330846040518463ffffffff1660e01b8152600401612a8c939291906151f4565b6020604051808303816000875af1158015612aab573d6000803e3d6000fd5b505050506040513d601f19601f82011682018060405250810190612acf9190614db3565b50612baa6040518060400160405280601881526020017f436f6e7472616374206166746572207061796d656e743a200000000000000000815250600360009054906101000a900473ffffffffffffffffffffffffffffffffffffffff1673ffffffffffffffffffffffffffffffffffffffff166370a08231306040518263ffffffff1660e01b8152600401612b649190614763565b602060405180830381865afa158015612b81573d6000803e3d6000fd5b505050506040513d601f19601f82011682018060405250810190612ba59190614df5565b6140dd565b6000612bb534613c2e565b905080600a6000828254612bc99190614b8f565b9250508190555080846000016000828254612be49190614b8f565b92505081905550612c2a6040518060400160405280600f81526020017f53686172657320746f206164643a200000000000000000000000000000000000815250826140dd565b47600581905550600360009054906101000a900473ffffffffffffffffffffffffffffffffffffffff1673ffffffffffffffffffffffffffffffffffffffff166370a08231306040518263ffffffff1660e01b8152600401612c8c9190614763565b602060405180830381865afa158015612ca9573d6000803e3d6000fd5b505050506040513d601f19601f82011682018060405250810190612ccd9190614df5565b600481905550600360009054906101000a900473ffffffffffffffffffffffffffffffffffffffff1673ffffffffffffffffffffffffffffffffffffffff166370a08231306040518263ffffffff1660e01b8152600401612d2e9190614763565b602060405180830381865afa158015612d4b573d6000803e3d6000fd5b505050506040513d601f19601f82011682018060405250810190612d6f9190614df5565b47612d7a9190614aed565b600d819055506000805b600980549050811015612e1e573373ffffffffffffffffffffffffffffffffffffffff1660098281548110612dbc57612dbb614ce7565b5b9060005260206000200160009054906101000a900473ffffffffffffffffffffffffffffffffffffffff1673ffffffffffffffffffffffffffffffffffffffff1603612e0b5760019150612e1e565b8080612e1690614d16565b915050612d84565b5080612ec7576009339080600181540180825580915050600190039060005260206000200160009091909190916101000a81548173ffffffffffffffffffffffffffffffffffffffff021916908373ffffffffffffffffffffffffffffffffffffffff160217905550612ec66040518060400160405280601781526020017f6164646564206e6577206c705f70726f76696465723a200000000000000000008152503361449a565b5b612edf60405180602001604052806000815250614536565b612fb96040518060400160405280600e81526020017f416674657220706179696e673a20000000000000000000000000000000000000815250600360009054906101000a900473ffffffffffffffffffffffffffffffffffffffff1673ffffffffffffffffffffffffffffffffffffffff166370a08231336040518263ffffffff1660e01b8152600401612f739190614763565b602060405180830381865afa158015612f90573d6000803e3d6000fd5b505050506040513d601f19601f82011682018060405250810190612fb49190614df5565b6140dd565b6130936040518060400160405280601881526020017f436f6e7472616374206166746572207061796d656e743a200000000000000000815250600360009054906101000a900473ffffffffffffffffffffffffffffffffffffffff1673ffffffffffffffffffffffffffffffffffffffff166370a08231306040518263ffffffff1660e01b815260040161304d9190614763565b602060405180830381865afa15801561306a573d6000803e3d6000fd5b505050506040513d601f19601f8201168201806040525081019061308e9190614df5565b6140dd565b6130d46040518060400160405280600f81526020017f546f6b656e2072657365727665733a00000000000000000000000000000000008152506004546140dd565b6131156040518060400160405280600881526020017f4b2076616c75653a000000000000000000000000000000000000000000000000815250600d546140dd565b6131566040518060400160405280600d81526020017f4554482072657365727665733a000000000000000000000000000000000000008152506005546140dd565b6131976040518060400160405280600e81526020017f546f74616c207368617265733a20000000000000000000000000000000000000815250600a546140dd565b6131da6040518060400160405280600d81526020017f557365722773207368617265730000000000000000000000000000000000000081525086600001546140dd565b61321d6040518060400160405280600c81526020017f6c702065746820666565733a000000000000000000000000000000000000000081525086600101546140dd565b6132606040518060400160405280600e81526020017f6c7020746f6b656e20666565733a00000000000000000000000000000000000081525086600201546140dd565b613268613c57565b5050505050505050565b61327a613c57565b506132bc6040518060400160405280600f81526020017f546f6b656e2072657365727665733a00000000000000000000000000000000008152506004546140dd565b6132fd6040518060400160405280600881526020017f4b2076616c75653a000000000000000000000000000000000000000000000000815250600d546140dd565b61333e6040518060400160405280600d81526020017f4554482072657365727665733a000000000000000000000000000000000000008152506005546140dd565b61337f6040518060400160405280600e81526020017f546f74616c207368617265733a20000000000000000000000000000000000000815250600a546140dd565b6133be6040518060400160405280601e81526020017f73776170546f6b656e73466f72455448206f6620746f6b656e416d743a200000815250836140dd565b600360009054906101000a900473ffffffffffffffffffffffffffffffffffffffff1673ffffffffffffffffffffffffffffffffffffffff166370a08231336040518263ffffffff1660e01b81526004016134199190614763565b602060405180830381865afa158015613436573d6000803e3d6000fd5b505050506040513d601f19601f8201168201806040525081019061345a9190614df5565b82111561349c576040517f08c379a000000000000000000000000000000000000000000000000000000000815260040161349390615551565b60405180910390fd5b600082116134df576040517f08c379a00000000000000000000000000000000000000000000000000000000081526004016134d6906155e3565b60405180910390fd5b60006134e9613f7d565b905061352a6040518060400160405280600a81526020017f63757272526174653a2000000000000000000000000000000000000000000000815250826140dd565b6135696040518060400160405280600981526020017f6d6178526174653a200000000000000000000000000000000000000000000000815250836140dd565b81600f54826135789190614b8f565b10156135b9576040517f08c379a00000000000000000000000000000000000000000000000000000000081526004016135b090614acd565b60405180910390fd5b6000600c5484600b546135cc9190614aed565b6135d69190614b5e565b905080600660008282546135ea9190614b8f565b92505081905550600081856135ff9190614a27565b60045461360c9190614b8f565b600d546136199190614b5e565b6005546136269190614a27565b90506136676040518060400160405280600581526020017f4665653a20000000000000000000000000000000000000000000000000000000815250836140dd565b60055481106136ab576040517f08c379a00000000000000000000000000000000000000000000000000000000081526004016136a290615675565b60405180910390fd5b6136ea6040518060400160405280600f81526020017f416d6f756e7420746f204574683a200000000000000000000000000000000000815250826140dd565b60005b60098054905081101561382a576000600982815481106137105761370f614ce7565b5b9060005260206000200160009054906101000a900473ffffffffffffffffffffffffffffffffffffffff1690506000600860008373ffffffffffffffffffffffffffffffffffffffff1673ffffffffffffffffffffffffffffffffffffffff1681526020019081526020016000209050848160020160008282546137949190614b8f565b925050819055506138156040518060400160405280601781526020017f4163637275656420746f6b656e206665657320666f7220000000000000000000815250836040518060400160405280600281526020017f3a200000000000000000000000000000000000000000000000000000000000008152508460020154614179565b5050808061382290614d16565b9150506136ed565b506139056040518060400160405280601381526020017f42616c616e6365206f662073656e6465723a2000000000000000000000000000815250600360009054906101000a900473ffffffffffffffffffffffffffffffffffffffff1673ffffffffffffffffffffffffffffffffffffffff166370a08231336040518263ffffffff1660e01b81526004016138bf9190614763565b602060405180830381865afa1580156138dc573d6000803e3d6000fd5b505050506040513d601f19601f820116820180604052508101906139009190614df5565b6140dd565b600360009054906101000a900473ffffffffffffffffffffffffffffffffffffffff1673ffffffffffffffffffffffffffffffffffffffff166323b872dd3330886040518463ffffffff1660e01b8152600401613964939291906151f4565b6020604051808303816000875af1158015613983573d6000803e3d6000fd5b505050506040513d601f19601f820116820180604052508101906139a79190614db3565b503373ffffffffffffffffffffffffffffffffffffffff166108fc829081150290604051600060405180830381858888f193505050501580156139ee573d6000803e3d6000fd5b50600360009054906101000a900473ffffffffffffffffffffffffffffffffffffffff1673ffffffffffffffffffffffffffffffffffffffff166370a08231306040518263ffffffff1660e01b8152600401613a4a9190614763565b602060405180830381865afa158015613a67573d6000803e3d6000fd5b505050506040513d601f19601f82011682018060405250810190613a8b9190614df5565b60048190555047600581905550613ad96040518060400160405280601481526020017f746f6b656e206665652072657365727665733a200000000000000000000000008152506006546140dd565b613b1a6040518060400160405280601281526020017f657468206665652072657365727665733a2000000000000000000000000000008152506007546140dd565b613b5b6040518060400160405280600f81526020017f546f6b656e2072657365727665733a00000000000000000000000000000000008152506004546140dd565b613b9c6040518060400160405280600881526020017f4b2076616c75653a000000000000000000000000000000000000000000000000815250600d546140dd565b613bdd6040518060400160405280600d81526020017f4554482072657365727665733a000000000000000000000000000000000000008152506005546140dd565b613c1e6040518060400160405280600e81526020017f546f74616c207368617265733a20000000000000000000000000000000000000815250600a546140dd565b613c26613c57565b505050505050565b600080600554600a5484613c429190614aed565b613c4c9190614b5e565b905080915050919050565b6000613c7160405180602001604052806000815250614536565b613caf6040518060400160405280600381526020017f4c50530000000000000000000000000000000000000000000000000000000000815250614536565b613cc760405180602001604052806000815250614536565b613d086040518060400160405280601081526020017f746f74616c2065746820666565733a20000000000000000000000000000000008152506007546140dd565b613d496040518060400160405280601281526020017f746f74616c20746f6b656e20666565733a2000000000000000000000000000008152506006546140dd565b60005b600980549050811015613f4c57613d7160405180602001604052806000815250614536565b60006008600060098481548110613d8b57613d8a614ce7565b5b9060005260206000200160009054906101000a900473ffffffffffffffffffffffffffffffffffffffff1673ffffffffffffffffffffffffffffffffffffffff1673ffffffffffffffffffffffffffffffffffffffff1681526020019081526020016000209050613e6f6040518060400160405280600d81526020017f6c705f70726f76696465723a200000000000000000000000000000000000000081525060098481548110613e3f57613e3e614ce7565b5b9060005260206000200160009054906101000a900473ffffffffffffffffffffffffffffffffffffffff1661449a565b613eb26040518060400160405280600881526020017f7368617265733a2000000000000000000000000000000000000000000000000081525082600001546140dd565b613ef56040518060400160405280600a81526020017f6574685f666565733a200000000000000000000000000000000000000000000081525082600101546140dd565b613f386040518060400160405280600c81526020017f746f6b656e5f666565733a20000000000000000000000000000000000000000081525082600201546140dd565b508080613f4490614d16565b915050613d4c565b50613f6560405180602001604052806000815250614536565b6001905090565b600080600b54600c54915091509091565b600080600454600e54600554613f939190614aed565b613f9d9190614b5e565b90508091505090565b613fae614358565b600073ffffffffffffffffffffffffffffffffffffffff168173ffffffffffffffffffffffffffffffffffffffff160361401d576040517f08c379a000000000000000000000000000000000000000000000000000000000815260040161401490615707565b60405180910390fd5b614026816143d6565b50565b6001805461403690615756565b80601f016020809104026020016040519081016040528092919081815260200182805461406290615756565b80156140af5780601f10614084576101008083540402835291602001916140af565b820191906000526020600020905b81548152906001019060200180831161409257829003601f168201915b505050505081565b600360009054906101000a900473ffffffffffffffffffffffffffffffffffffffff1681565b61417582826040516024016140f3929190615787565b6040516020818303038152906040527fb60e72cc000000000000000000000000000000000000000000000000000000007bffffffffffffffffffffffffffffffffffffffffffffffffffffffff19166020820180517bffffffffffffffffffffffffffffffffffffffffffffffffffffffff83818316178352505050506145cf565b5050565b6142158484848460405160240161419394939291906157b7565b6040516020818303038152906040527f91d1112e000000000000000000000000000000000000000000000000000000007bffffffffffffffffffffffffffffffffffffffffffffffffffffffff19166020820180517bffffffffffffffffffffffffffffffffffffffffffffffffffffffff83818316178352505050506145cf565b50505050565b6009805490508110614262576040517f08c379a00000000000000000000000000000000000000000000000000000000081526004016142599061587c565b60405180910390fd5b600960016009805490506142769190614a27565b8154811061428757614286614ce7565b5b9060005260206000200160009054906101000a900473ffffffffffffffffffffffffffffffffffffffff16600982815481106142c6576142c5614ce7565b5b9060005260206000200160006101000a81548173ffffffffffffffffffffffffffffffffffffffff021916908373ffffffffffffffffffffffffffffffffffffffff16021790555060098054806143205761431f61589c565b5b6001900381819060005260206000200160006101000a81549073ffffffffffffffffffffffffffffffffffffffff0219169055905550565b6143606145e9565b73ffffffffffffffffffffffffffffffffffffffff1661437e6123d8565b73ffffffffffffffffffffffffffffffffffffffff16146143d4576040517f08c379a00000000000000000000000000000000000000000000000000000000081526004016143cb90615917565b60405180910390fd5b565b60008060009054906101000a900473ffffffffffffffffffffffffffffffffffffffff169050816000806101000a81548173ffffffffffffffffffffffffffffffffffffffff021916908373ffffffffffffffffffffffffffffffffffffffff1602179055508173ffffffffffffffffffffffffffffffffffffffff168173ffffffffffffffffffffffffffffffffffffffff167f8be0079c531659141344cd1fd0a4f28419497f9722a3daafe3b4186f6b6457e060405160405180910390a35050565b61453282826040516024016144b0929190615937565b6040516020818303038152906040527f319af333000000000000000000000000000000000000000000000000000000007bffffffffffffffffffffffffffffffffffffffffffffffffffffffff19166020820180517bffffffffffffffffffffffffffffffffffffffffffffffffffffffff83818316178352505050506145cf565b5050565b6145cc8160405160240161454a91906148f0565b6040516020818303038152906040527f41304fac000000000000000000000000000000000000000000000000000000007bffffffffffffffffffffffffffffffffffffffffffffffffffffffff19166020820180517bffffffffffffffffffffffffffffffffffffffffffffffffffffffff83818316178352505050506145cf565b50565b6145e6816145de6145f1614612565b63ffffffff16565b50565b600033905090565b60006a636f6e736f6c652e6c6f679050600080835160208501845afa505050565b61461d819050919050565b614625615967565b565b600080fd5b6000819050919050565b61463f8161462c565b811461464a57600080fd5b50565b60008135905061465c81614636565b92915050565b60006020828403121561467857614677614627565b5b60006146868482850161464d565b91505092915050565b600080604083850312156146a6576146a5614627565b5b60006146b48582860161464d565b92505060206146c58582860161464d565b9150509250929050565b6000806000606084860312156146e8576146e7614627565b5b60006146f68682870161464d565b93505060206147078682870161464d565b92505060406147188682870161464d565b9150509250925092565b600073ffffffffffffffffffffffffffffffffffffffff82169050919050565b600061474d82614722565b9050919050565b61475d81614742565b82525050565b60006020820190506147786000830184614754565b92915050565b6147878161462c565b82525050565b60006020820190506147a2600083018461477e565b92915050565b60008115159050919050565b6147bd816147a8565b82525050565b60006020820190506147d860008301846147b4565b92915050565b60006040820190506147f3600083018561477e565b614800602083018461477e565b9392505050565b61481081614742565b811461481b57600080fd5b50565b60008135905061482d81614807565b92915050565b60006020828403121561484957614848614627565b5b60006148578482850161481e565b91505092915050565b600081519050919050565b600082825260208201905092915050565b60005b8381101561489a57808201518184015260208101905061487f565b60008484015250505050565b6000601f19601f8301169050919050565b60006148c282614860565b6148cc818561486b565b93506148dc81856020860161487c565b6148e5816148a6565b840191505092915050565b6000602082019050818103600083015261490a81846148b7565b905092915050565b6000819050919050565b600061493761493261492d84614722565b614912565b614722565b9050919050565b60006149498261491c565b9050919050565b600061495b8261493e565b9050919050565b61496b81614950565b82525050565b60006020820190506149866000830184614962565b92915050565b7f43616e6e6f7420737761702061206e6567617469766520616d6f756e74000000600082015250565b60006149c2601d8361486b565b91506149cd8261498c565b602082019050919050565b600060208201905081810360008301526149f1816149b5565b9050919050565b7f4e487b7100000000000000000000000000000000000000000000000000000000600052601160045260246000fd5b6000614a328261462c565b9150614a3d8361462c565b9250828203905081811115614a5557614a546149f8565b5b92915050565b7f43757272656e74207261746520686173206d6f7665642061626f7665206d617860008201527f45786368616e6765526174650000000000000000000000000000000000000000602082015250565b6000614ab7602c8361486b565b9150614ac282614a5b565b604082019050919050565b60006020820190508181036000830152614ae681614aaa565b9050919050565b6000614af88261462c565b9150614b038361462c565b9250828202614b118161462c565b91508282048414831517614b2857614b276149f8565b5b5092915050565b7f4e487b7100000000000000000000000000000000000000000000000000000000600052601260045260246000fd5b6000614b698261462c565b9150614b748361462c565b925082614b8457614b83614b2f565b5b828204905092915050565b6000614b9a8261462c565b9150614ba58361462c565b9250828201905080821115614bbd57614bbc6149f8565b5b92915050565b7f43616e6e6f742067697665206261636b2061206e6567617469766520746f6b6560008201527f6e206e756d626572000000000000000000000000000000000000000000000000602082015250565b6000614c1f60288361486b565b9150614c2a82614bc3565b604082019050919050565b60006020820190508181036000830152614c4e81614c12565b9050919050565b7f4e6f7420656e6f75676820746f6b656e7320696e207265736572766520746f2060008201527f6d616b6520737761700000000000000000000000000000000000000000000000602082015250565b6000614cb160298361486b565b9150614cbc82614c55565b604082019050919050565b60006020820190508181036000830152614ce081614ca4565b9050919050565b7f4e487b7100000000000000000000000000000000000000000000000000000000600052603260045260246000fd5b6000614d218261462c565b91507fffffffffffffffffffffffffffffffffffffffffffffffffffffffffffffffff8203614d5357614d526149f8565b5b600182019050919050565b6000604082019050614d736000830185614754565b614d80602083018461477e565b9392505050565b614d90816147a8565b8114614d9b57600080fd5b50565b600081519050614dad81614d87565b92915050565b600060208284031215614dc957614dc8614627565b5b6000614dd784828501614d9e565b91505092915050565b600081519050614def81614636565b92915050565b600060208284031215614e0b57614e0a614627565b5b6000614e1984828501614de0565b91505092915050565b7f43757272656e74207261746520686173206d6f7665642062656c6f77206d696e60008201527f45786368616e6765526174650000000000000000000000000000000000000000602082015250565b6000614e7e602c8361486b565b9150614e8982614e22565b604082019050919050565b60006020820190508181036000830152614ead81614e71565b9050919050565b7f43616e6e6f74206465706c6574652065746820726573657276657320746f2030600082015250565b6000614eea60208361486b565b9150614ef582614eb4565b602082019050919050565b60006020820190508181036000830152614f1981614edd565b9050919050565b7f43616e6e6f74206465706c65746520746f6b656e20726573657276657320746f60008201527f2030000000000000000000000000000000000000000000000000000000000000602082015250565b6000614f7c60228361486b565b9150614f8782614f20565b604082019050919050565b60006020820190508181036000830152614fab81614f6f565b9050919050565b7f546f6b656e20726573657276657320776173206e6f7420300000000000000000600082015250565b6000614fe860188361486b565b9150614ff382614fb2565b602082019050919050565b6000602082019050818103600083015261501781614fdb565b9050919050565b7f45544820726573657276657320776173206e6f7420302e000000000000000000600082015250565b600061505460178361486b565b915061505f8261501e565b602082019050919050565b6000602082019050818103600083015261508381615047565b9050919050565b7f4e6565642065746820746f2063726561746520706f6f6c2e0000000000000000600082015250565b60006150c060188361486b565b91506150cb8261508a565b602082019050919050565b600060208201905081810360008301526150ef816150b3565b9050919050565b7f4e6f74206861766520656e6f75676820746f6b656e7320746f2063726561746560008201527f2074686520706f6f6c0000000000000000000000000000000000000000000000602082015250565b600061515260298361486b565b915061515d826150f6565b604082019050919050565b6000602082019050818103600083015261518181615145565b9050919050565b7f4e65656420746f6b656e7320746f2063726561746520706f6f6c2e0000000000600082015250565b60006151be601b8361486b565b91506151c982615188565b602082019050919050565b600060208201905081810360008301526151ed816151b1565b9050919050565b60006060820190506152096000830186614754565b6152166020830185614754565b615223604083018461477e565b949350505050565b7f4d7573742072656d6f766520706f73697469766520616d6f756e74206f66206c60008201527f6971756964697479000000000000000000000000000000000000000000000000602082015250565b600061528760288361486b565b91506152928261522b565b604082019050919050565b600060208201905081810360008301526152b68161527a565b9050919050565b7f43616e6e6f74206465706c6574652045544820726573657276657320746f2030600082015250565b60006152f360208361486b565b91506152fe826152bd565b602082019050919050565b60006020820190508181036000830152615322816152e6565b9050919050565b7f4c502068617320696e73756666696369656e74206c6971756964697479000000600082015250565b600061535f601d8361486b565b915061536a82615329565b602082019050919050565b6000602082019050818103600083015261538e81615352565b9050919050565b7f4d7573742061646420706f73697469766520616d6f756e74206f66206c69717560008201527f6964697479000000000000000000000000000000000000000000000000000000602082015250565b60006153f160258361486b565b91506153fc82615395565b604082019050919050565b60006020820190508181036000830152615420816153e4565b9050919050565b7f53656e64657220646f6573206e6f74206861766520656e6f75676820746f6b6560008201527f6e7320746f20616464207468617420616d6f756e74206f66206c69717569646960208201527f7479000000000000000000000000000000000000000000000000000000000000604082015250565b60006154a960428361486b565b91506154b482615427565b606082019050919050565b600060208201905081810360008301526154d88161549c565b9050919050565b7f4e6f7420656e6f75676820746f6b656e7320746f206d616b652074686973207360008201527f7761700000000000000000000000000000000000000000000000000000000000602082015250565b600061553b60238361486b565b9150615546826154df565b604082019050919050565b6000602082019050818103600083015261556a8161552e565b9050919050565b7f4d7573742073776170206120706f73697469766520616d6f756e74206f66207460008201527f6f6b656e73000000000000000000000000000000000000000000000000000000602082015250565b60006155cd60258361486b565b91506155d882615571565b604082019050919050565b600060208201905081810360008301526155fc816155c0565b9050919050565b7f496e73756666696369656e74207265736572766573206f662045544820666f7260008201527f20746865207472616e73616374696f6e00000000000000000000000000000000602082015250565b600061565f60308361486b565b915061566a82615603565b604082019050919050565b6000602082019050818103600083015261568e81615652565b9050919050565b7f4f776e61626c653a206e6577206f776e657220697320746865207a65726f206160008201527f6464726573730000000000000000000000000000000000000000000000000000602082015250565b60006156f160268361486b565b91506156fc82615695565b604082019050919050565b60006020820190508181036000830152615720816156e4565b9050919050565b7f4e487b7100000000000000000000000000000000000000000000000000000000600052602260045260246000fd5b6000600282049050600182168061576e57607f821691505b60208210810361578157615780615727565b5b50919050565b600060408201905081810360008301526157a181856148b7565b90506157b0602083018461477e565b9392505050565b600060808201905081810360008301526157d181876148b7565b90506157e06020830186614754565b81810360408301526157f281856148b7565b9050615801606083018461477e565b95945050505050565b7f73706563696669656420696e646578206973206c6172676572207468616e207460008201527f6865206e756d626572206f66206c707300000000000000000000000000000000602082015250565b600061586660308361486b565b91506158718261580a565b604082019050919050565b6000602082019050818103600083015261589581615859565b9050919050565b7f4e487b7100000000000000000000000000000000000000000000000000000000600052603160045260246000fd5b7f4f776e61626c653a2063616c6c6572206973206e6f7420746865206f776e6572600082015250565b600061590160208361486b565b915061590c826158cb565b602082019050919050565b60006020820190508181036000830152615930816158f4565b9050919050565b6000604082019050818103600083015261595181856148b7565b90506159606020830184614754565b9392505050565b7f4e487b7100000000000000000000000000000000000000000000000000000000600052605160045260246000fdfea2646970667358221220b6c7d377e136426d534b42e8fa1aa4feb4c64c149a05f0eda680b7d602dc81db64736f6c63430008110033","opcodes":"PUSH1 0x80 PUSH1 0x40 MSTORE PUSH1 0x40 MLOAD DUP1 PUSH1 0x20 ADD PUSH1 0x40 MSTORE DUP1 PUSH1 0x0 DUP2 MSTORE POP PUSH1 0x1 SWAP1 DUP2 PUSH3 0x24 SWAP2 SWAP1 PUSH3 0x489 JUMP JUMPDEST POP PUSH20 0x5FBDB2315678AFECB367F032D93F642F64180AA3 PUSH1 0x2 PUSH1 0x0 PUSH2 0x100 EXP DUP2 SLOAD DUP2 PUSH20 0xFFFFFFFFFFFFFFFFFFFFFFFFFFFFFFFFFFFFFFFF MUL NOT AND SWAP1 DUP4 PUSH20 0xFFFFFFFFFFFFFFFFFFFFFFFFFFFFFFFFFFFFFFFF AND MUL OR SWAP1 SSTORE POP PUSH1 0x2 PUSH1 0x0 SWAP1 SLOAD SWAP1 PUSH2 0x100 EXP SWAP1 DIV PUSH20 0xFFFFFFFFFFFFFFFFFFFFFFFFFFFFFFFFFFFFFFFF AND PUSH1 0x3 PUSH1 0x0 PUSH2 0x100 EXP DUP2 SLOAD DUP2 PUSH20 0xFFFFFFFFFFFFFFFFFFFFFFFFFFFFFFFFFFFFFFFF MUL NOT AND SWAP1 DUP4 PUSH20 0xFFFFFFFFFFFFFFFFFFFFFFFFFFFFFFFFFFFFFFFF AND MUL OR SWAP1 SSTORE POP PUSH1 0x0 PUSH1 0x4 SSTORE PUSH1 0x0 PUSH1 0x5 SSTORE PUSH1 0x0 PUSH1 0x6 SSTORE PUSH1 0x0 PUSH1 0x7 SSTORE PUSH1 0x0 PUSH1 0xA SSTORE PUSH1 0x3 PUSH1 0xB SSTORE PUSH1 0x64 PUSH1 0xC SSTORE PUSH3 0x186A0 PUSH1 0xE SSTORE PUSH4 0x5F5E100 PUSH1 0xF SSTORE CALLVALUE DUP1 ISZERO PUSH3 0x11C JUMPI PUSH1 0x0 DUP1 REVERT JUMPDEST POP PUSH3 0x13D PUSH3 0x131 PUSH3 0x143 PUSH1 0x20 SHL PUSH1 0x20 SHR JUMP JUMPDEST PUSH3 0x14B PUSH1 0x20 SHL PUSH1 0x20 SHR JUMP JUMPDEST PUSH3 0x570 JUMP JUMPDEST PUSH1 0x0 CALLER SWAP1 POP SWAP1 JUMP JUMPDEST PUSH1 0x0 DUP1 PUSH1 0x0 SWAP1 SLOAD SWAP1 PUSH2 0x100 EXP SWAP1 DIV PUSH20 0xFFFFFFFFFFFFFFFFFFFFFFFFFFFFFFFFFFFFFFFF AND SWAP1 POP DUP2 PUSH1 0x0 DUP1 PUSH2 0x100 EXP DUP2 SLOAD DUP2 PUSH20 0xFFFFFFFFFFFFFFFFFFFFFFFFFFFFFFFFFFFFFFFF MUL NOT AND SWAP1 DUP4 PUSH20 0xFFFFFFFFFFFFFFFFFFFFFFFFFFFFFFFFFFFFFFFF AND MUL OR SWAP1 SSTORE POP DUP2 PUSH20 0xFFFFFFFFFFFFFFFFFFFFFFFFFFFFFFFFFFFFFFFF AND DUP2 PUSH20 0xFFFFFFFFFFFFFFFFFFFFFFFFFFFFFFFFFFFFFFFF AND PUSH32 0x8BE0079C531659141344CD1FD0A4F28419497F9722A3DAAFE3B4186F6B6457E0 PUSH1 0x40 MLOAD PUSH1 0x40 MLOAD DUP1 SWAP2 SUB SWAP1 LOG3 POP POP JUMP JUMPDEST PUSH1 0x0 DUP2 MLOAD SWAP1 POP SWAP2 SWAP1 POP JUMP JUMPDEST PUSH32 0x4E487B7100000000000000000000000000000000000000000000000000000000 PUSH1 0x0 MSTORE PUSH1 0x41 PUSH1 0x4 MSTORE PUSH1 0x24 PUSH1 0x0 REVERT JUMPDEST PUSH32 0x4E487B7100000000000000000000000000000000000000000000000000000000 PUSH1 0x0 MSTORE PUSH1 0x22 PUSH1 0x4 MSTORE PUSH1 0x24 PUSH1 0x0 REVERT JUMPDEST PUSH1 0x0 PUSH1 0x2 DUP3 DIV SWAP1 POP PUSH1 0x1 DUP3 AND DUP1 PUSH3 0x291 JUMPI PUSH1 0x7F DUP3 AND SWAP2 POP JUMPDEST PUSH1 0x20 DUP3 LT DUP2 SUB PUSH3 0x2A7 JUMPI PUSH3 0x2A6 PUSH3 0x249 JUMP JUMPDEST JUMPDEST POP SWAP2 SWAP1 POP JUMP JUMPDEST PUSH1 0x0 DUP2 SWAP1 POP DUP2 PUSH1 0x0 MSTORE PUSH1 0x20 PUSH1 0x0 KECCAK256 SWAP1 POP SWAP2 SWAP1 POP JUMP JUMPDEST PUSH1 0x0 PUSH1 0x20 PUSH1 0x1F DUP4 ADD DIV SWAP1 POP SWAP2 SWAP1 POP JUMP JUMPDEST PUSH1 0x0 DUP3 DUP3 SHL SWAP1 POP SWAP3 SWAP2 POP POP JUMP JUMPDEST PUSH1 0x0 PUSH1 0x8 DUP4 MUL PUSH3 0x311 PUSH32 0xFFFFFFFFFFFFFFFFFFFFFFFFFFFFFFFFFFFFFFFFFFFFFFFFFFFFFFFFFFFFFFFF DUP3 PUSH3 0x2D2 JUMP JUMPDEST PUSH3 0x31D DUP7 DUP4 PUSH3 0x2D2 JUMP JUMPDEST SWAP6 POP DUP1 NOT DUP5 AND SWAP4 POP DUP1 DUP7 AND DUP5 OR SWAP3 POP POP POP SWAP4 SWAP3 POP POP POP JUMP JUMPDEST PUSH1 0x0 DUP2 SWAP1 POP SWAP2 SWAP1 POP JUMP JUMPDEST PUSH1 0x0 DUP2 SWAP1 POP SWAP2 SWAP1 POP JUMP JUMPDEST PUSH1 0x0 PUSH3 0x36A PUSH3 0x364 PUSH3 0x35E DUP5 PUSH3 0x335 JUMP JUMPDEST PUSH3 0x33F JUMP JUMPDEST PUSH3 0x335 JUMP JUMPDEST SWAP1 POP SWAP2 SWAP1 POP JUMP JUMPDEST PUSH1 0x0 DUP2 SWAP1 POP SWAP2 SWAP1 POP JUMP JUMPDEST PUSH3 0x386 DUP4 PUSH3 0x349 JUMP JUMPDEST PUSH3 0x39E PUSH3 0x395 DUP3 PUSH3 0x371 JUMP JUMPDEST DUP5 DUP5 SLOAD PUSH3 0x2DF JUMP JUMPDEST DUP3 SSTORE POP POP POP POP JUMP JUMPDEST PUSH1 0x0 SWAP1 JUMP JUMPDEST PUSH3 0x3B5 PUSH3 0x3A6 JUMP JUMPDEST PUSH3 0x3C2 DUP2 DUP5 DUP5 PUSH3 0x37B JUMP JUMPDEST POP POP POP JUMP JUMPDEST JUMPDEST DUP2 DUP2 LT ISZERO PUSH3 0x3EA JUMPI PUSH3 0x3DE PUSH1 0x0 DUP3 PUSH3 0x3AB JUMP JUMPDEST PUSH1 0x1 DUP2 ADD SWAP1 POP PUSH3 0x3C8 JUMP JUMPDEST POP POP JUMP JUMPDEST PUSH1 0x1F DUP3 GT ISZERO PUSH3 0x439 JUMPI PUSH3 0x403 DUP2 PUSH3 0x2AD JUMP JUMPDEST PUSH3 0x40E DUP5 PUSH3 0x2C2 JUMP JUMPDEST DUP2 ADD PUSH1 0x20 DUP6 LT ISZERO PUSH3 0x41E JUMPI DUP2 SWAP1 POP JUMPDEST PUSH3 0x436 PUSH3 0x42D DUP6 PUSH3 0x2C2 JUMP JUMPDEST DUP4 ADD DUP3 PUSH3 0x3C7 JUMP JUMPDEST POP POP JUMPDEST POP POP POP JUMP JUMPDEST PUSH1 0x0 DUP3 DUP3 SHR SWAP1 POP SWAP3 SWAP2 POP POP JUMP JUMPDEST PUSH1 0x0 PUSH3 0x45E PUSH1 0x0 NOT DUP5 PUSH1 0x8 MUL PUSH3 0x43E JUMP JUMPDEST NOT DUP1 DUP4 AND SWAP2 POP POP SWAP3 SWAP2 POP POP JUMP JUMPDEST PUSH1 0x0 PUSH3 0x479 DUP4 DUP4 PUSH3 0x44B JUMP JUMPDEST SWAP2 POP DUP3 PUSH1 0x2 MUL DUP3 OR SWAP1 POP SWAP3 SWAP2 POP POP JUMP JUMPDEST PUSH3 0x494 DUP3 PUSH3 0x20F JUMP JUMPDEST PUSH8 0xFFFFFFFFFFFFFFFF DUP2 GT ISZERO PUSH3 0x4B0 JUMPI PUSH3 0x4AF PUSH3 0x21A JUMP JUMPDEST JUMPDEST PUSH3 0x4BC DUP3 SLOAD PUSH3 0x278 JUMP JUMPDEST PUSH3 0x4C9 DUP3 DUP3 DUP6 PUSH3 0x3EE JUMP JUMPDEST PUSH1 0x0 PUSH1 0x20 SWAP1 POP PUSH1 0x1F DUP4 GT PUSH1 0x1 DUP2 EQ PUSH3 0x501 JUMPI PUSH1 0x0 DUP5 ISZERO PUSH3 0x4EC JUMPI DUP3 DUP8 ADD MLOAD SWAP1 POP JUMPDEST PUSH3 0x4F8 DUP6 DUP3 PUSH3 0x46B JUMP JUMPDEST DUP7 SSTORE POP PUSH3 0x568 JUMP JUMPDEST PUSH1 0x1F NOT DUP5 AND PUSH3 0x511 DUP7 PUSH3 0x2AD JUMP JUMPDEST PUSH1 0x0 JUMPDEST DUP3 DUP2 LT ISZERO PUSH3 0x53B JUMPI DUP5 DUP10 ADD MLOAD DUP3 SSTORE PUSH1 0x1 DUP3 ADD SWAP2 POP PUSH1 0x20 DUP6 ADD SWAP5 POP PUSH1 0x20 DUP2 ADD SWAP1 POP PUSH3 0x514 JUMP JUMPDEST DUP7 DUP4 LT ISZERO PUSH3 0x55B JUMPI DUP5 DUP10 ADD MLOAD PUSH3 0x557 PUSH1 0x1F DUP10 AND DUP3 PUSH3 0x44B JUMP JUMPDEST DUP4 SSTORE POP JUMPDEST PUSH1 0x1 PUSH1 0x2 DUP9 MUL ADD DUP9 SSTORE POP POP POP JUMPDEST POP POP POP POP POP POP JUMP JUMPDEST PUSH2 0x59CC DUP1 PUSH3 0x580 PUSH1 0x0 CODECOPY PUSH1 0x0 RETURN INVALID PUSH1 0x80 PUSH1 0x40 MSTORE PUSH1 0x4 CALLDATASIZE LT PUSH2 0xE8 JUMPI PUSH1 0x0 CALLDATALOAD PUSH1 0xE0 SHR DUP1 PUSH4 0xA22280A6 GT PUSH2 0x8A JUMPI DUP1 PUSH4 0xE09ADC70 GT PUSH2 0x59 JUMPI DUP1 PUSH4 0xE09ADC70 EQ PUSH2 0x26B JUMPI DUP1 PUSH4 0xF2FDE38B EQ PUSH2 0x296 JUMPI DUP1 PUSH4 0xF694F7D1 EQ PUSH2 0x2BF JUMPI DUP1 PUSH4 0xFC0C546A EQ PUSH2 0x2EA JUMPI PUSH2 0xE8 JUMP JUMPDEST DUP1 PUSH4 0xA22280A6 EQ PUSH2 0x1BB JUMPI DUP1 PUSH4 0xA65540FB EQ PUSH2 0x1D7 JUMPI DUP1 PUSH4 0xB09BBCBC EQ PUSH2 0x214 JUMPI DUP1 PUSH4 0xD4CADF68 EQ PUSH2 0x23F JUMPI PUSH2 0xE8 JUMP JUMPDEST DUP1 PUSH4 0x8259E6A0 GT PUSH2 0xC6 JUMPI DUP1 PUSH4 0x8259E6A0 EQ PUSH2 0x13C JUMPI DUP1 PUSH4 0x857620E1 EQ PUSH2 0x158 JUMPI DUP1 PUSH4 0x8DA5CB5B EQ PUSH2 0x174 JUMPI DUP1 PUSH4 0x9CD441DA EQ PUSH2 0x19F JUMPI PUSH2 0xE8 JUMP JUMPDEST DUP1 PUSH4 0x2EAB2841 EQ PUSH2 0xED JUMPI DUP1 PUSH4 0x58AD6DE4 EQ PUSH2 0x109 JUMPI DUP1 PUSH4 0x715018A6 EQ PUSH2 0x125 JUMPI JUMPDEST PUSH1 0x0 DUP1 REVERT JUMPDEST PUSH2 0x107 PUSH1 0x4 DUP1 CALLDATASIZE SUB DUP2 ADD SWAP1 PUSH2 0x102 SWAP2 SWAP1 PUSH2 0x4662 JUMP JUMPDEST PUSH2 0x315 JUMP JUMPDEST STOP JUMPDEST PUSH2 0x123 PUSH1 0x4 DUP1 CALLDATASIZE SUB DUP2 ADD SWAP1 PUSH2 0x11E SWAP2 SWAP1 PUSH2 0x468F JUMP JUMPDEST PUSH2 0xC05 JUMP JUMPDEST STOP JUMPDEST CALLVALUE DUP1 ISZERO PUSH2 0x131 JUMPI PUSH1 0x0 DUP1 REVERT JUMPDEST POP PUSH2 0x13A PUSH2 0x16BF JUMP JUMPDEST STOP JUMPDEST PUSH2 0x156 PUSH1 0x4 DUP1 CALLDATASIZE SUB DUP2 ADD SWAP1 PUSH2 0x151 SWAP2 SWAP1 PUSH2 0x4662 JUMP JUMPDEST PUSH2 0x16D3 JUMP JUMPDEST STOP JUMPDEST PUSH2 0x172 PUSH1 0x4 DUP1 CALLDATASIZE SUB DUP2 ADD SWAP1 PUSH2 0x16D SWAP2 SWAP1 PUSH2 0x46CF JUMP JUMPDEST PUSH2 0x1A8C JUMP JUMPDEST STOP JUMPDEST CALLVALUE DUP1 ISZERO PUSH2 0x180 JUMPI PUSH1 0x0 DUP1 REVERT JUMPDEST POP PUSH2 0x189 PUSH2 0x23D8 JUMP JUMPDEST PUSH1 0x40 MLOAD PUSH2 0x196 SWAP2 SWAP1 PUSH2 0x4763 JUMP JUMPDEST PUSH1 0x40 MLOAD DUP1 SWAP2 SUB SWAP1 RETURN JUMPDEST PUSH2 0x1B9 PUSH1 0x4 DUP1 CALLDATASIZE SUB DUP2 ADD SWAP1 PUSH2 0x1B4 SWAP2 SWAP1 PUSH2 0x468F JUMP JUMPDEST PUSH2 0x2401 JUMP JUMPDEST STOP JUMPDEST PUSH2 0x1D5 PUSH1 0x4 DUP1 CALLDATASIZE SUB DUP2 ADD SWAP1 PUSH2 0x1D0 SWAP2 SWAP1 PUSH2 0x468F JUMP JUMPDEST PUSH2 0x3272 JUMP JUMPDEST STOP JUMPDEST CALLVALUE DUP1 ISZERO PUSH2 0x1E3 JUMPI PUSH1 0x0 DUP1 REVERT JUMPDEST POP PUSH2 0x1FE PUSH1 0x4 DUP1 CALLDATASIZE SUB DUP2 ADD SWAP1 PUSH2 0x1F9 SWAP2 SWAP1 PUSH2 0x4662 JUMP JUMPDEST PUSH2 0x3C2E JUMP JUMPDEST PUSH1 0x40 MLOAD PUSH2 0x20B SWAP2 SWAP1 PUSH2 0x478D JUMP JUMPDEST PUSH1 0x40 MLOAD DUP1 SWAP2 SUB SWAP1 RETURN JUMPDEST CALLVALUE DUP1 ISZERO PUSH2 0x220 JUMPI PUSH1 0x0 DUP1 REVERT JUMPDEST POP PUSH2 0x229 PUSH2 0x3C57 JUMP JUMPDEST PUSH1 0x40 MLOAD PUSH2 0x236 SWAP2 SWAP1 PUSH2 0x47C3 JUMP JUMPDEST PUSH1 0x40 MLOAD DUP1 SWAP2 SUB SWAP1 RETURN JUMPDEST CALLVALUE DUP1 ISZERO PUSH2 0x24B JUMPI PUSH1 0x0 DUP1 REVERT JUMPDEST POP PUSH2 0x254 PUSH2 0x3F6C JUMP JUMPDEST PUSH1 0x40 MLOAD PUSH2 0x262 SWAP3 SWAP2 SWAP1 PUSH2 0x47DE JUMP JUMPDEST PUSH1 0x40 MLOAD DUP1 SWAP2 SUB SWAP1 RETURN JUMPDEST CALLVALUE DUP1 ISZERO PUSH2 0x277 JUMPI PUSH1 0x0 DUP1 REVERT JUMPDEST POP PUSH2 0x280 PUSH2 0x3F7D JUMP JUMPDEST PUSH1 0x40 MLOAD PUSH2 0x28D SWAP2 SWAP1 PUSH2 0x478D JUMP JUMPDEST PUSH1 0x40 MLOAD DUP1 SWAP2 SUB SWAP1 RETURN JUMPDEST CALLVALUE DUP1 ISZERO PUSH2 0x2A2 JUMPI PUSH1 0x0 DUP1 REVERT JUMPDEST POP PUSH2 0x2BD PUSH1 0x4 DUP1 CALLDATASIZE SUB DUP2 ADD SWAP1 PUSH2 0x2B8 SWAP2 SWAP1 PUSH2 0x4833 JUMP JUMPDEST PUSH2 0x3FA6 JUMP JUMPDEST STOP JUMPDEST CALLVALUE DUP1 ISZERO PUSH2 0x2CB JUMPI PUSH1 0x0 DUP1 REVERT JUMPDEST POP PUSH2 0x2D4 PUSH2 0x4029 JUMP JUMPDEST PUSH1 0x40 MLOAD PUSH2 0x2E1 SWAP2 SWAP1 PUSH2 0x48F0 JUMP JUMPDEST PUSH1 0x40 MLOAD DUP1 SWAP2 SUB SWAP1 RETURN JUMPDEST CALLVALUE DUP1 ISZERO PUSH2 0x2F6 JUMPI PUSH1 0x0 DUP1 REVERT JUMPDEST POP PUSH2 0x2FF PUSH2 0x40B7 JUMP JUMPDEST PUSH1 0x40 MLOAD PUSH2 0x30C SWAP2 SWAP1 PUSH2 0x4971 JUMP JUMPDEST PUSH1 0x40 MLOAD DUP1 SWAP2 SUB SWAP1 RETURN JUMPDEST PUSH2 0x31D PUSH2 0x3C57 JUMP JUMPDEST POP PUSH2 0x35D PUSH1 0x40 MLOAD DUP1 PUSH1 0x40 ADD PUSH1 0x40 MSTORE DUP1 PUSH1 0x10 DUP2 MSTORE PUSH1 0x20 ADD PUSH32 0x53776170455448466F72546F6B656E7300000000000000000000000000000000 DUP2 MSTORE POP CALLVALUE PUSH2 0x40DD JUMP JUMPDEST PUSH2 0x39E PUSH1 0x40 MLOAD DUP1 PUSH1 0x40 ADD PUSH1 0x40 MSTORE DUP1 PUSH1 0xF DUP2 MSTORE PUSH1 0x20 ADD PUSH32 0x546F6B656E2072657365727665733A0000000000000000000000000000000000 DUP2 MSTORE POP PUSH1 0x4 SLOAD PUSH2 0x40DD JUMP JUMPDEST PUSH2 0x3DF PUSH1 0x40 MLOAD DUP1 PUSH1 0x40 ADD PUSH1 0x40 MSTORE DUP1 PUSH1 0x8 DUP2 MSTORE PUSH1 0x20 ADD PUSH32 0x4B2076616C75653A000000000000000000000000000000000000000000000000 DUP2 MSTORE POP PUSH1 0xD SLOAD PUSH2 0x40DD JUMP JUMPDEST PUSH2 0x420 PUSH1 0x40 MLOAD DUP1 PUSH1 0x40 ADD PUSH1 0x40 MSTORE DUP1 PUSH1 0xD DUP2 MSTORE PUSH1 0x20 ADD PUSH32 0x4554482072657365727665733A00000000000000000000000000000000000000 DUP2 MSTORE POP PUSH1 0x5 SLOAD PUSH2 0x40DD JUMP JUMPDEST PUSH2 0x45F PUSH1 0x40 MLOAD DUP1 PUSH1 0x40 ADD PUSH1 0x40 MSTORE DUP1 PUSH1 0x11 DUP2 MSTORE PUSH1 0x20 ADD PUSH32 0x6D617845786368616E6765526174653A20000000000000000000000000000000 DUP2 MSTORE POP DUP3 PUSH2 0x40DD JUMP JUMPDEST PUSH1 0x0 CALLVALUE GT PUSH2 0x4A2 JUMPI PUSH1 0x40 MLOAD PUSH32 0x8C379A000000000000000000000000000000000000000000000000000000000 DUP2 MSTORE PUSH1 0x4 ADD PUSH2 0x499 SWAP1 PUSH2 0x49D8 JUMP JUMPDEST PUSH1 0x40 MLOAD DUP1 SWAP2 SUB SWAP1 REVERT JUMPDEST PUSH1 0x0 PUSH2 0x4AC PUSH2 0x3F7D JUMP JUMPDEST SWAP1 POP PUSH2 0x4ED PUSH1 0x40 MLOAD DUP1 PUSH1 0x40 ADD PUSH1 0x40 MSTORE DUP1 PUSH1 0xD DUP2 MSTORE PUSH1 0x20 ADD PUSH32 0x63757272656E74526174653A2000000000000000000000000000000000000000 DUP2 MSTORE POP DUP3 PUSH2 0x40DD JUMP JUMPDEST PUSH2 0x52C PUSH1 0x40 MLOAD DUP1 PUSH1 0x40 ADD PUSH1 0x40 MSTORE DUP1 PUSH1 0x8 DUP2 MSTORE PUSH1 0x20 ADD PUSH32 0x6D61782072617465000000000000000000000000000000000000000000000000 DUP2 MSTORE POP DUP4 PUSH2 0x40DD JUMP JUMPDEST DUP2 PUSH1 0xF SLOAD DUP3 PUSH2 0x53B SWAP2 SWAP1 PUSH2 0x4A27 JUMP JUMPDEST GT ISZERO PUSH2 0x57C JUMPI PUSH1 0x40 MLOAD PUSH32 0x8C379A000000000000000000000000000000000000000000000000000000000 DUP2 MSTORE PUSH1 0x4 ADD PUSH2 0x573 SWAP1 PUSH2 0x4ACD JUMP JUMPDEST PUSH1 0x40 MLOAD DUP1 SWAP2 SUB SWAP1 REVERT JUMPDEST PUSH1 0x0 CALLVALUE SWAP1 POP PUSH1 0x0 PUSH1 0xC SLOAD DUP3 PUSH1 0xB SLOAD PUSH2 0x594 SWAP2 SWAP1 PUSH2 0x4AED JUMP JUMPDEST PUSH2 0x59E SWAP2 SWAP1 PUSH2 0x4B5E JUMP JUMPDEST SWAP1 POP DUP1 PUSH1 0x7 PUSH1 0x0 DUP3 DUP3 SLOAD PUSH2 0x5B2 SWAP2 SWAP1 PUSH2 0x4B8F JUMP JUMPDEST SWAP3 POP POP DUP2 SWAP1 SSTORE POP PUSH2 0x5F8 PUSH1 0x40 MLOAD DUP1 PUSH1 0x40 ADD PUSH1 0x40 MSTORE DUP1 PUSH1 0x5 DUP2 MSTORE PUSH1 0x20 ADD PUSH32 0x4665653A20000000000000000000000000000000000000000000000000000000 DUP2 MSTORE POP DUP3 PUSH2 0x40DD JUMP JUMPDEST PUSH1 0x0 DUP2 DUP4 PUSH2 0x606 SWAP2 SWAP1 PUSH2 0x4A27 JUMP JUMPDEST PUSH1 0x5 SLOAD PUSH2 0x613 SWAP2 SWAP1 PUSH2 0x4B8F JUMP JUMPDEST PUSH1 0xD SLOAD PUSH2 0x620 SWAP2 SWAP1 PUSH2 0x4B5E JUMP JUMPDEST PUSH1 0x4 SLOAD PUSH2 0x62D SWAP2 SWAP1 PUSH2 0x4A27 JUMP JUMPDEST SWAP1 POP PUSH2 0x66E PUSH1 0x40 MLOAD DUP1 PUSH1 0x40 ADD PUSH1 0x40 MSTORE DUP1 PUSH1 0x10 DUP2 MSTORE PUSH1 0x20 ADD PUSH32 0x546F6B656E73416D6F756E7420203D2000000000000000000000000000000000 DUP2 MSTORE POP DUP3 PUSH2 0x40DD JUMP JUMPDEST PUSH1 0x0 DUP2 GT PUSH2 0x6B1 JUMPI PUSH1 0x40 MLOAD PUSH32 0x8C379A000000000000000000000000000000000000000000000000000000000 DUP2 MSTORE PUSH1 0x4 ADD PUSH2 0x6A8 SWAP1 PUSH2 0x4C35 JUMP JUMPDEST PUSH1 0x40 MLOAD DUP1 SWAP2 SUB SWAP1 REVERT JUMPDEST PUSH1 0x4 SLOAD DUP2 LT PUSH2 0x6F5 JUMPI PUSH1 0x40 MLOAD PUSH32 0x8C379A000000000000000000000000000000000000000000000000000000000 DUP2 MSTORE PUSH1 0x4 ADD PUSH2 0x6EC SWAP1 PUSH2 0x4CC7 JUMP JUMPDEST PUSH1 0x40 MLOAD DUP1 SWAP2 SUB SWAP1 REVERT JUMPDEST PUSH1 0x0 JUMPDEST PUSH1 0x9 DUP1 SLOAD SWAP1 POP DUP2 LT ISZERO PUSH2 0x835 JUMPI PUSH1 0x0 PUSH1 0x9 DUP3 DUP2 SLOAD DUP2 LT PUSH2 0x71B JUMPI PUSH2 0x71A PUSH2 0x4CE7 JUMP JUMPDEST JUMPDEST SWAP1 PUSH1 0x0 MSTORE PUSH1 0x20 PUSH1 0x0 KECCAK256 ADD PUSH1 0x0 SWAP1 SLOAD SWAP1 PUSH2 0x100 EXP SWAP1 DIV PUSH20 0xFFFFFFFFFFFFFFFFFFFFFFFFFFFFFFFFFFFFFFFF AND SWAP1 POP PUSH1 0x0 PUSH1 0x8 PUSH1 0x0 DUP4 PUSH20 0xFFFFFFFFFFFFFFFFFFFFFFFFFFFFFFFFFFFFFFFF AND PUSH20 0xFFFFFFFFFFFFFFFFFFFFFFFFFFFFFFFFFFFFFFFF AND DUP2 MSTORE PUSH1 0x20 ADD SWAP1 DUP2 MSTORE PUSH1 0x20 ADD PUSH1 0x0 KECCAK256 SWAP1 POP DUP5 DUP2 PUSH1 0x1 ADD PUSH1 0x0 DUP3 DUP3 SLOAD PUSH2 0x79F SWAP2 SWAP1 PUSH2 0x4B8F JUMP JUMPDEST SWAP3 POP POP DUP2 SWAP1 SSTORE POP PUSH2 0x820 PUSH1 0x40 MLOAD DUP1 PUSH1 0x40 ADD PUSH1 0x40 MSTORE DUP1 PUSH1 0x17 DUP2 MSTORE PUSH1 0x20 ADD PUSH32 0x4163637275656420746F6B656E206665657320666F7220000000000000000000 DUP2 MSTORE POP DUP4 PUSH1 0x40 MLOAD DUP1 PUSH1 0x40 ADD PUSH1 0x40 MSTORE DUP1 PUSH1 0x2 DUP2 MSTORE PUSH1 0x20 ADD PUSH32 0x3A20000000000000000000000000000000000000000000000000000000000000 DUP2 MSTORE POP DUP5 PUSH1 0x1 ADD SLOAD PUSH2 0x4179 JUMP JUMPDEST POP POP DUP1 DUP1 PUSH2 0x82D SWAP1 PUSH2 0x4D16 JUMP JUMPDEST SWAP2 POP POP PUSH2 0x6F8 JUMP JUMPDEST POP PUSH1 0x3 PUSH1 0x0 SWAP1 SLOAD SWAP1 PUSH2 0x100 EXP SWAP1 DIV PUSH20 0xFFFFFFFFFFFFFFFFFFFFFFFFFFFFFFFFFFFFFFFF AND PUSH20 0xFFFFFFFFFFFFFFFFFFFFFFFFFFFFFFFFFFFFFFFF AND PUSH4 0xA9059CBB CALLER DUP4 PUSH1 0x40 MLOAD DUP4 PUSH4 0xFFFFFFFF AND PUSH1 0xE0 SHL DUP2 MSTORE PUSH1 0x4 ADD PUSH2 0x893 SWAP3 SWAP2 SWAP1 PUSH2 0x4D5E JUMP JUMPDEST PUSH1 0x20 PUSH1 0x40 MLOAD DUP1 DUP4 SUB DUP2 PUSH1 0x0 DUP8 GAS CALL ISZERO DUP1 ISZERO PUSH2 0x8B2 JUMPI RETURNDATASIZE PUSH1 0x0 DUP1 RETURNDATACOPY RETURNDATASIZE PUSH1 0x0 REVERT JUMPDEST POP POP POP POP PUSH1 0x40 MLOAD RETURNDATASIZE PUSH1 0x1F NOT PUSH1 0x1F DUP3 ADD AND DUP3 ADD DUP1 PUSH1 0x40 MSTORE POP DUP2 ADD SWAP1 PUSH2 0x8D6 SWAP2 SWAP1 PUSH2 0x4DB3 JUMP JUMPDEST POP PUSH2 0x92D PUSH1 0x40 MLOAD DUP1 PUSH1 0x40 ADD PUSH1 0x40 MSTORE DUP1 PUSH1 0x15 DUP2 MSTORE PUSH1 0x20 ADD PUSH32 0x53776170706572206574682062616C616E63653A200000000000000000000000 DUP2 MSTORE POP CALLER PUSH20 0xFFFFFFFFFFFFFFFFFFFFFFFFFFFFFFFFFFFFFFFF AND BALANCE PUSH2 0x40DD JUMP JUMPDEST PUSH2 0xA07 PUSH1 0x40 MLOAD DUP1 PUSH1 0x40 ADD PUSH1 0x40 MSTORE DUP1 PUSH1 0x16 DUP2 MSTORE PUSH1 0x20 ADD PUSH32 0x5377617070657220746F6B656E2062616C616E63653A00000000000000000000 DUP2 MSTORE POP PUSH1 0x3 PUSH1 0x0 SWAP1 SLOAD SWAP1 PUSH2 0x100 EXP SWAP1 DIV PUSH20 0xFFFFFFFFFFFFFFFFFFFFFFFFFFFFFFFFFFFFFFFF AND PUSH20 0xFFFFFFFFFFFFFFFFFFFFFFFFFFFFFFFFFFFFFFFF AND PUSH4 0x70A08231 CALLER PUSH1 0x40 MLOAD DUP3 PUSH4 0xFFFFFFFF AND PUSH1 0xE0 SHL DUP2 MSTORE PUSH1 0x4 ADD PUSH2 0x9C1 SWAP2 SWAP1 PUSH2 0x4763 JUMP JUMPDEST PUSH1 0x20 PUSH1 0x40 MLOAD DUP1 DUP4 SUB DUP2 DUP7 GAS STATICCALL ISZERO DUP1 ISZERO PUSH2 0x9DE JUMPI RETURNDATASIZE PUSH1 0x0 DUP1 RETURNDATACOPY RETURNDATASIZE PUSH1 0x0 REVERT JUMPDEST POP POP POP POP PUSH1 0x40 MLOAD RETURNDATASIZE PUSH1 0x1F NOT PUSH1 0x1F DUP3 ADD AND DUP3 ADD DUP1 PUSH1 0x40 MSTORE POP DUP2 ADD SWAP1 PUSH2 0xA02 SWAP2 SWAP1 PUSH2 0x4DF5 JUMP JUMPDEST PUSH2 0x40DD JUMP JUMPDEST PUSH1 0x3 PUSH1 0x0 SWAP1 SLOAD SWAP1 PUSH2 0x100 EXP SWAP1 DIV PUSH20 0xFFFFFFFFFFFFFFFFFFFFFFFFFFFFFFFFFFFFFFFF AND PUSH20 0xFFFFFFFFFFFFFFFFFFFFFFFFFFFFFFFFFFFFFFFF AND PUSH4 0x70A08231 ADDRESS PUSH1 0x40 MLOAD DUP3 PUSH4 0xFFFFFFFF AND PUSH1 0xE0 SHL DUP2 MSTORE PUSH1 0x4 ADD PUSH2 0xA62 SWAP2 SWAP1 PUSH2 0x4763 JUMP JUMPDEST PUSH1 0x20 PUSH1 0x40 MLOAD DUP1 DUP4 SUB DUP2 DUP7 GAS STATICCALL ISZERO DUP1 ISZERO PUSH2 0xA7F JUMPI RETURNDATASIZE PUSH1 0x0 DUP1 RETURNDATACOPY RETURNDATASIZE PUSH1 0x0 REVERT JUMPDEST POP POP POP POP PUSH1 0x40 MLOAD RETURNDATASIZE PUSH1 0x1F NOT PUSH1 0x1F DUP3 ADD AND DUP3 ADD DUP1 PUSH1 0x40 MSTORE POP DUP2 ADD SWAP1 PUSH2 0xAA3 SWAP2 SWAP1 PUSH2 0x4DF5 JUMP JUMPDEST PUSH1 0x4 DUP2 SWAP1 SSTORE POP SELFBALANCE PUSH1 0x5 DUP2 SWAP1 SSTORE POP PUSH2 0xAF1 PUSH1 0x40 MLOAD DUP1 PUSH1 0x40 ADD PUSH1 0x40 MSTORE DUP1 PUSH1 0x14 DUP2 MSTORE PUSH1 0x20 ADD PUSH32 0x746F6B656E206665652072657365727665733A20000000000000000000000000 DUP2 MSTORE POP PUSH1 0x6 SLOAD PUSH2 0x40DD JUMP JUMPDEST PUSH2 0xB32 PUSH1 0x40 MLOAD DUP1 PUSH1 0x40 ADD PUSH1 0x40 MSTORE DUP1 PUSH1 0x12 DUP2 MSTORE PUSH1 0x20 ADD PUSH32 0x657468206665652072657365727665733A200000000000000000000000000000 DUP2 MSTORE POP PUSH1 0x7 SLOAD PUSH2 0x40DD JUMP JUMPDEST PUSH2 0xB73 PUSH1 0x40 MLOAD DUP1 PUSH1 0x40 ADD PUSH1 0x40 MSTORE DUP1 PUSH1 0xF DUP2 MSTORE PUSH1 0x20 ADD PUSH32 0x546F6B656E2072657365727665733A0000000000000000000000000000000000 DUP2 MSTORE POP PUSH1 0x4 SLOAD PUSH2 0x40DD JUMP JUMPDEST PUSH2 0xBB4 PUSH1 0x40 MLOAD DUP1 PUSH1 0x40 ADD PUSH1 0x40 MSTORE DUP1 PUSH1 0x8 DUP2 MSTORE PUSH1 0x20 ADD PUSH32 0x4B2076616C75653A000000000000000000000000000000000000000000000000 DUP2 MSTORE POP PUSH1 0xD SLOAD PUSH2 0x40DD JUMP JUMPDEST PUSH2 0xBF5 PUSH1 0x40 MLOAD DUP1 PUSH1 0x40 ADD PUSH1 0x40 MSTORE DUP1 PUSH1 0xD DUP2 MSTORE PUSH1 0x20 ADD PUSH32 0x4554482072657365727665733A00000000000000000000000000000000000000 DUP2 MSTORE POP PUSH1 0x5 SLOAD PUSH2 0x40DD JUMP JUMPDEST PUSH2 0xBFD PUSH2 0x3C57 JUMP JUMPDEST POP POP POP POP POP POP JUMP JUMPDEST PUSH2 0xC0D PUSH2 0x3C57 JUMP JUMPDEST POP PUSH1 0x0 PUSH1 0x8 PUSH1 0x0 CALLER PUSH20 0xFFFFFFFFFFFFFFFFFFFFFFFFFFFFFFFFFFFFFFFF AND PUSH20 0xFFFFFFFFFFFFFFFFFFFFFFFFFFFFFFFFFFFFFFFF AND DUP2 MSTORE PUSH1 0x20 ADD SWAP1 DUP2 MSTORE PUSH1 0x20 ADD PUSH1 0x0 KECCAK256 SWAP1 POP PUSH1 0x0 PUSH2 0xC5B PUSH2 0x3F7D JUMP JUMPDEST SWAP1 POP PUSH2 0xC9C PUSH1 0x40 MLOAD DUP1 PUSH1 0x40 ADD PUSH1 0x40 MSTORE DUP1 PUSH1 0xE DUP2 MSTORE PUSH1 0x20 ADD PUSH32 0x657468546F6B656E526174653A20000000000000000000000000000000000000 DUP2 MSTORE POP DUP3 PUSH2 0x40DD JUMP JUMPDEST PUSH2 0xCDB PUSH1 0x40 MLOAD DUP1 PUSH1 0x40 ADD PUSH1 0x40 MSTORE DUP1 PUSH1 0x9 DUP2 MSTORE PUSH1 0x20 ADD PUSH32 0x6D6178526174653A200000000000000000000000000000000000000000000000 DUP2 MSTORE POP DUP6 PUSH2 0x40DD JUMP JUMPDEST PUSH2 0xD1A PUSH1 0x40 MLOAD DUP1 PUSH1 0x40 ADD PUSH1 0x40 MSTORE DUP1 PUSH1 0x9 DUP2 MSTORE PUSH1 0x20 ADD PUSH32 0x6D696E526174653A200000000000000000000000000000000000000000000000 DUP2 MSTORE POP DUP5 PUSH2 0x40DD JUMP JUMPDEST DUP4 PUSH1 0xF SLOAD DUP3 PUSH2 0xD29 SWAP2 SWAP1 PUSH2 0x4A27 JUMP JUMPDEST GT ISZERO PUSH2 0xD6A JUMPI PUSH1 0x40 MLOAD PUSH32 0x8C379A000000000000000000000000000000000000000000000000000000000 DUP2 MSTORE PUSH1 0x4 ADD PUSH2 0xD61 SWAP1 PUSH2 0x4ACD JUMP JUMPDEST PUSH1 0x40 MLOAD DUP1 SWAP2 SUB SWAP1 REVERT JUMPDEST DUP3 PUSH1 0xF SLOAD DUP3 PUSH2 0xD79 SWAP2 SWAP1 PUSH2 0x4B8F JUMP JUMPDEST LT ISZERO PUSH2 0xDBA JUMPI PUSH1 0x40 MLOAD PUSH32 0x8C379A000000000000000000000000000000000000000000000000000000000 DUP2 MSTORE PUSH1 0x4 ADD PUSH2 0xDB1 SWAP1 PUSH2 0x4E94 JUMP JUMPDEST PUSH1 0x40 MLOAD DUP1 SWAP2 SUB SWAP1 REVERT JUMPDEST PUSH1 0x0 PUSH1 0xA SLOAD DUP4 PUSH1 0x0 ADD SLOAD PUSH1 0xE SLOAD PUSH2 0xDD1 SWAP2 SWAP1 PUSH2 0x4AED JUMP JUMPDEST PUSH2 0xDDB SWAP2 SWAP1 PUSH2 0x4B5E JUMP JUMPDEST SWAP1 POP PUSH1 0x0 PUSH1 0xE SLOAD PUSH1 0x5 SLOAD DUP4 PUSH2 0xDF0 SWAP2 SWAP1 PUSH2 0x4AED JUMP JUMPDEST PUSH2 0xDFA SWAP2 SWAP1 PUSH2 0x4B5E JUMP JUMPDEST SWAP1 POP PUSH1 0x0 PUSH1 0xE SLOAD PUSH1 0x4 SLOAD DUP5 PUSH2 0xE0F SWAP2 SWAP1 PUSH2 0x4AED JUMP JUMPDEST PUSH2 0xE19 SWAP2 SWAP1 PUSH2 0x4B5E JUMP JUMPDEST SWAP1 POP PUSH1 0x5 SLOAD DUP3 LT PUSH2 0xE5F JUMPI PUSH1 0x40 MLOAD PUSH32 0x8C379A000000000000000000000000000000000000000000000000000000000 DUP2 MSTORE PUSH1 0x4 ADD PUSH2 0xE56 SWAP1 PUSH2 0x4F00 JUMP JUMPDEST PUSH1 0x40 MLOAD DUP1 SWAP2 SUB SWAP1 REVERT JUMPDEST PUSH1 0x4 SLOAD DUP2 LT PUSH2 0xEA3 JUMPI PUSH1 0x40 MLOAD PUSH32 0x8C379A000000000000000000000000000000000000000000000000000000000 DUP2 MSTORE PUSH1 0x4 ADD PUSH2 0xE9A SWAP1 PUSH2 0x4F92 JUMP JUMPDEST PUSH1 0x40 MLOAD DUP1 SWAP2 SUB SWAP1 REVERT JUMPDEST PUSH1 0x0 PUSH2 0xEAE DUP4 PUSH2 0x3C2E JUMP JUMPDEST SWAP1 POP PUSH1 0x0 PUSH1 0xA SLOAD DUP8 PUSH1 0x1 ADD SLOAD DUP4 PUSH2 0xEC5 SWAP2 SWAP1 PUSH2 0x4AED JUMP JUMPDEST PUSH2 0xECF SWAP2 SWAP1 PUSH2 0x4B5E JUMP JUMPDEST SWAP1 POP PUSH1 0x0 PUSH1 0xA SLOAD DUP9 PUSH1 0x2 ADD SLOAD DUP5 PUSH2 0xEE6 SWAP2 SWAP1 PUSH2 0x4AED JUMP JUMPDEST PUSH2 0xEF0 SWAP2 SWAP1 PUSH2 0x4B5E JUMP JUMPDEST SWAP1 POP DUP3 PUSH1 0xA PUSH1 0x0 DUP3 DUP3 SLOAD PUSH2 0xF04 SWAP2 SWAP1 PUSH2 0x4A27 JUMP JUMPDEST SWAP3 POP POP DUP2 SWAP1 SSTORE POP DUP2 PUSH1 0x7 PUSH1 0x0 DUP3 DUP3 SLOAD PUSH2 0xF1D SWAP2 SWAP1 PUSH2 0x4A27 JUMP JUMPDEST SWAP3 POP POP DUP2 SWAP1 SSTORE POP DUP1 PUSH1 0x6 PUSH1 0x0 DUP3 DUP3 SLOAD PUSH2 0xF36 SWAP2 SWAP1 PUSH2 0x4A27 JUMP JUMPDEST SWAP3 POP POP DUP2 SWAP1 SSTORE POP PUSH2 0xF7C PUSH1 0x40 MLOAD DUP1 PUSH1 0x40 ADD PUSH1 0x40 MSTORE DUP1 PUSH1 0x12 DUP2 MSTORE PUSH1 0x20 ADD PUSH32 0x53686172657320746F2072656D6F76653A200000000000000000000000000000 DUP2 MSTORE POP DUP5 PUSH2 0x40DD JUMP JUMPDEST PUSH2 0xFBB PUSH1 0x40 MLOAD DUP1 PUSH1 0x40 ADD PUSH1 0x40 MSTORE DUP1 PUSH1 0xC DUP2 MSTORE PUSH1 0x20 ADD PUSH32 0x657468526577617264733A200000000000000000000000000000000000000000 DUP2 MSTORE POP DUP4 PUSH2 0x40DD JUMP JUMPDEST PUSH2 0xFFA PUSH1 0x40 MLOAD DUP1 PUSH1 0x40 ADD PUSH1 0x40 MSTORE DUP1 PUSH1 0xE DUP2 MSTORE PUSH1 0x20 ADD PUSH32 0x746F6B656E526577617264733A20000000000000000000000000000000000000 DUP2 MSTORE POP DUP3 PUSH2 0x40DD JUMP JUMPDEST PUSH1 0x0 DUP9 PUSH1 0x0 ADD DUP2 SWAP1 SSTORE POP PUSH1 0x0 DUP1 JUMPDEST PUSH1 0x9 DUP1 SLOAD SWAP1 POP DUP2 LT ISZERO PUSH2 0x109D JUMPI CALLER PUSH20 0xFFFFFFFFFFFFFFFFFFFFFFFFFFFFFFFFFFFFFFFF AND PUSH1 0x9 DUP3 DUP2 SLOAD DUP2 LT PUSH2 0x1040 JUMPI PUSH2 0x103F PUSH2 0x4CE7 JUMP JUMPDEST JUMPDEST SWAP1 PUSH1 0x0 MSTORE PUSH1 0x20 PUSH1 0x0 KECCAK256 ADD PUSH1 0x0 SWAP1 SLOAD SWAP1 PUSH2 0x100 EXP SWAP1 DIV PUSH20 0xFFFFFFFFFFFFFFFFFFFFFFFFFFFFFFFFFFFFFFFF AND PUSH20 0xFFFFFFFFFFFFFFFFFFFFFFFFFFFFFFFFFFFFFFFF AND SUB PUSH2 0x108A JUMPI DUP1 SWAP2 POP JUMPDEST DUP1 DUP1 PUSH2 0x1095 SWAP1 PUSH2 0x4D16 JUMP JUMPDEST SWAP2 POP POP PUSH2 0x1008 JUMP JUMPDEST POP PUSH2 0x10A7 DUP2 PUSH2 0x421B JUMP JUMPDEST PUSH2 0x10EA PUSH1 0x40 MLOAD DUP1 PUSH1 0x40 ADD PUSH1 0x40 MSTORE DUP1 PUSH1 0xB DUP2 MSTORE PUSH1 0x20 ADD PUSH32 0x6C705F7368617265733A20000000000000000000000000000000000000000000 DUP2 MSTORE POP DUP11 PUSH1 0x0 ADD SLOAD PUSH2 0x40DD JUMP JUMPDEST PUSH2 0x112D PUSH1 0x40 MLOAD DUP1 PUSH1 0x40 ADD PUSH1 0x40 MSTORE DUP1 PUSH1 0xA DUP2 MSTORE PUSH1 0x20 ADD PUSH32 0x6574685F666565733A2000000000000000000000000000000000000000000000 DUP2 MSTORE POP DUP11 PUSH1 0x1 ADD SLOAD PUSH2 0x40DD JUMP JUMPDEST PUSH2 0x1170 PUSH1 0x40 MLOAD DUP1 PUSH1 0x40 ADD PUSH1 0x40 MSTORE DUP1 PUSH1 0xC DUP2 MSTORE PUSH1 0x20 ADD PUSH32 0x746F6B656E5F666565733A200000000000000000000000000000000000000000 DUP2 MSTORE POP DUP11 PUSH1 0x2 ADD SLOAD PUSH2 0x40DD JUMP JUMPDEST PUSH2 0x124A PUSH1 0x40 MLOAD DUP1 PUSH1 0x40 ADD PUSH1 0x40 MSTORE DUP1 PUSH1 0xE DUP2 MSTORE PUSH1 0x20 ADD PUSH32 0x557365722062616C616E63653A20000000000000000000000000000000000000 DUP2 MSTORE POP PUSH1 0x3 PUSH1 0x0 SWAP1 SLOAD SWAP1 PUSH2 0x100 EXP SWAP1 DIV PUSH20 0xFFFFFFFFFFFFFFFFFFFFFFFFFFFFFFFFFFFFFFFF AND PUSH20 0xFFFFFFFFFFFFFFFFFFFFFFFFFFFFFFFFFFFFFFFF AND PUSH4 0x70A08231 CALLER PUSH1 0x40 MLOAD DUP3 PUSH4 0xFFFFFFFF AND PUSH1 0xE0 SHL DUP2 MSTORE PUSH1 0x4 ADD PUSH2 0x1204 SWAP2 SWAP1 PUSH2 0x4763 JUMP JUMPDEST PUSH1 0x20 PUSH1 0x40 MLOAD DUP1 DUP4 SUB DUP2 DUP7 GAS STATICCALL ISZERO DUP1 ISZERO PUSH2 0x1221 JUMPI RETURNDATASIZE PUSH1 0x0 DUP1 RETURNDATACOPY RETURNDATASIZE PUSH1 0x0 REVERT JUMPDEST POP POP POP POP PUSH1 0x40 MLOAD RETURNDATASIZE PUSH1 0x1F NOT PUSH1 0x1F DUP3 ADD AND DUP3 ADD DUP1 PUSH1 0x40 MSTORE POP DUP2 ADD SWAP1 PUSH2 0x1245 SWAP2 SWAP1 PUSH2 0x4DF5 JUMP JUMPDEST PUSH2 0x40DD JUMP JUMPDEST PUSH1 0x3 PUSH1 0x0 SWAP1 SLOAD SWAP1 PUSH2 0x100 EXP SWAP1 DIV PUSH20 0xFFFFFFFFFFFFFFFFFFFFFFFFFFFFFFFFFFFFFFFF AND PUSH20 0xFFFFFFFFFFFFFFFFFFFFFFFFFFFFFFFFFFFFFFFF AND PUSH4 0xA9059CBB CALLER DUP8 PUSH1 0x40 MLOAD DUP4 PUSH4 0xFFFFFFFF AND PUSH1 0xE0 SHL DUP2 MSTORE PUSH1 0x4 ADD PUSH2 0x12A7 SWAP3 SWAP2 SWAP1 PUSH2 0x4D5E JUMP JUMPDEST PUSH1 0x20 PUSH1 0x40 MLOAD DUP1 DUP4 SUB DUP2 PUSH1 0x0 DUP8 GAS CALL ISZERO DUP1 ISZERO PUSH2 0x12C6 JUMPI RETURNDATASIZE PUSH1 0x0 DUP1 RETURNDATACOPY RETURNDATASIZE PUSH1 0x0 REVERT JUMPDEST POP POP POP POP PUSH1 0x40 MLOAD RETURNDATASIZE PUSH1 0x1F NOT PUSH1 0x1F DUP3 ADD AND DUP3 ADD DUP1 PUSH1 0x40 MSTORE POP DUP2 ADD SWAP1 PUSH2 0x12EA SWAP2 SWAP1 PUSH2 0x4DB3 JUMP JUMPDEST POP CALLER PUSH20 0xFFFFFFFFFFFFFFFFFFFFFFFFFFFFFFFFFFFFFFFF AND PUSH2 0x8FC DUP8 SWAP1 DUP2 ISZERO MUL SWAP1 PUSH1 0x40 MLOAD PUSH1 0x0 PUSH1 0x40 MLOAD DUP1 DUP4 SUB DUP2 DUP6 DUP9 DUP9 CALL SWAP4 POP POP POP POP ISZERO DUP1 ISZERO PUSH2 0x1331 JUMPI RETURNDATASIZE PUSH1 0x0 DUP1 RETURNDATACOPY RETURNDATASIZE PUSH1 0x0 REVERT JUMPDEST POP SELFBALANCE PUSH1 0x5 DUP2 SWAP1 SSTORE POP PUSH1 0x3 PUSH1 0x0 SWAP1 SLOAD SWAP1 PUSH2 0x100 EXP SWAP1 DIV PUSH20 0xFFFFFFFFFFFFFFFFFFFFFFFFFFFFFFFFFFFFFFFF AND PUSH20 0xFFFFFFFFFFFFFFFFFFFFFFFFFFFFFFFFFFFFFFFF AND PUSH4 0x70A08231 ADDRESS PUSH1 0x40 MLOAD DUP3 PUSH4 0xFFFFFFFF AND PUSH1 0xE0 SHL DUP2 MSTORE PUSH1 0x4 ADD PUSH2 0x1394 SWAP2 SWAP1 PUSH2 0x4763 JUMP JUMPDEST PUSH1 0x20 PUSH1 0x40 MLOAD DUP1 DUP4 SUB DUP2 DUP7 GAS STATICCALL ISZERO DUP1 ISZERO PUSH2 0x13B1 JUMPI RETURNDATASIZE PUSH1 0x0 DUP1 RETURNDATACOPY RETURNDATASIZE PUSH1 0x0 REVERT JUMPDEST POP POP POP POP PUSH1 0x40 MLOAD RETURNDATASIZE PUSH1 0x1F NOT PUSH1 0x1F DUP3 ADD AND DUP3 ADD DUP1 PUSH1 0x40 MSTORE POP DUP2 ADD SWAP1 PUSH2 0x13D5 SWAP2 SWAP1 PUSH2 0x4DF5 JUMP JUMPDEST PUSH1 0x4 DUP2 SWAP1 SSTORE POP PUSH1 0x3 PUSH1 0x0 SWAP1 SLOAD SWAP1 PUSH2 0x100 EXP SWAP1 DIV PUSH20 0xFFFFFFFFFFFFFFFFFFFFFFFFFFFFFFFFFFFFFFFF AND PUSH20 0xFFFFFFFFFFFFFFFFFFFFFFFFFFFFFFFFFFFFFFFF AND PUSH4 0x70A08231 ADDRESS PUSH1 0x40 MLOAD DUP3 PUSH4 0xFFFFFFFF AND PUSH1 0xE0 SHL DUP2 MSTORE PUSH1 0x4 ADD PUSH2 0x1436 SWAP2 SWAP1 PUSH2 0x4763 JUMP JUMPDEST PUSH1 0x20 PUSH1 0x40 MLOAD DUP1 DUP4 SUB DUP2 DUP7 GAS STATICCALL ISZERO DUP1 ISZERO PUSH2 0x1453 JUMPI RETURNDATASIZE PUSH1 0x0 DUP1 RETURNDATACOPY RETURNDATASIZE PUSH1 0x0 REVERT JUMPDEST POP POP POP POP PUSH1 0x40 MLOAD RETURNDATASIZE PUSH1 0x1F NOT PUSH1 0x1F DUP3 ADD AND DUP3 ADD DUP1 PUSH1 0x40 MSTORE POP DUP2 ADD SWAP1 PUSH2 0x1477 SWAP2 SWAP1 PUSH2 0x4DF5 JUMP JUMPDEST SELFBALANCE PUSH2 0x1482 SWAP2 SWAP1 PUSH2 0x4AED JUMP JUMPDEST PUSH1 0xD DUP2 SWAP1 SSTORE POP PUSH2 0x1562 PUSH1 0x40 MLOAD DUP1 PUSH1 0x40 ADD PUSH1 0x40 MSTORE DUP1 PUSH1 0xE DUP2 MSTORE PUSH1 0x20 ADD PUSH32 0x557365722062616C616E63653A20000000000000000000000000000000000000 DUP2 MSTORE POP PUSH1 0x3 PUSH1 0x0 SWAP1 SLOAD SWAP1 PUSH2 0x100 EXP SWAP1 DIV PUSH20 0xFFFFFFFFFFFFFFFFFFFFFFFFFFFFFFFFFFFFFFFF AND PUSH20 0xFFFFFFFFFFFFFFFFFFFFFFFFFFFFFFFFFFFFFFFF AND PUSH4 0x70A08231 CALLER PUSH1 0x40 MLOAD DUP3 PUSH4 0xFFFFFFFF AND PUSH1 0xE0 SHL DUP2 MSTORE PUSH1 0x4 ADD PUSH2 0x151C SWAP2 SWAP1 PUSH2 0x4763 JUMP JUMPDEST PUSH1 0x20 PUSH1 0x40 MLOAD DUP1 DUP4 SUB DUP2 DUP7 GAS STATICCALL ISZERO DUP1 ISZERO PUSH2 0x1539 JUMPI RETURNDATASIZE PUSH1 0x0 DUP1 RETURNDATACOPY RETURNDATASIZE PUSH1 0x0 REVERT JUMPDEST POP POP POP POP PUSH1 0x40 MLOAD RETURNDATASIZE PUSH1 0x1F NOT PUSH1 0x1F DUP3 ADD AND DUP3 ADD DUP1 PUSH1 0x40 MSTORE POP DUP2 ADD SWAP1 PUSH2 0x155D SWAP2 SWAP1 PUSH2 0x4DF5 JUMP JUMPDEST PUSH2 0x40DD JUMP JUMPDEST PUSH2 0x15A3 PUSH1 0x40 MLOAD DUP1 PUSH1 0x40 ADD PUSH1 0x40 MSTORE DUP1 PUSH1 0xF DUP2 MSTORE PUSH1 0x20 ADD PUSH32 0x546F6B656E2072657365727665733A0000000000000000000000000000000000 DUP2 MSTORE POP PUSH1 0x4 SLOAD PUSH2 0x40DD JUMP JUMPDEST PUSH2 0x15E4 PUSH1 0x40 MLOAD DUP1 PUSH1 0x40 ADD PUSH1 0x40 MSTORE DUP1 PUSH1 0x8 DUP2 MSTORE PUSH1 0x20 ADD PUSH32 0x4B2076616C75653A000000000000000000000000000000000000000000000000 DUP2 MSTORE POP PUSH1 0xD SLOAD PUSH2 0x40DD JUMP JUMPDEST PUSH2 0x1625 PUSH1 0x40 MLOAD DUP1 PUSH1 0x40 ADD PUSH1 0x40 MSTORE DUP1 PUSH1 0xD DUP2 MSTORE PUSH1 0x20 ADD PUSH32 0x4554482072657365727665733A00000000000000000000000000000000000000 DUP2 MSTORE POP PUSH1 0x5 SLOAD PUSH2 0x40DD JUMP JUMPDEST PUSH2 0x1668 PUSH1 0x40 MLOAD DUP1 PUSH1 0x40 ADD PUSH1 0x40 MSTORE DUP1 PUSH1 0xD DUP2 MSTORE PUSH1 0x20 ADD PUSH32 0x5573657227732073686172657300000000000000000000000000000000000000 DUP2 MSTORE POP DUP11 PUSH1 0x0 ADD SLOAD PUSH2 0x40DD JUMP JUMPDEST PUSH2 0x16A9 PUSH1 0x40 MLOAD DUP1 PUSH1 0x40 ADD PUSH1 0x40 MSTORE DUP1 PUSH1 0xE DUP2 MSTORE PUSH1 0x20 ADD PUSH32 0x546F74616C207368617265733A20000000000000000000000000000000000000 DUP2 MSTORE POP PUSH1 0xA SLOAD PUSH2 0x40DD JUMP JUMPDEST PUSH2 0x16B1 PUSH2 0x3C57 JUMP JUMPDEST POP POP POP POP POP POP POP POP POP POP POP POP JUMP JUMPDEST PUSH2 0x16C7 PUSH2 0x4358 JUMP JUMPDEST PUSH2 0x16D1 PUSH1 0x0 PUSH2 0x43D6 JUMP JUMPDEST JUMP JUMPDEST PUSH2 0x16DB PUSH2 0x4358 JUMP JUMPDEST PUSH1 0x0 PUSH1 0x4 SLOAD EQ PUSH2 0x1720 JUMPI PUSH1 0x40 MLOAD PUSH32 0x8C379A000000000000000000000000000000000000000000000000000000000 DUP2 MSTORE PUSH1 0x4 ADD PUSH2 0x1717 SWAP1 PUSH2 0x4FFE JUMP JUMPDEST PUSH1 0x40 MLOAD DUP1 SWAP2 SUB SWAP1 REVERT JUMPDEST PUSH1 0x0 PUSH1 0x5 SLOAD EQ PUSH2 0x1765 JUMPI PUSH1 0x40 MLOAD PUSH32 0x8C379A000000000000000000000000000000000000000000000000000000000 DUP2 MSTORE PUSH1 0x4 ADD PUSH2 0x175C SWAP1 PUSH2 0x506A JUMP JUMPDEST PUSH1 0x40 MLOAD DUP1 SWAP2 SUB SWAP1 REVERT JUMPDEST PUSH1 0x0 CALLVALUE GT PUSH2 0x17A8 JUMPI PUSH1 0x40 MLOAD PUSH32 0x8C379A000000000000000000000000000000000000000000000000000000000 DUP2 MSTORE PUSH1 0x4 ADD PUSH2 0x179F SWAP1 PUSH2 0x50D6 JUMP JUMPDEST PUSH1 0x40 MLOAD DUP1 SWAP2 SUB SWAP1 REVERT JUMPDEST PUSH1 0x0 PUSH1 0x3 PUSH1 0x0 SWAP1 SLOAD SWAP1 PUSH2 0x100 EXP SWAP1 DIV PUSH20 0xFFFFFFFFFFFFFFFFFFFFFFFFFFFFFFFFFFFFFFFF AND PUSH20 0xFFFFFFFFFFFFFFFFFFFFFFFFFFFFFFFFFFFFFFFF AND PUSH4 0x70A08231 CALLER PUSH1 0x40 MLOAD DUP3 PUSH4 0xFFFFFFFF AND PUSH1 0xE0 SHL DUP2 MSTORE PUSH1 0x4 ADD PUSH2 0x1805 SWAP2 SWAP1 PUSH2 0x4763 JUMP JUMPDEST PUSH1 0x20 PUSH1 0x40 MLOAD DUP1 DUP4 SUB DUP2 DUP7 GAS STATICCALL ISZERO DUP1 ISZERO PUSH2 0x1822 JUMPI RETURNDATASIZE PUSH1 0x0 DUP1 RETURNDATACOPY RETURNDATASIZE PUSH1 0x0 REVERT JUMPDEST POP POP POP POP PUSH1 0x40 MLOAD RETURNDATASIZE PUSH1 0x1F NOT PUSH1 0x1F DUP3 ADD AND DUP3 ADD DUP1 PUSH1 0x40 MSTORE POP DUP2 ADD SWAP1 PUSH2 0x1846 SWAP2 SWAP1 PUSH2 0x4DF5 JUMP JUMPDEST SWAP1 POP DUP1 DUP3 GT ISZERO PUSH2 0x188B JUMPI PUSH1 0x40 MLOAD PUSH32 0x8C379A000000000000000000000000000000000000000000000000000000000 DUP2 MSTORE PUSH1 0x4 ADD PUSH2 0x1882 SWAP1 PUSH2 0x5168 JUMP JUMPDEST PUSH1 0x40 MLOAD DUP1 SWAP2 SUB SWAP1 REVERT JUMPDEST PUSH1 0x0 DUP3 GT PUSH2 0x18CE JUMPI PUSH1 0x40 MLOAD PUSH32 0x8C379A000000000000000000000000000000000000000000000000000000000 DUP2 MSTORE PUSH1 0x4 ADD PUSH2 0x18C5 SWAP1 PUSH2 0x51D4 JUMP JUMPDEST PUSH1 0x40 MLOAD DUP1 SWAP2 SUB SWAP1 REVERT JUMPDEST PUSH1 0x3 PUSH1 0x0 SWAP1 SLOAD SWAP1 PUSH2 0x100 EXP SWAP1 DIV PUSH20 0xFFFFFFFFFFFFFFFFFFFFFFFFFFFFFFFFFFFFFFFF AND PUSH20 0xFFFFFFFFFFFFFFFFFFFFFFFFFFFFFFFFFFFFFFFF AND PUSH4 0x23B872DD CALLER ADDRESS DUP6 PUSH1 0x40 MLOAD DUP5 PUSH4 0xFFFFFFFF AND PUSH1 0xE0 SHL DUP2 MSTORE PUSH1 0x4 ADD PUSH2 0x192D SWAP4 SWAP3 SWAP2 SWAP1 PUSH2 0x51F4 JUMP JUMPDEST PUSH1 0x20 PUSH1 0x40 MLOAD DUP1 DUP4 SUB DUP2 PUSH1 0x0 DUP8 GAS CALL ISZERO DUP1 ISZERO PUSH2 0x194C JUMPI RETURNDATASIZE PUSH1 0x0 DUP1 RETURNDATACOPY RETURNDATASIZE PUSH1 0x0 REVERT JUMPDEST POP POP POP POP PUSH1 0x40 MLOAD RETURNDATASIZE PUSH1 0x1F NOT PUSH1 0x1F DUP3 ADD AND DUP3 ADD DUP1 PUSH1 0x40 MSTORE POP DUP2 ADD SWAP1 PUSH2 0x1970 SWAP2 SWAP1 PUSH2 0x4DB3 JUMP JUMPDEST POP PUSH1 0x3 PUSH1 0x0 SWAP1 SLOAD SWAP1 PUSH2 0x100 EXP SWAP1 DIV PUSH20 0xFFFFFFFFFFFFFFFFFFFFFFFFFFFFFFFFFFFFFFFF AND PUSH20 0xFFFFFFFFFFFFFFFFFFFFFFFFFFFFFFFFFFFFFFFF AND PUSH4 0x70A08231 ADDRESS PUSH1 0x40 MLOAD DUP3 PUSH4 0xFFFFFFFF AND PUSH1 0xE0 SHL DUP2 MSTORE PUSH1 0x4 ADD PUSH2 0x19CC SWAP2 SWAP1 PUSH2 0x4763 JUMP JUMPDEST PUSH1 0x20 PUSH1 0x40 MLOAD DUP1 DUP4 SUB DUP2 DUP7 GAS STATICCALL ISZERO DUP1 ISZERO PUSH2 0x19E9 JUMPI RETURNDATASIZE PUSH1 0x0 DUP1 RETURNDATACOPY RETURNDATASIZE PUSH1 0x0 REVERT JUMPDEST POP POP POP POP PUSH1 0x40 MLOAD RETURNDATASIZE PUSH1 0x1F NOT PUSH1 0x1F DUP3 ADD AND DUP3 ADD DUP1 PUSH1 0x40 MSTORE POP DUP2 ADD SWAP1 PUSH2 0x1A0D SWAP2 SWAP1 PUSH2 0x4DF5 JUMP JUMPDEST PUSH1 0x4 DUP2 SWAP1 SSTORE POP CALLVALUE PUSH1 0x5 DUP2 SWAP1 SSTORE POP PUSH1 0x5 SLOAD PUSH1 0x4 SLOAD PUSH2 0x1A2A SWAP2 SWAP1 PUSH2 0x4AED JUMP JUMPDEST PUSH1 0xD DUP2 SWAP1 SSTORE POP PUSH3 0x186A0 PUSH1 0xA DUP2 SWAP1 SSTORE POP PUSH1 0x0 PUSH1 0x8 PUSH1 0x0 CALLER PUSH20 0xFFFFFFFFFFFFFFFFFFFFFFFFFFFFFFFFFFFFFFFF AND PUSH20 0xFFFFFFFFFFFFFFFFFFFFFFFFFFFFFFFFFFFFFFFF AND DUP2 MSTORE PUSH1 0x20 ADD SWAP1 DUP2 MSTORE PUSH1 0x20 ADD PUSH1 0x0 KECCAK256 SWAP1 POP PUSH1 0x64 DUP2 PUSH1 0x0 ADD DUP2 SWAP1 SSTORE POP POP POP POP JUMP JUMPDEST PUSH2 0x1A94 PUSH2 0x3C57 JUMP JUMPDEST POP PUSH1 0x0 PUSH1 0x8 PUSH1 0x0 CALLER PUSH20 0xFFFFFFFFFFFFFFFFFFFFFFFFFFFFFFFFFFFFFFFF AND PUSH20 0xFFFFFFFFFFFFFFFFFFFFFFFFFFFFFFFFFFFFFFFF AND DUP2 MSTORE PUSH1 0x20 ADD SWAP1 DUP2 MSTORE PUSH1 0x20 ADD PUSH1 0x0 KECCAK256 SWAP1 POP PUSH1 0x0 PUSH2 0x1AE2 PUSH2 0x3F7D JUMP JUMPDEST SWAP1 POP PUSH2 0x1B23 PUSH1 0x40 MLOAD DUP1 PUSH1 0x40 ADD PUSH1 0x40 MSTORE DUP1 PUSH1 0xE DUP2 MSTORE PUSH1 0x20 ADD PUSH32 0x657468546F6B656E526174653A20000000000000000000000000000000000000 DUP2 MSTORE POP DUP3 PUSH2 0x40DD JUMP JUMPDEST PUSH2 0x1B62 PUSH1 0x40 MLOAD DUP1 PUSH1 0x40 ADD PUSH1 0x40 MSTORE DUP1 PUSH1 0x9 DUP2 MSTORE PUSH1 0x20 ADD PUSH32 0x6D6178526174653A200000000000000000000000000000000000000000000000 DUP2 MSTORE POP DUP6 PUSH2 0x40DD JUMP JUMPDEST PUSH2 0x1BA1 PUSH1 0x40 MLOAD DUP1 PUSH1 0x40 ADD PUSH1 0x40 MSTORE DUP1 PUSH1 0x9 DUP2 MSTORE PUSH1 0x20 ADD PUSH32 0x6D696E526174653A200000000000000000000000000000000000000000000000 DUP2 MSTORE POP DUP5 PUSH2 0x40DD JUMP JUMPDEST DUP4 PUSH1 0xF SLOAD DUP3 PUSH2 0x1BB0 SWAP2 SWAP1 PUSH2 0x4A27 JUMP JUMPDEST GT ISZERO PUSH2 0x1BF1 JUMPI PUSH1 0x40 MLOAD PUSH32 0x8C379A000000000000000000000000000000000000000000000000000000000 DUP2 MSTORE PUSH1 0x4 ADD PUSH2 0x1BE8 SWAP1 PUSH2 0x4ACD JUMP JUMPDEST PUSH1 0x40 MLOAD DUP1 SWAP2 SUB SWAP1 REVERT JUMPDEST DUP3 PUSH1 0xF SLOAD DUP3 PUSH2 0x1C00 SWAP2 SWAP1 PUSH2 0x4B8F JUMP JUMPDEST LT ISZERO PUSH2 0x1C41 JUMPI PUSH1 0x40 MLOAD PUSH32 0x8C379A000000000000000000000000000000000000000000000000000000000 DUP2 MSTORE PUSH1 0x4 ADD PUSH2 0x1C38 SWAP1 PUSH2 0x4E94 JUMP JUMPDEST PUSH1 0x40 MLOAD DUP1 SWAP2 SUB SWAP1 REVERT JUMPDEST PUSH1 0x0 DUP6 GT PUSH2 0x1C84 JUMPI PUSH1 0x40 MLOAD PUSH32 0x8C379A000000000000000000000000000000000000000000000000000000000 DUP2 MSTORE PUSH1 0x4 ADD PUSH2 0x1C7B SWAP1 PUSH2 0x529D JUMP JUMPDEST PUSH1 0x40 MLOAD DUP1 SWAP2 SUB SWAP1 REVERT JUMPDEST PUSH1 0x5 SLOAD DUP6 LT PUSH2 0x1CC8 JUMPI PUSH1 0x40 MLOAD PUSH32 0x8C379A000000000000000000000000000000000000000000000000000000000 DUP2 MSTORE PUSH1 0x4 ADD PUSH2 0x1CBF SWAP1 PUSH2 0x5309 JUMP JUMPDEST PUSH1 0x40 MLOAD DUP1 SWAP2 SUB SWAP1 REVERT JUMPDEST PUSH1 0x0 PUSH1 0xA SLOAD PUSH1 0xE SLOAD DUP5 PUSH1 0x0 ADD SLOAD PUSH2 0x1CDF SWAP2 SWAP1 PUSH2 0x4AED JUMP JUMPDEST PUSH2 0x1CE9 SWAP2 SWAP1 PUSH2 0x4B5E JUMP JUMPDEST SWAP1 POP PUSH1 0x0 PUSH1 0x5 SLOAD PUSH1 0xE SLOAD DUP9 PUSH2 0x1CFE SWAP2 SWAP1 PUSH2 0x4AED JUMP JUMPDEST PUSH2 0x1D08 SWAP2 SWAP1 PUSH2 0x4B5E JUMP JUMPDEST SWAP1 POP DUP1 DUP3 LT ISZERO PUSH2 0x1D4D JUMPI PUSH1 0x40 MLOAD PUSH32 0x8C379A000000000000000000000000000000000000000000000000000000000 DUP2 MSTORE PUSH1 0x4 ADD PUSH2 0x1D44 SWAP1 PUSH2 0x5375 JUMP JUMPDEST PUSH1 0x40 MLOAD DUP1 SWAP2 SUB SWAP1 REVERT JUMPDEST PUSH1 0x0 PUSH1 0x5 SLOAD DUP9 PUSH1 0x4 SLOAD PUSH2 0x1D60 SWAP2 SWAP1 PUSH2 0x4AED JUMP JUMPDEST PUSH2 0x1D6A SWAP2 SWAP1 PUSH2 0x4B5E JUMP JUMPDEST SWAP1 POP PUSH1 0x4 SLOAD DUP2 LT PUSH2 0x1DB0 JUMPI PUSH1 0x40 MLOAD PUSH32 0x8C379A000000000000000000000000000000000000000000000000000000000 DUP2 MSTORE PUSH1 0x4 ADD PUSH2 0x1DA7 SWAP1 PUSH2 0x4F92 JUMP JUMPDEST PUSH1 0x40 MLOAD DUP1 SWAP2 SUB SWAP1 REVERT JUMPDEST PUSH2 0x1DEF PUSH1 0x40 MLOAD DUP1 PUSH1 0x40 ADD PUSH1 0x40 MSTORE DUP1 PUSH1 0x19 DUP2 MSTORE PUSH1 0x20 ADD PUSH32 0x7468697320657175616C7320746F6B656E73416D6F756E743A00000000000000 DUP2 MSTORE POP DUP3 PUSH2 0x40DD JUMP JUMPDEST PUSH1 0x0 PUSH2 0x1DFA DUP10 PUSH2 0x3C2E JUMP JUMPDEST SWAP1 POP PUSH1 0x0 PUSH1 0xA SLOAD DUP8 PUSH1 0x1 ADD SLOAD DUP4 PUSH2 0x1E11 SWAP2 SWAP1 PUSH2 0x4AED JUMP JUMPDEST PUSH2 0x1E1B SWAP2 SWAP1 PUSH2 0x4B5E JUMP JUMPDEST SWAP1 POP PUSH1 0x0 PUSH1 0xA SLOAD DUP9 PUSH1 0x2 ADD SLOAD DUP5 PUSH2 0x1E32 SWAP2 SWAP1 PUSH2 0x4AED JUMP JUMPDEST PUSH2 0x1E3C SWAP2 SWAP1 PUSH2 0x4B5E JUMP JUMPDEST SWAP1 POP DUP3 PUSH1 0xA PUSH1 0x0 DUP3 DUP3 SLOAD PUSH2 0x1E50 SWAP2 SWAP1 PUSH2 0x4A27 JUMP JUMPDEST SWAP3 POP POP DUP2 SWAP1 SSTORE POP DUP2 PUSH1 0x7 PUSH1 0x0 DUP3 DUP3 SLOAD PUSH2 0x1E69 SWAP2 SWAP1 PUSH2 0x4A27 JUMP JUMPDEST SWAP3 POP POP DUP2 SWAP1 SSTORE POP DUP1 PUSH1 0x6 PUSH1 0x0 DUP3 DUP3 SLOAD PUSH2 0x1E82 SWAP2 SWAP1 PUSH2 0x4A27 JUMP JUMPDEST SWAP3 POP POP DUP2 SWAP1 SSTORE POP DUP3 DUP9 PUSH1 0x0 ADD PUSH1 0x0 DUP3 DUP3 SLOAD PUSH2 0x1E9D SWAP2 SWAP1 PUSH2 0x4A27 JUMP JUMPDEST SWAP3 POP POP DUP2 SWAP1 SSTORE POP PUSH1 0x0 DUP1 PUSH1 0x0 DUP11 PUSH1 0x0 ADD SLOAD SUB PUSH2 0x1EB8 JUMPI PUSH1 0x1 SWAP2 POP JUMPDEST PUSH1 0x0 JUMPDEST PUSH1 0x9 DUP1 SLOAD SWAP1 POP DUP2 LT ISZERO PUSH2 0x1F50 JUMPI CALLER PUSH20 0xFFFFFFFFFFFFFFFFFFFFFFFFFFFFFFFFFFFFFFFF AND PUSH1 0x9 DUP3 DUP2 SLOAD DUP2 LT PUSH2 0x1EF3 JUMPI PUSH2 0x1EF2 PUSH2 0x4CE7 JUMP JUMPDEST JUMPDEST SWAP1 PUSH1 0x0 MSTORE PUSH1 0x20 PUSH1 0x0 KECCAK256 ADD PUSH1 0x0 SWAP1 SLOAD SWAP1 PUSH2 0x100 EXP SWAP1 DIV PUSH20 0xFFFFFFFFFFFFFFFFFFFFFFFFFFFFFFFFFFFFFFFF AND PUSH20 0xFFFFFFFFFFFFFFFFFFFFFFFFFFFFFFFFFFFFFFFF AND SUB PUSH2 0x1F3D JUMPI DUP1 SWAP2 POP JUMPDEST DUP1 DUP1 PUSH2 0x1F48 SWAP1 PUSH2 0x4D16 JUMP JUMPDEST SWAP2 POP POP PUSH2 0x1EBB JUMP JUMPDEST POP DUP2 ISZERO PUSH2 0x1F61 JUMPI PUSH2 0x1F60 DUP2 PUSH2 0x421B JUMP JUMPDEST JUMPDEST PUSH1 0x3 PUSH1 0x0 SWAP1 SLOAD SWAP1 PUSH2 0x100 EXP SWAP1 DIV PUSH20 0xFFFFFFFFFFFFFFFFFFFFFFFFFFFFFFFFFFFFFFFF AND PUSH20 0xFFFFFFFFFFFFFFFFFFFFFFFFFFFFFFFFFFFFFFFF AND PUSH4 0xA9059CBB CALLER DUP9 PUSH1 0x40 MLOAD DUP4 PUSH4 0xFFFFFFFF AND PUSH1 0xE0 SHL DUP2 MSTORE PUSH1 0x4 ADD PUSH2 0x1FBE SWAP3 SWAP2 SWAP1 PUSH2 0x4D5E JUMP JUMPDEST PUSH1 0x20 PUSH1 0x40 MLOAD DUP1 DUP4 SUB DUP2 PUSH1 0x0 DUP8 GAS CALL ISZERO DUP1 ISZERO PUSH2 0x1FDD JUMPI RETURNDATASIZE PUSH1 0x0 DUP1 RETURNDATACOPY RETURNDATASIZE PUSH1 0x0 REVERT JUMPDEST POP POP POP POP PUSH1 0x40 MLOAD RETURNDATASIZE PUSH1 0x1F NOT PUSH1 0x1F DUP3 ADD AND DUP3 ADD DUP1 PUSH1 0x40 MSTORE POP DUP2 ADD SWAP1 PUSH2 0x2001 SWAP2 SWAP1 PUSH2 0x4DB3 JUMP JUMPDEST POP CALLER PUSH20 0xFFFFFFFFFFFFFFFFFFFFFFFFFFFFFFFFFFFFFFFF AND PUSH2 0x8FC DUP15 SWAP1 DUP2 ISZERO MUL SWAP1 PUSH1 0x40 MLOAD PUSH1 0x0 PUSH1 0x40 MLOAD DUP1 DUP4 SUB DUP2 DUP6 DUP9 DUP9 CALL SWAP4 POP POP POP POP ISZERO DUP1 ISZERO PUSH2 0x2048 JUMPI RETURNDATASIZE PUSH1 0x0 DUP1 RETURNDATACOPY RETURNDATASIZE PUSH1 0x0 REVERT JUMPDEST POP SELFBALANCE PUSH1 0x5 DUP2 SWAP1 SSTORE POP PUSH1 0x3 PUSH1 0x0 SWAP1 SLOAD SWAP1 PUSH2 0x100 EXP SWAP1 DIV PUSH20 0xFFFFFFFFFFFFFFFFFFFFFFFFFFFFFFFFFFFFFFFF AND PUSH20 0xFFFFFFFFFFFFFFFFFFFFFFFFFFFFFFFFFFFFFFFF AND PUSH4 0x70A08231 ADDRESS PUSH1 0x40 MLOAD DUP3 PUSH4 0xFFFFFFFF AND PUSH1 0xE0 SHL DUP2 MSTORE PUSH1 0x4 ADD PUSH2 0x20AB SWAP2 SWAP1 PUSH2 0x4763 JUMP JUMPDEST PUSH1 0x20 PUSH1 0x40 MLOAD DUP1 DUP4 SUB DUP2 DUP7 GAS STATICCALL ISZERO DUP1 ISZERO PUSH2 0x20C8 JUMPI RETURNDATASIZE PUSH1 0x0 DUP1 RETURNDATACOPY RETURNDATASIZE PUSH1 0x0 REVERT JUMPDEST POP POP POP POP PUSH1 0x40 MLOAD RETURNDATASIZE PUSH1 0x1F NOT PUSH1 0x1F DUP3 ADD AND DUP3 ADD DUP1 PUSH1 0x40 MSTORE POP DUP2 ADD SWAP1 PUSH2 0x20EC SWAP2 SWAP1 PUSH2 0x4DF5 JUMP JUMPDEST PUSH1 0x4 DUP2 SWAP1 SSTORE POP PUSH1 0x3 PUSH1 0x0 SWAP1 SLOAD SWAP1 PUSH2 0x100 EXP SWAP1 DIV PUSH20 0xFFFFFFFFFFFFFFFFFFFFFFFFFFFFFFFFFFFFFFFF AND PUSH20 0xFFFFFFFFFFFFFFFFFFFFFFFFFFFFFFFFFFFFFFFF AND PUSH4 0x70A08231 ADDRESS PUSH1 0x40 MLOAD DUP3 PUSH4 0xFFFFFFFF AND PUSH1 0xE0 SHL DUP2 MSTORE PUSH1 0x4 ADD PUSH2 0x214D SWAP2 SWAP1 PUSH2 0x4763 JUMP JUMPDEST PUSH1 0x20 PUSH1 0x40 MLOAD DUP1 DUP4 SUB DUP2 DUP7 GAS STATICCALL ISZERO DUP1 ISZERO PUSH2 0x216A JUMPI RETURNDATASIZE PUSH1 0x0 DUP1 RETURNDATACOPY RETURNDATASIZE PUSH1 0x0 REVERT JUMPDEST POP POP POP POP PUSH1 0x40 MLOAD RETURNDATASIZE PUSH1 0x1F NOT PUSH1 0x1F DUP3 ADD AND DUP3 ADD DUP1 PUSH1 0x40 MSTORE POP DUP2 ADD SWAP1 PUSH2 0x218E SWAP2 SWAP1 PUSH2 0x4DF5 JUMP JUMPDEST SELFBALANCE PUSH2 0x2199 SWAP2 SWAP1 PUSH2 0x4AED JUMP JUMPDEST PUSH1 0xD DUP2 SWAP1 SSTORE POP PUSH2 0x2279 PUSH1 0x40 MLOAD DUP1 PUSH1 0x40 ADD PUSH1 0x40 MSTORE DUP1 PUSH1 0xE DUP2 MSTORE PUSH1 0x20 ADD PUSH32 0x557365722062616C616E63653A20000000000000000000000000000000000000 DUP2 MSTORE POP PUSH1 0x3 PUSH1 0x0 SWAP1 SLOAD SWAP1 PUSH2 0x100 EXP SWAP1 DIV PUSH20 0xFFFFFFFFFFFFFFFFFFFFFFFFFFFFFFFFFFFFFFFF AND PUSH20 0xFFFFFFFFFFFFFFFFFFFFFFFFFFFFFFFFFFFFFFFF AND PUSH4 0x70A08231 CALLER PUSH1 0x40 MLOAD DUP3 PUSH4 0xFFFFFFFF AND PUSH1 0xE0 SHL DUP2 MSTORE PUSH1 0x4 ADD PUSH2 0x2233 SWAP2 SWAP1 PUSH2 0x4763 JUMP JUMPDEST PUSH1 0x20 PUSH1 0x40 MLOAD DUP1 DUP4 SUB DUP2 DUP7 GAS STATICCALL ISZERO DUP1 ISZERO PUSH2 0x2250 JUMPI RETURNDATASIZE PUSH1 0x0 DUP1 RETURNDATACOPY RETURNDATASIZE PUSH1 0x0 REVERT JUMPDEST POP POP POP POP PUSH1 0x40 MLOAD RETURNDATASIZE PUSH1 0x1F NOT PUSH1 0x1F DUP3 ADD AND DUP3 ADD DUP1 PUSH1 0x40 MSTORE POP DUP2 ADD SWAP1 PUSH2 0x2274 SWAP2 SWAP1 PUSH2 0x4DF5 JUMP JUMPDEST PUSH2 0x40DD JUMP JUMPDEST PUSH2 0x22BA PUSH1 0x40 MLOAD DUP1 PUSH1 0x40 ADD PUSH1 0x40 MSTORE DUP1 PUSH1 0xF DUP2 MSTORE PUSH1 0x20 ADD PUSH32 0x546F6B656E2072657365727665733A0000000000000000000000000000000000 DUP2 MSTORE POP PUSH1 0x4 SLOAD PUSH2 0x40DD JUMP JUMPDEST PUSH2 0x22FB PUSH1 0x40 MLOAD DUP1 PUSH1 0x40 ADD PUSH1 0x40 MSTORE DUP1 PUSH1 0x8 DUP2 MSTORE PUSH1 0x20 ADD PUSH32 0x4B2076616C75653A000000000000000000000000000000000000000000000000 DUP2 MSTORE POP PUSH1 0xD SLOAD PUSH2 0x40DD JUMP JUMPDEST PUSH2 0x233C PUSH1 0x40 MLOAD DUP1 PUSH1 0x40 ADD PUSH1 0x40 MSTORE DUP1 PUSH1 0xD DUP2 MSTORE PUSH1 0x20 ADD PUSH32 0x4554482072657365727665733A00000000000000000000000000000000000000 DUP2 MSTORE POP PUSH1 0x5 SLOAD PUSH2 0x40DD JUMP JUMPDEST PUSH2 0x237D PUSH1 0x40 MLOAD DUP1 PUSH1 0x40 ADD PUSH1 0x40 MSTORE DUP1 PUSH1 0xE DUP2 MSTORE PUSH1 0x20 ADD PUSH32 0x546F74616C207368617265733A20000000000000000000000000000000000000 DUP2 MSTORE POP PUSH1 0xA SLOAD PUSH2 0x40DD JUMP JUMPDEST PUSH2 0x23C0 PUSH1 0x40 MLOAD DUP1 PUSH1 0x40 ADD PUSH1 0x40 MSTORE DUP1 PUSH1 0xD DUP2 MSTORE PUSH1 0x20 ADD PUSH32 0x5573657227732073686172657300000000000000000000000000000000000000 DUP2 MSTORE POP DUP12 PUSH1 0x0 ADD SLOAD PUSH2 0x40DD JUMP JUMPDEST PUSH2 0x23C8 PUSH2 0x3C57 JUMP JUMPDEST POP POP POP POP POP POP POP POP POP POP POP POP POP POP JUMP JUMPDEST PUSH1 0x0 DUP1 PUSH1 0x0 SWAP1 SLOAD SWAP1 PUSH2 0x100 EXP SWAP1 DIV PUSH20 0xFFFFFFFFFFFFFFFFFFFFFFFFFFFFFFFFFFFFFFFF AND SWAP1 POP SWAP1 JUMP JUMPDEST PUSH2 0x2409 PUSH2 0x3C57 JUMP JUMPDEST POP PUSH1 0x0 PUSH1 0x8 PUSH1 0x0 CALLER PUSH20 0xFFFFFFFFFFFFFFFFFFFFFFFFFFFFFFFFFFFFFFFF AND PUSH20 0xFFFFFFFFFFFFFFFFFFFFFFFFFFFFFFFFFFFFFFFF AND DUP2 MSTORE PUSH1 0x20 ADD SWAP1 DUP2 MSTORE PUSH1 0x20 ADD PUSH1 0x0 KECCAK256 SWAP1 POP PUSH2 0x248E PUSH1 0x40 MLOAD DUP1 PUSH1 0x40 ADD PUSH1 0x40 MSTORE DUP1 PUSH1 0xF DUP2 MSTORE PUSH1 0x20 ADD PUSH32 0x546F6B656E2072657365727665733A0000000000000000000000000000000000 DUP2 MSTORE POP PUSH1 0x4 SLOAD PUSH2 0x40DD JUMP JUMPDEST PUSH2 0x24CF PUSH1 0x40 MLOAD DUP1 PUSH1 0x40 ADD PUSH1 0x40 MSTORE DUP1 PUSH1 0x8 DUP2 MSTORE PUSH1 0x20 ADD PUSH32 0x4B2076616C75653A000000000000000000000000000000000000000000000000 DUP2 MSTORE POP PUSH1 0xD SLOAD PUSH2 0x40DD JUMP JUMPDEST PUSH2 0x2510 PUSH1 0x40 MLOAD DUP1 PUSH1 0x40 ADD PUSH1 0x40 MSTORE DUP1 PUSH1 0xD DUP2 MSTORE PUSH1 0x20 ADD PUSH32 0x4554482072657365727665733A00000000000000000000000000000000000000 DUP2 MSTORE POP PUSH1 0x5 SLOAD PUSH2 0x40DD JUMP JUMPDEST PUSH2 0x2553 PUSH1 0x40 MLOAD DUP1 PUSH1 0x40 ADD PUSH1 0x40 MSTORE DUP1 PUSH1 0xD DUP2 MSTORE PUSH1 0x20 ADD PUSH32 0x5573657227732073686172657300000000000000000000000000000000000000 DUP2 MSTORE POP DUP3 PUSH1 0x0 ADD SLOAD PUSH2 0x40DD JUMP JUMPDEST PUSH2 0x2594 PUSH1 0x40 MLOAD DUP1 PUSH1 0x40 ADD PUSH1 0x40 MSTORE DUP1 PUSH1 0xE DUP2 MSTORE PUSH1 0x20 ADD PUSH32 0x546F74616C207368617265733A20000000000000000000000000000000000000 DUP2 MSTORE POP PUSH1 0xA SLOAD PUSH2 0x40DD JUMP JUMPDEST PUSH2 0x25D3 PUSH1 0x40 MLOAD DUP1 PUSH1 0x40 ADD PUSH1 0x40 MSTORE DUP1 PUSH1 0x1A DUP2 MSTORE PUSH1 0x20 ADD PUSH32 0x416464206C6971756964697479206F6620616D6F756E74203A20000000000000 DUP2 MSTORE POP CALLVALUE PUSH2 0x40DD JUMP JUMPDEST PUSH1 0x0 PUSH2 0x25DD PUSH2 0x3F7D JUMP JUMPDEST SWAP1 POP PUSH2 0x261E PUSH1 0x40 MLOAD DUP1 PUSH1 0x40 ADD PUSH1 0x40 MSTORE DUP1 PUSH1 0xE DUP2 MSTORE PUSH1 0x20 ADD PUSH32 0x657468546F6B656E526174653A20000000000000000000000000000000000000 DUP2 MSTORE POP DUP3 PUSH2 0x40DD JUMP JUMPDEST PUSH2 0x265D PUSH1 0x40 MLOAD DUP1 PUSH1 0x40 ADD PUSH1 0x40 MSTORE DUP1 PUSH1 0x9 DUP2 MSTORE PUSH1 0x20 ADD PUSH32 0x6D6178526174653A200000000000000000000000000000000000000000000000 DUP2 MSTORE POP DUP6 PUSH2 0x40DD JUMP JUMPDEST PUSH2 0x26A9 PUSH1 0x40 MLOAD DUP1 PUSH1 0x40 ADD PUSH1 0x40 MSTORE DUP1 PUSH1 0x1E DUP2 MSTORE PUSH1 0x20 ADD PUSH32 0x72617465202D2065786368616E6765507265636973696F6E446966663A200000 DUP2 MSTORE POP PUSH1 0xF SLOAD DUP4 PUSH2 0x26A4 SWAP2 SWAP1 PUSH2 0x4A27 JUMP JUMPDEST PUSH2 0x40DD JUMP JUMPDEST PUSH2 0x26E8 PUSH1 0x40 MLOAD DUP1 PUSH1 0x40 ADD PUSH1 0x40 MSTORE DUP1 PUSH1 0x9 DUP2 MSTORE PUSH1 0x20 ADD PUSH32 0x6D696E526174653A200000000000000000000000000000000000000000000000 DUP2 MSTORE POP DUP5 PUSH2 0x40DD JUMP JUMPDEST PUSH2 0x2734 PUSH1 0x40 MLOAD DUP1 PUSH1 0x40 ADD PUSH1 0x40 MSTORE DUP1 PUSH1 0x1E DUP2 MSTORE PUSH1 0x20 ADD PUSH32 0x72617465202B2065786368616E6765507265636973696F6E446966663A200000 DUP2 MSTORE POP PUSH1 0xF SLOAD DUP4 PUSH2 0x272F SWAP2 SWAP1 PUSH2 0x4B8F JUMP JUMPDEST PUSH2 0x40DD JUMP JUMPDEST DUP4 PUSH1 0xF SLOAD DUP3 PUSH2 0x2743 SWAP2 SWAP1 PUSH2 0x4A27 JUMP JUMPDEST GT ISZERO PUSH2 0x2784 JUMPI PUSH1 0x40 MLOAD PUSH32 0x8C379A000000000000000000000000000000000000000000000000000000000 DUP2 MSTORE PUSH1 0x4 ADD PUSH2 0x277B SWAP1 PUSH2 0x4ACD JUMP JUMPDEST PUSH1 0x40 MLOAD DUP1 SWAP2 SUB SWAP1 REVERT JUMPDEST DUP3 PUSH1 0xF SLOAD DUP3 PUSH2 0x2793 SWAP2 SWAP1 PUSH2 0x4B8F JUMP JUMPDEST LT ISZERO PUSH2 0x27D4 JUMPI PUSH1 0x40 MLOAD PUSH32 0x8C379A000000000000000000000000000000000000000000000000000000000 DUP2 MSTORE PUSH1 0x4 ADD PUSH2 0x27CB SWAP1 PUSH2 0x4E94 JUMP JUMPDEST PUSH1 0x40 MLOAD DUP1 SWAP2 SUB SWAP1 REVERT JUMPDEST PUSH1 0x0 CALLVALUE GT PUSH2 0x2817 JUMPI PUSH1 0x40 MLOAD PUSH32 0x8C379A000000000000000000000000000000000000000000000000000000000 DUP2 MSTORE PUSH1 0x4 ADD PUSH2 0x280E SWAP1 PUSH2 0x5407 JUMP JUMPDEST PUSH1 0x40 MLOAD DUP1 SWAP2 SUB SWAP1 REVERT JUMPDEST PUSH1 0x0 PUSH1 0x5 SLOAD PUSH1 0x4 SLOAD CALLVALUE PUSH2 0x282A SWAP2 SWAP1 PUSH2 0x4AED JUMP JUMPDEST PUSH2 0x2834 SWAP2 SWAP1 PUSH2 0x4B5E JUMP JUMPDEST SWAP1 POP PUSH2 0x2875 PUSH1 0x40 MLOAD DUP1 PUSH1 0x40 ADD PUSH1 0x40 MSTORE DUP1 PUSH1 0x19 DUP2 MSTORE PUSH1 0x20 ADD PUSH32 0x7468697320657175616C7320746F6B656E73416D6F756E743A00000000000000 DUP2 MSTORE POP DUP3 PUSH2 0x40DD JUMP JUMPDEST DUP1 PUSH1 0x3 PUSH1 0x0 SWAP1 SLOAD SWAP1 PUSH2 0x100 EXP SWAP1 DIV PUSH20 0xFFFFFFFFFFFFFFFFFFFFFFFFFFFFFFFFFFFFFFFF AND PUSH20 0xFFFFFFFFFFFFFFFFFFFFFFFFFFFFFFFFFFFFFFFF AND PUSH4 0x70A08231 CALLER PUSH1 0x40 MLOAD DUP3 PUSH4 0xFFFFFFFF AND PUSH1 0xE0 SHL DUP2 MSTORE PUSH1 0x4 ADD PUSH2 0x28D1 SWAP2 SWAP1 PUSH2 0x4763 JUMP JUMPDEST PUSH1 0x20 PUSH1 0x40 MLOAD DUP1 DUP4 SUB DUP2 DUP7 GAS STATICCALL ISZERO DUP1 ISZERO PUSH2 0x28EE JUMPI RETURNDATASIZE PUSH1 0x0 DUP1 RETURNDATACOPY RETURNDATASIZE PUSH1 0x0 REVERT JUMPDEST POP POP POP POP PUSH1 0x40 MLOAD RETURNDATASIZE PUSH1 0x1F NOT PUSH1 0x1F DUP3 ADD AND DUP3 ADD DUP1 PUSH1 0x40 MSTORE POP DUP2 ADD SWAP1 PUSH2 0x2912 SWAP2 SWAP1 PUSH2 0x4DF5 JUMP JUMPDEST LT ISZERO PUSH2 0x2953 JUMPI PUSH1 0x40 MLOAD PUSH32 0x8C379A000000000000000000000000000000000000000000000000000000000 DUP2 MSTORE PUSH1 0x4 ADD PUSH2 0x294A SWAP1 PUSH2 0x54BF JUMP JUMPDEST PUSH1 0x40 MLOAD DUP1 SWAP2 SUB SWAP1 REVERT JUMPDEST PUSH2 0x2A2D PUSH1 0x40 MLOAD DUP1 PUSH1 0x40 ADD PUSH1 0x40 MSTORE DUP1 PUSH1 0xF DUP2 MSTORE PUSH1 0x20 ADD PUSH32 0x4265666F726520706179696E673A200000000000000000000000000000000000 DUP2 MSTORE POP PUSH1 0x3 PUSH1 0x0 SWAP1 SLOAD SWAP1 PUSH2 0x100 EXP SWAP1 DIV PUSH20 0xFFFFFFFFFFFFFFFFFFFFFFFFFFFFFFFFFFFFFFFF AND PUSH20 0xFFFFFFFFFFFFFFFFFFFFFFFFFFFFFFFFFFFFFFFF AND PUSH4 0x70A08231 CALLER PUSH1 0x40 MLOAD DUP3 PUSH4 0xFFFFFFFF AND PUSH1 0xE0 SHL DUP2 MSTORE PUSH1 0x4 ADD PUSH2 0x29E7 SWAP2 SWAP1 PUSH2 0x4763 JUMP JUMPDEST PUSH1 0x20 PUSH1 0x40 MLOAD DUP1 DUP4 SUB DUP2 DUP7 GAS STATICCALL ISZERO DUP1 ISZERO PUSH2 0x2A04 JUMPI RETURNDATASIZE PUSH1 0x0 DUP1 RETURNDATACOPY RETURNDATASIZE PUSH1 0x0 REVERT JUMPDEST POP POP POP POP PUSH1 0x40 MLOAD RETURNDATASIZE PUSH1 0x1F NOT PUSH1 0x1F DUP3 ADD AND DUP3 ADD DUP1 PUSH1 0x40 MSTORE POP DUP2 ADD SWAP1 PUSH2 0x2A28 SWAP2 SWAP1 PUSH2 0x4DF5 JUMP JUMPDEST PUSH2 0x40DD JUMP JUMPDEST PUSH1 0x3 PUSH1 0x0 SWAP1 SLOAD SWAP1 PUSH2 0x100 EXP SWAP1 DIV PUSH20 0xFFFFFFFFFFFFFFFFFFFFFFFFFFFFFFFFFFFFFFFF AND PUSH20 0xFFFFFFFFFFFFFFFFFFFFFFFFFFFFFFFFFFFFFFFF AND PUSH4 0x23B872DD CALLER ADDRESS DUP5 PUSH1 0x40 MLOAD DUP5 PUSH4 0xFFFFFFFF AND PUSH1 0xE0 SHL DUP2 MSTORE PUSH1 0x4 ADD PUSH2 0x2A8C SWAP4 SWAP3 SWAP2 SWAP1 PUSH2 0x51F4 JUMP JUMPDEST PUSH1 0x20 PUSH1 0x40 MLOAD DUP1 DUP4 SUB DUP2 PUSH1 0x0 DUP8 GAS CALL ISZERO DUP1 ISZERO PUSH2 0x2AAB JUMPI RETURNDATASIZE PUSH1 0x0 DUP1 RETURNDATACOPY RETURNDATASIZE PUSH1 0x0 REVERT JUMPDEST POP POP POP POP PUSH1 0x40 MLOAD RETURNDATASIZE PUSH1 0x1F NOT PUSH1 0x1F DUP3 ADD AND DUP3 ADD DUP1 PUSH1 0x40 MSTORE POP DUP2 ADD SWAP1 PUSH2 0x2ACF SWAP2 SWAP1 PUSH2 0x4DB3 JUMP JUMPDEST POP PUSH2 0x2BAA PUSH1 0x40 MLOAD DUP1 PUSH1 0x40 ADD PUSH1 0x40 MSTORE DUP1 PUSH1 0x18 DUP2 MSTORE PUSH1 0x20 ADD PUSH32 0x436F6E7472616374206166746572207061796D656E743A200000000000000000 DUP2 MSTORE POP PUSH1 0x3 PUSH1 0x0 SWAP1 SLOAD SWAP1 PUSH2 0x100 EXP SWAP1 DIV PUSH20 0xFFFFFFFFFFFFFFFFFFFFFFFFFFFFFFFFFFFFFFFF AND PUSH20 0xFFFFFFFFFFFFFFFFFFFFFFFFFFFFFFFFFFFFFFFF AND PUSH4 0x70A08231 ADDRESS PUSH1 0x40 MLOAD DUP3 PUSH4 0xFFFFFFFF AND PUSH1 0xE0 SHL DUP2 MSTORE PUSH1 0x4 ADD PUSH2 0x2B64 SWAP2 SWAP1 PUSH2 0x4763 JUMP JUMPDEST PUSH1 0x20 PUSH1 0x40 MLOAD DUP1 DUP4 SUB DUP2 DUP7 GAS STATICCALL ISZERO DUP1 ISZERO PUSH2 0x2B81 JUMPI RETURNDATASIZE PUSH1 0x0 DUP1 RETURNDATACOPY RETURNDATASIZE PUSH1 0x0 REVERT JUMPDEST POP POP POP POP PUSH1 0x40 MLOAD RETURNDATASIZE PUSH1 0x1F NOT PUSH1 0x1F DUP3 ADD AND DUP3 ADD DUP1 PUSH1 0x40 MSTORE POP DUP2 ADD SWAP1 PUSH2 0x2BA5 SWAP2 SWAP1 PUSH2 0x4DF5 JUMP JUMPDEST PUSH2 0x40DD JUMP JUMPDEST PUSH1 0x0 PUSH2 0x2BB5 CALLVALUE PUSH2 0x3C2E JUMP JUMPDEST SWAP1 POP DUP1 PUSH1 0xA PUSH1 0x0 DUP3 DUP3 SLOAD PUSH2 0x2BC9 SWAP2 SWAP1 PUSH2 0x4B8F JUMP JUMPDEST SWAP3 POP POP DUP2 SWAP1 SSTORE POP DUP1 DUP5 PUSH1 0x0 ADD PUSH1 0x0 DUP3 DUP3 SLOAD PUSH2 0x2BE4 SWAP2 SWAP1 PUSH2 0x4B8F JUMP JUMPDEST SWAP3 POP POP DUP2 SWAP1 SSTORE POP PUSH2 0x2C2A PUSH1 0x40 MLOAD DUP1 PUSH1 0x40 ADD PUSH1 0x40 MSTORE DUP1 PUSH1 0xF DUP2 MSTORE PUSH1 0x20 ADD PUSH32 0x53686172657320746F206164643A200000000000000000000000000000000000 DUP2 MSTORE POP DUP3 PUSH2 0x40DD JUMP JUMPDEST SELFBALANCE PUSH1 0x5 DUP2 SWAP1 SSTORE POP PUSH1 0x3 PUSH1 0x0 SWAP1 SLOAD SWAP1 PUSH2 0x100 EXP SWAP1 DIV PUSH20 0xFFFFFFFFFFFFFFFFFFFFFFFFFFFFFFFFFFFFFFFF AND PUSH20 0xFFFFFFFFFFFFFFFFFFFFFFFFFFFFFFFFFFFFFFFF AND PUSH4 0x70A08231 ADDRESS PUSH1 0x40 MLOAD DUP3 PUSH4 0xFFFFFFFF AND PUSH1 0xE0 SHL DUP2 MSTORE PUSH1 0x4 ADD PUSH2 0x2C8C SWAP2 SWAP1 PUSH2 0x4763 JUMP JUMPDEST PUSH1 0x20 PUSH1 0x40 MLOAD DUP1 DUP4 SUB DUP2 DUP7 GAS STATICCALL ISZERO DUP1 ISZERO PUSH2 0x2CA9 JUMPI RETURNDATASIZE PUSH1 0x0 DUP1 RETURNDATACOPY RETURNDATASIZE PUSH1 0x0 REVERT JUMPDEST POP POP POP POP PUSH1 0x40 MLOAD RETURNDATASIZE PUSH1 0x1F NOT PUSH1 0x1F DUP3 ADD AND DUP3 ADD DUP1 PUSH1 0x40 MSTORE POP DUP2 ADD SWAP1 PUSH2 0x2CCD SWAP2 SWAP1 PUSH2 0x4DF5 JUMP JUMPDEST PUSH1 0x4 DUP2 SWAP1 SSTORE POP PUSH1 0x3 PUSH1 0x0 SWAP1 SLOAD SWAP1 PUSH2 0x100 EXP SWAP1 DIV PUSH20 0xFFFFFFFFFFFFFFFFFFFFFFFFFFFFFFFFFFFFFFFF AND PUSH20 0xFFFFFFFFFFFFFFFFFFFFFFFFFFFFFFFFFFFFFFFF AND PUSH4 0x70A08231 ADDRESS PUSH1 0x40 MLOAD DUP3 PUSH4 0xFFFFFFFF AND PUSH1 0xE0 SHL DUP2 MSTORE PUSH1 0x4 ADD PUSH2 0x2D2E SWAP2 SWAP1 PUSH2 0x4763 JUMP JUMPDEST PUSH1 0x20 PUSH1 0x40 MLOAD DUP1 DUP4 SUB DUP2 DUP7 GAS STATICCALL ISZERO DUP1 ISZERO PUSH2 0x2D4B JUMPI RETURNDATASIZE PUSH1 0x0 DUP1 RETURNDATACOPY RETURNDATASIZE PUSH1 0x0 REVERT JUMPDEST POP POP POP POP PUSH1 0x40 MLOAD RETURNDATASIZE PUSH1 0x1F NOT PUSH1 0x1F DUP3 ADD AND DUP3 ADD DUP1 PUSH1 0x40 MSTORE POP DUP2 ADD SWAP1 PUSH2 0x2D6F SWAP2 SWAP1 PUSH2 0x4DF5 JUMP JUMPDEST SELFBALANCE PUSH2 0x2D7A SWAP2 SWAP1 PUSH2 0x4AED JUMP JUMPDEST PUSH1 0xD DUP2 SWAP1 SSTORE POP PUSH1 0x0 DUP1 JUMPDEST PUSH1 0x9 DUP1 SLOAD SWAP1 POP DUP2 LT ISZERO PUSH2 0x2E1E JUMPI CALLER PUSH20 0xFFFFFFFFFFFFFFFFFFFFFFFFFFFFFFFFFFFFFFFF AND PUSH1 0x9 DUP3 DUP2 SLOAD DUP2 LT PUSH2 0x2DBC JUMPI PUSH2 0x2DBB PUSH2 0x4CE7 JUMP JUMPDEST JUMPDEST SWAP1 PUSH1 0x0 MSTORE PUSH1 0x20 PUSH1 0x0 KECCAK256 ADD PUSH1 0x0 SWAP1 SLOAD SWAP1 PUSH2 0x100 EXP SWAP1 DIV PUSH20 0xFFFFFFFFFFFFFFFFFFFFFFFFFFFFFFFFFFFFFFFF AND PUSH20 0xFFFFFFFFFFFFFFFFFFFFFFFFFFFFFFFFFFFFFFFF AND SUB PUSH2 0x2E0B JUMPI PUSH1 0x1 SWAP2 POP PUSH2 0x2E1E JUMP JUMPDEST DUP1 DUP1 PUSH2 0x2E16 SWAP1 PUSH2 0x4D16 JUMP JUMPDEST SWAP2 POP POP PUSH2 0x2D84 JUMP JUMPDEST POP DUP1 PUSH2 0x2EC7 JUMPI PUSH1 0x9 CALLER SWAP1 DUP1 PUSH1 0x1 DUP2 SLOAD ADD DUP1 DUP3 SSTORE DUP1 SWAP2 POP POP PUSH1 0x1 SWAP1 SUB SWAP1 PUSH1 0x0 MSTORE PUSH1 0x20 PUSH1 0x0 KECCAK256 ADD PUSH1 0x0 SWAP1 SWAP2 SWAP1 SWAP2 SWAP1 SWAP2 PUSH2 0x100 EXP DUP2 SLOAD DUP2 PUSH20 0xFFFFFFFFFFFFFFFFFFFFFFFFFFFFFFFFFFFFFFFF MUL NOT AND SWAP1 DUP4 PUSH20 0xFFFFFFFFFFFFFFFFFFFFFFFFFFFFFFFFFFFFFFFF AND MUL OR SWAP1 SSTORE POP PUSH2 0x2EC6 PUSH1 0x40 MLOAD DUP1 PUSH1 0x40 ADD PUSH1 0x40 MSTORE DUP1 PUSH1 0x17 DUP2 MSTORE PUSH1 0x20 ADD PUSH32 0x6164646564206E6577206C705F70726F76696465723A20000000000000000000 DUP2 MSTORE POP CALLER PUSH2 0x449A JUMP JUMPDEST JUMPDEST PUSH2 0x2EDF PUSH1 0x40 MLOAD DUP1 PUSH1 0x20 ADD PUSH1 0x40 MSTORE DUP1 PUSH1 0x0 DUP2 MSTORE POP PUSH2 0x4536 JUMP JUMPDEST PUSH2 0x2FB9 PUSH1 0x40 MLOAD DUP1 PUSH1 0x40 ADD PUSH1 0x40 MSTORE DUP1 PUSH1 0xE DUP2 MSTORE PUSH1 0x20 ADD PUSH32 0x416674657220706179696E673A20000000000000000000000000000000000000 DUP2 MSTORE POP PUSH1 0x3 PUSH1 0x0 SWAP1 SLOAD SWAP1 PUSH2 0x100 EXP SWAP1 DIV PUSH20 0xFFFFFFFFFFFFFFFFFFFFFFFFFFFFFFFFFFFFFFFF AND PUSH20 0xFFFFFFFFFFFFFFFFFFFFFFFFFFFFFFFFFFFFFFFF AND PUSH4 0x70A08231 CALLER PUSH1 0x40 MLOAD DUP3 PUSH4 0xFFFFFFFF AND PUSH1 0xE0 SHL DUP2 MSTORE PUSH1 0x4 ADD PUSH2 0x2F73 SWAP2 SWAP1 PUSH2 0x4763 JUMP JUMPDEST PUSH1 0x20 PUSH1 0x40 MLOAD DUP1 DUP4 SUB DUP2 DUP7 GAS STATICCALL ISZERO DUP1 ISZERO PUSH2 0x2F90 JUMPI RETURNDATASIZE PUSH1 0x0 DUP1 RETURNDATACOPY RETURNDATASIZE PUSH1 0x0 REVERT JUMPDEST POP POP POP POP PUSH1 0x40 MLOAD RETURNDATASIZE PUSH1 0x1F NOT PUSH1 0x1F DUP3 ADD AND DUP3 ADD DUP1 PUSH1 0x40 MSTORE POP DUP2 ADD SWAP1 PUSH2 0x2FB4 SWAP2 SWAP1 PUSH2 0x4DF5 JUMP JUMPDEST PUSH2 0x40DD JUMP JUMPDEST PUSH2 0x3093 PUSH1 0x40 MLOAD DUP1 PUSH1 0x40 ADD PUSH1 0x40 MSTORE DUP1 PUSH1 0x18 DUP2 MSTORE PUSH1 0x20 ADD PUSH32 0x436F6E7472616374206166746572207061796D656E743A200000000000000000 DUP2 MSTORE POP PUSH1 0x3 PUSH1 0x0 SWAP1 SLOAD SWAP1 PUSH2 0x100 EXP SWAP1 DIV PUSH20 0xFFFFFFFFFFFFFFFFFFFFFFFFFFFFFFFFFFFFFFFF AND PUSH20 0xFFFFFFFFFFFFFFFFFFFFFFFFFFFFFFFFFFFFFFFF AND PUSH4 0x70A08231 ADDRESS PUSH1 0x40 MLOAD DUP3 PUSH4 0xFFFFFFFF AND PUSH1 0xE0 SHL DUP2 MSTORE PUSH1 0x4 ADD PUSH2 0x304D SWAP2 SWAP1 PUSH2 0x4763 JUMP JUMPDEST PUSH1 0x20 PUSH1 0x40 MLOAD DUP1 DUP4 SUB DUP2 DUP7 GAS STATICCALL ISZERO DUP1 ISZERO PUSH2 0x306A JUMPI RETURNDATASIZE PUSH1 0x0 DUP1 RETURNDATACOPY RETURNDATASIZE PUSH1 0x0 REVERT JUMPDEST POP POP POP POP PUSH1 0x40 MLOAD RETURNDATASIZE PUSH1 0x1F NOT PUSH1 0x1F DUP3 ADD AND DUP3 ADD DUP1 PUSH1 0x40 MSTORE POP DUP2 ADD SWAP1 PUSH2 0x308E SWAP2 SWAP1 PUSH2 0x4DF5 JUMP JUMPDEST PUSH2 0x40DD JUMP JUMPDEST PUSH2 0x30D4 PUSH1 0x40 MLOAD DUP1 PUSH1 0x40 ADD PUSH1 0x40 MSTORE DUP1 PUSH1 0xF DUP2 MSTORE PUSH1 0x20 ADD PUSH32 0x546F6B656E2072657365727665733A0000000000000000000000000000000000 DUP2 MSTORE POP PUSH1 0x4 SLOAD PUSH2 0x40DD JUMP JUMPDEST PUSH2 0x3115 PUSH1 0x40 MLOAD DUP1 PUSH1 0x40 ADD PUSH1 0x40 MSTORE DUP1 PUSH1 0x8 DUP2 MSTORE PUSH1 0x20 ADD PUSH32 0x4B2076616C75653A000000000000000000000000000000000000000000000000 DUP2 MSTORE POP PUSH1 0xD SLOAD PUSH2 0x40DD JUMP JUMPDEST PUSH2 0x3156 PUSH1 0x40 MLOAD DUP1 PUSH1 0x40 ADD PUSH1 0x40 MSTORE DUP1 PUSH1 0xD DUP2 MSTORE PUSH1 0x20 ADD PUSH32 0x4554482072657365727665733A00000000000000000000000000000000000000 DUP2 MSTORE POP PUSH1 0x5 SLOAD PUSH2 0x40DD JUMP JUMPDEST PUSH2 0x3197 PUSH1 0x40 MLOAD DUP1 PUSH1 0x40 ADD PUSH1 0x40 MSTORE DUP1 PUSH1 0xE DUP2 MSTORE PUSH1 0x20 ADD PUSH32 0x546F74616C207368617265733A20000000000000000000000000000000000000 DUP2 MSTORE POP PUSH1 0xA SLOAD PUSH2 0x40DD JUMP JUMPDEST PUSH2 0x31DA PUSH1 0x40 MLOAD DUP1 PUSH1 0x40 ADD PUSH1 0x40 MSTORE DUP1 PUSH1 0xD DUP2 MSTORE PUSH1 0x20 ADD PUSH32 0x5573657227732073686172657300000000000000000000000000000000000000 DUP2 MSTORE POP DUP7 PUSH1 0x0 ADD SLOAD PUSH2 0x40DD JUMP JUMPDEST PUSH2 0x321D PUSH1 0x40 MLOAD DUP1 PUSH1 0x40 ADD PUSH1 0x40 MSTORE DUP1 PUSH1 0xC DUP2 MSTORE PUSH1 0x20 ADD PUSH32 0x6C702065746820666565733A0000000000000000000000000000000000000000 DUP2 MSTORE POP DUP7 PUSH1 0x1 ADD SLOAD PUSH2 0x40DD JUMP JUMPDEST PUSH2 0x3260 PUSH1 0x40 MLOAD DUP1 PUSH1 0x40 ADD PUSH1 0x40 MSTORE DUP1 PUSH1 0xE DUP2 MSTORE PUSH1 0x20 ADD PUSH32 0x6C7020746F6B656E20666565733A000000000000000000000000000000000000 DUP2 MSTORE POP DUP7 PUSH1 0x2 ADD SLOAD PUSH2 0x40DD JUMP JUMPDEST PUSH2 0x3268 PUSH2 0x3C57 JUMP JUMPDEST POP POP POP POP POP POP POP POP JUMP JUMPDEST PUSH2 0x327A PUSH2 0x3C57 JUMP JUMPDEST POP PUSH2 0x32BC PUSH1 0x40 MLOAD DUP1 PUSH1 0x40 ADD PUSH1 0x40 MSTORE DUP1 PUSH1 0xF DUP2 MSTORE PUSH1 0x20 ADD PUSH32 0x546F6B656E2072657365727665733A0000000000000000000000000000000000 DUP2 MSTORE POP PUSH1 0x4 SLOAD PUSH2 0x40DD JUMP JUMPDEST PUSH2 0x32FD PUSH1 0x40 MLOAD DUP1 PUSH1 0x40 ADD PUSH1 0x40 MSTORE DUP1 PUSH1 0x8 DUP2 MSTORE PUSH1 0x20 ADD PUSH32 0x4B2076616C75653A000000000000000000000000000000000000000000000000 DUP2 MSTORE POP PUSH1 0xD SLOAD PUSH2 0x40DD JUMP JUMPDEST PUSH2 0x333E PUSH1 0x40 MLOAD DUP1 PUSH1 0x40 ADD PUSH1 0x40 MSTORE DUP1 PUSH1 0xD DUP2 MSTORE PUSH1 0x20 ADD PUSH32 0x4554482072657365727665733A00000000000000000000000000000000000000 DUP2 MSTORE POP PUSH1 0x5 SLOAD PUSH2 0x40DD JUMP JUMPDEST PUSH2 0x337F PUSH1 0x40 MLOAD DUP1 PUSH1 0x40 ADD PUSH1 0x40 MSTORE DUP1 PUSH1 0xE DUP2 MSTORE PUSH1 0x20 ADD PUSH32 0x546F74616C207368617265733A20000000000000000000000000000000000000 DUP2 MSTORE POP PUSH1 0xA SLOAD PUSH2 0x40DD JUMP JUMPDEST PUSH2 0x33BE PUSH1 0x40 MLOAD DUP1 PUSH1 0x40 ADD PUSH1 0x40 MSTORE DUP1 PUSH1 0x1E DUP2 MSTORE PUSH1 0x20 ADD PUSH32 0x73776170546F6B656E73466F72455448206F6620746F6B656E416D743A200000 DUP2 MSTORE POP DUP4 PUSH2 0x40DD JUMP JUMPDEST PUSH1 0x3 PUSH1 0x0 SWAP1 SLOAD SWAP1 PUSH2 0x100 EXP SWAP1 DIV PUSH20 0xFFFFFFFFFFFFFFFFFFFFFFFFFFFFFFFFFFFFFFFF AND PUSH20 0xFFFFFFFFFFFFFFFFFFFFFFFFFFFFFFFFFFFFFFFF AND PUSH4 0x70A08231 CALLER PUSH1 0x40 MLOAD DUP3 PUSH4 0xFFFFFFFF AND PUSH1 0xE0 SHL DUP2 MSTORE PUSH1 0x4 ADD PUSH2 0x3419 SWAP2 SWAP1 PUSH2 0x4763 JUMP JUMPDEST PUSH1 0x20 PUSH1 0x40 MLOAD DUP1 DUP4 SUB DUP2 DUP7 GAS STATICCALL ISZERO DUP1 ISZERO PUSH2 0x3436 JUMPI RETURNDATASIZE PUSH1 0x0 DUP1 RETURNDATACOPY RETURNDATASIZE PUSH1 0x0 REVERT JUMPDEST POP POP POP POP PUSH1 0x40 MLOAD RETURNDATASIZE PUSH1 0x1F NOT PUSH1 0x1F DUP3 ADD AND DUP3 ADD DUP1 PUSH1 0x40 MSTORE POP DUP2 ADD SWAP1 PUSH2 0x345A SWAP2 SWAP1 PUSH2 0x4DF5 JUMP JUMPDEST DUP3 GT ISZERO PUSH2 0x349C JUMPI PUSH1 0x40 MLOAD PUSH32 0x8C379A000000000000000000000000000000000000000000000000000000000 DUP2 MSTORE PUSH1 0x4 ADD PUSH2 0x3493 SWAP1 PUSH2 0x5551 JUMP JUMPDEST PUSH1 0x40 MLOAD DUP1 SWAP2 SUB SWAP1 REVERT JUMPDEST PUSH1 0x0 DUP3 GT PUSH2 0x34DF JUMPI PUSH1 0x40 MLOAD PUSH32 0x8C379A000000000000000000000000000000000000000000000000000000000 DUP2 MSTORE PUSH1 0x4 ADD PUSH2 0x34D6 SWAP1 PUSH2 0x55E3 JUMP JUMPDEST PUSH1 0x40 MLOAD DUP1 SWAP2 SUB SWAP1 REVERT JUMPDEST PUSH1 0x0 PUSH2 0x34E9 PUSH2 0x3F7D JUMP JUMPDEST SWAP1 POP PUSH2 0x352A PUSH1 0x40 MLOAD DUP1 PUSH1 0x40 ADD PUSH1 0x40 MSTORE DUP1 PUSH1 0xA DUP2 MSTORE PUSH1 0x20 ADD PUSH32 0x63757272526174653A2000000000000000000000000000000000000000000000 DUP2 MSTORE POP DUP3 PUSH2 0x40DD JUMP JUMPDEST PUSH2 0x3569 PUSH1 0x40 MLOAD DUP1 PUSH1 0x40 ADD PUSH1 0x40 MSTORE DUP1 PUSH1 0x9 DUP2 MSTORE PUSH1 0x20 ADD PUSH32 0x6D6178526174653A200000000000000000000000000000000000000000000000 DUP2 MSTORE POP DUP4 PUSH2 0x40DD JUMP JUMPDEST DUP2 PUSH1 0xF SLOAD DUP3 PUSH2 0x3578 SWAP2 SWAP1 PUSH2 0x4B8F JUMP JUMPDEST LT ISZERO PUSH2 0x35B9 JUMPI PUSH1 0x40 MLOAD PUSH32 0x8C379A000000000000000000000000000000000000000000000000000000000 DUP2 MSTORE PUSH1 0x4 ADD PUSH2 0x35B0 SWAP1 PUSH2 0x4ACD JUMP JUMPDEST PUSH1 0x40 MLOAD DUP1 SWAP2 SUB SWAP1 REVERT JUMPDEST PUSH1 0x0 PUSH1 0xC SLOAD DUP5 PUSH1 0xB SLOAD PUSH2 0x35CC SWAP2 SWAP1 PUSH2 0x4AED JUMP JUMPDEST PUSH2 0x35D6 SWAP2 SWAP1 PUSH2 0x4B5E JUMP JUMPDEST SWAP1 POP DUP1 PUSH1 0x6 PUSH1 0x0 DUP3 DUP3 SLOAD PUSH2 0x35EA SWAP2 SWAP1 PUSH2 0x4B8F JUMP JUMPDEST SWAP3 POP POP DUP2 SWAP1 SSTORE POP PUSH1 0x0 DUP2 DUP6 PUSH2 0x35FF SWAP2 SWAP1 PUSH2 0x4A27 JUMP JUMPDEST PUSH1 0x4 SLOAD PUSH2 0x360C SWAP2 SWAP1 PUSH2 0x4B8F JUMP JUMPDEST PUSH1 0xD SLOAD PUSH2 0x3619 SWAP2 SWAP1 PUSH2 0x4B5E JUMP JUMPDEST PUSH1 0x5 SLOAD PUSH2 0x3626 SWAP2 SWAP1 PUSH2 0x4A27 JUMP JUMPDEST SWAP1 POP PUSH2 0x3667 PUSH1 0x40 MLOAD DUP1 PUSH1 0x40 ADD PUSH1 0x40 MSTORE DUP1 PUSH1 0x5 DUP2 MSTORE PUSH1 0x20 ADD PUSH32 0x4665653A20000000000000000000000000000000000000000000000000000000 DUP2 MSTORE POP DUP4 PUSH2 0x40DD JUMP JUMPDEST PUSH1 0x5 SLOAD DUP2 LT PUSH2 0x36AB JUMPI PUSH1 0x40 MLOAD PUSH32 0x8C379A000000000000000000000000000000000000000000000000000000000 DUP2 MSTORE PUSH1 0x4 ADD PUSH2 0x36A2 SWAP1 PUSH2 0x5675 JUMP JUMPDEST PUSH1 0x40 MLOAD DUP1 SWAP2 SUB SWAP1 REVERT JUMPDEST PUSH2 0x36EA PUSH1 0x40 MLOAD DUP1 PUSH1 0x40 ADD PUSH1 0x40 MSTORE DUP1 PUSH1 0xF DUP2 MSTORE PUSH1 0x20 ADD PUSH32 0x416D6F756E7420746F204574683A200000000000000000000000000000000000 DUP2 MSTORE POP DUP3 PUSH2 0x40DD JUMP JUMPDEST PUSH1 0x0 JUMPDEST PUSH1 0x9 DUP1 SLOAD SWAP1 POP DUP2 LT ISZERO PUSH2 0x382A JUMPI PUSH1 0x0 PUSH1 0x9 DUP3 DUP2 SLOAD DUP2 LT PUSH2 0x3710 JUMPI PUSH2 0x370F PUSH2 0x4CE7 JUMP JUMPDEST JUMPDEST SWAP1 PUSH1 0x0 MSTORE PUSH1 0x20 PUSH1 0x0 KECCAK256 ADD PUSH1 0x0 SWAP1 SLOAD SWAP1 PUSH2 0x100 EXP SWAP1 DIV PUSH20 0xFFFFFFFFFFFFFFFFFFFFFFFFFFFFFFFFFFFFFFFF AND SWAP1 POP PUSH1 0x0 PUSH1 0x8 PUSH1 0x0 DUP4 PUSH20 0xFFFFFFFFFFFFFFFFFFFFFFFFFFFFFFFFFFFFFFFF AND PUSH20 0xFFFFFFFFFFFFFFFFFFFFFFFFFFFFFFFFFFFFFFFF AND DUP2 MSTORE PUSH1 0x20 ADD SWAP1 DUP2 MSTORE PUSH1 0x20 ADD PUSH1 0x0 KECCAK256 SWAP1 POP DUP5 DUP2 PUSH1 0x2 ADD PUSH1 0x0 DUP3 DUP3 SLOAD PUSH2 0x3794 SWAP2 SWAP1 PUSH2 0x4B8F JUMP JUMPDEST SWAP3 POP POP DUP2 SWAP1 SSTORE POP PUSH2 0x3815 PUSH1 0x40 MLOAD DUP1 PUSH1 0x40 ADD PUSH1 0x40 MSTORE DUP1 PUSH1 0x17 DUP2 MSTORE PUSH1 0x20 ADD PUSH32 0x4163637275656420746F6B656E206665657320666F7220000000000000000000 DUP2 MSTORE POP DUP4 PUSH1 0x40 MLOAD DUP1 PUSH1 0x40 ADD PUSH1 0x40 MSTORE DUP1 PUSH1 0x2 DUP2 MSTORE PUSH1 0x20 ADD PUSH32 0x3A20000000000000000000000000000000000000000000000000000000000000 DUP2 MSTORE POP DUP5 PUSH1 0x2 ADD SLOAD PUSH2 0x4179 JUMP JUMPDEST POP POP DUP1 DUP1 PUSH2 0x3822 SWAP1 PUSH2 0x4D16 JUMP JUMPDEST SWAP2 POP POP PUSH2 0x36ED JUMP JUMPDEST POP PUSH2 0x3905 PUSH1 0x40 MLOAD DUP1 PUSH1 0x40 ADD PUSH1 0x40 MSTORE DUP1 PUSH1 0x13 DUP2 MSTORE PUSH1 0x20 ADD PUSH32 0x42616C616E6365206F662073656E6465723A2000000000000000000000000000 DUP2 MSTORE POP PUSH1 0x3 PUSH1 0x0 SWAP1 SLOAD SWAP1 PUSH2 0x100 EXP SWAP1 DIV PUSH20 0xFFFFFFFFFFFFFFFFFFFFFFFFFFFFFFFFFFFFFFFF AND PUSH20 0xFFFFFFFFFFFFFFFFFFFFFFFFFFFFFFFFFFFFFFFF AND PUSH4 0x70A08231 CALLER PUSH1 0x40 MLOAD DUP3 PUSH4 0xFFFFFFFF AND PUSH1 0xE0 SHL DUP2 MSTORE PUSH1 0x4 ADD PUSH2 0x38BF SWAP2 SWAP1 PUSH2 0x4763 JUMP JUMPDEST PUSH1 0x20 PUSH1 0x40 MLOAD DUP1 DUP4 SUB DUP2 DUP7 GAS STATICCALL ISZERO DUP1 ISZERO PUSH2 0x38DC JUMPI RETURNDATASIZE PUSH1 0x0 DUP1 RETURNDATACOPY RETURNDATASIZE PUSH1 0x0 REVERT JUMPDEST POP POP POP POP PUSH1 0x40 MLOAD RETURNDATASIZE PUSH1 0x1F NOT PUSH1 0x1F DUP3 ADD AND DUP3 ADD DUP1 PUSH1 0x40 MSTORE POP DUP2 ADD SWAP1 PUSH2 0x3900 SWAP2 SWAP1 PUSH2 0x4DF5 JUMP JUMPDEST PUSH2 0x40DD JUMP JUMPDEST PUSH1 0x3 PUSH1 0x0 SWAP1 SLOAD SWAP1 PUSH2 0x100 EXP SWAP1 DIV PUSH20 0xFFFFFFFFFFFFFFFFFFFFFFFFFFFFFFFFFFFFFFFF AND PUSH20 0xFFFFFFFFFFFFFFFFFFFFFFFFFFFFFFFFFFFFFFFF AND PUSH4 0x23B872DD CALLER ADDRESS DUP9 PUSH1 0x40 MLOAD DUP5 PUSH4 0xFFFFFFFF AND PUSH1 0xE0 SHL DUP2 MSTORE PUSH1 0x4 ADD PUSH2 0x3964 SWAP4 SWAP3 SWAP2 SWAP1 PUSH2 0x51F4 JUMP JUMPDEST PUSH1 0x20 PUSH1 0x40 MLOAD DUP1 DUP4 SUB DUP2 PUSH1 0x0 DUP8 GAS CALL ISZERO DUP1 ISZERO PUSH2 0x3983 JUMPI RETURNDATASIZE PUSH1 0x0 DUP1 RETURNDATACOPY RETURNDATASIZE PUSH1 0x0 REVERT JUMPDEST POP POP POP POP PUSH1 0x40 MLOAD RETURNDATASIZE PUSH1 0x1F NOT PUSH1 0x1F DUP3 ADD AND DUP3 ADD DUP1 PUSH1 0x40 MSTORE POP DUP2 ADD SWAP1 PUSH2 0x39A7 SWAP2 SWAP1 PUSH2 0x4DB3 JUMP JUMPDEST POP CALLER PUSH20 0xFFFFFFFFFFFFFFFFFFFFFFFFFFFFFFFFFFFFFFFF AND PUSH2 0x8FC DUP3 SWAP1 DUP2 ISZERO MUL SWAP1 PUSH1 0x40 MLOAD PUSH1 0x0 PUSH1 0x40 MLOAD DUP1 DUP4 SUB DUP2 DUP6 DUP9 DUP9 CALL SWAP4 POP POP POP POP ISZERO DUP1 ISZERO PUSH2 0x39EE JUMPI RETURNDATASIZE PUSH1 0x0 DUP1 RETURNDATACOPY RETURNDATASIZE PUSH1 0x0 REVERT JUMPDEST POP PUSH1 0x3 PUSH1 0x0 SWAP1 SLOAD SWAP1 PUSH2 0x100 EXP SWAP1 DIV PUSH20 0xFFFFFFFFFFFFFFFFFFFFFFFFFFFFFFFFFFFFFFFF AND PUSH20 0xFFFFFFFFFFFFFFFFFFFFFFFFFFFFFFFFFFFFFFFF AND PUSH4 0x70A08231 ADDRESS PUSH1 0x40 MLOAD DUP3 PUSH4 0xFFFFFFFF AND PUSH1 0xE0 SHL DUP2 MSTORE PUSH1 0x4 ADD PUSH2 0x3A4A SWAP2 SWAP1 PUSH2 0x4763 JUMP JUMPDEST PUSH1 0x20 PUSH1 0x40 MLOAD DUP1 DUP4 SUB DUP2 DUP7 GAS STATICCALL ISZERO DUP1 ISZERO PUSH2 0x3A67 JUMPI RETURNDATASIZE PUSH1 0x0 DUP1 RETURNDATACOPY RETURNDATASIZE PUSH1 0x0 REVERT JUMPDEST POP POP POP POP PUSH1 0x40 MLOAD RETURNDATASIZE PUSH1 0x1F NOT PUSH1 0x1F DUP3 ADD AND DUP3 ADD DUP1 PUSH1 0x40 MSTORE POP DUP2 ADD SWAP1 PUSH2 0x3A8B SWAP2 SWAP1 PUSH2 0x4DF5 JUMP JUMPDEST PUSH1 0x4 DUP2 SWAP1 SSTORE POP SELFBALANCE PUSH1 0x5 DUP2 SWAP1 SSTORE POP PUSH2 0x3AD9 PUSH1 0x40 MLOAD DUP1 PUSH1 0x40 ADD PUSH1 0x40 MSTORE DUP1 PUSH1 0x14 DUP2 MSTORE PUSH1 0x20 ADD PUSH32 0x746F6B656E206665652072657365727665733A20000000000000000000000000 DUP2 MSTORE POP PUSH1 0x6 SLOAD PUSH2 0x40DD JUMP JUMPDEST PUSH2 0x3B1A PUSH1 0x40 MLOAD DUP1 PUSH1 0x40 ADD PUSH1 0x40 MSTORE DUP1 PUSH1 0x12 DUP2 MSTORE PUSH1 0x20 ADD PUSH32 0x657468206665652072657365727665733A200000000000000000000000000000 DUP2 MSTORE POP PUSH1 0x7 SLOAD PUSH2 0x40DD JUMP JUMPDEST PUSH2 0x3B5B PUSH1 0x40 MLOAD DUP1 PUSH1 0x40 ADD PUSH1 0x40 MSTORE DUP1 PUSH1 0xF DUP2 MSTORE PUSH1 0x20 ADD PUSH32 0x546F6B656E2072657365727665733A0000000000000000000000000000000000 DUP2 MSTORE POP PUSH1 0x4 SLOAD PUSH2 0x40DD JUMP JUMPDEST PUSH2 0x3B9C PUSH1 0x40 MLOAD DUP1 PUSH1 0x40 ADD PUSH1 0x40 MSTORE DUP1 PUSH1 0x8 DUP2 MSTORE PUSH1 0x20 ADD PUSH32 0x4B2076616C75653A000000000000000000000000000000000000000000000000 DUP2 MSTORE POP PUSH1 0xD SLOAD PUSH2 0x40DD JUMP JUMPDEST PUSH2 0x3BDD PUSH1 0x40 MLOAD DUP1 PUSH1 0x40 ADD PUSH1 0x40 MSTORE DUP1 PUSH1 0xD DUP2 MSTORE PUSH1 0x20 ADD PUSH32 0x4554482072657365727665733A00000000000000000000000000000000000000 DUP2 MSTORE POP PUSH1 0x5 SLOAD PUSH2 0x40DD JUMP JUMPDEST PUSH2 0x3C1E PUSH1 0x40 MLOAD DUP1 PUSH1 0x40 ADD PUSH1 0x40 MSTORE DUP1 PUSH1 0xE DUP2 MSTORE PUSH1 0x20 ADD PUSH32 0x546F74616C207368617265733A20000000000000000000000000000000000000 DUP2 MSTORE POP PUSH1 0xA SLOAD PUSH2 0x40DD JUMP JUMPDEST PUSH2 0x3C26 PUSH2 0x3C57 JUMP JUMPDEST POP POP POP POP POP POP JUMP JUMPDEST PUSH1 0x0 DUP1 PUSH1 0x5 SLOAD PUSH1 0xA SLOAD DUP5 PUSH2 0x3C42 SWAP2 SWAP1 PUSH2 0x4AED JUMP JUMPDEST PUSH2 0x3C4C SWAP2 SWAP1 PUSH2 0x4B5E JUMP JUMPDEST SWAP1 POP DUP1 SWAP2 POP POP SWAP2 SWAP1 POP JUMP JUMPDEST PUSH1 0x0 PUSH2 0x3C71 PUSH1 0x40 MLOAD DUP1 PUSH1 0x20 ADD PUSH1 0x40 MSTORE DUP1 PUSH1 0x0 DUP2 MSTORE POP PUSH2 0x4536 JUMP JUMPDEST PUSH2 0x3CAF PUSH1 0x40 MLOAD DUP1 PUSH1 0x40 ADD PUSH1 0x40 MSTORE DUP1 PUSH1 0x3 DUP2 MSTORE PUSH1 0x20 ADD PUSH32 0x4C50530000000000000000000000000000000000000000000000000000000000 DUP2 MSTORE POP PUSH2 0x4536 JUMP JUMPDEST PUSH2 0x3CC7 PUSH1 0x40 MLOAD DUP1 PUSH1 0x20 ADD PUSH1 0x40 MSTORE DUP1 PUSH1 0x0 DUP2 MSTORE POP PUSH2 0x4536 JUMP JUMPDEST PUSH2 0x3D08 PUSH1 0x40 MLOAD DUP1 PUSH1 0x40 ADD PUSH1 0x40 MSTORE DUP1 PUSH1 0x10 DUP2 MSTORE PUSH1 0x20 ADD PUSH32 0x746F74616C2065746820666565733A2000000000000000000000000000000000 DUP2 MSTORE POP PUSH1 0x7 SLOAD PUSH2 0x40DD JUMP JUMPDEST PUSH2 0x3D49 PUSH1 0x40 MLOAD DUP1 PUSH1 0x40 ADD PUSH1 0x40 MSTORE DUP1 PUSH1 0x12 DUP2 MSTORE PUSH1 0x20 ADD PUSH32 0x746F74616C20746F6B656E20666565733A200000000000000000000000000000 DUP2 MSTORE POP PUSH1 0x6 SLOAD PUSH2 0x40DD JUMP JUMPDEST PUSH1 0x0 JUMPDEST PUSH1 0x9 DUP1 SLOAD SWAP1 POP DUP2 LT ISZERO PUSH2 0x3F4C JUMPI PUSH2 0x3D71 PUSH1 0x40 MLOAD DUP1 PUSH1 0x20 ADD PUSH1 0x40 MSTORE DUP1 PUSH1 0x0 DUP2 MSTORE POP PUSH2 0x4536 JUMP JUMPDEST PUSH1 0x0 PUSH1 0x8 PUSH1 0x0 PUSH1 0x9 DUP5 DUP2 SLOAD DUP2 LT PUSH2 0x3D8B JUMPI PUSH2 0x3D8A PUSH2 0x4CE7 JUMP JUMPDEST JUMPDEST SWAP1 PUSH1 0x0 MSTORE PUSH1 0x20 PUSH1 0x0 KECCAK256 ADD PUSH1 0x0 SWAP1 SLOAD SWAP1 PUSH2 0x100 EXP SWAP1 DIV PUSH20 0xFFFFFFFFFFFFFFFFFFFFFFFFFFFFFFFFFFFFFFFF AND PUSH20 0xFFFFFFFFFFFFFFFFFFFFFFFFFFFFFFFFFFFFFFFF AND PUSH20 0xFFFFFFFFFFFFFFFFFFFFFFFFFFFFFFFFFFFFFFFF AND DUP2 MSTORE PUSH1 0x20 ADD SWAP1 DUP2 MSTORE PUSH1 0x20 ADD PUSH1 0x0 KECCAK256 SWAP1 POP PUSH2 0x3E6F PUSH1 0x40 MLOAD DUP1 PUSH1 0x40 ADD PUSH1 0x40 MSTORE DUP1 PUSH1 0xD DUP2 MSTORE PUSH1 0x20 ADD PUSH32 0x6C705F70726F76696465723A2000000000000000000000000000000000000000 DUP2 MSTORE POP PUSH1 0x9 DUP5 DUP2 SLOAD DUP2 LT PUSH2 0x3E3F JUMPI PUSH2 0x3E3E PUSH2 0x4CE7 JUMP JUMPDEST JUMPDEST SWAP1 PUSH1 0x0 MSTORE PUSH1 0x20 PUSH1 0x0 KECCAK256 ADD PUSH1 0x0 SWAP1 SLOAD SWAP1 PUSH2 0x100 EXP SWAP1 DIV PUSH20 0xFFFFFFFFFFFFFFFFFFFFFFFFFFFFFFFFFFFFFFFF AND PUSH2 0x449A JUMP JUMPDEST PUSH2 0x3EB2 PUSH1 0x40 MLOAD DUP1 PUSH1 0x40 ADD PUSH1 0x40 MSTORE DUP1 PUSH1 0x8 DUP2 MSTORE PUSH1 0x20 ADD PUSH32 0x7368617265733A20000000000000000000000000000000000000000000000000 DUP2 MSTORE POP DUP3 PUSH1 0x0 ADD SLOAD PUSH2 0x40DD JUMP JUMPDEST PUSH2 0x3EF5 PUSH1 0x40 MLOAD DUP1 PUSH1 0x40 ADD PUSH1 0x40 MSTORE DUP1 PUSH1 0xA DUP2 MSTORE PUSH1 0x20 ADD PUSH32 0x6574685F666565733A2000000000000000000000000000000000000000000000 DUP2 MSTORE POP DUP3 PUSH1 0x1 ADD SLOAD PUSH2 0x40DD JUMP JUMPDEST PUSH2 0x3F38 PUSH1 0x40 MLOAD DUP1 PUSH1 0x40 ADD PUSH1 0x40 MSTORE DUP1 PUSH1 0xC DUP2 MSTORE PUSH1 0x20 ADD PUSH32 0x746F6B656E5F666565733A200000000000000000000000000000000000000000 DUP2 MSTORE POP DUP3 PUSH1 0x2 ADD SLOAD PUSH2 0x40DD JUMP JUMPDEST POP DUP1 DUP1 PUSH2 0x3F44 SWAP1 PUSH2 0x4D16 JUMP JUMPDEST SWAP2 POP POP PUSH2 0x3D4C JUMP JUMPDEST POP PUSH2 0x3F65 PUSH1 0x40 MLOAD DUP1 PUSH1 0x20 ADD PUSH1 0x40 MSTORE DUP1 PUSH1 0x0 DUP2 MSTORE POP PUSH2 0x4536 JUMP JUMPDEST PUSH1 0x1 SWAP1 POP SWAP1 JUMP JUMPDEST PUSH1 0x0 DUP1 PUSH1 0xB SLOAD PUSH1 0xC SLOAD SWAP2 POP SWAP2 POP SWAP1 SWAP2 JUMP JUMPDEST PUSH1 0x0 DUP1 PUSH1 0x4 SLOAD PUSH1 0xE SLOAD PUSH1 0x5 SLOAD PUSH2 0x3F93 SWAP2 SWAP1 PUSH2 0x4AED JUMP JUMPDEST PUSH2 0x3F9D SWAP2 SWAP1 PUSH2 0x4B5E JUMP JUMPDEST SWAP1 POP DUP1 SWAP2 POP POP SWAP1 JUMP JUMPDEST PUSH2 0x3FAE PUSH2 0x4358 JUMP JUMPDEST PUSH1 0x0 PUSH20 0xFFFFFFFFFFFFFFFFFFFFFFFFFFFFFFFFFFFFFFFF AND DUP2 PUSH20 0xFFFFFFFFFFFFFFFFFFFFFFFFFFFFFFFFFFFFFFFF AND SUB PUSH2 0x401D JUMPI PUSH1 0x40 MLOAD PUSH32 0x8C379A000000000000000000000000000000000000000000000000000000000 DUP2 MSTORE PUSH1 0x4 ADD PUSH2 0x4014 SWAP1 PUSH2 0x5707 JUMP JUMPDEST PUSH1 0x40 MLOAD DUP1 SWAP2 SUB SWAP1 REVERT JUMPDEST PUSH2 0x4026 DUP2 PUSH2 0x43D6 JUMP JUMPDEST POP JUMP JUMPDEST PUSH1 0x1 DUP1 SLOAD PUSH2 0x4036 SWAP1 PUSH2 0x5756 JUMP JUMPDEST DUP1 PUSH1 0x1F ADD PUSH1 0x20 DUP1 SWAP2 DIV MUL PUSH1 0x20 ADD PUSH1 0x40 MLOAD SWAP1 DUP2 ADD PUSH1 0x40 MSTORE DUP1 SWAP3 SWAP2 SWAP1 DUP2 DUP2 MSTORE PUSH1 0x20 ADD DUP3 DUP1 SLOAD PUSH2 0x4062 SWAP1 PUSH2 0x5756 JUMP JUMPDEST DUP1 ISZERO PUSH2 0x40AF JUMPI DUP1 PUSH1 0x1F LT PUSH2 0x4084 JUMPI PUSH2 0x100 DUP1 DUP4 SLOAD DIV MUL DUP4 MSTORE SWAP2 PUSH1 0x20 ADD SWAP2 PUSH2 0x40AF JUMP JUMPDEST DUP3 ADD SWAP2 SWAP1 PUSH1 0x0 MSTORE PUSH1 0x20 PUSH1 0x0 KECCAK256 SWAP1 JUMPDEST DUP2 SLOAD DUP2 MSTORE SWAP1 PUSH1 0x1 ADD SWAP1 PUSH1 0x20 ADD DUP1 DUP4 GT PUSH2 0x4092 JUMPI DUP3 SWAP1 SUB PUSH1 0x1F AND DUP3 ADD SWAP2 JUMPDEST POP POP POP POP POP DUP2 JUMP JUMPDEST PUSH1 0x3 PUSH1 0x0 SWAP1 SLOAD SWAP1 PUSH2 0x100 EXP SWAP1 DIV PUSH20 0xFFFFFFFFFFFFFFFFFFFFFFFFFFFFFFFFFFFFFFFF AND DUP2 JUMP JUMPDEST PUSH2 0x4175 DUP3 DUP3 PUSH1 0x40 MLOAD PUSH1 0x24 ADD PUSH2 0x40F3 SWAP3 SWAP2 SWAP1 PUSH2 0x5787 JUMP JUMPDEST PUSH1 0x40 MLOAD PUSH1 0x20 DUP2 DUP4 SUB SUB DUP2 MSTORE SWAP1 PUSH1 0x40 MSTORE PUSH32 0xB60E72CC00000000000000000000000000000000000000000000000000000000 PUSH28 0xFFFFFFFFFFFFFFFFFFFFFFFFFFFFFFFFFFFFFFFFFFFFFFFFFFFFFFFF NOT AND PUSH1 0x20 DUP3 ADD DUP1 MLOAD PUSH28 0xFFFFFFFFFFFFFFFFFFFFFFFFFFFFFFFFFFFFFFFFFFFFFFFFFFFFFFFF DUP4 DUP2 DUP4 AND OR DUP4 MSTORE POP POP POP POP PUSH2 0x45CF JUMP JUMPDEST POP POP JUMP JUMPDEST PUSH2 0x4215 DUP5 DUP5 DUP5 DUP5 PUSH1 0x40 MLOAD PUSH1 0x24 ADD PUSH2 0x4193 SWAP5 SWAP4 SWAP3 SWAP2 SWAP1 PUSH2 0x57B7 JUMP JUMPDEST PUSH1 0x40 MLOAD PUSH1 0x20 DUP2 DUP4 SUB SUB DUP2 MSTORE SWAP1 PUSH1 0x40 MSTORE PUSH32 0x91D1112E00000000000000000000000000000000000000000000000000000000 PUSH28 0xFFFFFFFFFFFFFFFFFFFFFFFFFFFFFFFFFFFFFFFFFFFFFFFFFFFFFFFF NOT AND PUSH1 0x20 DUP3 ADD DUP1 MLOAD PUSH28 0xFFFFFFFFFFFFFFFFFFFFFFFFFFFFFFFFFFFFFFFFFFFFFFFFFFFFFFFF DUP4 DUP2 DUP4 AND OR DUP4 MSTORE POP POP POP POP PUSH2 0x45CF JUMP JUMPDEST POP POP POP POP JUMP JUMPDEST PUSH1 0x9 DUP1 SLOAD SWAP1 POP DUP2 LT PUSH2 0x4262 JUMPI PUSH1 0x40 MLOAD PUSH32 0x8C379A000000000000000000000000000000000000000000000000000000000 DUP2 MSTORE PUSH1 0x4 ADD PUSH2 0x4259 SWAP1 PUSH2 0x587C JUMP JUMPDEST PUSH1 0x40 MLOAD DUP1 SWAP2 SUB SWAP1 REVERT JUMPDEST PUSH1 0x9 PUSH1 0x1 PUSH1 0x9 DUP1 SLOAD SWAP1 POP PUSH2 0x4276 SWAP2 SWAP1 PUSH2 0x4A27 JUMP JUMPDEST DUP2 SLOAD DUP2 LT PUSH2 0x4287 JUMPI PUSH2 0x4286 PUSH2 0x4CE7 JUMP JUMPDEST JUMPDEST SWAP1 PUSH1 0x0 MSTORE PUSH1 0x20 PUSH1 0x0 KECCAK256 ADD PUSH1 0x0 SWAP1 SLOAD SWAP1 PUSH2 0x100 EXP SWAP1 DIV PUSH20 0xFFFFFFFFFFFFFFFFFFFFFFFFFFFFFFFFFFFFFFFF AND PUSH1 0x9 DUP3 DUP2 SLOAD DUP2 LT PUSH2 0x42C6 JUMPI PUSH2 0x42C5 PUSH2 0x4CE7 JUMP JUMPDEST JUMPDEST SWAP1 PUSH1 0x0 MSTORE PUSH1 0x20 PUSH1 0x0 KECCAK256 ADD PUSH1 0x0 PUSH2 0x100 EXP DUP2 SLOAD DUP2 PUSH20 0xFFFFFFFFFFFFFFFFFFFFFFFFFFFFFFFFFFFFFFFF MUL NOT AND SWAP1 DUP4 PUSH20 0xFFFFFFFFFFFFFFFFFFFFFFFFFFFFFFFFFFFFFFFF AND MUL OR SWAP1 SSTORE POP PUSH1 0x9 DUP1 SLOAD DUP1 PUSH2 0x4320 JUMPI PUSH2 0x431F PUSH2 0x589C JUMP JUMPDEST JUMPDEST PUSH1 0x1 SWAP1 SUB DUP2 DUP2 SWAP1 PUSH1 0x0 MSTORE PUSH1 0x20 PUSH1 0x0 KECCAK256 ADD PUSH1 0x0 PUSH2 0x100 EXP DUP2 SLOAD SWAP1 PUSH20 0xFFFFFFFFFFFFFFFFFFFFFFFFFFFFFFFFFFFFFFFF MUL NOT AND SWAP1 SSTORE SWAP1 SSTORE POP JUMP JUMPDEST PUSH2 0x4360 PUSH2 0x45E9 JUMP JUMPDEST PUSH20 0xFFFFFFFFFFFFFFFFFFFFFFFFFFFFFFFFFFFFFFFF AND PUSH2 0x437E PUSH2 0x23D8 JUMP JUMPDEST PUSH20 0xFFFFFFFFFFFFFFFFFFFFFFFFFFFFFFFFFFFFFFFF AND EQ PUSH2 0x43D4 JUMPI PUSH1 0x40 MLOAD PUSH32 0x8C379A000000000000000000000000000000000000000000000000000000000 DUP2 MSTORE PUSH1 0x4 ADD PUSH2 0x43CB SWAP1 PUSH2 0x5917 JUMP JUMPDEST PUSH1 0x40 MLOAD DUP1 SWAP2 SUB SWAP1 REVERT JUMPDEST JUMP JUMPDEST PUSH1 0x0 DUP1 PUSH1 0x0 SWAP1 SLOAD SWAP1 PUSH2 0x100 EXP SWAP1 DIV PUSH20 0xFFFFFFFFFFFFFFFFFFFFFFFFFFFFFFFFFFFFFFFF AND SWAP1 POP DUP2 PUSH1 0x0 DUP1 PUSH2 0x100 EXP DUP2 SLOAD DUP2 PUSH20 0xFFFFFFFFFFFFFFFFFFFFFFFFFFFFFFFFFFFFFFFF MUL NOT AND SWAP1 DUP4 PUSH20 0xFFFFFFFFFFFFFFFFFFFFFFFFFFFFFFFFFFFFFFFF AND MUL OR SWAP1 SSTORE POP DUP2 PUSH20 0xFFFFFFFFFFFFFFFFFFFFFFFFFFFFFFFFFFFFFFFF AND DUP2 PUSH20 0xFFFFFFFFFFFFFFFFFFFFFFFFFFFFFFFFFFFFFFFF AND PUSH32 0x8BE0079C531659141344CD1FD0A4F28419497F9722A3DAAFE3B4186F6B6457E0 PUSH1 0x40 MLOAD PUSH1 0x40 MLOAD DUP1 SWAP2 SUB SWAP1 LOG3 POP POP JUMP JUMPDEST PUSH2 0x4532 DUP3 DUP3 PUSH1 0x40 MLOAD PUSH1 0x24 ADD PUSH2 0x44B0 SWAP3 SWAP2 SWAP1 PUSH2 0x5937 JUMP JUMPDEST PUSH1 0x40 MLOAD PUSH1 0x20 DUP2 DUP4 SUB SUB DUP2 MSTORE SWAP1 PUSH1 0x40 MSTORE PUSH32 0x319AF33300000000000000000000000000000000000000000000000000000000 PUSH28 0xFFFFFFFFFFFFFFFFFFFFFFFFFFFFFFFFFFFFFFFFFFFFFFFFFFFFFFFF NOT AND PUSH1 0x20 DUP3 ADD DUP1 MLOAD PUSH28 0xFFFFFFFFFFFFFFFFFFFFFFFFFFFFFFFFFFFFFFFFFFFFFFFFFFFFFFFF DUP4 DUP2 DUP4 AND OR DUP4 MSTORE POP POP POP POP PUSH2 0x45CF JUMP JUMPDEST POP POP JUMP JUMPDEST PUSH2 0x45CC DUP2 PUSH1 0x40 MLOAD PUSH1 0x24 ADD PUSH2 0x454A SWAP2 SWAP1 PUSH2 0x48F0 JUMP JUMPDEST PUSH1 0x40 MLOAD PUSH1 0x20 DUP2 DUP4 SUB SUB DUP2 MSTORE SWAP1 PUSH1 0x40 MSTORE PUSH32 0x41304FAC00000000000000000000000000000000000000000000000000000000 PUSH28 0xFFFFFFFFFFFFFFFFFFFFFFFFFFFFFFFFFFFFFFFFFFFFFFFFFFFFFFFF NOT AND PUSH1 0x20 DUP3 ADD DUP1 MLOAD PUSH28 0xFFFFFFFFFFFFFFFFFFFFFFFFFFFFFFFFFFFFFFFFFFFFFFFFFFFFFFFF DUP4 DUP2 DUP4 AND OR DUP4 MSTORE POP POP POP POP PUSH2 0x45CF JUMP JUMPDEST POP JUMP JUMPDEST PUSH2 0x45E6 DUP2 PUSH2 0x45DE PUSH2 0x45F1 PUSH2 0x4612 JUMP JUMPDEST PUSH4 0xFFFFFFFF AND JUMP JUMPDEST POP JUMP JUMPDEST PUSH1 0x0 CALLER SWAP1 POP SWAP1 JUMP JUMPDEST PUSH1 0x0 PUSH11 0x636F6E736F6C652E6C6F67 SWAP1 POP PUSH1 0x0 DUP1 DUP4 MLOAD PUSH1 0x20 DUP6 ADD DUP5 GAS STATICCALL POP POP POP JUMP JUMPDEST PUSH2 0x461D DUP2 SWAP1 POP SWAP2 SWAP1 POP JUMP JUMPDEST PUSH2 0x4625 PUSH2 0x5967 JUMP JUMPDEST JUMP JUMPDEST PUSH1 0x0 DUP1 REVERT JUMPDEST PUSH1 0x0 DUP2 SWAP1 POP SWAP2 SWAP1 POP JUMP JUMPDEST PUSH2 0x463F DUP2 PUSH2 0x462C JUMP JUMPDEST DUP2 EQ PUSH2 0x464A JUMPI PUSH1 0x0 DUP1 REVERT JUMPDEST POP JUMP JUMPDEST PUSH1 0x0 DUP2 CALLDATALOAD SWAP1 POP PUSH2 0x465C DUP2 PUSH2 0x4636 JUMP JUMPDEST SWAP3 SWAP2 POP POP JUMP JUMPDEST PUSH1 0x0 PUSH1 0x20 DUP3 DUP5 SUB SLT ISZERO PUSH2 0x4678 JUMPI PUSH2 0x4677 PUSH2 0x4627 JUMP JUMPDEST JUMPDEST PUSH1 0x0 PUSH2 0x4686 DUP5 DUP3 DUP6 ADD PUSH2 0x464D JUMP JUMPDEST SWAP2 POP POP SWAP3 SWAP2 POP POP JUMP JUMPDEST PUSH1 0x0 DUP1 PUSH1 0x40 DUP4 DUP6 SUB SLT ISZERO PUSH2 0x46A6 JUMPI PUSH2 0x46A5 PUSH2 0x4627 JUMP JUMPDEST JUMPDEST PUSH1 0x0 PUSH2 0x46B4 DUP6 DUP3 DUP7 ADD PUSH2 0x464D JUMP JUMPDEST SWAP3 POP POP PUSH1 0x20 PUSH2 0x46C5 DUP6 DUP3 DUP7 ADD PUSH2 0x464D JUMP JUMPDEST SWAP2 POP POP SWAP3 POP SWAP3 SWAP1 POP JUMP JUMPDEST PUSH1 0x0 DUP1 PUSH1 0x0 PUSH1 0x60 DUP5 DUP7 SUB SLT ISZERO PUSH2 0x46E8 JUMPI PUSH2 0x46E7 PUSH2 0x4627 JUMP JUMPDEST JUMPDEST PUSH1 0x0 PUSH2 0x46F6 DUP7 DUP3 DUP8 ADD PUSH2 0x464D JUMP JUMPDEST SWAP4 POP POP PUSH1 0x20 PUSH2 0x4707 DUP7 DUP3 DUP8 ADD PUSH2 0x464D JUMP JUMPDEST SWAP3 POP POP PUSH1 0x40 PUSH2 0x4718 DUP7 DUP3 DUP8 ADD PUSH2 0x464D JUMP JUMPDEST SWAP2 POP POP SWAP3 POP SWAP3 POP SWAP3 JUMP JUMPDEST PUSH1 0x0 PUSH20 0xFFFFFFFFFFFFFFFFFFFFFFFFFFFFFFFFFFFFFFFF DUP3 AND SWAP1 POP SWAP2 SWAP1 POP JUMP JUMPDEST PUSH1 0x0 PUSH2 0x474D DUP3 PUSH2 0x4722 JUMP JUMPDEST SWAP1 POP SWAP2 SWAP1 POP JUMP JUMPDEST PUSH2 0x475D DUP2 PUSH2 0x4742 JUMP JUMPDEST DUP3 MSTORE POP POP JUMP JUMPDEST PUSH1 0x0 PUSH1 0x20 DUP3 ADD SWAP1 POP PUSH2 0x4778 PUSH1 0x0 DUP4 ADD DUP5 PUSH2 0x4754 JUMP JUMPDEST SWAP3 SWAP2 POP POP JUMP JUMPDEST PUSH2 0x4787 DUP2 PUSH2 0x462C JUMP JUMPDEST DUP3 MSTORE POP POP JUMP JUMPDEST PUSH1 0x0 PUSH1 0x20 DUP3 ADD SWAP1 POP PUSH2 0x47A2 PUSH1 0x0 DUP4 ADD DUP5 PUSH2 0x477E JUMP JUMPDEST SWAP3 SWAP2 POP POP JUMP JUMPDEST PUSH1 0x0 DUP2 ISZERO ISZERO SWAP1 POP SWAP2 SWAP1 POP JUMP JUMPDEST PUSH2 0x47BD DUP2 PUSH2 0x47A8 JUMP JUMPDEST DUP3 MSTORE POP POP JUMP JUMPDEST PUSH1 0x0 PUSH1 0x20 DUP3 ADD SWAP1 POP PUSH2 0x47D8 PUSH1 0x0 DUP4 ADD DUP5 PUSH2 0x47B4 JUMP JUMPDEST SWAP3 SWAP2 POP POP JUMP JUMPDEST PUSH1 0x0 PUSH1 0x40 DUP3 ADD SWAP1 POP PUSH2 0x47F3 PUSH1 0x0 DUP4 ADD DUP6 PUSH2 0x477E JUMP JUMPDEST PUSH2 0x4800 PUSH1 0x20 DUP4 ADD DUP5 PUSH2 0x477E JUMP JUMPDEST SWAP4 SWAP3 POP POP POP JUMP JUMPDEST PUSH2 0x4810 DUP2 PUSH2 0x4742 JUMP JUMPDEST DUP2 EQ PUSH2 0x481B JUMPI PUSH1 0x0 DUP1 REVERT JUMPDEST POP JUMP JUMPDEST PUSH1 0x0 DUP2 CALLDATALOAD SWAP1 POP PUSH2 0x482D DUP2 PUSH2 0x4807 JUMP JUMPDEST SWAP3 SWAP2 POP POP JUMP JUMPDEST PUSH1 0x0 PUSH1 0x20 DUP3 DUP5 SUB SLT ISZERO PUSH2 0x4849 JUMPI PUSH2 0x4848 PUSH2 0x4627 JUMP JUMPDEST JUMPDEST PUSH1 0x0 PUSH2 0x4857 DUP5 DUP3 DUP6 ADD PUSH2 0x481E JUMP JUMPDEST SWAP2 POP POP SWAP3 SWAP2 POP POP JUMP JUMPDEST PUSH1 0x0 DUP2 MLOAD SWAP1 POP SWAP2 SWAP1 POP JUMP JUMPDEST PUSH1 0x0 DUP3 DUP3 MSTORE PUSH1 0x20 DUP3 ADD SWAP1 POP SWAP3 SWAP2 POP POP JUMP JUMPDEST PUSH1 0x0 JUMPDEST DUP4 DUP2 LT ISZERO PUSH2 0x489A JUMPI DUP1 DUP3 ADD MLOAD DUP2 DUP5 ADD MSTORE PUSH1 0x20 DUP2 ADD SWAP1 POP PUSH2 0x487F JUMP JUMPDEST PUSH1 0x0 DUP5 DUP5 ADD MSTORE POP POP POP POP JUMP JUMPDEST PUSH1 0x0 PUSH1 0x1F NOT PUSH1 0x1F DUP4 ADD AND SWAP1 POP SWAP2 SWAP1 POP JUMP JUMPDEST PUSH1 0x0 PUSH2 0x48C2 DUP3 PUSH2 0x4860 JUMP JUMPDEST PUSH2 0x48CC DUP2 DUP6 PUSH2 0x486B JUMP JUMPDEST SWAP4 POP PUSH2 0x48DC DUP2 DUP6 PUSH1 0x20 DUP7 ADD PUSH2 0x487C JUMP JUMPDEST PUSH2 0x48E5 DUP2 PUSH2 0x48A6 JUMP JUMPDEST DUP5 ADD SWAP2 POP POP SWAP3 SWAP2 POP POP JUMP JUMPDEST PUSH1 0x0 PUSH1 0x20 DUP3 ADD SWAP1 POP DUP2 DUP2 SUB PUSH1 0x0 DUP4 ADD MSTORE PUSH2 0x490A DUP2 DUP5 PUSH2 0x48B7 JUMP JUMPDEST SWAP1 POP SWAP3 SWAP2 POP POP JUMP JUMPDEST PUSH1 0x0 DUP2 SWAP1 POP SWAP2 SWAP1 POP JUMP JUMPDEST PUSH1 0x0 PUSH2 0x4937 PUSH2 0x4932 PUSH2 0x492D DUP5 PUSH2 0x4722 JUMP JUMPDEST PUSH2 0x4912 JUMP JUMPDEST PUSH2 0x4722 JUMP JUMPDEST SWAP1 POP SWAP2 SWAP1 POP JUMP JUMPDEST PUSH1 0x0 PUSH2 0x4949 DUP3 PUSH2 0x491C JUMP JUMPDEST SWAP1 POP SWAP2 SWAP1 POP JUMP JUMPDEST PUSH1 0x0 PUSH2 0x495B DUP3 PUSH2 0x493E JUMP JUMPDEST SWAP1 POP SWAP2 SWAP1 POP JUMP JUMPDEST PUSH2 0x496B DUP2 PUSH2 0x4950 JUMP JUMPDEST DUP3 MSTORE POP POP JUMP JUMPDEST PUSH1 0x0 PUSH1 0x20 DUP3 ADD SWAP1 POP PUSH2 0x4986 PUSH1 0x0 DUP4 ADD DUP5 PUSH2 0x4962 JUMP JUMPDEST SWAP3 SWAP2 POP POP JUMP JUMPDEST PUSH32 0x43616E6E6F7420737761702061206E6567617469766520616D6F756E74000000 PUSH1 0x0 DUP3 ADD MSTORE POP JUMP JUMPDEST PUSH1 0x0 PUSH2 0x49C2 PUSH1 0x1D DUP4 PUSH2 0x486B JUMP JUMPDEST SWAP2 POP PUSH2 0x49CD DUP3 PUSH2 0x498C JUMP JUMPDEST PUSH1 0x20 DUP3 ADD SWAP1 POP SWAP2 SWAP1 POP JUMP JUMPDEST PUSH1 0x0 PUSH1 0x20 DUP3 ADD SWAP1 POP DUP2 DUP2 SUB PUSH1 0x0 DUP4 ADD MSTORE PUSH2 0x49F1 DUP2 PUSH2 0x49B5 JUMP JUMPDEST SWAP1 POP SWAP2 SWAP1 POP JUMP JUMPDEST PUSH32 0x4E487B7100000000000000000000000000000000000000000000000000000000 PUSH1 0x0 MSTORE PUSH1 0x11 PUSH1 0x4 MSTORE PUSH1 0x24 PUSH1 0x0 REVERT JUMPDEST PUSH1 0x0 PUSH2 0x4A32 DUP3 PUSH2 0x462C JUMP JUMPDEST SWAP2 POP PUSH2 0x4A3D DUP4 PUSH2 0x462C JUMP JUMPDEST SWAP3 POP DUP3 DUP3 SUB SWAP1 POP DUP2 DUP2 GT ISZERO PUSH2 0x4A55 JUMPI PUSH2 0x4A54 PUSH2 0x49F8 JUMP JUMPDEST JUMPDEST SWAP3 SWAP2 POP POP JUMP JUMPDEST PUSH32 0x43757272656E74207261746520686173206D6F7665642061626F7665206D6178 PUSH1 0x0 DUP3 ADD MSTORE PUSH32 0x45786368616E6765526174650000000000000000000000000000000000000000 PUSH1 0x20 DUP3 ADD MSTORE POP JUMP JUMPDEST PUSH1 0x0 PUSH2 0x4AB7 PUSH1 0x2C DUP4 PUSH2 0x486B JUMP JUMPDEST SWAP2 POP PUSH2 0x4AC2 DUP3 PUSH2 0x4A5B JUMP JUMPDEST PUSH1 0x40 DUP3 ADD SWAP1 POP SWAP2 SWAP1 POP JUMP JUMPDEST PUSH1 0x0 PUSH1 0x20 DUP3 ADD SWAP1 POP DUP2 DUP2 SUB PUSH1 0x0 DUP4 ADD MSTORE PUSH2 0x4AE6 DUP2 PUSH2 0x4AAA JUMP JUMPDEST SWAP1 POP SWAP2 SWAP1 POP JUMP JUMPDEST PUSH1 0x0 PUSH2 0x4AF8 DUP3 PUSH2 0x462C JUMP JUMPDEST SWAP2 POP PUSH2 0x4B03 DUP4 PUSH2 0x462C JUMP JUMPDEST SWAP3 POP DUP3 DUP3 MUL PUSH2 0x4B11 DUP2 PUSH2 0x462C JUMP JUMPDEST SWAP2 POP DUP3 DUP3 DIV DUP5 EQ DUP4 ISZERO OR PUSH2 0x4B28 JUMPI PUSH2 0x4B27 PUSH2 0x49F8 JUMP JUMPDEST JUMPDEST POP SWAP3 SWAP2 POP POP JUMP JUMPDEST PUSH32 0x4E487B7100000000000000000000000000000000000000000000000000000000 PUSH1 0x0 MSTORE PUSH1 0x12 PUSH1 0x4 MSTORE PUSH1 0x24 PUSH1 0x0 REVERT JUMPDEST PUSH1 0x0 PUSH2 0x4B69 DUP3 PUSH2 0x462C JUMP JUMPDEST SWAP2 POP PUSH2 0x4B74 DUP4 PUSH2 0x462C JUMP JUMPDEST SWAP3 POP DUP3 PUSH2 0x4B84 JUMPI PUSH2 0x4B83 PUSH2 0x4B2F JUMP JUMPDEST JUMPDEST DUP3 DUP3 DIV SWAP1 POP SWAP3 SWAP2 POP POP JUMP JUMPDEST PUSH1 0x0 PUSH2 0x4B9A DUP3 PUSH2 0x462C JUMP JUMPDEST SWAP2 POP PUSH2 0x4BA5 DUP4 PUSH2 0x462C JUMP JUMPDEST SWAP3 POP DUP3 DUP3 ADD SWAP1 POP DUP1 DUP3 GT ISZERO PUSH2 0x4BBD JUMPI PUSH2 0x4BBC PUSH2 0x49F8 JUMP JUMPDEST JUMPDEST SWAP3 SWAP2 POP POP JUMP JUMPDEST PUSH32 0x43616E6E6F742067697665206261636B2061206E6567617469766520746F6B65 PUSH1 0x0 DUP3 ADD MSTORE PUSH32 0x6E206E756D626572000000000000000000000000000000000000000000000000 PUSH1 0x20 DUP3 ADD MSTORE POP JUMP JUMPDEST PUSH1 0x0 PUSH2 0x4C1F PUSH1 0x28 DUP4 PUSH2 0x486B JUMP JUMPDEST SWAP2 POP PUSH2 0x4C2A DUP3 PUSH2 0x4BC3 JUMP JUMPDEST PUSH1 0x40 DUP3 ADD SWAP1 POP SWAP2 SWAP1 POP JUMP JUMPDEST PUSH1 0x0 PUSH1 0x20 DUP3 ADD SWAP1 POP DUP2 DUP2 SUB PUSH1 0x0 DUP4 ADD MSTORE PUSH2 0x4C4E DUP2 PUSH2 0x4C12 JUMP JUMPDEST SWAP1 POP SWAP2 SWAP1 POP JUMP JUMPDEST PUSH32 0x4E6F7420656E6F75676820746F6B656E7320696E207265736572766520746F20 PUSH1 0x0 DUP3 ADD MSTORE PUSH32 0x6D616B6520737761700000000000000000000000000000000000000000000000 PUSH1 0x20 DUP3 ADD MSTORE POP JUMP JUMPDEST PUSH1 0x0 PUSH2 0x4CB1 PUSH1 0x29 DUP4 PUSH2 0x486B JUMP JUMPDEST SWAP2 POP PUSH2 0x4CBC DUP3 PUSH2 0x4C55 JUMP JUMPDEST PUSH1 0x40 DUP3 ADD SWAP1 POP SWAP2 SWAP1 POP JUMP JUMPDEST PUSH1 0x0 PUSH1 0x20 DUP3 ADD SWAP1 POP DUP2 DUP2 SUB PUSH1 0x0 DUP4 ADD MSTORE PUSH2 0x4CE0 DUP2 PUSH2 0x4CA4 JUMP JUMPDEST SWAP1 POP SWAP2 SWAP1 POP JUMP JUMPDEST PUSH32 0x4E487B7100000000000000000000000000000000000000000000000000000000 PUSH1 0x0 MSTORE PUSH1 0x32 PUSH1 0x4 MSTORE PUSH1 0x24 PUSH1 0x0 REVERT JUMPDEST PUSH1 0x0 PUSH2 0x4D21 DUP3 PUSH2 0x462C JUMP JUMPDEST SWAP2 POP PUSH32 0xFFFFFFFFFFFFFFFFFFFFFFFFFFFFFFFFFFFFFFFFFFFFFFFFFFFFFFFFFFFFFFFF DUP3 SUB PUSH2 0x4D53 JUMPI PUSH2 0x4D52 PUSH2 0x49F8 JUMP JUMPDEST JUMPDEST PUSH1 0x1 DUP3 ADD SWAP1 POP SWAP2 SWAP1 POP JUMP JUMPDEST PUSH1 0x0 PUSH1 0x40 DUP3 ADD SWAP1 POP PUSH2 0x4D73 PUSH1 0x0 DUP4 ADD DUP6 PUSH2 0x4754 JUMP JUMPDEST PUSH2 0x4D80 PUSH1 0x20 DUP4 ADD DUP5 PUSH2 0x477E JUMP JUMPDEST SWAP4 SWAP3 POP POP POP JUMP JUMPDEST PUSH2 0x4D90 DUP2 PUSH2 0x47A8 JUMP JUMPDEST DUP2 EQ PUSH2 0x4D9B JUMPI PUSH1 0x0 DUP1 REVERT JUMPDEST POP JUMP JUMPDEST PUSH1 0x0 DUP2 MLOAD SWAP1 POP PUSH2 0x4DAD DUP2 PUSH2 0x4D87 JUMP JUMPDEST SWAP3 SWAP2 POP POP JUMP JUMPDEST PUSH1 0x0 PUSH1 0x20 DUP3 DUP5 SUB SLT ISZERO PUSH2 0x4DC9 JUMPI PUSH2 0x4DC8 PUSH2 0x4627 JUMP JUMPDEST JUMPDEST PUSH1 0x0 PUSH2 0x4DD7 DUP5 DUP3 DUP6 ADD PUSH2 0x4D9E JUMP JUMPDEST SWAP2 POP POP SWAP3 SWAP2 POP POP JUMP JUMPDEST PUSH1 0x0 DUP2 MLOAD SWAP1 POP PUSH2 0x4DEF DUP2 PUSH2 0x4636 JUMP JUMPDEST SWAP3 SWAP2 POP POP JUMP JUMPDEST PUSH1 0x0 PUSH1 0x20 DUP3 DUP5 SUB SLT ISZERO PUSH2 0x4E0B JUMPI PUSH2 0x4E0A PUSH2 0x4627 JUMP JUMPDEST JUMPDEST PUSH1 0x0 PUSH2 0x4E19 DUP5 DUP3 DUP6 ADD PUSH2 0x4DE0 JUMP JUMPDEST SWAP2 POP POP SWAP3 SWAP2 POP POP JUMP JUMPDEST PUSH32 0x43757272656E74207261746520686173206D6F7665642062656C6F77206D696E PUSH1 0x0 DUP3 ADD MSTORE PUSH32 0x45786368616E6765526174650000000000000000000000000000000000000000 PUSH1 0x20 DUP3 ADD MSTORE POP JUMP JUMPDEST PUSH1 0x0 PUSH2 0x4E7E PUSH1 0x2C DUP4 PUSH2 0x486B JUMP JUMPDEST SWAP2 POP PUSH2 0x4E89 DUP3 PUSH2 0x4E22 JUMP JUMPDEST PUSH1 0x40 DUP3 ADD SWAP1 POP SWAP2 SWAP1 POP JUMP JUMPDEST PUSH1 0x0 PUSH1 0x20 DUP3 ADD SWAP1 POP DUP2 DUP2 SUB PUSH1 0x0 DUP4 ADD MSTORE PUSH2 0x4EAD DUP2 PUSH2 0x4E71 JUMP JUMPDEST SWAP1 POP SWAP2 SWAP1 POP JUMP JUMPDEST PUSH32 0x43616E6E6F74206465706C6574652065746820726573657276657320746F2030 PUSH1 0x0 DUP3 ADD MSTORE POP JUMP JUMPDEST PUSH1 0x0 PUSH2 0x4EEA PUSH1 0x20 DUP4 PUSH2 0x486B JUMP JUMPDEST SWAP2 POP PUSH2 0x4EF5 DUP3 PUSH2 0x4EB4 JUMP JUMPDEST PUSH1 0x20 DUP3 ADD SWAP1 POP SWAP2 SWAP1 POP JUMP JUMPDEST PUSH1 0x0 PUSH1 0x20 DUP3 ADD SWAP1 POP DUP2 DUP2 SUB PUSH1 0x0 DUP4 ADD MSTORE PUSH2 0x4F19 DUP2 PUSH2 0x4EDD JUMP JUMPDEST SWAP1 POP SWAP2 SWAP1 POP JUMP JUMPDEST PUSH32 0x43616E6E6F74206465706C65746520746F6B656E20726573657276657320746F PUSH1 0x0 DUP3 ADD MSTORE PUSH32 0x2030000000000000000000000000000000000000000000000000000000000000 PUSH1 0x20 DUP3 ADD MSTORE POP JUMP JUMPDEST PUSH1 0x0 PUSH2 0x4F7C PUSH1 0x22 DUP4 PUSH2 0x486B JUMP JUMPDEST SWAP2 POP PUSH2 0x4F87 DUP3 PUSH2 0x4F20 JUMP JUMPDEST PUSH1 0x40 DUP3 ADD SWAP1 POP SWAP2 SWAP1 POP JUMP JUMPDEST PUSH1 0x0 PUSH1 0x20 DUP3 ADD SWAP1 POP DUP2 DUP2 SUB PUSH1 0x0 DUP4 ADD MSTORE PUSH2 0x4FAB DUP2 PUSH2 0x4F6F JUMP JUMPDEST SWAP1 POP SWAP2 SWAP1 POP JUMP JUMPDEST PUSH32 0x546F6B656E20726573657276657320776173206E6F7420300000000000000000 PUSH1 0x0 DUP3 ADD MSTORE POP JUMP JUMPDEST PUSH1 0x0 PUSH2 0x4FE8 PUSH1 0x18 DUP4 PUSH2 0x486B JUMP JUMPDEST SWAP2 POP PUSH2 0x4FF3 DUP3 PUSH2 0x4FB2 JUMP JUMPDEST PUSH1 0x20 DUP3 ADD SWAP1 POP SWAP2 SWAP1 POP JUMP JUMPDEST PUSH1 0x0 PUSH1 0x20 DUP3 ADD SWAP1 POP DUP2 DUP2 SUB PUSH1 0x0 DUP4 ADD MSTORE PUSH2 0x5017 DUP2 PUSH2 0x4FDB JUMP JUMPDEST SWAP1 POP SWAP2 SWAP1 POP JUMP JUMPDEST PUSH32 0x45544820726573657276657320776173206E6F7420302E000000000000000000 PUSH1 0x0 DUP3 ADD MSTORE POP JUMP JUMPDEST PUSH1 0x0 PUSH2 0x5054 PUSH1 0x17 DUP4 PUSH2 0x486B JUMP JUMPDEST SWAP2 POP PUSH2 0x505F DUP3 PUSH2 0x501E JUMP JUMPDEST PUSH1 0x20 DUP3 ADD SWAP1 POP SWAP2 SWAP1 POP JUMP JUMPDEST PUSH1 0x0 PUSH1 0x20 DUP3 ADD SWAP1 POP DUP2 DUP2 SUB PUSH1 0x0 DUP4 ADD MSTORE PUSH2 0x5083 DUP2 PUSH2 0x5047 JUMP JUMPDEST SWAP1 POP SWAP2 SWAP1 POP JUMP JUMPDEST PUSH32 0x4E6565642065746820746F2063726561746520706F6F6C2E0000000000000000 PUSH1 0x0 DUP3 ADD MSTORE POP JUMP JUMPDEST PUSH1 0x0 PUSH2 0x50C0 PUSH1 0x18 DUP4 PUSH2 0x486B JUMP JUMPDEST SWAP2 POP PUSH2 0x50CB DUP3 PUSH2 0x508A JUMP JUMPDEST PUSH1 0x20 DUP3 ADD SWAP1 POP SWAP2 SWAP1 POP JUMP JUMPDEST PUSH1 0x0 PUSH1 0x20 DUP3 ADD SWAP1 POP DUP2 DUP2 SUB PUSH1 0x0 DUP4 ADD MSTORE PUSH2 0x50EF DUP2 PUSH2 0x50B3 JUMP JUMPDEST SWAP1 POP SWAP2 SWAP1 POP JUMP JUMPDEST PUSH32 0x4E6F74206861766520656E6F75676820746F6B656E7320746F20637265617465 PUSH1 0x0 DUP3 ADD MSTORE PUSH32 0x2074686520706F6F6C0000000000000000000000000000000000000000000000 PUSH1 0x20 DUP3 ADD MSTORE POP JUMP JUMPDEST PUSH1 0x0 PUSH2 0x5152 PUSH1 0x29 DUP4 PUSH2 0x486B JUMP JUMPDEST SWAP2 POP PUSH2 0x515D DUP3 PUSH2 0x50F6 JUMP JUMPDEST PUSH1 0x40 DUP3 ADD SWAP1 POP SWAP2 SWAP1 POP JUMP JUMPDEST PUSH1 0x0 PUSH1 0x20 DUP3 ADD SWAP1 POP DUP2 DUP2 SUB PUSH1 0x0 DUP4 ADD MSTORE PUSH2 0x5181 DUP2 PUSH2 0x5145 JUMP JUMPDEST SWAP1 POP SWAP2 SWAP1 POP JUMP JUMPDEST PUSH32 0x4E65656420746F6B656E7320746F2063726561746520706F6F6C2E0000000000 PUSH1 0x0 DUP3 ADD MSTORE POP JUMP JUMPDEST PUSH1 0x0 PUSH2 0x51BE PUSH1 0x1B DUP4 PUSH2 0x486B JUMP JUMPDEST SWAP2 POP PUSH2 0x51C9 DUP3 PUSH2 0x5188 JUMP JUMPDEST PUSH1 0x20 DUP3 ADD SWAP1 POP SWAP2 SWAP1 POP JUMP JUMPDEST PUSH1 0x0 PUSH1 0x20 DUP3 ADD SWAP1 POP DUP2 DUP2 SUB PUSH1 0x0 DUP4 ADD MSTORE PUSH2 0x51ED DUP2 PUSH2 0x51B1 JUMP JUMPDEST SWAP1 POP SWAP2 SWAP1 POP JUMP JUMPDEST PUSH1 0x0 PUSH1 0x60 DUP3 ADD SWAP1 POP PUSH2 0x5209 PUSH1 0x0 DUP4 ADD DUP7 PUSH2 0x4754 JUMP JUMPDEST PUSH2 0x5216 PUSH1 0x20 DUP4 ADD DUP6 PUSH2 0x4754 JUMP JUMPDEST PUSH2 0x5223 PUSH1 0x40 DUP4 ADD DUP5 PUSH2 0x477E JUMP JUMPDEST SWAP5 SWAP4 POP POP POP POP JUMP JUMPDEST PUSH32 0x4D7573742072656D6F766520706F73697469766520616D6F756E74206F66206C PUSH1 0x0 DUP3 ADD MSTORE PUSH32 0x6971756964697479000000000000000000000000000000000000000000000000 PUSH1 0x20 DUP3 ADD MSTORE POP JUMP JUMPDEST PUSH1 0x0 PUSH2 0x5287 PUSH1 0x28 DUP4 PUSH2 0x486B JUMP JUMPDEST SWAP2 POP PUSH2 0x5292 DUP3 PUSH2 0x522B JUMP JUMPDEST PUSH1 0x40 DUP3 ADD SWAP1 POP SWAP2 SWAP1 POP JUMP JUMPDEST PUSH1 0x0 PUSH1 0x20 DUP3 ADD SWAP1 POP DUP2 DUP2 SUB PUSH1 0x0 DUP4 ADD MSTORE PUSH2 0x52B6 DUP2 PUSH2 0x527A JUMP JUMPDEST SWAP1 POP SWAP2 SWAP1 POP JUMP JUMPDEST PUSH32 0x43616E6E6F74206465706C6574652045544820726573657276657320746F2030 PUSH1 0x0 DUP3 ADD MSTORE POP JUMP JUMPDEST PUSH1 0x0 PUSH2 0x52F3 PUSH1 0x20 DUP4 PUSH2 0x486B JUMP JUMPDEST SWAP2 POP PUSH2 0x52FE DUP3 PUSH2 0x52BD JUMP JUMPDEST PUSH1 0x20 DUP3 ADD SWAP1 POP SWAP2 SWAP1 POP JUMP JUMPDEST PUSH1 0x0 PUSH1 0x20 DUP3 ADD SWAP1 POP DUP2 DUP2 SUB PUSH1 0x0 DUP4 ADD MSTORE PUSH2 0x5322 DUP2 PUSH2 0x52E6 JUMP JUMPDEST SWAP1 POP SWAP2 SWAP1 POP JUMP JUMPDEST PUSH32 0x4C502068617320696E73756666696369656E74206C6971756964697479000000 PUSH1 0x0 DUP3 ADD MSTORE POP JUMP JUMPDEST PUSH1 0x0 PUSH2 0x535F PUSH1 0x1D DUP4 PUSH2 0x486B JUMP JUMPDEST SWAP2 POP PUSH2 0x536A DUP3 PUSH2 0x5329 JUMP JUMPDEST PUSH1 0x20 DUP3 ADD SWAP1 POP SWAP2 SWAP1 POP JUMP JUMPDEST PUSH1 0x0 PUSH1 0x20 DUP3 ADD SWAP1 POP DUP2 DUP2 SUB PUSH1 0x0 DUP4 ADD MSTORE PUSH2 0x538E DUP2 PUSH2 0x5352 JUMP JUMPDEST SWAP1 POP SWAP2 SWAP1 POP JUMP JUMPDEST PUSH32 0x4D7573742061646420706F73697469766520616D6F756E74206F66206C697175 PUSH1 0x0 DUP3 ADD MSTORE PUSH32 0x6964697479000000000000000000000000000000000000000000000000000000 PUSH1 0x20 DUP3 ADD MSTORE POP JUMP JUMPDEST PUSH1 0x0 PUSH2 0x53F1 PUSH1 0x25 DUP4 PUSH2 0x486B JUMP JUMPDEST SWAP2 POP PUSH2 0x53FC DUP3 PUSH2 0x5395 JUMP JUMPDEST PUSH1 0x40 DUP3 ADD SWAP1 POP SWAP2 SWAP1 POP JUMP JUMPDEST PUSH1 0x0 PUSH1 0x20 DUP3 ADD SWAP1 POP DUP2 DUP2 SUB PUSH1 0x0 DUP4 ADD MSTORE PUSH2 0x5420 DUP2 PUSH2 0x53E4 JUMP JUMPDEST SWAP1 POP SWAP2 SWAP1 POP JUMP JUMPDEST PUSH32 0x53656E64657220646F6573206E6F74206861766520656E6F75676820746F6B65 PUSH1 0x0 DUP3 ADD MSTORE PUSH32 0x6E7320746F20616464207468617420616D6F756E74206F66206C697175696469 PUSH1 0x20 DUP3 ADD MSTORE PUSH32 0x7479000000000000000000000000000000000000000000000000000000000000 PUSH1 0x40 DUP3 ADD MSTORE POP JUMP JUMPDEST PUSH1 0x0 PUSH2 0x54A9 PUSH1 0x42 DUP4 PUSH2 0x486B JUMP JUMPDEST SWAP2 POP PUSH2 0x54B4 DUP3 PUSH2 0x5427 JUMP JUMPDEST PUSH1 0x60 DUP3 ADD SWAP1 POP SWAP2 SWAP1 POP JUMP JUMPDEST PUSH1 0x0 PUSH1 0x20 DUP3 ADD SWAP1 POP DUP2 DUP2 SUB PUSH1 0x0 DUP4 ADD MSTORE PUSH2 0x54D8 DUP2 PUSH2 0x549C JUMP JUMPDEST SWAP1 POP SWAP2 SWAP1 POP JUMP JUMPDEST PUSH32 0x4E6F7420656E6F75676820746F6B656E7320746F206D616B6520746869732073 PUSH1 0x0 DUP3 ADD MSTORE PUSH32 0x7761700000000000000000000000000000000000000000000000000000000000 PUSH1 0x20 DUP3 ADD MSTORE POP JUMP JUMPDEST PUSH1 0x0 PUSH2 0x553B PUSH1 0x23 DUP4 PUSH2 0x486B JUMP JUMPDEST SWAP2 POP PUSH2 0x5546 DUP3 PUSH2 0x54DF JUMP JUMPDEST PUSH1 0x40 DUP3 ADD SWAP1 POP SWAP2 SWAP1 POP JUMP JUMPDEST PUSH1 0x0 PUSH1 0x20 DUP3 ADD SWAP1 POP DUP2 DUP2 SUB PUSH1 0x0 DUP4 ADD MSTORE PUSH2 0x556A DUP2 PUSH2 0x552E JUMP JUMPDEST SWAP1 POP SWAP2 SWAP1 POP JUMP JUMPDEST PUSH32 0x4D7573742073776170206120706F73697469766520616D6F756E74206F662074 PUSH1 0x0 DUP3 ADD MSTORE PUSH32 0x6F6B656E73000000000000000000000000000000000000000000000000000000 PUSH1 0x20 DUP3 ADD MSTORE POP JUMP JUMPDEST PUSH1 0x0 PUSH2 0x55CD PUSH1 0x25 DUP4 PUSH2 0x486B JUMP JUMPDEST SWAP2 POP PUSH2 0x55D8 DUP3 PUSH2 0x5571 JUMP JUMPDEST PUSH1 0x40 DUP3 ADD SWAP1 POP SWAP2 SWAP1 POP JUMP JUMPDEST PUSH1 0x0 PUSH1 0x20 DUP3 ADD SWAP1 POP DUP2 DUP2 SUB PUSH1 0x0 DUP4 ADD MSTORE PUSH2 0x55FC DUP2 PUSH2 0x55C0 JUMP JUMPDEST SWAP1 POP SWAP2 SWAP1 POP JUMP JUMPDEST PUSH32 0x496E73756666696369656E74207265736572766573206F662045544820666F72 PUSH1 0x0 DUP3 ADD MSTORE PUSH32 0x20746865207472616E73616374696F6E00000000000000000000000000000000 PUSH1 0x20 DUP3 ADD MSTORE POP JUMP JUMPDEST PUSH1 0x0 PUSH2 0x565F PUSH1 0x30 DUP4 PUSH2 0x486B JUMP JUMPDEST SWAP2 POP PUSH2 0x566A DUP3 PUSH2 0x5603 JUMP JUMPDEST PUSH1 0x40 DUP3 ADD SWAP1 POP SWAP2 SWAP1 POP JUMP JUMPDEST PUSH1 0x0 PUSH1 0x20 DUP3 ADD SWAP1 POP DUP2 DUP2 SUB PUSH1 0x0 DUP4 ADD MSTORE PUSH2 0x568E DUP2 PUSH2 0x5652 JUMP JUMPDEST SWAP1 POP SWAP2 SWAP1 POP JUMP JUMPDEST PUSH32 0x4F776E61626C653A206E6577206F776E657220697320746865207A65726F2061 PUSH1 0x0 DUP3 ADD MSTORE PUSH32 0x6464726573730000000000000000000000000000000000000000000000000000 PUSH1 0x20 DUP3 ADD MSTORE POP JUMP JUMPDEST PUSH1 0x0 PUSH2 0x56F1 PUSH1 0x26 DUP4 PUSH2 0x486B JUMP JUMPDEST SWAP2 POP PUSH2 0x56FC DUP3 PUSH2 0x5695 JUMP JUMPDEST PUSH1 0x40 DUP3 ADD SWAP1 POP SWAP2 SWAP1 POP JUMP JUMPDEST PUSH1 0x0 PUSH1 0x20 DUP3 ADD SWAP1 POP DUP2 DUP2 SUB PUSH1 0x0 DUP4 ADD MSTORE PUSH2 0x5720 DUP2 PUSH2 0x56E4 JUMP JUMPDEST SWAP1 POP SWAP2 SWAP1 POP JUMP JUMPDEST PUSH32 0x4E487B7100000000000000000000000000000000000000000000000000000000 PUSH1 0x0 MSTORE PUSH1 0x22 PUSH1 0x4 MSTORE PUSH1 0x24 PUSH1 0x0 REVERT JUMPDEST PUSH1 0x0 PUSH1 0x2 DUP3 DIV SWAP1 POP PUSH1 0x1 DUP3 AND DUP1 PUSH2 0x576E JUMPI PUSH1 0x7F DUP3 AND SWAP2 POP JUMPDEST PUSH1 0x20 DUP3 LT DUP2 SUB PUSH2 0x5781 JUMPI PUSH2 0x5780 PUSH2 0x5727 JUMP JUMPDEST JUMPDEST POP SWAP2 SWAP1 POP JUMP JUMPDEST PUSH1 0x0 PUSH1 0x40 DUP3 ADD SWAP1 POP DUP2 DUP2 SUB PUSH1 0x0 DUP4 ADD MSTORE PUSH2 0x57A1 DUP2 DUP6 PUSH2 0x48B7 JUMP JUMPDEST SWAP1 POP PUSH2 0x57B0 PUSH1 0x20 DUP4 ADD DUP5 PUSH2 0x477E JUMP JUMPDEST SWAP4 SWAP3 POP POP POP JUMP JUMPDEST PUSH1 0x0 PUSH1 0x80 DUP3 ADD SWAP1 POP DUP2 DUP2 SUB PUSH1 0x0 DUP4 ADD MSTORE PUSH2 0x57D1 DUP2 DUP8 PUSH2 0x48B7 JUMP JUMPDEST SWAP1 POP PUSH2 0x57E0 PUSH1 0x20 DUP4 ADD DUP7 PUSH2 0x4754 JUMP JUMPDEST DUP2 DUP2 SUB PUSH1 0x40 DUP4 ADD MSTORE PUSH2 0x57F2 DUP2 DUP6 PUSH2 0x48B7 JUMP JUMPDEST SWAP1 POP PUSH2 0x5801 PUSH1 0x60 DUP4 ADD DUP5 PUSH2 0x477E JUMP JUMPDEST SWAP6 SWAP5 POP POP POP POP POP JUMP JUMPDEST PUSH32 0x73706563696669656420696E646578206973206C6172676572207468616E2074 PUSH1 0x0 DUP3 ADD MSTORE PUSH32 0x6865206E756D626572206F66206C707300000000000000000000000000000000 PUSH1 0x20 DUP3 ADD MSTORE POP JUMP JUMPDEST PUSH1 0x0 PUSH2 0x5866 PUSH1 0x30 DUP4 PUSH2 0x486B JUMP JUMPDEST SWAP2 POP PUSH2 0x5871 DUP3 PUSH2 0x580A JUMP JUMPDEST PUSH1 0x40 DUP3 ADD SWAP1 POP SWAP2 SWAP1 POP JUMP JUMPDEST PUSH1 0x0 PUSH1 0x20 DUP3 ADD SWAP1 POP DUP2 DUP2 SUB PUSH1 0x0 DUP4 ADD MSTORE PUSH2 0x5895 DUP2 PUSH2 0x5859 JUMP JUMPDEST SWAP1 POP SWAP2 SWAP1 POP JUMP JUMPDEST PUSH32 0x4E487B7100000000000000000000000000000000000000000000000000000000 PUSH1 0x0 MSTORE PUSH1 0x31 PUSH1 0x4 MSTORE PUSH1 0x24 PUSH1 0x0 REVERT JUMPDEST PUSH32 0x4F776E61626C653A2063616C6C6572206973206E6F7420746865206F776E6572 PUSH1 0x0 DUP3 ADD MSTORE POP JUMP JUMPDEST PUSH1 0x0 PUSH2 0x5901 PUSH1 0x20 DUP4 PUSH2 0x486B JUMP JUMPDEST SWAP2 POP PUSH2 0x590C DUP3 PUSH2 0x58CB JUMP JUMPDEST PUSH1 0x20 DUP3 ADD SWAP1 POP SWAP2 SWAP1 POP JUMP JUMPDEST PUSH1 0x0 PUSH1 0x20 DUP3 ADD SWAP1 POP DUP2 DUP2 SUB PUSH1 0x0 DUP4 ADD MSTORE PUSH2 0x5930 DUP2 PUSH2 0x58F4 JUMP JUMPDEST SWAP1 POP SWAP2 SWAP1 POP JUMP JUMPDEST PUSH1 0x0 PUSH1 0x40 DUP3 ADD SWAP1 POP DUP2 DUP2 SUB PUSH1 0x0 DUP4 ADD MSTORE PUSH2 0x5951 DUP2 DUP6 PUSH2 0x48B7 JUMP JUMPDEST SWAP1 POP PUSH2 0x5960 PUSH1 0x20 DUP4 ADD DUP5 PUSH2 0x4754 JUMP JUMPDEST SWAP4 SWAP3 POP POP POP JUMP JUMPDEST PUSH32 0x4E487B7100000000000000000000000000000000000000000000000000000000 PUSH1 0x0 MSTORE PUSH1 0x51 PUSH1 0x4 MSTORE PUSH1 0x24 PUSH1 0x0 REVERT INVALID LOG2 PUSH5 0x6970667358 0x22 SLT KECCAK256 0xB6 0xC7 0xD3 PUSH24 0xE136426D534B42E8FA1AA4FEB4C64C149A05F0EDA680B7D6 MUL 0xDC DUP2 0xDB PUSH5 0x736F6C6343 STOP ADDMOD GT STOP CALLER "},"methodIdentifiers":{"addLiquidity(uint256,uint256)":"9cd441da","createPool(uint256)":"8259e6a0","ethToTokenRate()":"e09adc70","exchange_name()":"f694f7d1","findAmtShares(uint256)":"a65540fb","getSwapFee()":"d4cadf68","owner()":"8da5cb5b","print_lps()":"b09bbcbc","removeAllLiquidity(uint256,uint256)":"58ad6de4","removeLiquidity(uint256,uint256,uint256)":"857620e1","renounceOwnership()":"715018a6","swapETHForTokens(uint256)":"2eab2841","swapTokensForETH(uint256,uint256)":"a22280a6","token()":"fc0c546a","transferOwnership(address)":"f2fde38b"}}}}}